:020000040800F2
:200000000010002009AD000805AD000805AD000805AD000805AD000805AD000805AD000896
:2000200005AD000805AD000805AD000805AD000805AD000805AD000805AD000805AD0008F0
:2000400005AD000805AD000805AD000805AD000805AD000805AD000805AD000805AD0008D0
:2000600005AD000805AD000805AD000805AD000805AD000805AD000805AD000805AD0008B0
:2000800005AD000805AD000805AD000805AD000805AD00081512000805AD000805AD00081B
:2000A00005AD000819420008F541000805AD000805AD0008F5330108113E0108A7520108E6
:2000C000A3520108DD350108B3520108AB520108E93D0108AF520108513E0108B53E010826
:2000E00005AD000805AD000805AD000805AD00084998000805AD000805AD000805AD000801
:2001000005AD000805AD000805AD000805AD000805AD000805AD000805AD000805AD00080F
:2001200005AD000805AD000805AD000805AD000805AD000805AD000805AD000805AD0008EF
:2001400005AD000805AD000805AD0008B1AA00089123010805AD0008C74F0108CD4F010853
:2001600005AD000805AD000805AD000805AD000830B501380B4685B004286FD8DFE800F0C9
:200180000A521B24030031F0010056D1364A117005B030BDA1F10B020F2A4ED83349344CDB
:2001A0000022086899B223600DF052FD002818BF032005B030BD2D490022086899B214F078
:2001C00012FD002005B030BD31F0070235D101F00201DA43002914BF01200020254C264DEC
:2001E000C3F38003237002F0010385F82930287126D01E4C2149206814F0C0FC95F82910F6
:20020000206814F0FCFC20684FF0FF3214A5D5E900454FF0FF33CDE9004514F0C7FB002054
:2002200005B030BD1148164B89B200220068198014F0D3FC002005B030BD022005B030BDAB
:20024000104B0A4C9B8903A92068ADF80C3014F095FB206803A914F0A7FBCBE7012097E7F5
:20026000CA0D015502020000D2170020801F00206C140020E53D0020901400209414002017
:20028000C0170020C854010870B50024404B84B083F8204383F8214383F8224383F82543BA
:2002A00083F8244383F81F4383F81E4383F8234383F8274383F8474309F08AFF04F0C6FD9F
:2002C00009F0A0FF09F0B2FF09F0BEFF214631480DF074FC304D286010B10EF003F910B158
:2002E000002004B070BD2D49286814F057FC0028F6D12B4928680DF057FF0028F0D1072248
:200300002868114614F08BFC0028E9D10146286814F0EAFB0028E3D19FED1B7B4FF0FF325B
:200320004FF0FF338DED007B286814F03FFB04460028D5D103F092F94AF6CD330E46194AFC
:2003400019461380029022462868039614F045FCC6F30741360E224646EA0121286814F0B0
:2003600042FC224602A9286814F043FC802322460D49286814F016FC8028B1D121460B486E
:2003800005F0BAF8ACE700BFCA0D01550202000000E100E080140020801F0020741F00204C
:2003A00090140020C0170020042000207014002010B5054C237833B9044B13B1044800E0BE
:2003C00000BF0123237010BD101A00200000000088D4010808B5034B1BB10349034800E0DD
:2003E00000BF08BD00000000141A002088D40108A3F5803A704700BF174B002B08BF134B4C
:200400009D46FFF7F5FF00218B460F461348144A121A14F0EBF80E4B002B00D098470D4B71
:20042000002B00D098470020002104000D000D48002802D00C4814F0EDF913F091FF200050
:20044000290000F055F813F07BFF00BF00000800000000000000000000100020EC1700209F
:200460002C3E0020154801082148010810B50446006830B1002105F03FF854F8040F0028EE
:20048000F8D110BD08B5064A13680133136003F01DFB00B908BDBDE8084003F0FDBA00BFB8
:2004A0004C1A002030B583B009F0C4FF0AF00AF9012500230146054CCDE90035044AC909F9
:2004C000044823600AF022F803B030BD4C1A0020850400082C1A0020014B1868704700BFDA
:2004E0004C1A0020014B1868C00970474C1A00202DE9F04104F0DAFEFFF7D4FF05F02EF8AD
:200500000021694804F0F8FF00F0EEFB0DF01EFB0AF078FB04F00CFF05F0E0F8634B644F95
:200520001B68DFF8E4819847624D7B689847D8F804309847AA79EB795F4E604C03EB0223D6
:2005400033802368022B00F3A5805D495D4804F00BFF0A2005F0B2F82368022B37DC5A4B96
:2005600029686A6819605A600021584804F0C4FF4FF0FF300BF07AFF23680546022B11DC9B
:2005800004F0E4FE5248FFF771FF0DF005FB04F0EBFF0446E4B20DF005FB002CF7D104F0E5
:2005A000D7FEF4E74B4A4C494C4804F0DDFE4C4804F0DAFE2368022BE2DD284603F0E8FFDF
:2005C0002368022BDCDD0A2005F078F8D8E7414A4149424804F0C8FE424B4348196804F076
:2005E000C3FE2368022BBADD3A4A3B493B4804F0BBFED8F800103D4804F0B6FE2368022BEE
:20060000ADDD344A3449354804F0AEFE3968384804F0AAFE2368022BA1DD2E4A2E492F48DF
:2006200004F0A2FE4AF6CD31324804F09DFE2368022B94DD274A2849284804F095FE1A21A2
:200640002D4804F091FE2368022B88DD214A2249224804F089FE3188284804F085FE23689F
:20066000022B7FF77CAF1B4A1B491C4804F07CFE234804F079FE2368022B7FF770AF0D4899
:2006800003F096FF2368022B7FF769AF0A2005F015F864E70F4A1049104804F065FE194853
:2006A00005F00EF851E700BFBC140020D8540108F853010800230020B23D0020DC1400206D
:2006C0002C530108345301085C3B00201C170020A8540108F85201080053010808530108E0
:2006E000CC5301080458010840530108505301085C5301086853010884530108A4530108C9
:20070000B4530108185301087C5801082DE9F0430D4614468B6883B00646D3E90078506B21
:2007200092F82C9003F010FF686805F015F8A9681D4804F001F829461C4803F0FDFF636BAC
:200740001B681BB30023A38505F034F80146184B184D1B6804F10C0000932346A5FB015458
:200760000D1B04EB5504A408C4EBC404124A091B00F0C8FA3FB14A46314640463B4603B003
:20078000BDE8F043184703B0BDE8F08304F10C0000F000FB2146094803F0D6FE2146084835
:2007A00003F0CAFFE6E700BF2814002040140020B425002025499224C5070008B81A00203E
:2007C0003414002010B32DE9F047436B04461D6886B0C5B1686804F0D5FF0C207E4904F0F9
:2007E00097FC0121072004F087FC00F0B9F900280DDAAB683BB105202246294606B0BDE89F
:20080000F047FFF783BF06B0BDE8F087704704F015FC724F90F802807B68039304F00EFC99
:20082000064604F015FC039B01463046984704F07FFCBB6906460393984700282DD1002E85
:2008400066D1D7F81C90C84738BBBB681E4604F0FFFBB047002872D002281ED0AB68002BB8
:20086000D1D00420C8E707F057FA6FF014031E1A03E007F051FAC64202D5C8470028F8D00B
:20088000C847002877D003213B6905A89847032803D19DF81630434540D0AA68002AB2D056
:2008A00094F82D104B1CDBB2052B84F82D301FD8127A94F82C00904226D2012B88BF1F26B5
:2008C00040F2828004F076FF0146454B04F10C001B68444A00932346B1FBF6F404FB1611DA
:2008E00000F010FA686806B0BDE8F04704F02EBF002194F82C3084F82D100133DBB284F8BC
:200900002C30127A9A4218D822462946012075E7BE6804F09DFBB04700289DD1AB68002B52
:200920003FF471AF002094F82C3022460133294684F82C3084F82D0060E70726C2E707F0BC
:20094000EBF96FF00C0AAAEB000A04E007F0E4F91AEB000F02D5C8470028F7D0039B984781
:20096000002880D1C84700287FF47DAF7B69984700283FF478AFA96800293FF444AF002261
:2009800094F82C3084F82D200133DBB284F82C300A7A9A4203D82246294602202EE704F0D0
:2009A00009FF01460E4B104E1B6804F10C0000932346A6FB01640E1B04EB5604A408C4EBDE
:2009C000C404084A091B8BE701260B1DDBB206FA03F35E1E76E700BF00230020D854010885
:2009E000B4250020C5070008254992242DE9F041064682B00D200F4604F092FB054603F000
:200A000009FE01210B2004F077FB464B1C6814B916E02468A4B12946201D03F041FD00285E
:200A2000F7D0606B03F0AAFD07281EDD002E59D0012206213846334602B0BDE8F0411847E1
:200A4000394803F05DFE04460028EFD02946201D03F020FD002304F13002214631486263EB
:200A6000A385236303F024FDDBE7304803F048FE0546002841D02E4803F042FEA8600028E4
:200A800037D004F03FFE686078B30520D5F8088004F038FB10F0FF0008BF0823C8E9006781
:200AA0000CBF88F8083088F808002946606B03F0FFFC636B1B689D4214D194F82D30012BD9
:200AC00029D91F2504F076FE0146234604F10C00B1FBF5F4174A04FB151112680092164A30
:200AE00000F010F902B0BDE8F081A968104803F023FE29460D4803F01FFE606B03F03EFDEB
:200B0000002893D12146074803F01EFD2146064803F012FE8AE701250333DBB29D40013D58
:200B2000D0E700BFB81A0020341400204014002028140020B4250020C507000808B505483E
:200B400003F0CCFD044803F0C9FDBDE80840034803F0C4BD401400202814002034140020F0
:200B600010B501210B2004F0C7FABDE81040014B5B68184784560108014B9B68184700BFFB
:200B800084560108014B1B6A184700BFD8540108014B5B6A184700BFD854010810B50D4BCD
:200BA00082B01B6898470C4B04469B6A192001A9984701280BD0002CB8BF1524019B802B12
:200BC000D4BFC4EB0300C4F1800002B010BD002002B010BD84560108D8540108FFF706BFAA
:200BE00000B583B004F02EFA032802D103B05DF804FBFFF7C1FF0028F8DB0D2004F090FA90
:200C00000E4903F04DFCA0B10C2004F089FA0B4903F046FC0028E9D103F006FD0028E5D10E
:200C200003F028FD064B9B68019303B05DF804EB184704F07DFA0028E6D1D7E70023002013
:200C40007C58010810B5074C82B01920A36A01A9984728B903F0D6FCFFF770FF236A984727
:200C600002B010BDD8540108F8B5038805462BB14A2B14D1882916D00120F8BD174B1C68B4
:200C800034B1A168201D02F00DFF2468002CF8D10122134B1A704A232B800120F8BD00238E
:200CA0002B800320F8BD0D4B1C68002CF3D0231D9A4205D02468231D002CECD09A42F9D19B
:200CC000084E2146054803F03FFCD4E90523376832600BB1E06998473760DCE7981B0020B5
:200CE000E23D0020B42500200021034A034B04481170196004F000BCE23D0020981B0020F8
:200D00004C14002070B50E4C049E2578C0E905620446C36135B981602146BDE8704009483B
:200D200003F0C6BB084D094B2E6804302B6002F0B9FE2E602146BDE87040024803F0B8BB9E
:200D4000E23D0020981B0020B42500204C14002070B50C4B04461B782BB92146BDE870400F
:200D6000094803F0A5BB094D094B2E6804302B6002F0A2FE21462E600348BDE8704003F0B6
:200D800097BB00BFE23D0020981B0020B42500204C14002010B50A4B04461B783BB9C0E923
:200DA00003332146BDE81040064803F0CDBB043002F094FE2146BDE81040024803F0C4BB08
:200DC000E23D0020981B0020094B1A7842B9094B01E0984209D01B68002BFAD101207047E7
:200DE0000069B0FA80F0400970470020704700BFE23D0020981B002010B50C460AF0E4FED5
:200E0000204610BD00B583B00190012101A80AF0DBFE019803B05DF804FB00BF03280FD817
:200E2000DFE800F00B080502064BD87A7047054B987A7047034B587A7047024B187A704701
:200E4000002070479C1B0020014B9878704700BF9C1B0020C9032DE9F84F01F5F4211D4C9E
:200E600001F59071A4FB0131890C4C1C054606F053FF824606F050FF4FF030094FF014083A
:200E80000646DFF85CB0144F05E006F045FFA319C01A00280BDA9BF800209BF8011019FB93
:200EA0000282D359CB4003F00103AB42EDD006F033FFA0EB0A00844208D3084B03FB00F037
:200EC00000F5804040F3C730BDE8F88F4FF0FF30FAE700BF83DE1B4330C0035040420F0066
:200EE0009C1B002070B580280C468AB010D008DD812810D0A0F18200B0FA80F040090AB044
:200F000070BD68B1012868D14F4B59700AB070BD00224D4B5A60012C07D001200AB070BD5F
:200F20000120494B19700AB070BDFFF7DBFA464D6B68984251D000230422697868602878CE
:200F400002F0D8F92B786978404A03EB43031B0104FA01F11A44116006F0DEFEA4F24F24D6
:200F6000241A06F0D9FEE042FBD401262878697800EB4003364A1B011A4406FA01F400238D
:200F80001460324602F0B6F928213046FFF762FF01301ED050210020FFF75CFF013018D094
:200FA00050213046FFF756FF013012D06C460AAE09E062210120FFF74DFF04F8010B01307A
:200FC00007D0A6420BD032210020FFF743FF0130EFD101230120AB7091E700208FE700234A
:200FE0001C4AAB601846137119461A460DF1FF3401E06B18187A14F901CF4300BCF13A0FA2
:2010000043F0010305EB010CDDBF6B18400018728CF8083002F00703072B02F1010008BF0E
:201020000131C2B208BFC9B2282AE2D12B7A687AAA7AE97A034413440B442A7BDBB29342C1
:2010400014BF02230023C5E79C1B002040E0035040D00350A41B002070B505880446422DD2
:2010600082B007D0612D20D05DB100230320238002B070BD2D48C368002B33D0012002B072
:2010800070BD2B4B02219E682846B04707210120B04729468020B0478021244802F002FDDB
:2010A00042230120238002B070BD2048C368002BE4D102F001FD1E4D0121AB6881209847A5
:2010C000FFF70AFA01461B4804F04EF90020EB689847012826D0022820D040B16123012010
:2010E0002380C5E74FF4207102F0DCFCE3E76D68A847014601200191A847019902460E4854
:2011000004F032F90220A847014603200191A84701990246094804F027F9DFE7084804F063
:20112000CFFADBE7074804F0CBFAD7E7AC1B00202C5401083C5401084454010858540108FF
:20114000705401088454010838B5114B1B7883B10546D8B101F056FE0E4900230A46147B5F
:20116000103244B10133082BF9D101F051FE0A4838BD0A4838BD1A012B608C50012201EBA8
:2011800003131A7301F044FE204638BD044838BDE33D0020BC1B0020048000F0028000F0C0
:2011A000018000F0002310B5164A82B0126801928DF8043001F026FE134B1C78E4B90122B7
:2011C0001A7001F025FE0422104B0DEB02001C731C7783F82C4083F83C4083F84C4083F874
:2011E0005C4083F86C4083F87C408DF8072002F04BF9204602B010BD01F00AFE044802B037
:2012000010BD00BFB0540108E33D0020BC1B0020038000F02DE9F047214B1F6D5A6D174028
:201220002BD4012500261F4CDFF87C80DFF87C902F420CD0C8F85050236843B1D4E9012137
:2012400001313046A1609847637B012B08D00136082E4FEA450504F11004E9D1BDE8F08755
:2012600009EB46130028F2D1197B1A7F60F3410160F3410219731A77E9E74FF000400A491F
:20128000084A0865D868C0F304200301D35802EB0012002BE2D0BDE8F04700215268184757
:2012A00000000450BC1B0020002004503C1C00208C21054A054B126801FB0233187A003836
:2012C00018BF0120704700BF3C1D0020441D00208C210A4A0A48136801FB0300037A53B158
:2012E00013680133594201F0030103F0030358BF4B42136070471846704700BF3C1D00209B
:20130000441D00208C210A4A0A48136801FB0300037A53B913680133594201F0030103F0C4
:20132000030358BF4B42136070470020704700BF401D0020441D002000230372704700BF37
:2013400001207047014B1878704700BFE43D00202DE9F041264F8CB00221386801AA13F0B9
:2013600025FC70B1002304250446014606AA38688DF825308DF81E50ADF81C3013F01AFC27
:2013800010B10CB0BDE8F081BDF80660039ABDF80830013E0132013BB6B20392ADF808308D
:2013A000ADF80660FFF7AEFF0546D0B1BDF80880067200F1090303994246184613F024F860
:2013C000049931B1BDF806204044A2EB080213F01BF89DF92630069AAB809DF827302A6055
:2013E000EB802146386813F0E9FB0CB0BDE8F081801F002008B5FFF7ABFFBDE80840FFF7C3
:2014000057BF00BF2DE9F0410646FFF7A1FFFFF75FFF0446002839D090F8088006F07CFC81
:20142000054613F0D6FB13F0D4FB2146034651F809CB3046A3EB0C03DB03164E03F5F4238A
:2014400003F5907386FB03C6DB17134FC3EBA643EB1A42463B6012F0D7FF104BB4F9041040
:201460000F4A19800F4BE0881B7810802BB12046FFF762FF4046BDE8F081042089B203F00E
:201480003BFE0320E18803F037FEF0E780464046BDE8F08183DE1B43781F0020B03D0020A3
:2014A000AE3D0020E53D002010B50388044663B140F2CA2293420DD1822901D0012010BDF6
:2014C000FFF746FFFFF7F4FE40B940F2CA232380012010BD00232380032010BD03F0CAFCD1
:2014E00003F09CFD8021FFF78DFF0028EDDD80B203F08EFD034BDB689847034804F0D0F824
:20150000E3E700BFF85301087014002000295FD0013810B50C4618280ED8DFE800F013189A
:201520000D1D330D0D413B0D510D0D0D0D0D0D0D0D0D0D0D0D0D0F00012010BD80230B60A6
:20154000002010BD244B00201B680B6010BD234B00201B880B6010BD0023214A0B6092F868
:20156000293083F001030B60127912B143F002030B601C4B1B784BB32368002043F0040362
:20158000236010BD0020184B08601B78F3B101230B6010BD154B0020B3F900300B6010BDE9
:2015A000134B0121186813F0A1F910F5007F11D00028B8BF033040F38F032360002010BD22
:2015C0000C4B0020B3F900300B6010BD002010BD02207047032010BD6C140020C017002033
:2015E00090140020E53D0020D2170020B03D0020801F0020AE3D002008B5054B0121186856
:2016000013F074F910F5AA7FCCBF0020012008BD801F002070B5254A86B003AB064607CA47
:2016200083E807000121224A224C12782170B2B10020214A2149126809880090204800685E
:201640000CF0F8FAB0B91F4B1B78C3B92378012BFCD0002318462278237006B070BD164838
:201660001346164902681648098800680CF0D4FA0028E8D000230120237006B070BD06F097
:201680004BFB114B114A3605334482FB0312DB17C3EBA2431D1804E006F03EFB401B0028B9
:2016A000D7DA2378012BF7D0D3E700BFC8540108D2170020E63D0020842000206C1400209D
:2016C000801F0020E53D002020A11D0183DE1B4370B501230C4605460F4E82B01A4604F1A1
:2016E000020C0DF1070130688DF807C013F058FA002322462946306813F052FA074B1B78D7
:201700003BB92B78C3F340130020054A136002B070BD0023F8E700BF801F0020E53D0020A6
:201720008420002010B50C46FFF7D2FF00B110BD2046BDE81040FFF76DBF00BF12F0A84F54
:2017400070B5144606461D4602D00522194B1A70A30702D50322174B1A70174B00221C4200
:2017600003D0164B20071A7019D4E10102D50222104B1A70AA0702D504220E4B1A7014F040
:20178000C00F02D001220D4B1A70AB0500D470BD00223046BDE87040114613F04DB930462F
:2017A00013F00AFA064B1B78002BDED1054803F077FFDAE7E63D0020080D0100E43D002053
:2017C000E53D0020701400200D2801D001207047042A05D121B1034B00201B680B6070475C
:2017E00002207047781F0020012070470C2801D001207047082A0AD108B531B1054B002286
:20180000186813F0F6F9002008BD022008BD0220704700BF801F0020802300B583B00A4955
:201820000DF10602ADF8063013F0BEF9BDF80630802B05D1022808BF002003B05DF804FB89
:20184000012003B05DF804FB841F002030B44FF48035114A114B956641F67135104C1A6F4D
:20186000E369C2F30332E56302FB000003F48032636823F4401349B10A49884209D80849C6
:201880004B600AB10023CB6330BC704706498842F5D943F48013F2E70090005000800050B4
:2018A00000000350002D3101005A620238B51B4B0546D3F820310C4603F00703062B29D87D
:2018C000DFE803F0040A0F14191E2300012205B12B6004B1226038BD09F044FF0522034687
:2018E000F5E709F08BFF03220346F0E709F09EFF02220346EBE709F09DFF07220346E6E79B
:2019000009F030FF06220346E1E709F077FF04220346DCE700221346D9E700BF00800050FB
:2019200038B5174B0546D3F828310C4603F00703013B052B20D8DFE803F00B0F13171B031A
:2019400009F05CFF042305B1286004B1236038BD09F008FF0523F6E709F050FF0323F2E755
:2019600009F064FF0223EEE709F064FF0723EAE709F0F8FE0623E6E700231846E3E700BFCB
:2019800000800050002370B5124A82B00193D2F88041064604F00304022C0D460BD0032CB0
:2019A00013D0012C0BD01C460EB1019B336005B12C6002B070BD09F039FF0190F4E71946CF
:2019C00001A8FFF773FF1024EEE709F033FF07240190E9E700800050002230B5174B83B0CA
:2019E0000192D3F82032054603F007030C46042B21D8DFE803F00310161B0B0001230DB18A
:201A0000019A2A6004B1236003B030BD09F05EFF09230190F3E7002101A8FFF781FF122367
:201A2000EDE709F007FF07230190E8E709F046FF0A230190E3E70023E1E700BF0080005009
:201A400038B5154B0546D3F800320C4603F00703042B1ED8DFE803F0030E1318090001225B
:201A600005B12B6004B1226038BD09F09DFE0F22830AF5E709F022FF0A220346F0E709F06C
:201A800025FF09220346EBE709F01CFF0C220346E6E700221346E3E70080005038B5154B22
:201AA0000546D3F808320C4603F00703042B1ED8DFE803F0030E13180900012205B12B60FF
:201AC00004B1226038BD09F06FFE0F22830AF5E709F0F4FE0A220346F0E709F0F7FE09228A
:201AE0000346EBE709F0EEFE0C220346E6E700221346E3E70080005070B54FF4803609F076
:201B000079FE41F671340D4D0D4AAE66126F0D4BC2F3033202FB0000DA69DC630A495B6855
:201B2000884223F44013074988BF43F4801332404B600AB10023CB6370BD00BF009000501B
:201B40000080005000000350005A6202002230B51F4B83B00192D3F86032054603F00703C8
:201B6000013B0C46032B31D8DFE803F012180D0209F060FE072301900DB1019A2A6004B103
:201B8000236003B030BD09F051FE02230190F3E7002101A8FFF78AFE1023EDE70C4BD3F8D9
:201BA000403103F00303022B0DD0032B05D0012B06D0002011230190DEE709F083FEF9E7A8
:201BC00009F07CFEF6E709F081FEF3E70023D3E700800050002230B51F4B83B00192D3F8B4
:201BE0009432054603F00703013B0C46032B31D8DFE803F012180D0209F01CFE0723019051
:201C00000DB1019A2A6004B1236003B030BD09F00DFE02230190F3E7002101A8FFF746FE71
:201C20001023EDE70C4BD3F8403103F00303022B0DD0032B05D0012B06D00020112301901D
:201C4000DEE709F03FFEF9E709F038FEF6E709F03DFEF3E70023D3E700800050430904D0C2
:201C6000012B13D0022B13D0002300F01F0031B1012203F5805302FA00F018607047012205
:201C800003F5005302FA00F018607047014BECE7014BEAE76480005068800050002300B55E
:201CA000B0F5807F83B0019300F21681B0F5807F00F20E81DFE810F087010C010C010C0195
:201CC0000C010C010C010C010C010C010C010C010C010C010C010C010C010C010C010C0134
:201CE0000C010C010C010C010C010C010C010C010C010C010C010C0187018A0187018A0122
:201D0000490149014901490149018A0132017901A301CF0179018A018A018A010C010C0170
:201D20000C010C010C010C010C010C018A018A018A01C70163018A010C010C010C010C01C9
:201D40000C010C010C010C010C010C010C010C010C014901870187018701400179017901F7
:201D6000AB0104019D01D5010C010C010C010C010C0121010C010C010C010C010C010C018D
:201D80000C010C010C010C010C010C010C010C010C010C010C010C010C010C010C010C0173
:201DA0000C010C010C010C010C010C010C010C010C010C010C010C01C4010C010C010C019B
:201DC0000C010C010C010C010C010C010C010C010C010C010C010C010C010C010C010C0133
:201DE0000C010C010C010C010C010C010C010C010C010C010C010C010C010C010C010C0113
:201E00000C010C010C010C010C010C010C010C010C010C010C010C010C010C010C010C01F2
:201E20000C010C010C010C010C010C010C010C010C010C010C010C010C010C010C010C01D2
:201E40000C010C010C010C010C010C010C010C010C010C010C010C010C010C010C010C01B2
:201E60000C010C010C010C010C010C010C010C010C010C010C010C010C010C010C010C0192
:201E80000C010C010C010C010C010C010C010C010C010C010C010C010C010C010C010C0172
:201EA0000C010C010C010C010C010C010C010C010C010C010C010C01B101B0F5286F07D1C0
:201EC0007B4AD2F8703203F00303012B00F08880002003B05DF804FBB0F5C06F00F08F80BA
:201EE00011D9B0F5206F00F092801DD9B0F5406F00F0B780B0F5486FDFD101A80021FFF785
:201F000069FE0198E5E7B0F5607F00F0B08022D9B0F5A06F6DD0B0F5B06F13D101A80021F3
:201F2000FFF730FD0198D4E7B0F5F06F00F08B801FD9B0F5106FCBD101A80021FFF7AEFD08
:201F40000198C6E7B0F5806FC2D101A80021FFF7ADFC0198BDE7B0F5007F1FD109F008FC5D
:201F6000534BD3F89030C3F304630133B0FBF3F0AFE7B0F5D06F6ED0B0F5E06FA8D14C4B9D
:201F8000D3F8403203F00303022B2FD0032B00F08380012B9CD109F091FC9AE710D9B0F590
:201FA000207F13D0B0F5407F92D109F0FDFB404B1B6FC3F380230133B0FBF3F0400888E700
:201FC000B0F5C07F84D109F0EFFB82E709F0ECFB374B1B6FC3F380230133B0FBF3F078E716
:201FE000D2F8403103F00303022BCFD109F06EFC6FE701A80021FFF7EFFC019869E72C4B1C
:20200000D3F8403103F00303022BBFD1EEE701A80021FFF79BFD01985BE74FF0E023186903
:2020200010F00400CFD1224BD3F8403103F00303022BDBD0032B2FD0012B7FF44AAFAAE72C
:2020400009F096FB45E71A4BD3F8603103F00303022B9BD1CAE701A80021FFF7F1FC019880
:2020600037E701A80021FFF75BFC019831E7104AD2F8802002F00302022A16D0032A11D09F
:20208000012A0CD018460A4BD3F88030C3F301130133B0FBF3F01CE709F014FC19E709F07A
:2020A00067FBF0E709F05EFBEDE709F0C3FBEAE700800050002300B5B0F5807F83B0019326
:2020C00000F09F816BD9B0F5F06F00F0858147D9B0F5206F00F061811ED9B0F5406F00F051
:2020E0006281B0F5486F07D1002001A9FFF772FD019803B05DF804FBB0F5286F23D1CF4AB1
:20210000D2F8703203F00303012B00F08381022B14BF00201520ECE7B0F5086F17D1C74BFC
:20212000D3F8003103F00303022B00F00781032B00F07C81012B00F07D81012003B05DF8A7
:2021400004FB80F01381002003B05DF804FBB0F5106FF8D1002001A9FFF7A0FC0198C8E7C4
:20216000B0F5B06F00F0418140F2EC80B0F5D06F00F04181B0F5E06F40F0D480AF4BD3F878
:20218000403203F00303022B00F0D880032B00F00081012BD1D109F091FB0A20A9E7243857
:2021A0005C28D0D85C28CED801A353F820F000BF8723000887230008872300088723000843
:2021C0008723000847210008EB230008472100082D230008F72300084721000847210008FD
:2021E00047210008472100084721000847210008472100084721000847210008472100085F
:202200004721000847210008472100084721000847210008D92300087D2100084721000874
:2022200047210008472100084721000847210008472100084721000847210008472100081E
:202240004721000847210008472100084721000847210008872300084721000847210008BC
:20226000472100085521000847210008472100089B230008FF2000087B230008A72300082B
:202280004721000847210008472100084721000847210008E920000847210008472100081D
:2022A00047210008472100084721000847210008472100084721000847210008472100089E
:2022C00047210008472100084721000847210008472100084721000847210008472100087E
:2022E00047210008472100084721000847210008472100084721000847210008472100085E
:2023000047210008472100084721000847210008472100084721000847210008472100083D
:20232000B3230008B0F5C06F7FF40DAF434BD3F8403103F00303022B7FF428AF09F0C6FAC9
:202340000920D6E6B0F5607F7FF4FBAE3B4BD3F8803003F00303022B78D0032B70D0012BEF
:202360007FF4F1AE09F004FA0E20C2E6B0F5806F09D0B0F5A06F7FF4E6AE002001A9FFF796
:202380002BFB0198B5E6002001A9FFF78FFA0198AFE609F097FA0C20ABE6002001A9FFF765
:2023A000D5FB0198A5E6002001A9FFF7B9FA01989FE6224B186F00F00700431E032B3FF6E9
:2023C000C2AE01A252F823F05524000849240008F320000831240008184BD3F8603103F06D
:2023E0000303022B7FF4D2AEA8E7002001A9FFF7C9FA01987DE6002001A9FFF721FB019834
:2024000077E64FF0E0231B695B078FD509F0CCF90D206EE6D2F8403103F00303022B23D040
:20242000032B1DD0012B17D0112062E609F0FCF908205EE609F0E2F903205AE60080005094
:2024400009F090F9062054E6052052E609F0F2F907204EE602204CE609F030FA112048E628
:2024600009F030FA112044E609F030FA112040E608B50121022000F075FD09F0BBF9002133
:20248000FFF7E4F94FF48030044B1A6F03F5805142F480621A67086708BD00BF0080005079
:2024A00010B509F081F9184BD3F8844014F01004FAD1D3F88430C3F38113C3F10203002B62
:2024C000CCBF01212146FFF7C1F90121002000F0A1FD4FF4C070FFF7E1FB84460B4A0C4BAD
:2024E000944588BF4FF48064196F802021F4806121431967FFF7D2FB064B984203D84FF487
:202500008032054B1A6710BD0040005080F0FA0200800050005A620200A000504FF480101E
:202520004FF480320249034B48669A62704700BF009000500050005A70B504468020FFF75E
:20254000B9FD03286BD04FF4801545F60E034FF0A0604FF48031544A5566544AC2F88030A7
:20256000534B986203F580539962936DD903FCD44E4A936D13F08043FBD1D4E9000109055B
:2025800041EA0061E07B0143207B41EA0041607B41EA0031A07B41EA8011116161699069C6
:2025A0002569090600F0004041EA85610143A07E3E4D0143207E41EA0041607E41EA0021D8
:2025C0009161E169126A00290CBF0020082022F00F020A43E17E42EA810202432A62E2696D
:2025E000F2B1022A53D094F8223094F820202F491B06886A43EA42132E4A024094F82400C8
:20260000134394F8232043EAC00343EA02438B6294F825301BB1254B274AC3F8802070BD30
:2026200094F8243094F82020DB00A96A43EA4213204A0A4094F82110134343EA011343F43F
:2026400080331E4AAB62AB6D32EA0303FBD14FF080714FF00040164A91622B69A66823F491
:20266000700343EA06532B61906194F822300BB9134B996294F82330002BC9D14FF4803151
:202680000F4B0A4A9962936D5B00FCD4C0E72B61AB6100F0AFFB6B6B23F47F4343F408534C
:2026A0006B6300F0ABFB9EE7009000500040005A0050005AC7FFFEFEF1A7FFFF03000100B1
:2026C0000060005A014B93F900007047D31700204378F0B54F2B4FF4000E4FF4D1574FF0D2
:2026E000020628BF4F231849DFF868C0174A0125CCF864E057624E601946154C6560136922
:20270000DB03FCD4037841EA0323536183684468417B1B0143EA04230B43017B43EA41038D
:202720009360C37B90F80EC0417C1B0143EA4C130B43017C43EA41035360837C13B16FF498
:20274000D1535362F0BD00BF00100250000002500020025000900050014B1880704700BFD4
:20276000C4170020014B1880704700BFC2170020002920DD70B44FF48036034641F67135A2
:202780000E480F498666086F0E4AC0F3033000FB0333D169D56352680B4C22F44012A342E9
:2027A000084B88BF42F4801231405A6009B10022DA6370BC70470021FFF748B80090005099
:2027C0000080005000000350002D3101B0F5807F70B50C4600F01A8268D9B0F5F06F00F09B
:2027E000AB8144D9B0F5206F00F0EE812AD9B0F5406F00F0FA81B0F5486F10D1023C0F2C85
:202800008CBF0021D54BD64A98BF53F82410D2F8943223F007030B43C2F8943270BDB0F5E9
:20282000286FFBD1112C00F02D82152C14BF00210221CB4AD2F8703223F003030B43C2F85F
:20284000703270BDB0F5086F40F0F280CC1E062C8CBF0021C34BC24A98BF53F82410D2F8A9
:20286000003123F003030B43C2F8003170BDB0F5B06F00F0878140F20581B0F5D06F00F060
:202880009281B0F5E06F40F0E880093C032C8CBF0021B54BB24A98BF53F82410D2F84032AB
:2028A00023F003030B43C2F8403270BD24385C28B4D85C28B2D801A353F820F0FD2A0008B0
:2028C000FD2A0008FD2A0008FD2A0008FD2A00081D280008852B00081D280008632A000855
:2028E000A72B00081D2800081D2800081D2800081D2800081D2800081D2800081D280008E3
:202900001D2800081D2800081D2800081D2800081D2800081D2800081D2800081D2800084F
:20292000392B00088B2800081D2800081D2800081D2800081D2800081D2800081D280008A2
:202940001D2800081D2800081D2800081D2800081D2800081D2800081D2800081D2800080F
:20296000FD2A00081D2800081D2800081D280008392A00081D2800081D280008C92B000840
:2029800025280008DB2A0008EB2B00081D2800081D2800081D2800081D2800081D28000836
:2029A000FD2700081D2800081D2800081D2800081D2800081D2800081D2800081D280008D0
:2029C0001D2800081D2800081D2800081D2800081D2800081D2800081D2800081D2800088F
:2029E0001D2800081D2800081D2800081D2800081D2800081D2800081D2800081D2800086F
:202A00001D2800081D2800081D2800081D2800081D2800081D2800081D2800081D2800084E
:202A20001D2800081D2800081D2800081F2B0008B0F5106F7FF4F2AE093C062C8CBF002143
:202A40004A4B474A98BF53F82410D2F8083223F007030B43C2F8083270BDB0F5C06F7FF4A3
:202A6000DDAE093C032C8CBF0021414B3C4A98BF53F82410D2F8403123F003030B43C2F8A7
:202A8000403170BDB0F5607F1ED13A4BD3F8FC20D20140F1EB80D3F8FC208C1F22F08072B4
:202AA000082CC3F8FC2040F27B812D4AD2F8803023F00303C2F880302E4AD2F8FC3043F0C8
:202AC0008073C2F8FC3070BDFFF4A8AEB0F5806F14D0B0F5A06F7FF4A1AE073C0B2C8CBFF4
:202AE0000021254B1E4A98BF53F82410D2F8203223F007030B43C2F8203270BD023C052CD8
:202B00008CBF00211D4B164A98BF53F82410D2F8203123F007030B43C2F8203170BD8B1E44
:202B2000062B00F2B180DFE813F002010501AF001601AF00AF001301093C032C8CBF002156
:202B40000F4B074A98BF53F82410D2F8603123F003030B43C2F8603170BD00BFC4550108D9
:202B6000008000505455010828550108385501082855010800ED00E0945501081055010804
:202B800028550108023C0E2C8CBF00218A4B8B4A98BF53F82410D2F8803123F003030B4369
:202BA000C2F8803170BD093C062C8CBF0021844B824A98BF53F82410D2F8003223F0070310
:202BC0000B43C2F8003270BD023C0F2C8CBF00217C4B7A4A98BF53F82410D2F8603223F0D9
:202BE00007030B43C2F8603270BD023C052C8CBF0021754B714A98BF53F82410D2F82831B5
:202C000023F007030B43C2F8283170BDA1F10904082C3FF603AE01A353F824F0412C0008D8
:202C2000412C00081D280008412C00085D2D00081D2800081D2800081D280008412C00086F
:202C40004FF48031614B5D48614A406E5966536AC40343F0010353624FF0E0225CBF5D4BA3
:202C60005966136923F00403136170BD8C1F082C40F28A80514AD2F8803023F00303C2F85B
:202C8000803070BD0121D4E5002635460121022000F068F9FEF730FF4FF48031474A136F1B
:202CA00043F480631367494B1967136F23F007032B43136708F078FD474AD2F8845015F044
:202CC0001005FAD1D2F88410C1F38111C1F10201FFF74EFD0121284600F09CF94FF4C070F2
:202CE000FEF7DCFF84463D49344A8C4588BF4FF48065136F802023F480632B431367FEF7FD
:202D0000CDFF374B984203D84FF48032314B1A67002E7FF483AD032C7FF480AD4FF480312A
:202D2000304B314A9962936D5D00FCD470BD00260125ABE74FF480164FF4803223482A49BE
:202D400046668E6A294B25469A62C6F300669DE7002604259AE70026022597E74FF48031C2
:202D60001A4B16481A4A406E5966536AC00323F0010353624FF0E0225CBF164B596613697B
:202D800043F00403136170BD0C4A1949D2F8803051F8241023F003030B43C2F8803070BDAB
:202DA000064A1349D2F8803051F8241023F003030B43C2F880307FE6045601080080005007
:202DC00038550108C4550108105501080090005000C0075000A000500040005080F0FA02EA
:202DE000005A62020060005A0040005A0050005A70550108EFF3108072B6704700B962B627
:202E0000704700BFEFF31180302383F31188704780F31188704700BF0246EFF31083DB078F
:202E200030D42049430951F8233000F01F00C340DB4313F001005FFA82FC00D07047002A81
:202E400022DB0A4492F800231209EFF3118313B1B2EB131F16D214494B68C3F30803002B72
:202E6000ECD0103B58B20028DBB214DB00F1604000F5614090F800030009824234BF00200B
:202E80000120704701207047084B0CF00F0C63441A7E1209D9E703F00F03043B0B44187ED5
:202EA0000009EAE700E100E000ED00E0FCEC00E0054B420953F8223000F01F0023FA00F08E
:202EC000C04300F00100704700E100E0044A4178536F23F4407343EA01235367704700BF72
:202EE00000400050704700BF704700BF10B50A4A0446136943F00403136107F043F8FFF7A1
:202F0000F1FF30BFFFF7F0FF07F076F804B110BDBDE8104008F048BC00ED00E010B5084A31
:202F20000446136943F00403136107F02BF830BF07F062F804B110BDBDE8104008F034BC64
:202F400000ED00E0704700BF704700BF034A0179D36E23F030030B43D3667047004000509C
:202F6000704700BFF8B50546284CD4F88430DE06FBD4D4F88430C3F381139D4226D008F0A5
:202F8000F7FB012D074628D0FFF734FF4FF000721F4B06465A662846FFF7E2FF4FF4806311
:202FA0006A1E93402367636E98010AD4174B04E0D3F884205A6E910103D4D3F884209206F7
:202FC000F6D53046FFF71AFF022D00D0F8BD3846BDE8F8400021FFF7CBBB2946FFF7C8FBCD
:202FE000FFF708FF4FF00072094B06465A662846FFF7B6FF4FF480632367636E9C01D5D5E2
:203000003046BDE8F840FFF7F9BE00BF004000500060005010B50C4680B10A4B21461B781A
:2030200013B1094B984204D9BDE810400220FFF799BF0120BDE81040FFF794BF08F098FB72
:20304000EBE700BF88200020005A620210B50A4C0378237008F08CFB2378012113B1074BDE
:20306000984204D9BDE810400220FFF77BBF0846BDE81040FFF776BF88200020005A62025E
:2030800030B54FF000444AF6CD332949294A4C66546C83B0136404F0010400282ED0136BEA
:2030A00018070BD50023244801E083423ED0116B01330907F9D4204A934237D02025012293
:2030C0001E4B1F481B4985625A608B6A2B400AD1194801E0834229D08A6A01339206F9D552
:2030E000154A934222D0002014B1124B154A1A64019011F06FFC019803B030BD536BD907B7
:20310000FCD45368DB07EED501210D4B5960136B0B40E8D10749084801E0834206D00A6B39
:203120000133D507F9D5044A9342DCD10720DBE7009000500040095040420F000050095045
:20314000006009503254FFFF38B54FF000454AF6CD331649164C4D66656C23644378154A9B
:203160005B0043F0010305F00105D363636B13F00B0FFBD16368827823F4F87343EA02134C
:203180006360C278437943EA0223A3600279837943EA022323610078FFF772FF0DB1064BE6
:2031A000236411F017FC012038BD00BF0090005000400950004000503254FFFF38B54FF0E6
:2031C00000454AF6CD330F2828BF0F200E4A0F49546E02F50C224D66516C136401F00101AC
:2031E000536B1B06FCD4136A23F00F031843106209B1074B1364002C03DB4FF00042054B53
:203200005A6611F0E7FB38BD00800050009000503254FFFF00A0005038B54FF000454AF641
:20322000CD330F4A0F49546E02F50C224D66516C136401F00101536B1B06FCD4136A23F4D9
:20324000F85343EA0020106209B1074B1364002C03DB4FF00042054B5A6611F0BBFB38BD9A
:2032600000800050009000503254FFFF00A00050F1B110B4012400F5805301F00F025C6019
:20328000436DC3F30B03002BFAD18263436D13F0780FFBD101F001024B0748BF42F0020256
:2032A000836C03F003039342FAD15DF8044B70474368D90716D58368DA0702D50369DB07C4
:2032C00008D50A238363436D13F0500FFBD1836C9907FCD1012200F500535A6043689A0753
:2032E000FCD47047704700BF836C5B06FCD54164704700BF2DE9F84304460D4616461F46E6
:203300004AB10122002B4CD1274B04EB440109010B44AA401A60072D4FF0300824D8042316
:2033200018FB0438FFF766FD0F2320494FEA850E58F801C006FA0EF282EA0C0203FA0EF3F5
:20334000134083EA0C0348F80130FFF757FD4EB9012127BB144B04EB44042401234401FABB
:2033600005F51D60BDE8F8830C2318FB0438A5F108034FEA8309FFF73DFD0F230B4906FA1C
:2033800009F258F801C003FA09F382EA0C02134083EA0C0348F80130FFF730FDD7E7044B3E
:2033A000D9E7034BB1E700BF40E0035030C0035040D00350F8B505460E4603F0030783685B
:2033C000144623F440738360FFF714FDAB6883EA072202F440725A40AA60FFF70FFD2EB901
:2033E000B5F1B64F17D0114B9D4219D0104BAA68DA5D04FB02F26AB16FEAC4041444A31930
:20340000B3FBF2F3A968013B8A0702D5012B38BF0123AB61F8BD2E20FEF740FC0646E5E7C5
:203420002F20FEF73BFC0646E0E700BF008006504056010870B50026124A00F50053066471
:20344000DA634A7804460D4600F1080392B903F5805302221A60AA6822B120462B7B69685E
:20346000FFF7A8FF2B7804343BB1012304F58054236070BD03F50053EBE7012304F50054B9
:20348000236070BDFFFF1F00F8B5012104462020FEF7E4FB01212120FEF7E0FB01220020BC
:2034A000FF274FF000464FF0FF354FF400110E4B5A60227812069A6094F801C0A27842EA48
:2034C0000C429A61094A9F62986318645E6503F500531D65C2F88011E3781B01DBB282F87F
:2034E00015331160F8BD00BF0000045000E100E070B501250C46204BC1B28D401D6583003D
:20350000216803F1A04303F5882359601B4E637B00EB400006EB00100366E37AA17A1B057B
:2035200043EA0143217B22F0030243EA4153C3650267FFF767FC736D2B437365237A13B135
:20354000336C2B433364637A1BB10C4A936B2B4393632279A379094943EA0243064A9361A7
:203560006679E379064C43EA0643A36155638D64BDE87040FFF74CBC002004500000045080
:203580000010045010B50124C0B28440FFF73AFC094BDA6A224209D15B6B34EA03030CBFF0
:2035A00001240024FFF734FC204610BD0024FFF72FFC204610BD00BF00000450C2F3062300
:2035C00002F0070241B9134942EA032242F44022063041F820207047122B09D0142B07D01F
:2035E000013B312B0AD90B4B163043F820207047022A0CD0032A00D10122013B0649163088
:20360000CB5C42EA0322034B43F8202070470022F3E700BF00800350445601083AB122F084
:20362000030202F1A04202F5603209B9106070470002FBE74FF48031064A074B51669B6909
:20364000C3F3851103F03F021B0B817042700370704700BF0090005000C00750014B986CF1
:20366000D96C70470080E00F70B5054616461C4611B3402C27D019D8E4B1202C08BF0823C6
:2036800013D103FB06F24FEA520C0CEB4113B3FBF2F3A9680D4A21F06001A960A968203B8C
:2036A0000C4302EAC303AC60EB6170BD602CFCD10423E6E71023E4E74FF42070FEF7EEFA89
:2036C000402C0146D7D10623DBE700BFF8FF7F000122CB43934000F5805C03F00A03CCF8D6
:2036E00004204361416111B900F50050426070472DE9F041002341F205074FF0010840F6D1
:20370000AA6E374A00F58056DFF8E0C0C6F804809042C0F814E08360C365C76000F5005790
:203720000361C361C364C7F848C0836504BF0365436501237B6073608B7C04460D461BB116
:20374000836843F080438360EB7C33B1244B9C423BD0E36D43F08003E3652A8A6B7B2046B4
:203760001343EA891343E3602B7BD5E90112FFF77BFF6B7D1BB1A36843F48033A360AB7D2C
:203780001BB1A36843F40043A360EB7D2A7E1B07120502F4E00203F0E04313430222A3651C
:2037A0006B7E023B012B94BF0E4B0F4BC3F820276B7E03F0FD03012B4FF004030CBFF3653E
:2037C000FB652B786361BDE8F0812A7DA3F51033C3F8C821E36D43F08003E365BDE700BF35
:2037E00000C0055000D0035000E00350FFFF010083695B06FCD5C163704700BF4369002BD0
:203800000FDB51B9436ADA07FCD4012200F500535A6043689B07FCD47047012300F5805074
:20382000436070474368DA0700D4704710B50446FFF7E8FA636ADB075CBF0123E360BDE85A
:203840001040FFF7E5BA00BF43682DE9F043002B5FD14C78CA780B79002C14BF4FF0200885
:203860004FF00008002A4A798C7914BF02270027002B14BF04230023002ACA7991F808C0E6
:2038800014BF08260026002C14BF10250025002A4A7B14BF4FF400740024BCF1000F14BF7C
:2038A0004FF4806E4FF0000E002A14BF4FF4807C4FF0000C0A7B91F80B90120742EA0962AA
:2038C00091F8029042EA090291F80A9042EA094242EA08023A43134333432B43234343EA7C
:2038E0000E0343EA0C0383604369002B0BDB0B78D3B9436ADA07FCD4012200F500535A6049
:2039000043689B07FCD44B7A0BB100230362BDE8F083436A002BFCD1012200F500535A609F
:2039200043689C07FCD494E7012200F580535A60E9E700BF10B5FCF7CFFD0B4B1A68D2E9A3
:20394000003192680B44191A52B1D2E9003423441B1A9268994228BF1946002AF5D14318C6
:20396000024A136010BD00BF902000208C2000202DE9F8430388054653B3592B2BD1872903
:203980002ED082291FD14FF000092B4FDFF8B0803C68C4B1002603E0A36826469BB11C467E
:2039A000204608F003F90028F6D022468821E06801F044FE00282BD0404601F071FEA3681F
:2039C0002646002BEBD159232B800120BDE8F883194A1360F7E700232B800320BDE8F88367
:2039E000154F0020396819B9EDE789680120D9B1CB689342F9D000B139608B68002BE2D075
:203A0000D86890420BBF9B6819468B609B68F5E7A368E0606EB1B3603B68C4F808902BB14E
:203A2000FFF788FF3C68B4E73960CCE7034A1360C9E73B60F1E700BF902000208C20002040
:203A4000BC14002010B50446104801F029FE1049E3680A684BB142B194420FD0134601E003
:203A60009C420BD09B68002BFAD10A4BA2601B680C60E360BDE81040FFF75CBF054B1B6832
:203A8000E360BDE81040FFF755BF00BFBC14002090200020B4250020014801F001BE00BFB4
:203AA000BC14002010B5044608F06AF82046BDE81040FFF7C7BF00BF10B5044608F068F8B0
:203AC0002046BDE81040FFF7BDBF00BF024B1868003818BF012070479020002010B5124BB4
:203AE00004461968814214D00B462BB19A68A24206D01346002BF9D10023C4E9023310BD4B
:203B0000A2689A6049B1FFF715FF0023C4E9023310BD82681A60002AF5D10022034B1A608D
:203B20000023C4E9023310BD902000208C200020014B1888704700BFC617002000283ED082
:203B4000037A30B4022B10D00378022B15D00379B3B10024C37913F0030318BF012301B174
:203B60000C6002B1136030BC7047C579447A037965B90CB9012BF2D0DBB100231C46EEE7E1
:203B8000447A14F0030418BF0124E3E7C4B1032D37D1032C2ED0022C24D143BB022D2DD06F
:203BA0000123032D24D1A4F10204B4FA84F46409D5E7023C012C8CBF00240124CFE7704766
:203BC0004BB9022D08BF0123EAD1A4F10304B4FA84F46409C3E7032D01D0022D02D12346C7
:203BE0001C46BCE7002BC8D1022DDAD1EDE701230024B4E7002BC0D10123D4E701231C464A
:203C0000ADE7022DC7D1002BF1D1022C4FF00103DBD11C46A3E700BF002330B50B608B8016
:203C2000437D0D46DB075CBF01230B70037E0446012B83B023D9694601AA04F11000FFF75A
:203C40007DFF009B0BB10223EB70019B0BB102236B70E37D03F00303022B03D0032B14BF5F
:203C600000230823AB70637E03F00303022B03D0032B14BF002308232B7103B030BDC37D36
:203C800013F0030309D0437E13F0030305D0C38B828B9B1AB3FA83F35B092375CBE700BF03
:203CA00002280CBF012307230B441A781846FF2A03F1FF3303D18142F7D1012070470020DC
:203CC000704700BF00B583B06946FFF7A5FF9DF800309DF801209DF8020002339DF803104E
:203CE000134403449DF804209DF805000B441344184403B05DF804FB4378827890F800C0CD
:203D0000DB00120102F0100203F0080313430CF0070290F803C0134302794FEA4C1C0CF09F
:203D2000200C920143EA0C0302F0400213430B704379827990F809C003F00103520043EA05
:203D40008C1302F0020290F807C01343027A4FEA8C0000F00C001201034302F03002134319
:203D60004B70704770B50D46044682B06946FFF753FF04F110002946FFF7BEFF9DF80030FA
:203D8000012B02BFA37E0320AB709DF8013018BF0220022B06D1A28B431C2A54A28B0230AB
:203DA000120AEA549DF802605EB1731E2344291893F800C0A34201F801CB03F1FF33F7D187
:203DC00030449DF80330022B06D1E28B431C2A54E28B0230120AEA549DF8046056B1F31D50
:203DE00023442918073413F80129A34201F8012BF9D1304402B070BD02784378C2F3C000DA
:203E000002F0070C4870C2F3401081F800C0C870C2F3001C03F00100C2F3801281F802C028
:203E20000A71C3F3400CC3F301124871C3F381009B0981F806C0C8710A724B72704700BF81
:203E4000012943DD2DE9F04186B00F4603A914460546FFF7D1FF0B469DF8112003CB1B88A7
:203E60002061616123836AB3AE1C03A802AA01A9FFF764FE9DF81380B8F1000F43D0029B89
:203E8000002B31D1B8F1020FA38367D0B8F1030F4DD09DF81580B8F1000F2CD0019BBBB918
:203EA000A38BE383B8F1020F4DD0B8F1030F31D0701B3B1A8742C4E90E6300DA002006B064
:203EC000BDE8F081AB78EE1CA376CEE700207047727816F8023B03EB0223029A9BB2E38363
:203EE000002ADFD1A383DDE7727816F8023B03EB02239BB2C6E71E4904F1080000F0CAFAA4
:203F0000A4F81E80D4E72046194900F0C3FAA4F81C80BEE706F10800034604F1080213F808
:203F2000011DB34202F8011BF9D10646C0E706F108000346621E13F8011DB34202F8011F9B
:203F4000F9D10646A5E70A4904F1080000F0A2FA7378237216F8023B6372A9E72046044900
:203F600000F098FA7378237016F8023B637090E79056010830B591B001F050F8044601F023
:203F800061F86A4601462046FFF75AFF00283ED0044601F027F8D0B30B209DF8101001F038
:203FA000ABF807209DF8131001F0A6F89DF817308BB1BDF81C50FFF7BBFD854205D04FF628
:203FC000FF73BDF81C209A4221D169469DF81700FFF766FEB0B10C2002A901F099F89DF8AC
:203FE00015303BB14FF6FF71062001F085F8204611B030BD06209DF81A1001F07DF8204682
:2040000011B030BD69460D2001F082F8E3E74FF0FF34ECE7F8B505460B2014460E46A847DC
:2040200000232074A374002E35D0E37463750820A847002702460123A275237606206774F5
:20404000A847A076FFF774FD03460920E383A84701280CBF3B4603236376FFF769FD034614
:204060000A20A383A84701281AD066B90323E375637E022B0CD0E37DA3F10203B3FA83F34B
:204080005B092375F8BD0223E375637E022BF2D101232375F8BD0720A8476675E074C6E7BE
:2040A000E775E5E730B591B04FF6FF740546FFF73FFDA0423AD040220021684610F096FAD0
:2040C00001F036F86A4601461A48FFF7A3FF01F02FF818B3ADF800400C2001F021F801468B
:2040E00002A800F0D7F900F099FF0E9000F0AAFF034668460F93FFF7E5FD044615B92046A8
:2041000011B030BD00F03CFF80B100F097FF01466846FFF727FE204611B030BD0D2000F0CE
:20412000FFFF0146684600F0B5F9D5E74FF0FF34E5E700BF055100080120FFF7B3BF00BF8F
:204140000020FFF7AFBF00BF08B501213A20FDF785FDBDE8084000F033B800BF0022024B77
:204160001A60FFF7F1BF00BF9420002028B370B504460126114D94FAA4F0B8B1B0FA80F216
:2041800005EB02135B6806FA02F1104624EA01042BB105EB0212117B21B191689847002CB9
:2041A000E9D170BD9847002CE5D1FAE7D5F80432002BE0D020221046EBE77047982000209F
:2041C00008B51920FEF774FE58B91A20FEF770FE00B908BD4FF08062054BC3F880211A600F
:2041E00008BD4FF00072024BC3F880211A60ECE700E100E0074BD3F82404D3F8202403F546
:204200000053104000F0553020F05020C3F82004FFF7ACBF00C00350074BD3F82404D3F8A3
:20422000202403F50053104000F0AA3020F0A020C3F82004FFF79ABF00C0035010B50948AE
:20424000FCF786FD084800F015FC48B1064C037A01465B080372204600F0D8FB0028F6D198
:2042600010BD00BFE0220020CC1400200146014800F02EBCCC14002080B110B50446FCF7F3
:204280002BF92368C01AB0F5963F05D2207A032894BF0020012010BD002010BD002070475A
:2042A00070B50546144689B1022907D006290CD1BDE8704001462A4800F00ABC0146284871
:2042C00000F006FC0646002832D170BD0146244800F0FEFB0646002835D0FCF7FDF8337A9E
:2042E00030602344102BA8BF10233372FCF7F4F83368E401C01AB0F5963FA4B208D2337ABD
:20430000B188042B34BF19230A2329B9B48070BDB18819230029F9D003FB04F4C3F164021F
:2043200001FB02420F4CA4FB02325209B28070BDFCF7D2F8337A30602344102BA8BF10231F
:204340000C343372D2E7334608222946044800F0DBFB06460028B8D047F6FF73C380BCE70A
:20436000CC1400201F85EB5138B50546042000F0C9FE04462946224824B200F0A9FB40B3CA
:2043800047F6FF73B0F906209A422DD05A2504EB8404630012FB05321A4C818884FB023405
:2043A000D217C2EB641424B2C48001B138BD04F15A0212B222EAE2721E2AA8BF1E22124B6D
:2043C000D201A3FB0232120902F5807292B2828038BD034608222946094800F095FB00281E
:2043E000E4D047F6FF73C3808388C480002BDDD147F6FF739C42DAD14FF48072E7E700BFF5
:20440000CC1400201F85EB518988888838B5094800F030FB60B10446064D2146284600F0CF
:20442000FBFB2146284600F0F1FA04460028F4D138BD00BFCC14002000B5002183B0084892
:2044400000F0C0FA074A002312684FF4E13100920548064AFCF756FC03B05DF804FB00BF35
:20446000CC140020B4250020E02200203D42000800B583B0FFF7F2F86B4600BA09BACDE9EE
:204480000010034A03CB1060516003B05DF804FB002300200A684B6802604360704700BFE6
:2044A000082208B50FF080FFB0FA80F0400908BD0368DBB110B4002400E0134699420FD09D
:2044C0001A681C46002AF8D100230B600368CBB11A461B68002BFBD111605DF8044B7047EA
:2044E0000A686CB1226000221A60EDE700230B6003684BB11A461B68002BFBD11160704744
:204500000260F0E70160E8E70160704730B405684DB12B46002400E01346994207D01A68C9
:204520001C46002AF8D10D60016030BC70470A683CB1226000221A6005680D60016030BC11
:2045400070470260F6E700BF03689BB110B4002400E0134699421A6805D01C46002AF8D147
:204560005DF8044B704734B1226000221A605DF8044B704770470260F7E700BF03682BB185
:2045800000201B680130002BFBD170471846704700B58BB002462821684609F0C7FA6946EC
:2045A000024800F0E1FE0BB05DF804FB9856010808B3F8B5002504460126104F65B1EB0777
:2045C0000FD53846217800F0CFFE082E12D0013501360134002DF2D13846217800F0C4FEB0
:2045E000F5E72E2001F06AF83846217800F0BCFE082EECD1F8BD024800F0B6BEAC5601081C
:204600009C56010808B501F0D5F8014B187008BDE73D0020034B062019784A1C1A7000F062
:204620006BBD00BFE73D0020F8B5FBF755FF104E0025344607460C2000F072FD2146FFF72A
:204640002FFF103420B90135102DF4D10020F8BD062000F057FD06EB05152B7B8342F5D15C
:20466000A868381AB0F5206F8CBF00200120F8BD0823002070B5184E002435460C2000F0D2
:204680004FFD2946FFF70CFF103510BB0134102CF4D10F2406EB041C64465CF8100DDCF8E5
:2046A0000410DCF80820DCF80C3066450FC4F3D1062000F027FD3073FBF70EFF03460C2047
:2046C000B36000F02DFDBDE8704001460248FFF7E1BE002CDED1EBE70823002010B504462B
:2046E0004288002140680FF081FF23886288A0680021BDE8104003FB02F20FF077BF00BF0F
:2047000030B44588ADB10022436802E00132AA420CD019460C780133002CF7D101230B7036
:204720000588806802FB050030BC7047002030BC70472846F8E700BF10B4448882685CB109
:204740008A420ED00023B0F800C001E0914209D00133A3426244F9D14FF0FF305DF8044BFC
:20476000704700234268D15C0029F5D00021D15408465DF8044B704783688B4208D8428849
:20478000008800FB023081422CBF002001207047002070474188034649B100205B6819449B
:2047A00013F8012B02B901308B42F9D170470846704700BF08B501213A20FDF74FFABDE8A9
:2047C000084001212E20FDF749BA00BF032110B5084600230422FEF78DFD00230422022100
:2047E0000320FEF787FD0023042207210220FEF781FD0221002308460422FEF77BFD0123CC
:204800000B2205210220FEF775FDBDE8104001230B2206210220FEF76DBD00BF30B585B035
:20482000EC460325134B144C0FCB8CE80F001348D4F8F0246146024042F4A02242F00202B1
:20484000C4F8F024D4F8EC34034043F4C02343F00203C4F8EC344FF0B640C4F8E854FEF709
:20486000E9FD00204FF0B6431022054908709A6005B030BDB456010800C00350FCFFF0FF56
:20488000E83D002038B50D4B0D4D1C68002818BF05463CB12846211DFFF702FE28B924686A
:2048A000002CF7D14FF0FF3038BD064A064B9068201A801003FB00F038BD00BF3024002028
:2048C00090560108E0140020ABAAAAAAF8B50F4B1C68C4B100200E4F0E4E0F4D03E002F022
:2048E000C9FB246874B1B368E31A9B1005FB03F3FB5C002BF5D1211D0028F0D12468084641
:20490000002CF0D1F8BD2046F8BD00BF3024002028240020E0140020ABAAAAAA2DE9F04731
:2049200005460F46214CDFF898A0DFF88490DFF8848004F1200654F8041FB9B18A68AAB154
:20494000A5B1D9F80830EB1A4FEAA30C0C3308FB0CFC0BD04868CB6800FB0C3030B109687A
:204960001AF80C300B41DB0700D59047B442E2D1C5B10F4B0F4A9B68EB1A9B1002FB03F397
:2049800000220D490D48CA5429460AF80320FFF7DBFD0FB9BDE8F0872946BDE8F04704484F
:2049A000FFF7CABE4FF0FF33EAE700BF04240020E0140020ABAAAAAA282400203024002093
:2049C00088240020034638B10268072A04D80D4850F82220934211D00B480268072A0BD8FC
:2049E00010B499600749541C1A60046041F8223001205DF8044B7047002070470120996064
:204A0000704700BF0824002084240020844638B339B3F0B5C46845680B1B93FBF5F3591CDC
:204A20001CD0114A03EB4303966816EB830315D00E4FDFF83CE01B68991B8A1073B10C310F
:204A400007FB02F20AD002FB054030B1DCF800101EF802200A41D207EDD5F0BD0020F0BDE7
:204A600070470846704700BFE0140020ABAAAAAA88240020124B1968F9B1124B9B68C91A67
:204A8000D0B111F10C0F17D00F4B891001FB03F34268C16802FB031179B110B40B4C026819
:204AA000E35C1341DB0703D508465DF8044B70475DF8044BFFF7AABF0021FFF7A7BF00BFC1
:204AC00030240020E0140020ABAAAAAA8824002010B504460846FFF7D5FE84B1431C0246D7
:204AE0000DD06068E36800FB023038B1054B21689B5C0B4113F0010F08BF002010BD0020AD
:204B000010BD00BF882400202DE9F041002837D00C463C4B0546002908BF1C462146FFF7F4
:204B2000D7FFF0B100262046FFF7ACFE471C2BD06A68EC68002102FB004420460FF056FD34
:204B4000EB686A68E31A93FBF2F35A1C06D001222D492D68C85CAA400243CA542046BDE8CA
:204B6000F0812046FFF78EFE0130DBD12748FFF711FE0028D6D1FFF7A9FE06460028D2D108
:204B800000242046BDE8F081DFF880804046FFF7B7FD0746B0B139461D48FFF789FCD8F891
:204BA00008302146381DFC1AFFF774FC14F10C0F1BD100210C4608466A680FF017FD20466D
:204BC000BDE8F081002EDBD03046FFF75BFE411CD6D0D8F8083000EB400013EB8007CFD0C7
:204BE00000213846FFF79AFED5E70A4BA41004FB03F36A68EC68002102FB034420460FF0DE
:204C0000F5FC9DE79056010888240020E014002030240020ABAAAAAA20B321B3C3684268B7
:204C2000CB1A93FBF2F35A1C1DD0012230B5104C056814F803C002FA05FE2CEA0E0C04F8EE
:204C400003C0C4684368091B91FBF3F14B1C0CD0084C0068635C02FA00F023EA00036354B5
:204C6000104630BD704700207047104630BD00BF8824002028240020A0B1A1B1C2684368B1
:204C8000891A91FBF3F35A1C0DD0012110B4074C0268E05C01FA02F20243E25408465DF8C0
:204CA000044B704770470020704700BF28240020A8B1A9B1C2684368891A91FBF3F35A1C22
:204CC0000ED0012110B4074C0068E25C01FA00F022EA0002E25408465DF8044B7047704788
:204CE000002070472824002088B179B1C2684368881A90FBF3F0431C08D0054B00EB400077
:204D0000996811EB800002D00430704700207047E014002070B50B4B1C685CB105460E46C3
:204D2000012D09D01DB963680BB1984718B92468002CF5D1002070BDA368002BF7D0304621
:204D40009847F3E79024002047F6FF739A4276D001294BD8F0B53B4BCC0003EBC10513F8F2
:204D6000311095F802E0012953D0686800283CD0B0F9001091423EDA8288FF2A43D0002523
:204D80002826C822521A92FBF6F223445C782A4412B294422CDC621E12B22B4D4FEAC20CEC
:204DA00002E0B6889E4215D38444DCF80860BCF80630013211FB036323EAE3735C33A5FBE6
:204DC000037312B2944200EBC2064FEAC20C4FEA9313E6DC00EBC20232F8040C834228BFD3
:204DE0000346734538BF7346D8B2F0BD00207047002AD2DACFE7B0F902109142B8BF11460C
:204E00008288FF2ABBD10125B0F90620B0F90860B8E795F803C00020ACEB0E0107E06C685D
:204E200034F913409442D4BF184603F1FF310B1A8842A1EB5303F2D37144C8B2F0BDFF2076
:204E4000704700BF94240020D34D621010B5074C20460FF0C1FDA446054CBCE80F000FC476
:204E60009CE8030084E8030010BD00BFC45601089424002038B500230C4A0D4C0D48C2E9F6
:204E80000033C2E90233C2E904330B4D0B4A03800B4920462B801370FFF7FCFA04F108001C
:204EA0000749BDE83840FFF7F5BA00BF3C250020AC240020B63D0020B43D0020E93D002046
:204EC00090560108F8B500230C46124A124F134DDFF858C0124EC2E90033C2E90233C2E9EC
:204EE00004332B700F4905463846ACF800303380FFF7D0FA07F108000A49FFF7CBFA802CBE
:204F000028BF80242946224607480FF07DFA20463480F8BD3C250020AC240020E93D0020E4
:204F2000B43D002090560108BC240020B63D00202DE9F0410E4A0F4B14781F88E519802D87
:204F400003DD00252846BDE8F0810646DFF82C80224641460FF058FA074B3A4619883019FD
:204F6000214458FA81F10FF04FFA2846BDE8F081E93D0020B43D0020B63D0020BC240020D2
:204F800010B5144B144C154A94F800E01B881288734452FA83F39BB21A18802A17DC013BB4
:204FA0001BB2002B0EDB0E4A591C03EB000C11446244013B11F801CD1BB2B3F1FF3F02F892
:204FC00001C9F6D1864484F800E0012010BD002010BD00BFB63D0020E93D0020B43D002016
:204FE000BC24002008490A8882420BDB10B4074C80B22388121A03440A80012023805DF81A
:20500000044B704700207047B43D0020B63D0020014B1880704700BFB43D0020044A054B86
:2050200012881B780448134450FA83F0704700BFB63D0020E93D0020BC2400200048704715
:20504000BC240020014B1888704700BFB43D00200549064A064B128808781B88104453FA90
:2050600080F080B2704700BFE93D0020B63D0020B43D0020844630B58E460D4C0D4D0FCC9D
:20508000CCF80000CCF80410CCF80820CCF80C3003CCCCF81000CCF814100FCDCEF800005B
:2050A000CEF80410CEF80820CEF80C3030BD00BF3C250020AC240020844630B58E4600681E
:2050C000DCF80410DCF80820DCF80C30084C094D0FC4DCF81000DCF8141003C4DEF80000E6
:2050E000DEF80410DEF80820DEF80C300FC530BD3C250020AC240020014B23F81010704746
:205100003C250020014B33F8100070473C250020024B0C3803EBC000FFF7BCB9AC240020B5
:20512000024B0C3803EBC000704700BFAC24002001490248FFF7B4B990560108B4240020EC
:205140001F4A93689B07FCD453689907F9D4D369002BF6D15368012B03D00278184BDA6052
:2051600070475368012B0DD0154A93689907FCD453689B07F9D4D369002BF6D10278104BBD
:20518000DA60704710B40E4B01E0DA6912B15A68D207FAD40122022409490A4B0C615A609A
:2051A000074A93689B07FCD453689C07F9D4D369002BF6D10278024BDA605DF8044B70477C
:2051C00000800A5000A00A50074A93689907FCD453689B07F9D4D369002BF6D10123034977
:2051E0004B601361704700BF00800A5000900A50C8B94A680B7812B1127843EAC2034A789F
:205200000AB143F002038A6812B1127843EA82138A780AB143F00403CA6812B1127843EAF7
:205220004223014A9364704700800A5008B9014B5964704700900A5008B9014B596470474A
:2052400000A00A5008B9014B1964704700A00A5010B9024B186C70470020704700800A5017
:2052600028B939B1012904D1044B186D7047002070477047014BD86C704700BF00800A506B
:2052800020B929B1012902D1034B1A6570477047014BDA64704700BF00800A5010B9024B33
:2052A000586D70470020704700800A5000B583B001A8FEF7BFF99DF80530012B1AD004F0AF
:2052C000DFF904F047F904F071F904F0BBF904F0E9F804F057F905F053FC04F025FBFFF755
:2052E00069FAFFF773FAFFF799FA03B05DF804EBFEF734BF9DF80430002BE0D14FF4801107
:20530000074B0848084A406E5966536B23F0E05343F040635363C3025CBF044B5966CEE7F9
:2053200000900050008000500040005A00A0005008B505F07FF845F2786000F041FA02F0DE
:2053400041FDBDE80840FFF793B800BF704700BF04F0EEBB0AB90020704708B50846114613
:20536000FBF74AFD002008BD0FB400B583B004AA52F8041B0448019205F03AFD03B05DF83A
:2053800004EB04B0704700BFEC1400202DE9F8432E4D04462A68824255D0002A40D01346B0
:2053A00001E0002B3CD01B689C42FAD1002B37D0274EA37B376853B1A36843B18C4206D09E
:2053C00000228321346004F10C0098472A68944228D02AB11368A3422FD01A46002AF9D1A5
:2053E000A37BE3B100232D68A373C5B14FF002084FF00109AB7BDB070ED5AB6805F10C0025
:2054000053B122468721356085F80E809847023801280DD985F80E902D68002DEAD1376081
:20542000BDE8F88323682B60A37B002BDAD1F6E729462846FFF7AAFFEEE723681360A37BF8
:20544000002BCFD1EBE71346B0E700BFB8250020B425002038B583687BB104460220A07387
:2054600009480D46046004F10C0098470238012804D9832D02D00123A37338BD2146204686
:20548000BDE83840FFF782BFB42500200022F8B51249134B0C681A70D4B101250227114E06
:2054A00001E02468A4B1E37B002BFAD0A36804F10C00E581002BF4D0002282213460A77303
:2054C00098470238012804D9A5732468002CEAD1F8BD21462046FFF759FFE2E7B82500208C
:2054E000ED3D0020B4250020024B1878421C1A70704700BFEB3D0020F8B5164A1568854295
:2055000007D0044635B12B4600E01BB11B689C42FBD1F8BD002CFCD025600126146000224B
:205520000D4DA3682F68A673A2815BB10A4602212C60A17304F10C00812198470238B04266
:2055400002D9A6732F60F8BD21462046FFF71EFFF8E700BFB8250020B42500208A22014BA7
:205560001A707047EB3D00202DE9F8432D4D2B78F3B92D4E3378BBB12C4C2D492278013B32
:2055800002EB4200013202F00702227001EB80025468DBB251F82080177A33705CB1812F8B
:2055A0001DD0A27BD2071CD428781844BDE8F883FFF76CFFDDE71F4A146854B9F4E7A37BEC
:2055C000D90704D5424639462046FFF743FF246814B32B78002BF2D0FFF758FFEFE7012244
:2055E000A273D4F80890B9F1000FDDD00223A373114B424639461C6004F10C00C847023868
:20560000012805D9832F03D001223378A273CBE721462046FFF7BAFE337828781844BDE8A2
:20562000F88300BFED3D0020EC3D0020EA3D002054250020B8250020B425002030B40F4C88
:2056400094F800C0BCF1080F15D005460C4B00201B7863440CF1010C84F800C003F0070316
:20566000084C03EB430344F8232004EB830319725D6030BC7047012030BC7047EC3D0020B6
:20568000EA3D00205425002038B5837B034CDB07256801D5FFF7DEFE256038BDB425002066
:2056A00018B1837B013B012B00D970470123024AC3731370704700BFED3D0020FBF7A2BBF3
:2056C00010B504460FF00AF801462046FBF794FBBDE810400A20FBF795BB00BF08B5044863
:2056E000FEF7FCFFBDE808400248FEF7F7BF00BF00150020F41400200148FFF74BB800BFBB
:20570000F414002038B50F48FEF7FAFF044680B10D48FEF7F5FF0546206060B1FFF708FCA0
:20572000034605F19A0105F18200A5F88030FFF7A1FC204638BD21460248FEF7FDFF2C46C8
:20574000F7E700BFF414002000150020006800F19A018230FFF78EBC10B5044607482146A4
:20576000FFF70AF800B910BD21680548FEF7E4FF2146BDE810400148FEF7DEBFF41400209E
:205780000015002010B5044609482146FEF7F4FF00B910BD2468B4F880102046FFF792FBEE
:2057A00004F19A0104F18200BDE81040FFF784BCF414002008B50EF073FF80B208BD00BFAC
:2057C00008B5FDF74BFFBDE808400EF061BF00BF8179427990F804C0521A12EA0C0F034637
:2057E00006D000684A1C02EA0C02405C9A7170474FF0FF30704700BF70B5134E337803B1E4
:2058000070BD04460D4606F077FD034684B10F4B2068616803C395B10D4BA868E96803C3A0
:2058200001220021094806F07DFE0123337070BD59689A68054C0068DB680FC4EBE70549BC
:20584000024807F017F8EBE7EE3D00203C2B0020442B00205C3B0020002110B5084682B0A8
:205860000C46FFF7C9FF174B03F1540193F820201AB193F82120012A15D01C338B42F5D119
:20588000204606F0CFFD04B9C8B102F0A9F94023024621460020009300F0A2FB00F01CFABE
:2058A000002002B010BD1A7CFE2A02D003F11004E3E75A7C802AE0D003F11004DDE74FF0AC
:2058C000FF30EEE724370020054B187B30B1B3F84E00DB8AC01AB0FA80F04009704700BF74
:2058E0004C2B00202DE9F04716461B4CDFF86C9080460D464FF4B072002120461F469DF82F
:2059000024A00EF073FEB9F82030B34205D152463846089902F0BEF918B900263046BDE816
:20592000F08701264FF0FF33F0224FF2F00184F80D80A4F85810E2732673E364A4F85030B6
:20594000C4F8089028686968AA68EB681C340FC43046BDE8F08700BF4C2B00203C150020B1
:2059600010B5044690F8510094F8503082B0228A0190207E2146009304F13C03FFF7B2FF51
:20598000F8B100220120104B617DB4F81AC09973616DA3F810C01960216A5961217F9974AC
:2059A000617F1976E18B83F85C205983A17D83F85410217D83F85310E17D83F8552083F8F7
:2059C000521002B010BD00BF4C2B00202DE9F0414F4D2B7BB5F84E40002B74D195F85C3043
:2059E000032B5DD0FFF770FF064620B1AB68BDE8F041DB691847D5F8448001F06FFC01F060
:205A000007FC686C01F0D2FB0346424FA5F84E303868FFF72FF80446002838D1B8F1000F0C
:205A20005AD0B5F84E30B5F84C209A4201D9A5F84C304FF6FF72B5F8503093420AD0B5F8EA
:205A40004E10914206D0CB1A002BB8BF5B42B3F5007F44DC95F85B30002BC7D06B6C002BF8
:205A600043D0B8F1000F4AD001F022FE002385F85B30AB68BDE8F041DB69184723683BB300
:205A800021463868FEF7C2FF04460028C6D0204601F08CFBB5F84E308342EFD82660EFE750
:205AA000002001F0B5FB4FF6FF739C42A5F84E309CD0194801F0C8FD01F070FFAB68BDE8DA
:205AC000F041DB69184705F16400FBF763F985E7FAF702FD2060D3E7B5F84E30A7E70F48A4
:205AE000A5F8501001F0B0FDB4E70B4885F85C3001F0AAFD01F03AFD01F050FFB6E7012353
:205B0000074885F85C3001F09FFD01F033FFABE74C2B00206015002040570108505701086F
:205B200068570108094A137B73B110B4044640B102F11C0CBCE80F00206001206160A26067
:205B4000E3605DF8044B7047184670474C2B002010B5FFF7B9FE134C78B994F9582094F868
:205B60005830002A03F10103B4BFDBB203F07F03002084F8583001F0C7F8FEF747FC01F009
:205B800071FB07F0A5FA01F05FFF94F841305B0602D40023237310BD034802F057F800234B
:205BA000237310BD4C2B0020782B00200322024B83F85C2001F06ABF4C2B002008B50F4BF7
:205BC0001A7B8AB19A6C511C0ED082420DD9101AB0F5967F986407D2586C28B101F0F2FAC7
:205BE000BDE8084000F036BF08BD00210322996483F85C20BDE8084001F048BF4C2B002058
:205C000010B5084C237B5BB194F840200146D20804F11C000EF0C8FBB0FA80F0400910BDB2
:205C2000184610BD4C2B002010B5FFF74DFE88B1F021114C94F9522094F85230002A03F1CA
:205C40000103227BB4BFDBB203F07F0384F85230E17302B910BDFFF737FE08B984F85C0090
:205C6000A3681B68984701F0FDFA044801F0ECFCBDE8104001F00ABF4C2B00207457010890
:205C800010B50A4C237B03B910BDFFF71DFE08B984F85C00A3681B68984701F0E3FA044891
:205CA00001F0D2FCBDE8104001F0F0BE4C2B002074570108074B9A7B187B1AB9003818BF4A
:205CC0000120704728B193F85C00012894BF0020012070474C2B0020024B1B7B03B97047CB
:205CE000FFF774BE4C2B00202DE9F041754D06462B7B0C462BB16A7B237E9A4209D0BDE8DC
:205D0000F081FFF7E1FD98B12B7B002BF3D1BDE8F081102221466C480EF046FB0028EED1D7
:205D2000628AEB8A9A4216D2BDE8F041FFF74EBE637D012BE3D82046FFF712FE0028DED05D
:205D4000AB681B689847614801F07EFC01F0CCFD01F024FED8E7E17D95F8520001F022FFDF
:205D6000002841D14FF6FF73628A9A4204D095F85730013385F8573095F85210E07D01F00D
:205D800011FF48B1B5F84E20EB8A9A4258D0FFF79BFD0746002869D022460121304600F03A
:205DA0003DFEE8B1304601F08BFA0746002844D090F80680304601F083FA002847D0638A7C
:205DC0008380637E8371AB6CB3B96B8BC3EB03135B01AB64AB7B1BB117B16B6C9F4218D0E9
:205DE0002B7B002B8BD09FE7628AEB8A9A42F7D1374801F029FCF3E7002FF1D06B6C9F42D5
:205E0000EED16B8BAA7BC3EB03135B01AB64002AE6D04146607E01F0C5FE0028E0D095F91A
:205E20000F20EB7B002A03F10103B4BFDBB203F07F03EB7301F03CFCD2E74FF0F008B9E71F
:205E4000E37D244885F85230FFF7EEFEA4E7304606F044F90028C3D01F4B01460122186852
:205E60002346FEF751FE0028A9D1B9E701F0ECFD384601F0CDF9637D012B12D92B7B002B5C
:205E80008AD0FFF721FD08B985F85C00AB681B68984701F0E7F9114801F0D6FB01F0F6FDB5
:205EA0007AE72046FFF75CFD0028E7D0AB681B689847064801F0C8FB01F016FD01F06EFD16
:205EC000DCE700BF4C2B0020682B0020845701088C570108A85701086015002074570108B5
:205EE00011B1084801F0B0BB10B50A460321044600F094FD20B12046BDE8104000F0C6BD91
:205F000010BD00BFC457010838B5054691F823000C46C0B1FF2816BF0D4B4FF0FF335B8B7F
:205F20000A4618BF43432946002007F035F818B194F92530002B00DB38BD2846218CBDE89B
:205F4000384001F0D7BB0A46294607F001F8EFE74C2B002070B5154D0E4695F8591004460F
:205F600001F020FE08B185F8594095F85830A34200D070BD95F85C3076B2012B07D001F017
:205F8000DDFB002EF5DA032385F85C3070BD002E02DA01F0D3FBF6E70223054885F85C30AF
:205FA00001F052FBBDE8704001F0C8BB4C2B0020D457010870B505460E461C463AB924B121
:205FC0001DB1064BAE801B7B23B9012070BD01F055FBF4E7FFF7FAFC012070BD4C2B0020C7
:205FE0002DE9F047284C82B094F80CC005460E46174698469DF828A0BCF1000F0AD0102257
:2060000004F11C000EF0D0F980B34FF0F009FFF79FFD01E04FF0F0093B4631462846012209
:20602000CDE9008AFFF75EFC40F6084200231E2101202282154A80252176A3743C21626157
:2060400084F853300222A4F854304FF0FF33A0730F4884F85290A4F84E50618384F85C20AE
:20606000A36402B0BDE8F04701F0EEBA94F9523094F85290002B09F10109B4BF5FFA89F9F8
:2060800009F07F09C3E700BF4C2B002000048000E05701084FF4B072002101480EF0A6BA8E
:2060A0004C2B0020104A907918B992F82A10632901D00120704792F82910A1B992F82B301A
:2060C000042B0FD1094B187B68B1587B92F82DC0844507D1B3F84E3001205BBAD38582F895
:2060E0002DC0704708467047C83A00204C2B002070B51B4905462B2209881A4807F034FC03
:2061000004461948FFF77CFD10B90024204670BD1649002006F0D0FE13490646002006F0E4
:20612000CBFE14B1A278032A06D00028EDD0002EEBD04369B342E8D14FF0000C48F2FE0EFB
:206140000124094E0FCEA5F802C0AA60EB60A5F800E0A5F804C0A5F806C0204670BD00BF9F
:20616000C23D0020C83A0020E03A0020682B00202DE9F0432B4B2B2219882B4885B007F0A5
:20618000F3FB044610B18378032B03D0002005B0BDE8F083C278002A3FD063780179013321
:2061A0006679DB00DBB201F00F05A3EB161309092B44C1F11000183B93FBF0F30133DBB214
:2061C0009A42E3D8012A18BF0D469B1ADBB203FB00F0154F0830E31B103303445B1B8C2B52
:2061E000D4D8E846261805F1180CC5F1100907F118030FCB88E80F0031464A4607EB0C002D
:206200000EF002F94A46304608EB05010EF0FCF8E3780120013BE370B9E7012005B0BDE86E
:20622000F08300BFC23D0020C83A00204378002B37D140F263432DE9F041425A44189A420A
:206240002CD1194D2B7B4BB36A7BE3789A4225D1A3789A0622D4154A0C20DE09D2F80080B8
:20626000A788FEF75DFF01464046FEF731FC7FBAB5F84E10BFB2B94294BF00210121A5784C
:206280008E42C5F380131CBF45F04005A57086EA01023946BDE8F041FFF78CBE0020BDE8AC
:2062A000F0810020704700BF4C2B0020601500202DE9F0412A4F2B4E82B0012330463988E5
:2062C0000DF1070207F0E2FA002841D09DF80730062B3DD0044606F1060814E013B9A37877
:2062E000632B16D03988A31BC91A204600230DF1070289B207F0CAFA044648B39DF8073031
:206300008046062B24D0112B22D03A2B20D02B2BE4D1237888F8003065780135ED0068420F
:2063200007F080FAC0B139883046283989B207F0A3FA3A88A31B9A420EDDD21A2046611901
:206340000EF0D8F898F80030062B8DF80730DAD1012002B0BDE8F081002002B0BDE8F08146
:20636000C23D0020C83A00202DE9F04FDFF8908289B098F80C3053B348F2FE039A4C228BC5
:206380009A4224D0237EFF2B21D0FFF79DFA054678B904F1080006F045F828B1934BE27926
:2063A00093F806319A4217D009B0BDE8F04FFFF779BE04F11807FFF77BFF3846FFF720FC7A
:2063C00028B13946002006F077FD064658BB0125284609B0BDE8F08F854E3288B2F59F6FC9
:2063E000F6D804F12801283A04F130000EF082F840F26342A37998F80D1084F82830B8F88E
:206400004E30C4F829505BBA84F82D10A571E3856285082007F006FA31882046283989B2BC
:2064200007F02AFAC0E7002008F11C0106F044FD0190002847D03946002006F063FD002840
:2064400041D0D6F814A0BAF1000F00F0BC80019B534500F0C0804FF000090F25654B0DF135
:2064600010089B69039602935146029B40469847DFF890E12946C34670464246002312F80E
:20648000016B10F801CFB44502D10133102BF6D19D420CDADAF814A009F10103DBB2BAF135
:2064A000000F14D0019A524511D09946DCE700211BF8013B1EF8012F9A4206D10131102960
:2064C000F6D10D46E6E7002582E7CDB2E2E7C1F1100AC5F118081AFB09885FFA88F918F0D5
:2064E00007081FBFC8F108085FFA88F8C1445FFA89F99B464B46039E3D4A02931288D1187B
:20650000B1F5A06FDFDC3C49283A0888283021184844204403910DF0EDFF03994A4608461C
:2065200000210EF063F82B22029BA179A271B3F1080248BF03F1FF320323D21084F8292023
:206540002C4A84F82BB0D2F818B005EB051284F82C204FEA081284F82A3084F82810274BBE
:2065600084F82D20A9EB08040DF110084544CDF80890C146DDF804801C447269A4EB0A047E
:2065800090450AD031464846D8475246294620460DF03AFF7669002EEFD1C846DDF808903D
:2065A00031464046D84798E80F0087E80F00484607F038F90E4B0C4819880125283989B2EC
:2065C00007F05AF904E7D34608230F254FF0010AD846994690E708234FF0000B0F254FF068
:2065E000010A9946D84687E7C83A002024370020C23D002004580108C03D0020F03A00209D
:206600004C2B0020DF3A002008B50C4A137B43B10B4B0C491B88507B2C335A5C0B449042C6
:2066200003D0BDE8084007F0E3B8D9789878FFF791FCBDE8084007F0DBB800BF4C2B002057
:20664000C03D0020C83A00202DE9F0418EB02622002104A80DF0CAFF444A454B1188454C53
:2066600001F12C02D618207BD25C8DF8322010B1607B904204D007F0BBF80EB0BDE8F081AC
:2066800000226F463C4808330588CDE904222C3D6D1AADB2032DCDE906220FCB87E80F0046
:2066A000E9D9237EF2788DF833307378ADF830208DF835305B0647D40424AC4250DA4FF060
:2066C000000820E0621CAA42D5DA3219507802300444AC42CFDC052B21D10328CBDD7318F3
:2066E000DA788DF834200732D210131D8342C2D10431314408A8CDE90888CDE90A880DF0E7
:2067000083FEAC422CDA335D2146002BDAD10134A542F6DA07F06CF80EB0BDE8F081062BEB
:20672000EFD10528A7DD73185B7913288DF83330E7DD0631731870589A685968DB680DF114
:20674000100CACE80F00DCE7132D94D9102204F11C00311D0DF028FE00288CD11424ACE706
:20676000384604A9FFF7D0FB85E700BFC03D0020C83A00204C2B0020C23D002008B5084BFD
:206780001B7B4BB10748017E0830A1F1FF01B1FA81F14909FFF7A4FBBDE8084007F028B807
:2067A0004C2B0020C83A0020F0B59DB05C22002105A80DF01BFF1E223C2340F6084001218C
:2067C000924C934D24882D882C3CDFF84CC2641BA4B28DF831208F4AADF8323001AE0CF116
:2067E0000803172CADF82E00ADF824100D920FCB86E80F0003D806F0FBFF1DB0F0BD05F16E
:206800002C0303EB0C0513F80C3095F804C08DF82C306B882CF07F0E5BBAADF826306B7842
:20682000E9688DF82B306B79A8688DF82D302A696B698DF828E005AFCCF3C20E182C0CF0DA
:20684000070C8DF829E08DF82AC00FC718BF182100F0D6806A5C002ACDD04B1CA342CADA7F
:206860006B18587802300F18A742C4DC023A062AC1D80FF2080C5CF822F000BF91690008A2
:2068800039690008E9680008F7670008F7670008F7670008996800082028ACD19A78802A39
:2068A0008DF86420A7D85A7A187A120442EA0062D87A103105EB010E02436858997ADB7849
:2068C00042EA012218928DF86530DEF80410DEF80820DEF80C300DF1500CACE80F00A742C5
:2068E00080F28E803946B5E7102884D129448879DA7942EA0022ADF83420087A5A7A42EAE6
:206900000022ADF83620887B8A7AD97A41EA0221DA7BADF8241042EA0022ADF83220DA78ED
