:020000040800F2
:200000000008002005CB000801CB000801CB000801CB000801CB000801CB000801CB0008E8
:2000200001CB000801CB000801CB000801CB000801CB000801CB000801CB000801CB000820
:2000400001CB000801CB000801CB000801CB000801CB000801CB000801CB000801CB000800
:2000600001CB000801CB000801CB000801CB000801CB000801CB000801CB000801CB0008E0
:2000800001CB000801CB000801CB000801CB000801CB0008010D000801CB000801CB00087E
:2000A00001CB00087D4100085941000801CB000801CB0008CD640108516F0108838301084A
:2000C0007F830108F96601088F83010887830108296F01088B830108916F0108FD6F010849
:2000E00001CB000801CB000801CB000801CB000831B6000801CB000801CB000801CB000845
:2001000001CB000801CB000801CB000801CB000801CB000801CB000801CB000801CB00083F
:2001200001CB000801CB000801CB000801CB000801CB000801CB000801CB000801CB00081F
:2001400001CB000801CB000801CB0008ADC800085154010801CB00089F800108A5800108CE
:2001600001CB000801CB000801CB000801CB00089FED0F7B10B5104982B008684FF0FF32E9
:200180004FF0FF338DED007B17F0B5FC10B9012002B010BD0446094A09490A4805F04AF95F
:2001A0002146094805F046F9002002B010BD00BFCA0D01550202000090190020108501085D
:2001C00020850108F0830108C885010810B5054C237833B9044B13B1044800E000BF0123E0
:2001E000237010BD4012002000000000A4E1010808B5034B1BB10349034800E000BF08BDCD
:200200000000000044120020A4E10108A3F5803A704700BF174B002B08BF134B9D46FFF787
:20022000F5FF00218B460F461348144A121A17F07DFA0E4B002B00D098470D4B002B00D09A
:2002400098470020002104000D000D48002802D00C4817F07FFB17F023F92000290000F0ED
:2002600055F817F00DF900BF000008000000000000000000000800200C100020503C00204D
:20028000557901086179010810B50446006830B1002105F097F954F8040F0028F8D110BD89
:2002A00008B5064A13680133136003F0C1FB00B908BDBDE8084003F097BB00BF7C12002043
:2002C00030B583B00BF09AFF0CF0E2F8012500230146054CCDE90035044AC90904482360E1
:2002E0000BF0F8FF03B030BD7C120020A10200085C120020014B1868704700BF7C12002095
:20030000014B1868C00970477C1200202DE9F04105F02CF8FFF7D4FF05F086F90021694874
:2003200005F050F900F0EEFB10F090FA0CF068FB05F060F805F038FA634B644F1B68DFF88E
:20034000E4819847624D7B689847D8F804309847AA79EB795F4E604C03EB022333802368D4
:20036000022B00F3A5805D495D4805F063F80A2005F00AFA2368022B37DC5A4B29686A68A7
:2003800019605A600021584805F01CF94FF0FF300EF048F823680546022B11DC05F03CF89A
:2003A0005248FFF771FF10F077FA05F043F90446E4B210F077FA002CF7D105F02FF8F4E75F
:2003C0004B4A4C494C4805F035F84C4805F032F82368022BE2DD284604F08CF82368022B75
:2003E000DCDD0A2005F0D0F9D8E7414A4149424805F020F8424B4348196805F01BF82368C5
:20040000022BBADD3A4A3B493B4805F013F8D8F800103D4805F00EF82368022BADDD344A6D
:200420003449354805F006F83968384805F002F82368022BA1DD2E4A2E492F4804F0FAFF36
:200440004AF6CD31324804F0F5FF2368022B94DD274A2849284804F0EDFF1A212D4804F0FD
:20046000E9FF2368022B88DD214A2249224804F0E1FF3188284804F0DDFF2368022B7FF73C
:200480007CAF1B4A1B491C4804F0D4FF234804F0D1FF2368022B7FF770AF0D4804F03AF846
:2004A0002368022B7FF769AF0A2005F06DF964E70F4A1049104804F0BDFF194805F066F9B7
:2004C00051E700BFA80C00202C890108E0840108101E0020CE3B0020C80C0020148401081A
:2004E0001C84010880390020340F0020FC8B0108E0830108E8830108F0830108B4840108EA
:2005000000A00108288401083884010844840108508401086C8401088C8401089C840108CF
:200520000084010878A001082DE9F0430D4614468B6883B00646D3E90078506B92F82C9070
:2005400003F0B4FF686805F06DF9A9681D4804F0A5F829461C4804F0A1F8636B1B681BB344
:200560000023A38505F092F90146184B184D1B6804F10C0000932346A5FB01540D1B04EB15
:200580005504A408C4EBC404124A091B00F0C8FA3FB14A46314640463B4603B0BDE8F04324
:2005A000184703B0BDE8F08304F10C0000F000FB2146094803F07AFF2146084804F06EF8F0
:2005C000E6E700BF280C0020400C0020C420002025499224E1050008E8120020340C00203F
:2005E00010B32DE9F047436B04461D6886B0C5B1686805F02DF90C207E4904F0E9FD0121E8
:20060000072004F0D9FD00F0B9F900280DDAAB683BB105202246294606B0BDE8F047FFF7B5
:2006200083BF06B0BDE8F087704704F067FD724F90F802807B68039304F060FD064604F0C2
:2006400067FD039B01463046984704F0D1FDBB6906460393984700282DD1002E66D1D7F8FB
:200660001C90C84738BBBB681E4604F051FDB047002872D002281ED0AB68002BD1D0042087
:20068000C8E709F051F96FF014031E1A03E009F04BF9C64202D5C8470028F8D0C847002885
:2006A00077D003213B6905A89847032803D19DF81630434540D0AA68002AB2D094F82D10A6
:2006C0004B1CDBB2052B84F82D301FD8127A94F82C00904226D2012B88BF1F2640F282802C
:2006E00005F0D4F80146454B04F10C001B68444A00932346B1FBF6F404FB161100F010FA9E
:20070000686806B0BDE8F04705F086B8002194F82C3084F82D100133DBB284F82C30127A5D
:200720009A4218D822462946012075E7BE6804F0EFFCB04700289DD1AB68002B3FF471AF76
:20074000002094F82C3022460133294684F82C3084F82D0060E70726C2E709F0E5F86FF0B3
:200760000C0AAAEB000A04E009F0DEF81AEB000F02D5C8470028F7D0039B9847002880D132
:20078000C84700287FF47DAF7B69984700283FF478AFA96800293FF444AF002294F82C30D4
:2007A00084F82D200133DBB284F82C300A7A9A4203D82246294602202EE705F067F80146F3
:2007C0000E4B104E1B6804F10C0000932346A6FB01640E1B04EB5604A408C4EBC404084AF5
:2007E000091B8BE701260B1DDBB206FA03F35E1E76E700BF101E00202C890108C4200020E9
:20080000E1050008254992242DE9F041064682B00D200F4604F0E4FC054603F0ADFE0121A0
:200820000B2004F0C9FC464B1C6814B916E02468A4B12946201D03F0E5FD0028F7D0606BE0
:2008400003F04EFE07281EDD002E59D0012206213846334602B0BDE8F0411847394803F03C
:2008600001FF04460028EFD02946201D03F0C4FD002304F13002214631486263A38523634A
:2008800003F0C8FDDBE7304803F0ECFE0546002841D02E4803F0E6FEA860002837D004F08D
:2008A00097FF686078B30520D5F8088004F08AFC10F0FF0008BF0823C8E900670CBF88F867
:2008C000083088F808002946606B03F0A3FD636B1B689D4214D194F82D30012B29D91F251B
:2008E00004F0D4FF0146234604F10C00B1FBF5F4174A04FB151112680092164A00F010F900
:2009000002B0BDE8F081A968104803F0C7FE29460D4803F0C3FE606B03F0E2FD002893D14D
:200920002146074803F0C2FD2146064803F0B6FE8AE701250333DBB29D40013DD0E700BF08
:20094000E8120020340C0020400C0020280C0020C4200020E105000808B5054803F070FE00
:20096000044803F06DFEBDE80840034803F068BE400C0020280C0020340C002010B5012175
:200980000B2004F019FCBDE81040014B5B681847D88A0108014B9B68184700BFD88A01087D
:2009A000014B1B6A184700BF2C890108014B5B6A184700BF2C89010810B50D4B82B01B68CB
:2009C00098470C4B04469B6A192001A9984701280BD0002CB8BF1524019B802BD4BFC4EB67
:2009E0000300C4F1800002B010BD002002B010BDD88A01082C890108FFF706BF00B583B0D5
:200A000004F080FB032802D103B05DF804FBFFF7C1FF0028F8DB0D2004F0E2FB0E4903F069
:200A2000F1FCA0B10C2004F0DBFB0B4903F0EAFC0028E9D103F0AAFD0028E5D103F0CCFD3F
:200A4000064B9B68019303B05DF804EB184704F0CFFB0028E6D1D7E7101E002078A001088E
:200A600010B5074C82B01920A36A01A9984728B903F07AFDFFF770FF236A984702B010BDC2
:200A80002C890108F8B5038805462BB14A2B14D1882916D00120F8BD174B1C6834B1A1689E
:200AA000201D02F0A7FF2468002CF8D10122134B1A704A232B800120F8BD00232B800320F6
:200AC000F8BD0D4B1C68002CF3D0231D9A4205D02468231D002CECD09A42F9D1084E21468E
:200AE000054803F0E3FCD4E90523376832600BB1E06998473760DCE7C8130020FE3B00202F
:200B0000C42000200021034A034B04481170196004F058BDFE3B0020C81300204C0C0020FA
:200B200070B50E4C049E2578C0E905620446C36135B981602146BDE87040094803F06ABC84
:200B4000084D094B2E6804302B6002F053FF2E602146BDE87040024803F05CBCFE3B00205B
:200B6000C8130020C42000204C0C002070B50C4B04461B782BB92146BDE87040094803F0C1
:200B800049BC094D094B2E6804302B6002F03CFF21462E600348BDE8704003F03BBC00BFE6
:200BA000FE3B0020C8130020C42000204C0C002010B50A4B04461B783BB9C0E90333214634
:200BC000BDE81040064803F071BC043002F038FF2146BDE81040024803F068BCFE3B00203F
:200BE000C8130020094B1A7842B9094B01E0984209D01B68002BFAD1012070470069B0FACD
:200C000080F0400970470020704700BFFE3B0020C813002010B50C460CF0B2FF204610BD83
:200C200000B583B00190012101A80CF0A9FF019803B05DF804FB00BF38B5114B1B7883B15D
:200C40000546D8B102F086F80E4900230A46147B103244B10133082BF9D102F081F80A48D2
:200C600038BD0A4838BD1A012B608C50012201EB03131A7302F074F8204638BD044838BD0A
:200C8000FF3B0020CC130020048000F0028000F0018000F0002310B5154A82B0126801921E
:200CA0008DF8043002F056F8124B1C78DCB901221A7002F055F808220F4B01A81C731C777A
:200CC00083F82C4083F83C4083F84C4083F85C4083F86C4083F87C408DF8072002F07CFBA5
:200CE000204602B010BD02F03BF8044802B010BD0C850108FF3B0020CC130020038000F0B9
:200D00002DE9F843184B1F6D5B6D1F401ED401250026164CDFF85880DFF858902F420CD011
:200D2000C8F85050236843B1D4E9012101313046A1609847637B012B09D00136082E4FEAE4
:200D4000450504F11004E9D1BDE8F883FEE709EB46130028F1D1197B1A7F60F3410160F335
:200D6000410219731A77E8E700000450CC130020002004504C1400204FF48671044A054B25
:200D8000126801FB0233187A003818BF012070474C150020541500204FF48671094A0A4846
:200DA000136801FB0300037A53B113680133594201F0030103F0030358BF4B421360704732
:200DC000184670474C150020541500204FF48671094A0A48136801FB0300037A53B9136897
:200DE0000133594201F0030103F0030358BF4B421360704700207047501500205415002083
:200E000000230372704700BF01207047014B1878704700BF003C00202DE9F0413D4E8CB030
:200E20000221306801AA16F037FF00284FD0002304250446014606AA30688DF825308DF845
:200E40001E50ADF81C3016F02BFF002842D1BDF80670314A013F31493148BFB204F0EAFAA6
:200E60003946304804F0E6FABDF80830039A013BADF80830BDF806300132013B0392ADF870
:200E80000630FFF7A3FF054600283AD0BDF80880077200F1090303994246184616F054FB7D
:200EA000049931B1BDF806204044A2EB080216F04BFB9DF92630069AAB809DF827302A6044
:200EC000EB802146306816F0EFFE044668B90CB0BDE8F081104A1449114804F0ABFA134874
:200EE00004F054FC0CB0BDE8F0810B4A10490C4804F0A0FA21460F4804F09CFA0CB0BDE8A3
:200F0000F081054A0549064804F094FA0A4804F03DFCD6E79019002010850108E8830108DC
:200F2000F0830108448501082085010824850108848501088C8501085C85010808B5FFF73A
:200F40006BFFBDE80840FFF717BF00BF2DE9F0410646FFF761FFFFF71FFF0446002842D02E
:200F6000234A2449244804F065FA217A234804F061FA94F8088008F0D7FC054616F0A2FEB3
:200F800016F0A0FE2146034651F809CB3046A3EB0C03DB031A4E03F5F42303F5907386FBFC
:200FA00003C6DB17174FC3EBA643EB1A42463B6016F0CAFA144BB4F90410144A1980144B11
:200FC000E0881B7810802BB12046FFF719FF4046BDE8F081042089B204F0EEF80320E188D5
:200FE00004F0EAF8F0E780464046BDE8F08100BF10850108E8830108F0830108B085010857
:2010000083DE1B4388190020CC3B0020CA3B0020013C002010B50388044663B140F2C722DE
:2010200093420DD1822901D0012010BDFFF7F4FEFFF7A2FE40B940F2C7232380012010BD6F
:2010400000232380032010BD03F074FF04F046F88021FFF77BFF0028EDDD80B204F038F8E9
:20106000034BDB689847034804F080FBE3E700BFE08401085C0C002030B5013883B004284B
:201080006DD8DFE800F00A50232C030031F0010054D1344B197003B030BDA1F10B030F2BDF
:2010A0004CD8314B314C89B20022186821800FF04FFC0028EFD02E4A2E492F4804F0BAF957
:2010C00021882E4804F0B6F90320E4E7264B0022186889B216F000FE002003B030BD31F02D
:2010E00007032BD101F00202CB43002A14BF01220022234C2348C1F3800103F0010301702E
:2011000084F8293022711CD0174D1F49286816F0ADFD94F82910286816F0EAFDFFF728F817
:20112000002003B030BD1048184B89B200220068198016F0CBFD002003B030BD022003B073
:2011400030BD134B084D1B8801A92868ADF8043016F0B9FC286801A916F0CBFCD5E701209A
:2011600099E700BFF20F002090190020E00F00201085010820850108F0830108F4850108ED
:201180007C0C0020013C0020800C0020E20F00201C890108002960D0013810B50C461828F6
:2011A0000ED8DFE800F014190D1E340D0D423C0D520D0D0D0D0D0D0D0D0D0D0D0D0D0F0057
:2011C000012010BD4FF480730B60002010BD254B00201B880B6010BD234B00201B880B608C
:2011E00010BD0023214A0B6092F8293083F001030B60127912B143F002030B601C4B1B7879
:201200004BB32368002043F00403236010BD0020184B08601B78F3B101230B6010BD164BBC
:201220000020B3F900300B6010BD144B0121186816F0FCFB10F5007F11D00028B8BF033045
:2012400040F38F032360002010BD0D4B0020B3F900300B6010BD002010BD022070470320E4
:2012600010BD00BFE00F0020E20F00207C0C0020013C0020F20F0020CC3B002090190020AC
:20128000CA3B002008B5054B0121186816F0CEFB10F5AA7FCCBF0020012008BD9019002023
:2012A00070B50646384B86B003AD93E8070085E80700364A3649374804F0BCF83146364843
:2012C00004F0B8F80122354B354C1B7822703549354A13B3002012680988009033482B46B7
:2012E00000680FF027FB054605BB314B1B78002B33D12378012BFCD02378022B24D0244960
:20130000224A244804F096F821782A4804F092F800231846237006B070BD2448126809887C
:2013200000680FF0F9FA0546002DDED0174A2249184804F07FF82946204804F07BF8002335
:201340000120237006B070BD104A1149114804F071F81B4804F01AFADAE708F0E5FA194B25
:20136000194A3605334482FB0312DB17C3EBA2431D1804E008F0D8FA401B0028BCDA2378AA
:20138000012BF7D0B8E700BF2089010810850108E8830108F083010818860108F20F0020F4
:2013A000023C0020E00F0020941B002090190020013C00208086010820850108408601083F
:2013C0006486010820A11D0183DE1B43F0B501230C46154F83B01A46A61C05460DF1070157
:2013E00038688DF8076016F051FC0123224606462946386816F04AFC04460C4A0C490D4891
:2014000004F018F80C48311904F014F80B4B1B783BB92B78C3F340130020094A136003B008
:20142000F0BD0023F8E700BF9019002010850108E8830108F083010894860108013C002067
:20144000941B002010B50C46FFF7C0FF00B110BD2046BDE81040FFF723BF00BF12F0A84F88
:2014600070B5144606461D4602D00522224B1A70A30702D50322204B1A70204B00221C42C8
:2014800003D01F4B20071A7022D4E10114D4AA0702D50422184B1A7014F0C00F02D001223B
:2014A000174B1A70AB0500D470BD00223046BDE8704011460FF0CABC124A1349134803F0C0
:2014C000B9FF134804F062F902220B4B1A70DEE7304616F0E7FB0F4B1B78002BD5D1094A72
:2014E00009490A4803F0A6FF0B4804F04FF90B4804F03CF9C9E700BF023C0020080D0100C2
:20150000003C002010850108E8830108F0830108E4860108013C0020C08601085C0C00203A
:201520000D2801D001207047042A05D121B1034B00201B680B60704702207047881900204A
:20154000012070470C2801D001207047082A0AD108B531B1054B0022186816F0C3FB002054
:2015600008BD022008BD0220704700BF90190020F0B50024874A884983B0884803F05AFFA4
:20158000874804F003F9874B874D83F8204383F8214383F8224383F8254383F8244383F809
:2015A0001F4383F81E4383F8234383F8274309F01DFF0AF0F5FC03F073FC0AF00DFD0AF0C7
:2015C00023FD214679480FF079F92860002800F09F800FF0ABFE0446002877D174492868E4
:2015E00016F052FB044600287CD10146714A28680FF000FC704928680FF0EEFC04460028A8
:2016000040F0918007222868114616F07FFB0446002873D1014628680FF078FC0446002887
:2016200040F08D80FEF7A4FD002858D001F0BEFF06464AF6CD3300960E46604F19462246ED
:2016400028683B80019616F041FB04210846FFF713FDC6F30741360E224646EA012128685E
:2016600016F03AFB22466946286816F03BFB494A49494A4803F0DEFE3988514803F0DAFEA1
:2016800022464FF480734F49286816F001FBB0F5807F04465DD10821286816F0FAF904466A
:2016A000002862D10121286816F004FB0446002865D10021444803F085FF364A36493748CE
:2016C00003F0B8FE414804F061F808E04049314A324803F0AFFE21463E4803F0ABFE0020DC
:2016E00003B0F0BD2B4A3A492C4803F0A3FE2146394803F09FFE002003B0F0BD254A3449A6
:20170000264803F097FE2146344803F093FEE6E7204A2F49214803F08DFE314803F08AFEE2
:20172000002003B0F0BD1B4A29491C4803F082FE21462C4803F07EFE002003B0F0BD154A52
:201740002349164803F076FE2146274803F072FEC5E7104A1E49114803F06CFE4FF48072C7
:201760002146224803F066FEB9E70A4A18490B4803F060FE21461E4803F05CFEAFE7054A49
:201780001349064803F056FE21461A4803F052FEA5E700BF10850108E8830108F083010873
:2017A0000087010800E100E0901900206C0C002084190020C94E00087C0C0020E20F0020E2
:2017C0002C880108941A00205C0C0020EC880108208501084087010870870108CC8701089F
:2017E000188701089C8701080488010848880108A0880108C88801084FF4807300B583B0FF
:201800000A490DF10602ADF8063016F043FABDF80630B3F5807F05D1022808BF002003B025
:201820005DF804FB012003B05DF804FB9419002030B44FF48035114A114B956641F67135F4
:20184000104C1A6FE369C2F30332E56302FB000003F48032636823F4401349B10A49884233
:2018600009D808494B600AB10023CB6330BC704706498842F5D943F48013F2E70090005072
:201880000080005000000350002D3101005A620238B51B4B0546D3F820310C4603F00703FF
:2018A000062B29D8DFE803F0040A0F14191E2300012205B12B6004B1226038BD0BF068FEC0
:2018C00005220346F5E70BF0AFFE03220346F0E70BF0C2FE02220346EBE70BF0C1FE0722F2
:2018E0000346E6E70BF054FE06220346E1E70BF09BFE04220346DCE700221346D9E700BF8C
:201900000080005038B5174B0546D3F828310C4603F00703013B052B20D8DFE803F00B0FB2
:2019200013171B030BF080FE042305B1286004B1236038BD0BF02CFE0523F6E70BF074FEBD
:201940000323F2E70BF088FE0223EEE70BF088FE0723EAE70BF01CFE0623E6E70023184605
:20196000E3E700BF00800050002370B5124A82B00193D2F88041064604F00304022C0D4651
:201980000BD0032C13D0012C0BD01C460EB1019B336005B12C6002B070BD0BF05DFE0190FA
:2019A000F4E7194601A8FFF773FF1024EEE70BF057FE07240190E9E700800050002230B520
:2019C000174B83B00192D3F82032054603F007030C46042B21D8DFE803F00310161B0B00F7
:2019E00001230DB1019A2A6004B1236003B030BD0BF082FE09230190F3E7002101A8FFF736
:201A000081FF1223EDE70BF02BFE07230190E8E70BF06AFE0A230190E3E70023E1E700BFFA
:201A20000080005038B5154B0546D3F800320C4603F00703042B1ED8DFE803F0030E1318D7
:201A40000900012205B12B6004B1226038BD0BF0C1FD0F22830AF5E70BF046FE0A220346E6
:201A6000F0E70BF049FE09220346EBE70BF040FE0C220346E6E700221346E3E70080005075
:201A800038B5154B0546D3F808320C4603F00703042B1ED8DFE803F0030E13180900012213
:201AA00005B12B6004B1226038BD0BF093FD0F22830AF5E70BF018FE0A220346F0E70BF03C
:201AC0001BFE09220346EBE70BF012FE0C220346E6E700221346E3E70080005070B54FF4DB
:201AE00080360BF09DFD41F671340D4D0D4AAE66126F0D4BC2F3033202FB0000DA69DC63B8
:201B00000A495B68884223F44013074988BF43F4801332404B600AB10023CB6370BD00BF05
:201B2000009000500080005000000350005A6202002230B51F4B83B00192D3F894320546D1
:201B400003F00703013B0C46032B31D8DFE803F012180D020BF084FD072301900DB1019A40
:201B60002A6004B1236003B030BD0BF075FD02230190F3E7002101A8FFF78AFE1023EDE7B7
:201B80000C4BD3F8403103F00303022B0DD0032B05D0012B06D0002011230190DEE70BF005
:201BA000A7FDF9E70BF0A0FDF6E70BF0A5FDF3E70023D3E700800050002230B51F4B83B064
:201BC0000192D3F86032054603F00703013B0C46032B31D8DFE803F012180D020BF040FDDD
:201BE000072301900DB1019A2A6004B1236003B030BD0BF031FD02230190F3E7002101A8EC
:201C0000FFF746FE1023EDE70C4BD3F8403103F00303022B0DD0032B05D0012B06D00020C8
:201C200011230190DEE70BF063FDF9E70BF05CFDF6E70BF061FDF3E70023D3E700800050CE
:201C4000430904D0012B13D0022B13D0002300F01F0031B1012203F5805302FA00F01860DF
:201C60007047012203F5005302FA00F018607047014BECE7014BEAE764800050688000507C
:201C8000002300B5B0F5807F83B0019300F21681B0F5807F00F20E81DFE810F087010C01F7
:201CA0000C010C010C010C010C010C010C010C010C010C010C010C010C010C010C010C0154
:201CC0000C010C010C010C010C010C010C010C010C010C010C010C010C010C0187018A013B
:201CE00087018A01490149014901490149018A0132017901A301CF0179018A018A018A0198
:201D00000C010C010C010C010C010C010C010C018A018A018A01C70163018A010C010C01E9
:201D20000C010C010C010C010C010C010C010C010C010C010C0149018701870187014001F1
:201D400079017901AB0104019D01D5010C010C010C010C010C0121010C010C010C010C01D3
:201D60000C010C010C010C010C010C010C010C010C010C010C010C010C010C010C010C0193
:201D80000C010C010C010C010C010C010C010C010C010C010C010C010C010C01C4010C01BB
:201DA0000C010C010C010C010C010C010C010C010C010C010C010C010C010C010C010C0153
:201DC0000C010C010C010C010C010C010C010C010C010C010C010C010C010C010C010C0133
:201DE0000C010C010C010C010C010C010C010C010C010C010C010C010C010C010C010C0113
:201E00000C010C010C010C010C010C010C010C010C010C010C010C010C010C010C010C01F2
:201E20000C010C010C010C010C010C010C010C010C010C010C010C010C010C010C010C01D2
:201E40000C010C010C010C010C010C010C010C010C010C010C010C010C010C010C010C01B2
:201E60000C010C010C010C010C010C010C010C010C010C010C010C010C010C010C010C0192
:201E80000C010C010C010C010C010C010C010C010C010C010C010C010C010C01B101B0F535
:201EA000286F07D17B4AD2F8703203F00303012B00F08880002003B05DF804FBB0F5C06F6A
:201EC00000F08F8011D9B0F5206F00F092801DD9B0F5406F00F0B780B0F5486FDFD101A8BD
:201EE0000021FFF725FE0198E5E7B0F5607F00F0B08022D9B0F5A06F6DD0B0F5B06F13D10B
:201F000001A80021FFF730FD0198D4E7B0F5F06F00F08B801FD9B0F5106FCBD101A80021FF
:201F2000FFF7AEFD0198C6E7B0F5806FC2D101A80021FFF7ADFC0198BDE7B0F5007F1FD1D9
:201F40000BF02CFB534BD3F89030C3F304630133B0FBF3F0AFE7B0F5D06F6ED0B0F5E06FAB
:201F6000A8D14C4BD3F8403203F00303022B2FD0032B00F08380012B9CD10BF0B5FB9AE709
:201F800010D9B0F5207F13D0B0F5407F92D10BF021FB404B1B6FC3F380230133B0FBF3F023
:201FA000400888E7B0F5C07F84D10BF013FB82E70BF010FB374B1B6FC3F380230133B0FB75
:201FC000F3F078E7D2F8403103F00303022BCFD10BF092FB6FE701A80021FFF7EFFC01989C
:201FE00069E72C4BD3F8403103F00303022BBFD1EEE701A80021FFF7DFFD01985BE74FF09D
:20200000E023186910F00400CFD1224BD3F8403103F00303022BDBD0032B2FD0012B7FF452
:202020004AAFAAE70BF0BAFA45E71A4BD3F8603103F00303022B9BD1CAE701A80021FFF777
:20204000F1FC019837E701A80021FFF75BFC019831E7104AD2F8802002F00302022A16D047
:20206000032A11D0012A0CD018460A4BD3F88030C3F301130133B0FBF3F01CE70BF038FB60
:2020800019E70BF08BFAF0E70BF082FAEDE70BF0E7FAEAE700800050002300B5B0F5807FA5
:2020A00083B0019300F09F816BD9B0F5F06F00F0858147D9B0F5206F00F061811ED9B0F549
:2020C000406F00F06281B0F5486F07D1002001A9FFF72EFD019803B05DF804FBB0F5286F83
:2020E00023D1CF4AD2F8703203F00303012B00F08381022B14BF00201520ECE7B0F5086F0A
:2021000017D1C74BD3F8003103F00303022B00F00781032B00F07C81012B00F07D810120D5
:2021200003B05DF804FB80F01381002003B05DF804FBB0F5106FF8D1002001A9FFF7A0FC24
:202140000198C8E7B0F5B06F00F0418140F2EC80B0F5D06F00F04181B0F5E06F40F0D48015
:20216000AF4BD3F8403203F00303022B00F0D880032B00F00081012BD1D10BF0B5FA0A2079
:20218000A9E724385C28D0D85C28CED801A353F820F000BF6B2300086B2300086B2300087D
:2021A0006B2300086B2300082B210008CF2300082B21000811230008DB2300082B210008BB
:2021C0002B2100082B2100082B2100082B2100082B2100082B2100082B2100082B2100085F
:2021E0002B2100082B2100082B2100082B2100082B2100082B210008BD2300086121000875
:202200002B2100082B2100082B2100082B2100082B2100082B2100082B2100082B2100081E
:202220002B2100082B2100082B2100082B2100082B2100082B2100086B2300082B210008BC
:202240002B2100082B210008392100082B2100082B2100087F230008E32000085F2300088D
:202260008B2300082B2100082B2100082B2100082B2100082B210008CD2000082B210008BB
:202280002B2100082B2100082B2100082B2100082B2100082B2100082B2100082B2100089E
:2022A0002B2100082B2100082B2100082B2100082B2100082B2100082B2100082B2100087E
:2022C0002B2100082B2100082B2100082B2100082B2100082B2100082B2100082B2100085E
:2022E0002B2100082B2100082B2100082B2100082B2100082B2100082B2100082B2100083E
:202300002B21000897230008B0F5C06F7FF40DAF434BD3F8403103F00303022B7FF428AF6A
:202320000BF0EAF90920D6E6B0F5607F7FF4FBAE3B4BD3F8803003F00303022B78D0032B9D
:2023400070D0012B7FF4F1AE0BF028F90E20C2E6B0F5806F09D0B0F5A06F7FF4E6AE0020C5
:2023600001A9FFF72BFB0198B5E6002001A9FFF78FFA0198AFE60BF0BBF90C20ABE6002060
:2023800001A9FFF719FC0198A5E6002001A9FFF7B9FA01989FE6224B186F00F00700431E87
:2023A000032B3FF6C2AE01A252F823F0392400082D240008D720000815240008184BD3F81E
:2023C000603103F00303022B7FF4D2AEA8E7002001A9FFF7C9FA01987DE6002001A9FFF785
:2023E00021FB019877E64FF0E0231B695B078FD50BF0F0F80D206EE6D2F8403103F00303A7
:20240000022B23D0032B1DD0012B17D0112062E60BF020F908205EE60BF006F903205AE618
:20242000008000500BF0B4F8062054E6052052E60BF016F907204EE602204CE60BF054F967
:20244000112048E60BF054F9112044E60BF054F9112040E608B50121022000F02BFD0BF0C7
:20246000DFF80021FFF7E4F94FF48030044B1A6F03F5805142F480621A67086708BD00BF71
:202480000080005010B50BF0A5F8184BD3F8844014F01004FAD1D3F88430C3F38113C3F1BD
:2024A0000203002BCCBF01212146FFF7C1F90121002000F057FD4FF4C070FFF7E1FB844693
:2024C0000B4A0C4B944588BF4FF48064196F802021F4806121431967FFF7D2FB064B984219
:2024E00003D84FF48032054B1A6710BD0040005080F0FA0200800050005A620200A00050F4
:202500004FF480104FF480320249034B48669A62704700BF009000500050005A70B5044641
:202520008020FFF7B9FD03286BD04FF4801545F60E034FF0A0604FF48031544A5566544A9B
:20254000C2F88030534B986203F580539962936DD903FCD44E4A936D13F08043FBD1D4E920
:202560000001090541EA0061E07B0143207B41EA0041607B41EA0031A07B41EA801111619A
:20258000616990692569090600F0004041EA85610143A07E3E4D0143207E41EA0041607E81
:2025A00041EA00219161E169126A00290CBF0020082022F00F020A43E17E42EA8102024318
:2025C0002A62E269F2B1022A53D094F8223094F820202F491B06886A43EA42132E4A0240C1
:2025E00094F82400134394F8232043EAC00343EA02438B6294F825301BB1254B274AC3F86E
:20260000802070BD94F8243094F82020DB00A96A43EA4213204A0A4094F82110134343EADD
:20262000011343F480331E4AAB62AB6D32EA0303FBD14FF080714FF00040164A91622B698B
:20264000A66823F4700343EA06532B61906194F822300BB9134B996294F82330002BC9D140
:202660004FF480310F4B0A4A9962936D5B00FCD4C0E72B61AB6100F065FB6B6B23F47F4354
:2026800043F408536B6300F061FB9EE7009000500040005A0050005AC7FFFEFEF1A7FFFF8D
:2026A000030001000060005A014B93F900007047F30F0020014B1880704700BFE40F00203E
:2026C000002920DD70B44FF48036034641F671350E480F498666086F0E4AC0F3033000FB47
:2026E0000333D169D56352680B4C22F44012A342084B88BF42F4801231405A6009B100226B
:20270000DA6370BC70470021FFF792B8009000500080005000000350002D3101B0F5807F32
:2027200070B50C4600F01A8268D9B0F5F06F00F0AB8144D9B0F5206F00F0EE812AD9B0F5DD
:20274000406F00F0FA81B0F5486F10D1023C0F2C8CBF0021D54BD64A98BF53F82410D2F85D
:20276000943223F007030B43C2F8943270BDB0F5286FFBD1112C00F02D82152C14BF002162
:202780000221CB4AD2F8703223F003030B43C2F8703270BDB0F5086F40F0F280CC1E062CCB
:2027A0008CBF0021C34BC24A98BF53F82410D2F8003123F003030B43C2F8003170BDB0F59E
:2027C000B06F00F0878140F20581B0F5D06F00F09281B0F5E06F40F0E880093C032C8CBFF8
:2027E0000021B54BB24A98BF53F82410D2F8403223F003030B43C2F8403270BD24385C280A
:20280000B4D85C28B2D801A353F820F04D2A00084D2A00084D2A00084D2A00084D2A0008A4
:202820006D270008D52A00086D270008B3290008F72A00086D2700086D2700086D27000878
:202840006D2700086D2700086D2700086D2700086D2700086D2700086D2700086D27000898
:202860006D2700086D2700086D2700086D270008892A0008DB2700086D2700086D270008EB
:202880006D2700086D2700086D2700086D2700086D2700086D2700086D2700086D27000858
:2028A0006D2700086D2700086D2700086D2700084D2A00086D2700086D2700086D27000855
:2028C000892900086D2700086D270008192B0008752700082B2A00083B2B00086D270008AF
:2028E0006D2700086D2700086D2700086D2700084D2700086D2700086D2700086D27000818
:202900006D2700086D2700086D2700086D2700086D2700086D2700086D2700086D270008D7
:202920006D2700086D2700086D2700086D2700086D2700086D2700086D2700086D270008B7
:202940006D2700086D2700086D2700086D2700086D2700086D2700086D2700086D27000897
:202960006D2700086D2700086D2700086D2700086D2700086D2700086D2700086F2A000872
:20298000B0F5106F7FF4F2AE093C062C8CBF00214A4B474A98BF53F82410D2F8083223F00A
:2029A00007030B43C2F8083270BDB0F5C06F7FF4DDAE093C032C8CBF0021414B3C4A98BF83
:2029C00053F82410D2F8403123F003030B43C2F8403170BDB0F5607F1ED13A4BD3F8FC209F
:2029E000D20140F1EB80D3F8FC208C1F22F08072082CC3F8FC2040F27B812D4AD2F88030A8
:202A000023F00303C2F880302E4AD2F8FC3043F08073C2F8FC3070BDFFF4A8AEB0F5806FAF
:202A200014D0B0F5A06F7FF4A1AE073C0B2C8CBF0021254B1E4A98BF53F82410D2F820328C
:202A400023F007030B43C2F8203270BD023C052C8CBF00211D4B164A98BF53F82410D2F88F
:202A6000203123F007030B43C2F8203170BD8B1E062B00F2B180DFE813F002010501AF00E3
:202A80001601AF00AF001301093C032C8CBF00210F4B074A98BF53F82410D2F8603123F0DE
:202AA00003030B43C2F8603170BD00BF188A010800800050A88901087C8901088C890108AA
:202AC0007C89010800ED00E0E8890108648901087C890108023C0E2C8CBF00218A4B8B4A0F
:202AE00098BF53F82410D2F8803123F003030B43C2F8803170BD093C062C8CBF0021844BD4
:202B0000824A98BF53F82410D2F8003223F007030B43C2F8003270BD023C0F2C8CBF0021AE
:202B20007C4B7A4A98BF53F82410D2F8603223F007030B43C2F8603270BD023C052C8CBF3A
:202B40000021754B714A98BF53F82410D2F8283123F007030B43C2F8283170BDA1F1090496
:202B6000082C3FF603AE01A353F824F0912B0008912B00086D270008912B0008AD2C00086F
:202B80006D2700086D2700086D270008912B00084FF48031614B5D48614A406E5966536A83
:202BA000C40343F0010353624FF0E0225CBF5D4B5966136923F00403136170BD8C1F082C89
:202BC00040F28A80514AD2F8803023F00303C2F8803070BD0121D4E5002635460121022034
:202BE00000F068F9FEF77AFF4FF48031474A136F43F480631367494B1967136F23F00703C8
:202C00002B4313670AF0E6FC474AD2F8845015F01005FAD1D2F88410C1F38111C1F1020183
:202C2000FFF74EFD0121284600F09CF94FF4C070FFF726F884463D49344A8C4588BF4FF48E
:202C40008065136F802023F480632B431367FFF717F8374B984203D84FF48032314B1A675D
:202C6000002E7FF483AD032C7FF480AD4FF48031304B314A9962936D5D00FCD470BD00264F
:202C80000125ABE74FF480164FF4803223482A4946668E6A294B25469A62C6F300669DE7AE
:202CA000002604259AE70026022597E74FF480311A4B16481A4A406E5966536AC00323F05E
:202CC000010353624FF0E0225CBF164B5966136943F00403136170BD0C4A1949D2F8803036
:202CE00051F8241023F003030B43C2F8803070BD064A1349D2F8803051F8241023F003039D
:202D00000B43C2F880307FE6588A0108008000508C890108188A010864890108009000503C
:202D200000C0075000A000500040005080F0FA02005A62020060005A0040005A0050005AD4
:202D4000C4890108EFF3108072B6704700B962B6704700BFEFF31180302383F311887047F9
:202D600080F31188704700BF0246EFF31083DB0730D42049430951F8233000F01F00C340CB
:202D8000DB4313F001005FFA82FC00D07047002A22DB0A4492F800231209EFF3118313B13C
:202DA000B2EB131F16D214494B68C3F30803002BECD0103B58B20028DBB214DB00F160401A
:202DC00000F5614090F800030009824234BF00200120704701207047084B0CF00F0C634431
:202DE0001A7E1209D9E703F00F03043B0B44187E0009EAE700E100E000ED00E0FCEC00E007
:202E0000054B420953F8223000F01F0023FA00F0C04300F00100704700E100E0044A4178EB
:202E2000536F23F4407343EA01235367704700BF00400050704700BF704700BF10B50A4AF0
:202E40000446136943F00403136108F08FFFFFF7F1FF30BFFFF7F0FF08F0BCFF04B110BD89
:202E6000BDE810400AF0B6BB00ED00E010B5084A0446136943F00403136108F077FF30BF3D
:202E800008F0A8FF04B110BDBDE810400AF0A2BB00ED00E0704700BF704700BF034A017945
:202EA000D36E23F030030B43D366704700400050704700BFF8B50546284CD4F88430DE0677
:202EC000FBD4D4F88430C3F381139D4226D00AF065FB012D074628D0FFF734FF4FF00072DD
:202EE0001F4B06465A662846FFF7E2FF4FF480636A1E93402367636E98010AD4174B04E07E
:202F0000D3F884205A6E910103D4D3F884209206F6D53046FFF71AFF022D00D0F8BD384688
:202F2000BDE8F8400021FFF7CBBB2946FFF7C8FBFFF708FF4FF00072094B06465A66284673
:202F4000FFF7B6FF4FF480632367636E9C01D5D53046BDE8F840FFF7F9BE00BF00400050AF
:202F60000060005010B50C4680B10A4B21461B7813B1094B984204D9BDE810400220FFF72E
:202F800099BF0120BDE81040FFF794BF0AF006FBEBE700BF981B0020005A620210B50A4C42
:202FA000037823700AF0FAFA2378012113B1074B984204D9BDE810400220FFF77BBF0846F6
:202FC000BDE81040FFF776BF981B0020005A620230B54FF000444AF6CD332949294A4C6601
:202FE000546C83B0136404F0010400282ED0136B18070BD50023244801E083423ED0116B0C
:2030000001330907F9D4204A934237D0202501221E4B1F481B4985625A608B6A2B400AD1E1
:20302000194801E0834229D08A6A01339206F9D5154A934222D0002014B1124B154A1A64BD
:20304000019014F067FD019803B030BD536BD907FCD45368DB07EED501210D4B5960136BBF
:203060000B40E8D10749084801E0834206D00A6B0133D507F9D5044A9342DCD10720DBE724
:20308000009000500040095040420F0000500950006009503254FFFF38B54FF000454AF68F
:2030A000CD331649164C4D66656C23644378154A5B0043F0010305F00105D363636B13F096
:2030C0000B0FFBD16368827823F4F87343EA02136360C278437943EA0223A36002798379FC
:2030E00043EA022323610078FFF772FF0DB1064B236414F00FFD012038BD00BF00900050C0
:2031000000400950004000503254FFFF38B54FF000454AF6CD330F2828BF0F200E4A0F4954
:20312000546E02F50C224D66516C136401F00101536B1B06FCD4136A23F00F0318431062B0
:2031400009B1074B1364002C03DB4FF00042054B5A6614F0DFFC38BD0080005000900050CD
:203160003254FFFF00A0005038B54FF000454AF6CD330F4A0F49546E02F50C224D66516C22
:20318000136401F00101536B1B06FCD4136A23F4F85343EA0020106209B1074B1364002CC9
:2031A00003DB4FF00042054B5A6614F0B3FC38BD00800050009000503254FFFF00A00050D4
:2031C000F1B110B4012400F5805301F00F025C60436DC3F30B03002BFAD18263436D13F0DC
:2031E000780FFBD101F001024B0748BF42F00202836C03F003039342FAD15DF8044B704716
:203200004368D90716D58368DA0702D50369DB0708D50A238363436D13F0500FFBD1836C8A
:203220009907FCD1012200F500535A6043689A07FCD47047704700BF836C5B06FCD54164ED
:20324000704700BF2DE9F84304460D4616461F464AB10122002B4CD1274B04EB4401090133
:203260000B44AA401A60072D4FF0300824D8042318FB0438FFF766FD0F2320494FEA850EBE
:2032800058F801C006FA0EF282EA0C0203FA0EF3134083EA0C0348F80130FFF757FD4EB914
:2032A000012127BB144B04EB44042401234401FA05F51D60BDE8F8830C2318FB0438A5F142
:2032C00008034FEA8309FFF73DFD0F230B4906FA09F258F801C003FA09F382EA0C02134096
:2032E00083EA0C0348F80130FFF730FDD7E7044BD9E7034BB1E700BF40E0035030C0035096
:2033000040D00350F8B505460E4603F003078368144623F440738360FFF714FDAB6883EA88
:20332000072202F440725A40AA60FFF70FFD2EB9B5F1B64F17D0114B9D4219D0104BAA680C
:20334000DA5D04FB02F26AB16FEAC4041444A319B3FBF2F3A968013B8A0702D5012B38BF88
:203360000123AB61F8BD2E20FEF78AFC0646E5E72F20FEF785FC0646E0E700BF008006501A
:20338000948A010870B50026124A00F500530664DA634A7804460D4600F1080392B903F5D2
:2033A000805302221A60AA6822B120462B7B6968FFF7A8FF2B7804343BB1012304F5805485
:2033C000236070BD03F50053EBE7012304F50054236070BDFFFF1F00F8B501210446202089
:2033E000FEF72EFC01212120FEF72AFC01220020FF274FF000464FF0FF354FF400110E4B22
:203400005A60227812069A6094F801C0A27842EA0C429A61094A9F62986318645E6503F5E4
:2034200000531D65C2F88011E3781B01DBB282F815331160F8BD00BF0000045000E100E0AC
:2034400070B501250C46204BC1B28D401D658300216803F1A04303F5882359601B4E637B1C
:2034600000EB400006EB00100366E37AA17A1B0543EA0143217B22F0030243EA4153C36512
:203480000267FFF767FC736D2B437365237A13B1336C2B433364637A1BB10C4A936B2B43D4
:2034A00093632279A379094943EA0243064A93616679E379064C43EA0643A36155638D64A7
:2034C000BDE87040FFF74CBC00200450000004500010045010B50124C0B28440FFF73AFC21
:2034E000094BDA6A224209D15B6B34EA03030CBF01240024FFF734FC204610BD0024FFF785
:203500002FFC204610BD00BF00000450C2F3062302F0070241B9134942EA032242F4402222
:20352000063041F820207047122B09D0142B07D0013B312B0AD90B4B163043F820207047B0
:20354000022A0CD0032A00D10122013B06491630CB5C42EA0322034B43F820207047002257
:20356000F3E700BF00800350988A01083AB122F0030202F1A04202F5603209B9106070476B
:203580000002FBE74FF48031064A074B51669B69C3F3851103F03F021B0B8170427003703A
:2035A000704700BF0090005000C00750014B986CD96C70470080E00F70B5054616461C46B5
:2035C00011B3402C27D019D8E4B1202C08BF082313D103FB06F24FEA520C0CEB4113B3FB96
:2035E000F2F3A9680D4A21F06001A960A968203B0C4302EAC303AC60EB6170BD602CFCD1B8
:203600000423E6E71023E4E74FF42070FEF738FB402C0146D7D10623DBE700BFF8FF7F0042
:203620000122CB43934000F5805C03F00A03CCF804204361416111B900F50050426070471F
:203640002DE9F041002341F205074FF0010840F6AA6E374A00F58056DFF8E0C0C6F8048026
:203660009042C0F814E08360C365C76000F500570361C361C364C7F848C0836504BF0365C5
:20368000436501237B6073608B7C04460D461BB1836843F080438360EB7C33B1244B9C42E4
:2036A0003BD0E36D43F08003E3652A8A6B7B20461343EA891343E3602B7BD5E90112FFF7E2
:2036C0007BFF6B7D1BB1A36843F48033A360AB7D1BB1A36843F40043A360EB7D2A7E1B0716
:2036E000120502F4E00203F0E04313430222A3656B7E023B012B94BF0E4B0F4BC3F82027E9
:203700006B7E03F0FD03012B4FF004030CBFF365FB652B786361BDE8F0812A7DA3F51033D9
:20372000C3F8C821E36D43F08003E365BDE700BF00C0055000D0035000E00350FFFF0100CA
:2037400083695B06FCD5C163704700BF4369002B0FDB51B9436ADA07FCD4012200F500531D
:203760005A6043689B07FCD47047012300F58050436070474368DA0700D4704710B5044652
:20378000FFF7E8FA636ADB075CBF0123E360BDE81040FFF7E5BA00BF43682DE9F043002BB8
:2037A0005FD14C78CA780B79002C14BF4FF020084FF00008002A4A798C7914BF022700278D
:2037C000002B14BF04230023002ACA7991F808C014BF08260026002C14BF10250025002A39
:2037E0004A7B14BF4FF400740024BCF1000F14BF4FF4806E4FF0000E002A14BF4FF4807C0D
:203800004FF0000C0A7B91F80B90120742EA096291F8029042EA090291F80A9042EA094218
:2038200042EA08023A43134333432B43234343EA0E0343EA0C0383604369002B0BDB0B7898
:20384000D3B9436ADA07FCD4012200F500535A6043689B07FCD44B7A0BB100230362BDE88E
:20386000F083436A002BFCD1012200F500535A6043689C07FCD494E7012200F580535A60CD
:20388000E9E700BF10B5FCF735FD0B4B1A68D2E9003192680B44191A52B1D2E90034234416
:2038A0001B1A9268994228BF1946002AF5D14318024A136010BD00BFA01B00209C1B002070
:2038C0002DE9F8430388054653B3592B2BD187292ED082291FD14FF000092B4FDFF8B08029
:2038E0003C68C4B1002603E0A36826469BB11C4620460AF037F90028F6D022468821E068AA
:2039000001F002FF00282BD0404601F02FFFA3682646002BEBD159232B800120BDE8F88327
:20392000194A1360F7E700232B800320BDE8F883154F0020396819B9EDE789680120D9B15B
:20394000CB689342F9D000B139608B68002BE2D0D86890420BBF9B6819468B609B68F5E774
:20396000A368E0606EB1B3603B68C4F808902BB1FFF788FF3C68B4E73960CCE7034A13602F
:20398000C9E73B60F1E700BFA01B00209C1B0020A80C002010B50446104801F0E7FE104929
:2039A000E3680A684BB142B194420FD0134601E09C420BD09B68002BFAD10A4BA2601B68E0
:2039C0000C60E360BDE81040FFF75CBF054B1B68E360BDE81040FFF755BF00BFA80C00208A
:2039E000A01B0020C4200020014801F0BFBE00BFA80C002010B504460AF098F82046BDE8FA
:203A00001040FFF7C7BF00BF10B504460AF096F82046BDE81040FFF7BDBF00BF10B50446E9
:203A20000AF09AF82046BDE81040FFF7B3BF00BF024B1868003818BF01207047A01B0020E9
:203A400010B5124B04461968814214D00B462BB19A68A24206D01346002BF9D10023C4E9CB
:203A6000023310BDA2689A6049B1FFF70BFF0023C4E9023310BD82681A60002AF5D10022FE
:203A8000034B1A600023C4E9023310BDA01B00209C1B0020014B1888704700BFE60F002063
:203AA00000283ED0037A30B4022B10D00378022B15D00379B3B10024C37913F0030318BFB5
:203AC000012301B10C6002B1136030BC7047C579447A037965B90CB9012BF2D0DBB10023E3
:203AE0001C46EEE7447A14F0030418BF0124E3E7C4B1032D37D1032C2ED0022C24D143BB05
:203B0000022D2DD00123032D24D1A4F10204B4FA84F46409D5E7023C012C8CBF0024012447
:203B2000CFE770474BB9022D08BF0123EAD1A4F10304B4FA84F46409C3E7032D01D0022D36
:203B400002D123461C46BCE7002BC8D1022DDAD1EDE701230024B4E7002BC0D10123D4E734
:203B600001231C46ADE7022DC7D1002BF1D1022C4FF00103DBD11C46A3E700BF002330B5A7
:203B80000B608B80437D0D46DB075CBF01230B70037E0446012B83B023D9694601AA04F18B
:203BA0001000FFF77DFF009B0BB10223EB70019B0BB102236B70E37D03F00303022B03D0FB
:203BC000032B14BF00230823AB70637E03F00303022B03D0032B14BF002308232B7103B003
:203BE00030BDC37D13F0030309D0437E13F0030305D0C38B828B9B1AB3FA83F35B092375E8
:203C0000CBE700BF02280CBF012307230B441A781846FF2A03F1FF3303D18142F7D10120E2
:203C200070470020704700BF00B583B06946FFF7A5FF9DF800309DF801209DF802000233BF
:203C40009DF80310134403449DF804209DF805000B441344184403B05DF804FB437882780D
:203C600090F800C0DB00120102F0100203F0080313430CF0070290F803C0134302794FEA5C
:203C80004C1C0CF0200C920143EA0C0302F0400213430B704379827990F809C003F00103C1
:203CA000520043EA8C1302F0020290F807C01343027A4FEA8C0000F00C001201034302F0C3
:203CC000300213434B70704770B50D46044682B06946FFF753FF04F110002946FFF7BEFFD8
:203CE0009DF80030012B02BFA37E0320AB709DF8013018BF0220022B06D1A28B431C2A54E6
:203D0000A28B0230120AEA549DF802605EB1731E2344291893F800C0A34201F801CB03F1C2
:203D2000FF33F7D130449DF80330022B06D1E28B431C2A54E28B0230120AEA549DF804600D
:203D400056B1F31D23442918073413F80129A34201F8012BF9D1304402B070BD02784378D8
:203D6000C2F3C00002F0070C4870C2F3401081F800C0C870C2F3001C03F00100C2F380128F
:203D800081F802C00A71C3F3400CC3F301124871C3F381009B0981F806C0C8710A724B725D
:203DA000704700BF012943DD2DE9F04186B00F4603A914460546FFF7D1FF0B469DF8112043
:203DC00003CB1B882061616123836AB3AE1C03A802AA01A9FFF764FE9DF81380B8F1000F69
:203DE00043D0029B002B31D1B8F1020FA38367D0B8F1030F4DD09DF81580B8F1000F2CD019
:203E0000019BBBB9A38BE383B8F1020F4DD0B8F1030F31D0701B3B1A8742C4E90E6300DACA
:203E2000002006B0BDE8F081AB78EE1CA376CEE700207047727816F8023B03EB0223029AE0
:203E40009BB2E383002ADFD1A383DDE7727816F8023B03EB02239BB2C6E71E4904F1080045
:203E600000F0CAFAA4F81E80D4E72046194900F0C3FAA4F81C80BEE706F10800034604F10A
:203E8000080213F8011DB34202F8011BF9D10646C0E706F108000346621E13F8011DB34241
:203EA00002F8011FF9D10646A5E70A4904F1080000F0A2FA7378237216F8023B6372A9E73A
:203EC0002046044900F098FA7378237016F8023B637090E7E48A010830B591B001F0FEF816
:203EE000044601F00FF96A4601462046FFF75AFF00283ED0044601F0D5F8D0B30B209DF852
:203F0000101001F059F907209DF8131001F054F99DF817308BB1BDF81C50FFF7BBFD854273
:203F200005D04FF6FF73BDF81C209A4221D169469DF81700FFF766FEB0B10C2002A901F058
:203F400047F99DF815303BB14FF6FF71062001F033F9204611B030BD06209DF81A1001F079
:203F60002BF9204611B030BD69460D2001F030F9E3E74FF0FF34ECE7F8B505460B20144687
:203F80000E46A84700232074A374002E35D0E37463750820A847002702460123A275237654
:203FA00006206774A847A076FFF774FD03460920E383A84701280CBF3B4603236376FFF763
:203FC00069FD03460A20A383A84701281AD066B90323E375637E022B0CD0E37DA3F1020360
:203FE000B3FA83F35B092375F8BD0223E375637E022BF2D101232375F8BD0720A84766753D
:20400000E074C6E7E775E5E730B591B04FF6FF740546FFF73FFDA0423AD0402200216846FF
:2040200013F084FB01F0E4F86A4601461A48FFF7A3FF01F0DDF818B3ADF800400C2001F0AD
:20404000CFF8014602A800F0D7F901F047F80E9001F058F8034668460F93FFF7E5FD04461E
:2040600015B9204611B030BD00F0EAFF80B101F045F801466846FFF727FE204611B030BD02
:204080000D2001F0ADF80146684600F0B5F9D5E74FF0FF34E5E700BFC55100080120FFF7DC
:2040A000B3BF00BF0020FFF7AFBF00BF08B501213A20FDF7C5FDBDE8084000F033B800BF16
:2040C0000022024B1A60FFF7F1BF00BFA41B002028B370B504460126114D94FAA4F0B8B159
:2040E000B0FA80F205EB02135B6806FA02F1104624EA01042BB105EB0212117B21B1916849
:204100009847002CE9D170BD9847002CE5D1FAE7D5F80432002BE0D020221046EBE770470C
:20412000A81B002008B51920FEF76AFE58B91A20FEF766FE00B908BD4FF08062054BC3F8FB
:2041400080211A6008BD4FF00072024BC3F880211A60ECE700E100E0074BD3F82404D3F807
:20416000202403F50053104000F0553020F05020C3F82004FFF7ACBF00C00350074BD3F8FB
:204180002404D3F8202403F50053104000F0AA3020F0A020C3F82004FFF79ABF00C0035072
:2041A00010B50948FCF7E2FC084800F015FC48B1064C037A01465B080372204600F0D8FBB7
:2041C0000028F6D110BD00BFF01D0020B80C00200146014800F02EBCB80C002080B110B50F
:2041E0000446FCF787F82368C01AB0F5963F05D2207A032894BF0020012010BD002010BD3A
:204200000020704770B50546144689B1022907D006290CD1BDE8704001462A4800F00ABCF1
:204220000146284800F006FC0646002832D170BD0146244800F0FEFB0646002835D0FCF729
:2042400059F8337A30602344102BA8BF10233372FCF750F83368E401C01AB0F5963FA4B28A
:2042600008D2337AB188042B34BF19230A2329B9B48070BDB18819230029F9D003FB04F453
:20428000C3F1640201FB02420F4CA4FB02325209B28070BDFCF72EF8337A30602344102BE4
:2042A000A8BF10230C343372D2E7334608222946044800F0DBFB06460028B8D047F6FF73F7
:2042C000C380BCE7B80C00201F85EB5138B50546042000F077FF04462946224824B200F089
:2042E000A9FB40B347F6FF73B0F906209A422DD05A2504EB8404630012FB05321A4C8188C4
:2043000084FB0234D217C2EB641424B2C48001B138BD04F15A0212B222EAE2721E2AA8BFF5
:204320001E22124BD201A3FB0232120902F5807292B2828038BD034608222946094800F0D9
:2043400095FB0028E4D047F6FF73C3808388C480002BDDD147F6FF739C42DAD14FF480726A
:20436000E7E700BFB80C00201F85EB518988888838B5094800F030FB60B10446064D21465D
:20438000284600F0FBFB2146284600F0F1FA04460028F4D138BD00BFB80C002000B5002174
:2043A00083B0084800F0C0FA074A002312684FF4E13100920548064AFCF7B2FB03B05DF8B6
:2043C00004FB00BFB80C0020C4200020F01D0020A141000800B583B0FFF7E8F86B4600BAF7
:2043E00009BACDE90010034A03CB1060516003B05DF804FB101E00200A684B680260436079
:20440000704700BF082208B513F06EF8B0FA80F0400908BD0368DBB110B4002400E0134696
:2044200099420FD01A681C46002AF8D100230B600368CBB11A461B68002BFBD111605DF8D6
:20444000044B70470A686CB1226000221A60EDE700230B6003684BB11A461B68002BFBD106
:20446000116070470260F0E70160E8E70160704730B405684DB12B46002400E0134699429B
:2044800007D01A681C46002AF8D10D60016030BC70470A683CB1226000221A6005680D60A6
:2044A000016030BC70470260F6E700BF03689BB110B4002400E0134699421A6805D01C468E
:2044C000002AF8D15DF8044B704734B1226000221A605DF8044B704770470260F7E700BF7A
:2044E00003682BB100201B680130002BFBD170471846704700B58BB00246282168460CF0B3
:2045000095F96946024800F095FF0BB05DF804FBEC8A010808B3F8B5002504460126104FA5
:2045200065B1EB070FD53846217800F083FF082E12D0013501360134002DF2D13846217845
:2045400000F078FFF5E72E2001F01EF93846217800F070FF082EECD1F8BD024800F06ABF41
:20456000008B0108F08A010808B501F08FF9014B187008BD033C0020034B062019784A1C8B
:204580001A7000F019BE00BF033C0020F8B5FBF7B1FE104E0025344607460C2000F020FEDA
:2045A0002146FFF72FFF103420B90135102DF4D10020F8BD062000F005FE06EB05152B7B7C
:2045C0008342F5D1A868381AB0F5206F8CBF00200120F8BD181E002070B5184E00243546F9
:2045E0000C2000F0FDFD2946FFF70CFF103510BB0134102CF4D10F2406EB041C64465CF8AD
:20460000100DDCF80410DCF80820DCF80C3066450FC4F3D1062000F0D5FD3073FBF76AFE62
:2046200003460C20B36000F0DBFDBDE8704001460248FFF7E1BE002CDED1EBE7181E0020AC
:2046400010B5044642880021406813F06FF823886288A0680021BDE8104003FB02F213F0A6
:2046600065B800BF30B44588ADB10022436802E00132AA420CD019460C780133002CF7D19A
:2046800001230B700588806802FB050030BC7047002030BC70472846F8E700BF10B4448802
:2046A00082685CB18A420ED00023B0F800C001E0914209D00133A3426244F9D14FF0FF304A
:2046C0005DF8044B704700234268D15C0029F5D00021D15408465DF8044B704783688B42F0
:2046E00008D84288008800FB023081422CBF002001207047002070474188034649B10020B2
:204700005B68194413F8012B02B901308B42F9D170470846704700BF08B501213A20FDF717
:204720008FFABDE8084001212E20FDF789BA00BF032110B5084600230422FEF783FD002385
:20474000042202210320FEF77DFD0023042207210220FEF777FD0221002308460422FEF7D3
:2047600071FD01230B2205210220FEF76BFDBDE8104001230B2206210220FEF763BD00BF72
:2047800030B585B0EC460325134B144C0FCB8CE80F001348D4F8F0246146024042F4A0226E
:2047A00042F00202C4F8F024D4F8EC34034043F4C02343F00203C4F8EC344FF0B640C4F8A5
:2047C000E854FEF7DFFD00204FF0B6431022054908709A6005B030BD088B010800C0035031
:2047E000FCFFF0FF043C002038B50D4B0D4D1C68002818BF05463CB12846211DFFF702FE73
:2048000028B92468002CF7D14FF0FF3038BD064A064B9068201A801003FB00F038BD00BFCF
:20482000401F0020E48A0108D00C0020ABAAAAAAF8B50F4B1C68C4B100200E4F0E4E0F4DA8
:2048400003E003F09BFE246874B1B368E31A9B1005FB03F3FB5C002BF5D1211D0028F0D110
:2048600024680846002CF0D1F8BD2046F8BD00BF401F0020381F0020D00C0020ABAAAAAA47
:204880002DE9F04705460F46214CDFF898A0DFF88490DFF8848004F1200654F8041FB9B1F5
:2048A0008A68AAB1A5B1D9F80830EB1A4FEAA30C0C3308FB0CFC0BD04868CB6800FB0C3020
:2048C00030B109681AF80C300B41DB0700D59047B442E2D1C5B10F4B0F4A9B68EB1A9B10D9
:2048E00002FB03F300220D490D48CA5429460AF80320FFF7DBFD0FB9BDE8F0872946BDE880
:20490000F0470448FFF7CABE4FF0FF33EAE700BF141F0020D00C0020ABAAAAAA381F002026
:20492000401F0020981F0020034638B10268072A04D80D4850F82220934211D00B48026826
:20494000072A0BD810B499600749541C1A60046041F8223001205DF8044B7047002070470A
:2049600001209960704700BF181F0020941F0020844638B339B3F0B5C46845680B1B93FBAA
:20498000F5F3591C1CD0114A03EB4303966816EB830315D00E4FDFF83CE01B68991B8A10B4
:2049A00073B10C3107FB02F20AD002FB054030B1DCF800101EF802200A41D207EDD5F0BDF4
:2049C0000020F0BD70470846704700BFD00C0020ABAAAAAA981F0020124B1968F9B1124B2E
:2049E0009B68C91AD0B111F10C0F17D00F4B891001FB03F34268C16802FB031179B110B495
:204A00000B4C0268E35C1341DB0703D508465DF8044B70475DF8044BFFF7AABF0021FFF7C5
:204A2000A7BF00BF401F0020D00C0020ABAAAAAA981F002010B504460846FFF7D5FE84B1FB
:204A4000431C02460DD06068E36800FB023038B1054B21689B5C0B4113F0010F08BF002093
:204A600010BD002010BD00BF981F00202DE9F041002837D00C463C4B0546002908BF1C46FA
:204A80002146FFF7D7FFF0B100262046FFF7ACFE471C2BD06A68EC68002102FB00442046CA
:204AA00012F044FEEB686A68E31A93FBF2F35A1C06D001222D492D68C85CAA400243CA5432
:204AC0002046BDE8F0812046FFF78EFE0130DBD12748FFF711FE0028D6D1FFF7A9FE064669
:204AE0000028D2D100242046BDE8F081DFF880804046FFF7B7FD0746B0B139461D48FFF7BC
:204B000089FCD8F808302146381DFC1AFFF774FC14F10C0F1BD100210C4608466A6812F02F
:204B200005FE2046BDE8F081002EDBD03046FFF75BFE411CD6D0D8F8083000EB400013EB24
:204B40008007CFD000213846FFF79AFED5E70A4BA41004FB03F36A68EC68002102FB0344BD
:204B6000204612F0E3FD9DE7E48A0108981F0020D00C0020401F0020ABAAAAAA20B321B350
:204B8000C3684268CB1A93FBF2F35A1C1DD0012230B5104C056814F803C002FA05FE2CEAD0
:204BA0000E0C04F803C0C4684368091B91FBF3F14B1C0CD0084C0068635C02FA00F023EAFA
:204BC00000036354104630BD704700207047104630BD00BF981F0020381F0020A0B1A1B157
:204BE000C2684368891A91FBF3F35A1C0DD0012110B4074C0268E05C01FA02F20243E2542F
:204C000008465DF8044B704770470020704700BF381F0020A8B1A9B1C2684368891A91FB70
:204C2000F3F35A1C0ED0012110B4074C0068E25C01FA00F022EA0002E25408465DF8044B3A
:204C40007047704700207047381F002088B179B1C2684368881A90FBF3F0431C08D0054BC9
:204C600000EB4000996811EB800002D00430704700207047D00C002070B50B4B1C685CB1F0
:204C800005460E46012D09D01DB963680BB1984718B92468002CF5D1002070BDA368002B60
:204CA000F7D030469847F3E7A01F002047F6FF739A4250D0022903D83A4B5B5C012B01D92C
:204CC0000020704770B53849DC0001EBC30511F8333095F802E0012B48D06868002839D0A7
:204CE000B0F900C094453BDA8388FF2B54D000222825C823A3EB0C0393FBF5F321444C786E
:204D00001A4412B2944228DC621E12B2274DD10005E000EBC2018E88D1009E420FD301448D
:204D2000CB88896801321CFB031323EAE3735C33A5FB031312B294424FEA9313E9DC00EBFE
:204D4000C20232F8040C834228BF0346734538BF7346D8B270BDFF207047002AD6DAD3E7D7
:204D6000B0F902C09445B8BF9446BDE795F803C00020ACEB0E0107E06C6834F913409442D3
:204D8000D4BF184603F1FF310B1A8142A1EB5303F2D87144C8B270BD0122B0F90630B0F963
:204DA0000850A7E7188B0108A41F0020D34D621002296BD8374B5B5C012B67D8F0B53649B6
:204DC00011F83300012846D001EBC3014C68002C5ED08B78934239D2CB78934251D9A3884A
:204DE00091F801E0A3F1FF03B3FA83F30EF1FF3E5B095FFA8EFE734504F104070DD296B22C
:204E000004F10C0502E0E6450B463DD935F83300591CB0425FFA81FCF5D24FF47A7606FB80
:204E200002F207EBC303B3F902105B6801EBD175D31A03EB650393FBF1F3B4F900009842D7
:204E400003DBB4F90200984203DDF0BDB4F90200F0BD18B2F0BD01EBC300C4788578DB00C8
:204E6000944294BFC5EB0400C5EB0200641BC2B2A242C8BF002219444B68D8BF5200985E34
:204E8000F0BDB4F90000F0BD6346C6E7034870470248F0BD188B0108A41F00200080FFFFAF
:204EA00010B5074C204612F048FEA446054CBCE80F000FC49CE8030084E8030010BD00BFE9
:204EC0001C8B0108A41F002070B582B0044612F057FE08B102B070BD6946204612F02FFE6B
:204EE00088B9134D9DF800302A789A42F2D00E2B0AD020460BF094FF064620460C4912F0FC
:204F00000BFE18B1FEE7FEE76426F6E73146204612F017FE50B92B78042BDBD169462046FE
:204F200012F00DFE9DF800302B70D3E7FEE700BFDC0C002038B500230C4A0D4C0D48C2E9DF
:204F40000033C2E90233C2E904330B4D0B4A03800B4920462B801370FFF74EFA04F1080009
:204F60000749BDE83840FFF747BA00BF4C200020BC1F0020D23B0020D03B0020053C0020CE
:204F8000E48A0108F8B500230C46124A124F134DDFF858C0124EC2E90033C2E90233C2E9A3
:204FA00004332B700F4905463846ACF800303380FFF722FA07F108000A49FFF71DFA802C59
:204FC00028BF802429462246074812F0BDFA20463480F8BD4C200020BC1F0020053C0020B0
:204FE000D03B0020E48A0108CC1F0020D23B00202DE9F0410E4A0F4B14781F88E519802D00
:2050000003DD00252846BDE8F0810646DFF82C802246414612F098FA074B3A4619883019F9
:20502000214458FA81F112F08FFA2846BDE8F081053C0020D03B0020D23B0020CC1F002074
:2050400010B5144B144C154A94F800E01B881288734452FA83F39BB21A18802A17DC013BF3
:205060001BB2002B0EDB0E4A591C03EB000C11446244013B11F801CD1BB2B3F1FF3F02F8D1
:2050800001C9F6D1864484F800E0012010BD002010BD00BFD23B0020053C0020D03B002006
:2050A000CC1F002008490A8882420BDB10B4074C80B22388121A03440A80012023805DF84E
:2050C000044B704700207047D03B0020D23B0020014B1880704700BFD03B0020044A054B78
:2050E00012881B780448134450FA83F0704700BFD23B0020053C0020CC1F00200048704715
:20510000CC1F0020014B1888704700BFD03B00200549064A064B128808781B88104453FAAA
:2051200080F080B2704700BF053C0020D23B0020D03B0020844630B58E460D4C0D4D0FCC8D
:20514000CCF80000CCF80410CCF80820CCF80C3003CCCCF81000CCF814100FCDCEF800009A
:20516000CEF80410CEF80820CEF80C3030BD00BF4C200020BC1F0020844630B58E46006847
:20518000DCF80410DCF80820DCF80C30084C094D0FC4DCF81000DCF8141003C4DEF8000025
:2051A000DEF80410DEF80820DEF80C300FC530BD4C200020BC1F0020014B23F8101070476F
:2051C0004C200020014B33F8100070474C200020024B0C3803EBC000FFF70EB9BC1F002082
:2051E000024B0C3803EBC000704700BFBC1F002001490248FFF706B9E48A0108C41F00203C
:205200001F4A93689B07FCD453689907F9D4D369002BF6D15368012B03D00278184BDA6091
:2052200070475368012B0DD0154A93689907FCD453689B07F9D4D369002BF6D10278104BFC
:20524000DA60704710B40E4B01E0DA6912B15A68D207FAD40122022409490A4B0C615A60D9
:20526000074A93689B07FCD453689C07F9D4D369002BF6D10278024BDA605DF8044B7047BB
:2052800000800A5000A00A50074A93689907FCD453689B07F9D4D369002BF6D101230349B6
:2052A0004B601361704700BF00800A5000900A50C8B94A680B7812B1127843EAC2034A78DE
:2052C0000AB143F002038A6812B1127843EA82138A780AB143F00403CA6812B1127843EA37
:2052E0004223014A9364704700800A5008B9014B5964704700900A5008B9014B596470478A
:2053000000A00A5008B9014B1964704700A00A5010B9024B186C70470020704700800A5056
:2053200028B939B1012904D1044B186D7047002070477047014BD86C704700BF00800A50AA
:2053400020B929B1012902D1034B1A6570477047014BDA64704700BF00800A5010B9024B72
:20536000586D70470020704700800A5000B583B001A8FEF707F99DF80530012B1CD006F0A2
:2053800011F805F097FF06F033F805F0BFFF05F039FF05F0A7FF07F0F1FA06F0B9F9FFF75D
:2053A000BBF9FFF7C5F9FFF7EBF9FEF7BBFE03B05DF804EBFEF784BE9DF80430002BDED12C
:2053C0004FF48011074B0848084A406E5966536B23F0E05343F040635363C3025CBF044BD9
:2053E0005966CCE700900050008000500040005A00A0005008B506F001FF05F0FBFF06F069
:20540000E9FD45F2786000F047FA04F0E3FABDE80840FEF7DFBF00BF704700BF06F07CBAB4
:205420000AB90020704708B508461146FBF7F2FB002008BD0FB400B583B004AA52F8041BEA
:205440000448019207F0DEFB03B05DF804EB04B0704700BFE40C00202DE9F8432E4D044656
:205460002A68824255D0002A40D0134601E0002B3CD01B689C42FAD1002B37D0274EA37B15
:20548000376853B1A36843B18C4206D000228321346004F10C0098472A68944228D02AB151
:2054A0001368A3422FD01A46002AF9D1A37BE3B100232D68A373C5B14FF002084FF00109B1
:2054C000AB7BDB070ED5AB6805F10C0053B122468721356085F80E809847023801280DD9F0
:2054E00085F80E902D68002DEAD13760BDE8F88323682B60A37B002BDAD1F6E72946284699
:20550000FFF7AAFFEEE723681360A37B002BCFD1EBE71346B0E700BFC8200020C4200020A3
:2055200038B583687BB104460220A07309480D46046004F10C0098470238012804D9832D10
:2055400002D00123A37338BD21462046BDE83840FFF782BFC42000200022F8B51249134B9D
:205560000C681A70D4B101250227114E01E02468A4B1E37B002BFAD0A36804F10C00E58173
:20558000002BF4D0002282213460A77398470238012804D9A5732468002CEAD1F8BD2146E3
:2055A0002046FFF759FFE2E7C8200020093C0020C4200020024B1878421C1A70704700BFC2
:2055C000073C0020F8B5164A1568854207D0044635B12B4600E01BB11B689C42FBD1F8BD11
:2055E000002CFCD025600126146000220D4DA3682F68A673A2815BB10A4602212C60A1731A
:2056000004F10C00812198470238B04202D9A6732F60F8BD21462046FFF71EFFF8E700BF26
:20562000C8200020C42000208A22014B1A707047073C00202DE9F8432D4D2B78F3B92D4E2D
:205640003378BBB12C4C2D492278013B02EB4200013202F00702227001EB80025468DBB2C9
:2056600051F82080177A33705CB1812F1DD0A27BD2071CD428781844BDE8F883FFF76CFF00
:20568000DDE71F4A146854B9F4E7A37BD90704D5424639462046FFF743FF246814B32B7807
:2056A000002BF2D0FFF758FFEFE70122A273D4F80890B9F1000FDDD00223A373114B4246B9
:2056C00039461C6004F10C00C8470238012805D9832F03D001223378A273CBE72146204697
:2056E000FFF7BAFE337828781844BDE8F88300BF093C0020083C0020063C002064200020A7
:20570000C8200020C420002030B40F4C94F800C0BCF1080F15D005460C4B00201B7863444D
:205720000CF1010C84F800C003F00703084C03EB430344F8232004EB830319725D6030BC76
:205740007047012030BC7047083C0020063C00206420002038B5837B034CDB07256801D5E5
:20576000FFF7DEFE256038BDC420002018B1837B013B012B00D970470123024AC3731370F1
:20578000704700BF093C0020FBF74ABA10B5044612F044F801462046FBF73CFABDE8104021
:2057A0000A20FBF73DBA00BF08B50448FEF748FFBDE808400248FEF743BF00BFF80C0020C1
:2057C000EC0C00200148FEF797BF00BFEC0C002038B50F48FEF746FF044680B10D48FEF703
:2057E00041FF0546206060B1FFF702FC034605F19A0105F18200A5F88030FFF79BFC204607
:2058000038BD21460248FEF749FF2C46F7E700BFEC0C0020F80C0020006800F19A018230B4
:20582000FFF788BC10B5044607482146FEF756FF00B910BD21680548FEF730FF2146BDE893
:2058400010400148FEF72ABFEC0C0020F80C002010B5044609482146FEF740FF00B910BD14
:205860002468B4F880102046FFF78CFB04F19A0104F18200BDE81040FFF77EBCEC0C002039
:205880000020704700207047704700BF08B511F0A7FF80B208BD00BF08B5FDF787FEBDE8EF
:2058A000084011F095BF00BF8179427990F804C0521A12EA0C0F034606D000684A1C02EA2F
:2058C0000C02405C9A7170474FF0FF30704700BF30B50588044683B03DB1502D24D11648CB
:2058E000C36833B3012003B030BD4FF420711248FEF780F8114BDB689847114840F2D2431D
:2059000000902A4640F629110E4805F037FC0E4A0E490F48FFF78EFD0E48FFF737FF50231D
:205920000120238003B030BD00230320238003B030BDFEF769F8EAE74C26002000A0010818
:20594000595900085C260020988B0108E8830108F0830108A48B01082DE9F0470C46DFF821
:205960006090DFF86080124F099DBDF828604A4641463846FFF75EFD2A4631460D48FFF724
:2059800059FD2046FEF7B6FD0A20FFF7FDFE4A4641463846FFF74EFD0748FFF7F7FE23460F
:2059A00032462946BDE8F047044805F0D5BB00BFF0830108BC8B0108DC8B01085C260020B6
:2059C000988B0108E88301082DE9F84305460C4608F06EFC002D3CD0294B2868696803C303
:2059E000002C3FD0274BA068E16803C3264E01220021234808F072FD3368022B37DC234C0F
:205A0000DFF89890DFF89880214F04F15405237C13B1637C012B04D91C34AC42F7D1BDE8E4
:205A2000F8833368022BF7DD4A4641463846FFF701FD1848FFF7FEFC3368022BECDD20467F
:205A4000FEF758FD3368022BE6DD0A20FFF79CFEE2E703460A4D59689A680068DB680FC50C
:205A6000002CBFD10C49064808F0E0FEBEE70B4A0B490748FFF7DEFC0A48FFF787FEBEE712
:205A80008026002088260020CC0C0020A8330020F0830108288C010880390020048C0108D4
:205AA000E8830108088C01082E4B1A7B22B1B3F84E20DB8A9A4200D070472DE9F0419AB082
:205AC000044609F0D5F9002829DD274D2B68022B3BDC09F0A5FA0446D8B1DFF89C80234F6C
:205AE000234E04E0204609F0A1FA044688B12246642101A809F0F6FA2B68022BF2DD394647
:205B000042463046FFF796FC01A91A48FFF792FCE8E72B68022B11DC1AB0BDE8F081124BB6
:205B20001B68022BF8DD144A10491148FFF782FC12481AB0BDE8F041FFF728BE0E4A0B49DA
:205B40000B48FFF777FC0E48F3E70B4A07490848FFF770FC09F08CF9224601460948FFF78E
:205B600069FCB6E790260020CC0C0020E8830108F0830108548C0108048C0108748C0108DA
:205B8000608C01082C8C010810B5044C237803B110BDFFF719FF0123237010BD0A3C002026
:205BA00010B52C4C82B0217869B300242A4B03F1540193F820201AB193F82120012A1CD066
:205BC0001C338B42F5D1204608F008FC04B978B303F006FE4023024600932146002000F0ED
:205BE0005FFE00F0E7FB1D4B1B68022B11DC1C48FFF7CCFD002002B010BD1A7CFE2A11D010
:205C000003F11004DCE70846FFF7DEFE01232370CBE7144A14491548FFF70CFC1448FFF7C8
:205C2000B5FDE4E75A7C802ACAD003F11004C7E70A4B1B68002B02DC4FF0FF30DBE7094AB3
:205C40000C490A48FFF7F6FB0B48FFF79FFD4FF0FF30D0E70A3C002098330020CC0C002063
:205C6000A08C0108048C0108E8830108F0830108888C010820850108B08C0108054B187B73
:205C800030B1B3F84E00DB8AC01AB0FA80F04009704700BF902600202DE9F04715462A4C1E
:205CA000DFF8C09080460E464FF4B072002120461F469DF824A011F039FDB9F82030AB42D4
:205CC00028D152463846089903F008FE054638B91E4B1B68002B2BDC00252846BDE8F08712
:205CE00001254FF0FF33F0224FF2F00184F80D80A4F85810E2732573E364A4F85030C4F8B0
:205D0000089030687168B268F3681C340FC42846BDE8F0870D4B1B68002BDDDD0C4A0D49EC
:205D20000D48FFF787FB29460C48FFF783FBD3E7074A08490848FFF77DFB0948FFF726FDDB
:205D40002846BDE8F08700BF90260020CC0C0020048C010820850108F0830108D08C010804
:205D6000FC8C0108440D0020F0B590F8511090F8502083B0CDE9002100F13C0704460146CC
:205D8000028A3B46007EFFF787FF002863D03A4D236A627D6B61237FE18BAB74637FAA73B6
:205DA0002B760023626D354E2A60628B698385F85C30A17D2A8285F85410217DAA6885F889
:205DC0005310E17D85F8553085F85210136898472B4803F023F903F0E5FA3268022A10DCC1
:205DE000012A05DC03F038FB0125284603B0F0BD244A25492548FFF71DFB2548FFF7C6FC01
:205E0000F0E7204A23492148FFF714FB697B2248FFF710FB3268022AE2DD05F11C00FEF78C
:205E200069FB3268022ADBDD1C48FFF703FB3268022AD5DD3846FEF75DFB3268022ACFDD73
:205E4000B5F84E2094F850101548FFF7F3FA3268012AC7DDCCE7094B05461B68012BC4DDF0
:205E6000084A09490948FFF7E5FA0E48FFF78EFC284603B0F0BD00BF90260020CC0C002027
:205E8000148D0108048C010884850108F0830108848D0108E8830108388D0108688D0108D7
:205EA000748D01081C8D010810B5104B1B68012B09DD04460E490F4A0F48FFF7BBFA21460E
:205EC0000E48FFF7B7FAFFF7D9FE0D4B08B983F85C009B681B68984702F05EFE094803F011
:205EE0009DF8BDE8104003F02FBB00BFCC0C002084850108048C0108F0830108BC8D01080B
:205F000090260020D08D010870B5194C194E94F9522094F85230002A4FF0F00203F10103F4
:205F2000B4BFDBB203F07F0384F8523033680546012BE27307DC237B23B1BDE870400E4887
:205F4000FFF7B2BF70BD0D4A0D490E48FFF772FAB4F84E30294694F852200B48FFF76AFA04
:205F60003368022BE7DD094802F0ACFCE3E700BF90260020CC0C00202C8E0108048C0108F7
:205F800084850108F0830108E08D0108148E01082DE9F041764D2B7BB5F84E40002B7CD1EF
:205FA00095F85C30032B61D0FFF768FE064620B1AB68BDE8F041DB691847D5F8448002F0E1
:205FC0003DFE02F07FFD686C02F04AFD0346694FA5F84E303868FEF7FFFC044600283CD1E0
:205FE000B8F1000F6BD0B5F84E30B5F84C209A4201D9A5F84C304FF6FF72B5F850309342E3
:206000000AD0B5F84E10914206D0CB1A002BB8BF5B42B3F5007F55DC95F85B30002BC7D09C
:206020006B6C002B6AD0B8F1000F7DD0524C03F049F82368022B5DDC002385F85B30AB681E
:20604000BDE8F041DB69184723685BB321463868FEF78EFC04460028C2D0204602F000FD4F
:20606000B5F84E308342EFD82660EFE7002002F029FD4FF6FF739C42A5F84E3098D03E4B34
:206080001B68012B12DC3D4802F0C8FF03F0E4F9AB68BDE8F041DB69184705F16400FAF77E
:2060A00087FD7DE7FAF726F92060CFE7344A35493548FFF7BFF93548FFF768FBE3E7B5F83E
:2060C0004E3096E72C4C2368012B0DDD2C4A2D492D48FFF7AFF9B5F85010B5F84E202C4811
:2060E000FFF7A8F9B5F84E102A48A5F8501002F095FF91E7284802F0E5FB9DE71E4C85F8E4
:206100005C302368012B07DD1D4A1E491E48FFF791F92248FFF73AFB184802F07FFF02F04D
:20612000FDFE03F099F984E70123134C1C4885F85C3002F073FF2368012B02DC03F078F927
:2061400075E70F4A0F491048FFF774F91548FFF771F92368012BF1DD686C02F08DFCFEF7F1
:20616000C9F92368012BE9DD0F48FFF70FFBE5E790260020680D0020CC0C0020608E010863
:20618000048C010884850108F08301083C8E0108708E0108908E0108208F0108D88E0108B0
:2061A000A88E0108B48E0108C48E010803289ABF024B53F820000248704700BFB0920108B3
:2061C000308F0108094A137B73B110B4044640B102F11C0CBCE80F00206001206160A260C1
:2061E000E3605DF8044B7047184670479026002038B5224D2B68022B22DC214CFFF73EFD5E
:2062000078B994F9582094F85830002A03F10103B4BFDBB203F07F03002084F8583001F088
:2062200031FFFEF7A5F802F0B7FC08F03DFF03F069F994F841305B061AD40023237338BD74
:20624000104A11491148FFF7F5F81148FFF7F2F82B680B4C022BD1DD04F11C00FEF74AF907
:206260002B68022BCADD617B0A48FFF7E3F8C5E7094803F0EBFA0023237338BDCC0C00203D
:2062800090260020048C0108E8830108F0830108388F0108488F0108BC2600200322024B7B
:2062A00083F85C2003F050B99026002010B51D4C237BABB1A36C5A1C12D0834211D9181AA5
:2062C000B0F5967FA0640BD2606C48B1164B1B68012B1BDC02F0D0FBBDE8104001F0F4BC04
:2062E00010BD0022104BA2641B68012B07DD0F4A0F491048FFF79EF80F48FFF747FA032372
:2063000084F85C30BDE8104003F01EB9074A08490848FFF78FF8A16C0848FFF78BF8606CA5
:20632000D8E700BF90260020CC0C0020048C010884850108F0830108588F0108788F0108EA
:2063400010B5084C237B5BB194F840200146D20804F11C0011F0C8F8B0FA80F0400910BD6B
:20636000184610BD9026002010B50446FFF786FC20B12046BDE81040FFF7C6BD10BD00BF64
:20638000024B1B7B0BB1FFF78FBD704790260020074B9A7B187B1AB9003818BF01207047DB
:2063A00028B193F85C00012894BF00200120704790260020024B1B7B03B97047FFF7E8BDE2
:2063C000902600202DE9F843A44D06462B7B0C462BB16A7B237E9A4209D0BDE8F883FFF734
:2063E0004DFC98B12B7B002BF3D1BDE8F883102221469B4811F078F80028EED1628AEB8A21
:206400009A4221D2BDE8F843FFF7C2BD637D012B40F28D80934F3B68012BDEDD9249934AE9
:206420009348FFF707F8617D9248FFF703F83B68012BD2DD8D4A8C498D48FEF7FBFFBDE850
:20644000F8438D48FFF7A2B9E17D95F8520003F0A9F9002873D14FF6FF73628A9A4204D04A
:2064600095F85730013385F8573095F85210E07D03F098F9002835D0EB8AB5F84E20794F7B
:206480009A423B6800F0A880012B0ADD774A76497748FEF7CFFFE27D95F852107748FEF74E
:2064A000C9FFFFF7EBFBE8B93B68012B00F3058103F028F8002002F005FB637D012B40F2EC
:2064C0000F813B68012B08DD6749684A6848FEF7B1FF617D6748FEF7ADFF2B7B13B1684879
:2064E000FFF7E2FC22460121304601F09FFB002862D0304602F094FB8046002869D090F83D
:206500000690304602F08CFB00287ED0638A8380637E8371AB6CD3B1B8F1000F02D06B6CBF
:20652000984514D02B7B002B3FF457AF6AE72046FFF71AFC00287FF455AF4A4F77E7628A4B
:20654000EB8A9A42EED14F4802F068FDEAE7454F3B68022B00F3A8806B8BC3EB03135B01D7
:20656000AB64AB7B002BDDD0B8F1000FDAD06B6C9845D7D14946607E03F014F90028D1D01A
:2065800095F90F20EB7B002A3A6803F10103B4BFDBB203F07F03012AEB730ADD334A324937
:2065A0003348FEF747FF4946EB7B627E3648FEF741FF02F087FDB5E72A4B1B68002BB1DDDA
:2065C0002A4A32492A48FEF735FF3148FFF7DEF8A8E74FF0F00994E7002B0ADD234A2B49B7
:2065E0002348FEF727FFE27D95F852102948FEF721FFE37D85F85230FFF740FB00283FF456
:2066000071AF2548FFF780FC6CE7304607F042FD002869D0214B0146012218682346FEF767
:2066200025FA00287FF472AF0E4F3B68002B7FF779AF0E4A15490E48FEF7FCFE1848FFF765
:20664000A5F83B68002B7FF76DAF084A0F490848FEF7F0FE1348FFF799F863E7902600205E
:20666000AC260020CC0C002084850108048C0108F0830108B48F0108E08F01087C90010830
:206680002C8E0108F48F01086891010820850108F89001081090010860900108680D002033
:2066A0001891010830910108104A11491148FEF7C1FE1148FFF76AF84EE70C4A0F490D48B4
:2066C000FEF7B8FEB5F84E20E17D0D48FEF7B2FE3B68022B7FF7ECAE0A4802F0F3F8E7E6C0
:2066E0002046FFF741FBF8E6074FAAE7048C0108E8830108F08301085491010884850108B4
:20670000C0900108148E0108CC0C002011B1104802F084BC10B50A460321044601F086FA3D
:2067200040B10C4B1B68022B05DC2046BDE8104001F00EBB10BD084A08490948FEF77AFE3D
:206740000848FFF723F82046BDE8104001F000BBA0910108CC0C0020048C0108E883010892
:20676000F0830108B091010838B5054691F823000C46C0B1FF2816BF144B4FF0FF335B8BFA
:206780000A4618BF43432946002008F0E7FB78B194F92530002B00DB38BD2846218CBDE81D
:2067A000384002F0B1BC0A46294608F0B3FBEFE7074B1B68002BEFDD064A07490748FEF717
:2067C00039FEBDE838400648FEF7E0BF90260020CC0C0020048C010820850108F0830108F2
:2067E000D0910108F8B51C4E0D4696F85910044602F0D8FF08B186F8594096F85830A342F0
:2068000000D0F8BD96F85C306FB2012B15D002F09FFC002FF5DA114B1B68012B09DD104AD1
:2068200010491148FEF706FE2A4621460F48FEF701FE032386F85C30F8BD002F02DA02F0A9
:2068400087FCE8E702230A4886F85C3002F0E6FBBDE8F84002F07CBC90260020CC0C0020BD
:20686000048C010884850108F083010800920108F491010870B505460E461C463AB924B1DA
:206880001DB1064BAE801B7B23B9012070BD02F0FFFBF4E7FFF77CFB012070BD9026002093
:2068A0002DE9F047374C82B094F80CC005460E46174698469DF828A0BCF1000F0AD010227F
:2068C00004F11C0010F010FEA0B34FF0F009FFF78FFC01E04FF0F0093B46314628460122EB
:2068E000CDE9008AFFF7D8F940F6084100231E2280252182244901202276A3743C2261610A
:2069000084F853304FF0FF31A4F854300223A4F84E501E4DA0731E4884F85C3084F8529040
