:020000040800F2
:200000000010002021B000081DB000081DB000081DB000081DB000081DB000081DB00008D9
:200020001DB000081DB000081DB000081DB000081DB000081DB000081DB000081DB0000818
:200040001DB000081DB000081DB000081DB000081DB000081DB000081DB000081DB00008F8
:200060001DB000081DB000081DB000081DB000081DB000081DB000081DB000081DB00008D8
:200080001DB000081DB000081DB000081DB000081DB00008E90E00081DB000081DB000088E
:2000A0001DB00008013F0008DD3E00081DB000081DB000081959010835630108AF7A010808
:2000C000AB7A0108015B0108BB7A0108B37A01080D630108B77A010875630108D963010840
:2000E0001DB000081DB000081DB000081DB00008159B00081DB000081DB000081DB0000875
:200100001DB000081DB000081DB000081DB000081DB000081DB000081DB000081DB0000837
:200120001DB000081DB000081DB000081DB000081DB000081DB000081DB000081DB0000817
:200140001DB000081DB000081DB000087DAD0008B54801081DB00008CF770108D57701086F
:200160001DB000081DB000081DB000081DB0000830B501380B4685B004286FD8DFE800F05D
:200180000A521B24030031F0010056D1364A117005B030BDA1F10B020F2A4ED83349344CDB
:2001A0000022086899B223600FF0E4FF002818BF032005B030BD2D490022086899B217F0DF
:2001C00016F9002005B030BD31F0070235D101F00201DA43002914BF01200020254C264DEC
:2001E000C3F38003237002F0010385F82930287126D01E4C2149206817F0C4F895F82910F3
:20020000206817F000F920684FF0FF3214A5D5E900454FF0FF33CDE9004516F0CBFF002046
:2002200005B030BD1148164B89B200220068198017F0D7F8002005B030BD022005B030BDA8
:20024000104B0A4C9B8903A92068ADF80C3016F099FF206803A916F0ABFFCBE7012097E7E1
:20026000CA0D01550202000012180020A01F00205C140020BD440020801400208414002007
:2002800000180020447C010870B50024404B84B083F8204383F8214383F8224383F82543D5
:2002A00083F8244383F81F4383F81E4383F8234383F8274383F847430AF0F0F804F05CFCAA
:2002C0000AF006F90AF018F90AF024F9214631480FF006FF304D286010B110F095FB10B108
:2002E000002004B070BD2D49286817F05BF80028F6D12B49286810F0E9F90028F0D10722B6
:200300002868114617F08FF80028E9D10146286816F0EEFF0028E3D19FED1B7B4FF0FF324E
:200320004FF0FF338DED007B286816F043FF04460028D5D102F0FCFF4AF6CD330E46194A83
:2003400019461380029022462868039617F049F8C6F30741360E224646EA0121286817F0AA
:2003600046F8224602A9286817F047F8802322460D49286817F01AF88028B1D121460B4868
:2003800004F050FFACE700BFCA0D01550202000000E100E070140020A01F0020941F002080
:2003A0008014002000180020242000206014002010B5054C237833B9044B13B1044800E07D
:2003C00000BF0123237010BD501A002000000000B8FE010808B5034B1BB10349034800E043
:2003E00000BF08BD00000000541A0020B8FE0108A3F5803A704700BF174B002B08BF134BB2
:200400009D46FFF7F5FF00218B460F461348144A121A16F07DFB0E4B002B00D098470D4BDA
:20042000002B00D098470020002104000D000D48002802D00C4816F0F1FD16F023FA2000B6
:20044000290000F055F816F00DFA00BF000008000000000000000000001000202C180020CE
:20046000084500201D7001082970010810B50446006830B1002104F0D5FE54F8040F002810
:20048000F8D110BD08B5064A13680133136003F091F900B908BDBDE8084003F067B900BFDD
:2004A0008C1A002030B583B00AF02AF90AF070FA012500230146054CCDE90035044AC909F1
:2004C000044823600AF088F903B030BD8C1A0020850400086C1A0020014B1868704700BFF3
:2004E0008C1A0020014B1868C00970478C1A00202DE9F04104F070FDFFF7D4FF04F0C4FEFD
:200500000021694804F08EFE00F0EEFB0EF078FF0AF004FD04F0A2FD04F076FF634B644FE3
:200520001B68DFF8E4819847624D7B689847D8F804309847AA79EB795F4E604C03EB0223D6
:2005400033802368022B00F3A5805D495D4804F0A1FD0A2004F048FF2368022B37DC5A4B66
:2005600029686A6819605A600021584804F05AFE4FF0FF300CF042FC23680546022B11DC40
:2005800004F07AFD5248FFF771FF0EF05FFF04F081FE0446E4B20EF05FFF002CF7D104F0FD
:2005A0006DFDF4E74B4A4C494C4804F073FD4C4804F070FD2368022BE2DD284603F07EFE8B
:2005C0002368022BDCDD0A2004F00EFFD8E7414A4149424804F05EFD424B4348196804F045
:2005E00059FD2368022BBADD3A4A3B493B4804F051FDD8F800103D4804F04CFD2368022B2F
:20060000ADDD344A3449354804F044FD3968384804F040FD2368022BA1DD2E4A2E492F48B5
:2006200004F038FD4AF6CD31324804F033FD2368022B94DD274A2849284804F02BFD1A21E3
:200640002D4804F027FD2368022B88DD214A2249224804F01FFD3188284804F01BFD2368E0
:20066000022B7FF77CAF1B4A1B491C4804F012FD234804F00FFD2368022B7FF770AF0D486F
:2006800003F02CFE2368022B7FF769AF0A2004F0ABFE64E70F4A1049104804F0FBFC19488F
:2006A00004F0A4FE51E700BFAC140020547C0108007C0108202300208A440020DC1400200E
:2006C000347B01083C7B0108143F00203C17002028820108007B0108087B0108107B010865
:2006E000D47B0108907F0108487B0108587B0108647B0108707B01088C7B0108AC7B0108C6
:20070000BC7B0108207B0108088001082DE9F0430D4614468B6883B00646D3E90078506B0D
:2007200092F82C9003F0A6FD686804F0ABFEA9681D4803F097FE29461C4803F093FE636B4D
:200740001B681BB30023A38504F0CAFE0146184B184D1B6804F10C0000932346A5FB0154BD
:200760000D1B04EB5504A408C4EBC404124A091B00F0C8FA3FB14A46314640463B4603B003
:20078000BDE8F043184703B0BDE8F08304F10C0000F000FB2146094803F06CFD21460848A0
:2007A00003F060FEE6E700BF2814002040140020D425002025499224C5070008F81A002049
:2007C0003414002010B32DE9F047436B04461D6886B0C5B1686804F06BFE0C207E4904F064
:2007E0002DFB0121072004F01DFB00F0B9F900280DDAAB683BB105202246294606B0BDE875
:20080000F047FFF783BF06B0BDE8F087704704F0ABFA724F90F802807B68039304F0A4FA71
:20082000064604F0ABFA039B01463046984704F015FBBB6906460393984700282DD1002E5C
:2008400066D1D7F81C90C84738BBBB681E4604F095FAB047002872D002281ED0AB68002B23
:20086000D1D00420C8E707F0BDFB6FF014031E1A03E007F0B7FBC64202D5C8470028F8D03D
:20088000C847002877D003213B6905A89847032803D19DF81630434540D0AA68002AB2D056
:2008A00094F82D104B1CDBB2052B84F82D301FD8127A94F82C00904226D2012B88BF1F26B5
:2008C00040F2828004F00CFE0146454B04F10C001B68444A00932346B1FBF6F404FB161145
:2008E00000F010FA686806B0BDE8F04704F0C4BD002194F82C3084F82D100133DBB284F828
:200900002C30127A9A4218D822462946012075E7BE6804F033FAB04700289DD1AB68002BBD
:200920003FF471AF002094F82C3022460133294684F82C3084F82D0060E70726C2E707F0BC
:2009400051FB6FF00C0AAAEB000A04E007F04AFB1AEB000F02D5C8470028F7D0039B9847B1
:20096000002880D1C84700287FF47DAF7B69984700283FF478AFA96800293FF444AF002261
:2009800094F82C3084F82D200133DBB284F82C300A7A9A4203D82246294602202EE704F0D0
:2009A0009FFD01460E4B104E1B6804F10C0000932346A6FB01640E1B04EB5604A408C4EB4A
:2009C000C404084A091B8BE701260B1DDBB206FA03F35E1E76E700BF20230020547C0108C1
:2009E000D4250020C5070008254992242DE9F041064682B00D200F4604F028FA054603F04B
:200A00009FFC01210B2004F00DFA464B1C6814B916E02468A4B12946201D03F0D7FB0028A1
:200A2000F7D0606B03F040FC07281EDD002E59D0012206213846334602B0BDE8F04118474C
:200A4000394803F0F3FC04460028EFD02946201D03F0B6FB002304F13002214631486263C3
:200A6000A385236303F0BAFBDBE7304803F0DEFC0546002841D02E4803F0D8FCA860002828
:200A800037D004F0D5FC686078B30520D5F8088004F0CEF910F0FF0008BF0823C8E9006759
:200AA0000CBF88F8083088F808002946606B03F095FB636B1B689D4214D194F82D30012B44
:200AC00029D91F2504F00CFD0146234604F10C00B1FBF5F4174A04FB151112680092164A9B
:200AE00000F010F902B0BDE8F081A968104803F0B9FC29460D4803F0B5FC606B03F0D4FB2F
:200B0000002893D12146074803F0B4FB2146064803F0A8FC8AE701250333DBB29D40013D30
:200B2000D0E700BFF81A0020341400204014002028140020D4250020C507000808B50548DE
:200B400003F062FC044803F05FFCBDE80840034803F05ABC40140020281400203414002031
:200B600010B501210B2004F05DF9BDE81040014B5B681847007E0108014B9B68184700BFC2
:200B8000007E0108014B1B6A184700BF547C0108014B5B6A184700BF547C010810B50D4BE1
:200BA00082B01B6898470C4B04469B6A192001A9984701280BD0002CB8BF1524019B802B12
:200BC000D4BFC4EB0300C4F1800002B010BD002002B010BD007E0108547C0108FFF706BF62
:200BE00000B583B004F0C4F8032802D103B05DF804FBFFF7C1FF0028F8DB0D2004F026F967
:200C00000E4903F0E3FAA0B10C2004F01FF90B4903F0DCFA0028E9D103F09CFB0028E5D1BD
:200C200003F0BEFB064B9B68019303B05DF804EB184704F013F90028E6D1D7E720230020CA
:200C40000880010810B5074C82B01920A36A01A9984728B903F06CFBFFF770FF236A9847DE
:200C600002B010BD547C0108F8B5038805462BB14A2B14D1882916D00120F8BD174B1C6810
:200C800034B1A168201D02F077FD2468002CF8D10122134B1A704A232B800120F8BD002326
:200CA0002B800320F8BD0D4B1C68002CF3D0231D9A4205D02468231D002CECD09A42F9D19B
:200CC000084E2146054803F0D5FAD4E90523376832600BB1E06998473760DCE7D81B0020E1
:200CE000BA440020D42500200021034A034B04481170196004F096BABA440020D81B002046
:200D00004C14002070B50E4C049E2578C0E905620446C36135B981602146BDE8704009483B
:200D200003F05CBA084D094B2E6804302B6002F023FD2E602146BDE87040024803F04EBA0B
:200D4000BA440020D81B0020D42500204C14002070B50C4B04461B782BB92146BDE87040D0
:200D6000094803F03BBA094D094B2E6804302B6002F00CFD21462E600348BDE8704003F0B8
:200D80002DBA00BFBA440020D81B0020D42500204C14002010B50A4B04461B783BB9C0E94F
:200DA00003332146BDE81040064803F063BA043002F008FD2146BDE81040024803F05ABA6B
:200DC000BA440020D81B0020094B1A7842B9094B01E0984209D01B68002BFAD101207047C8
:200DE0000069B0FA80F0400970470020704700BFBA440020D81B002010B50C460BF0ACFBF0
:200E0000204610BD00B583B00190012101A80BF0A3FB019803B05DF804FB00BF38B5114B1A
:200E20001B7883B10546D8B101F056FE0E4900230A46147B103244B10133082BF9D101F020
:200E400051FE0A4838BD0A4838BD1A012B608C50012201EB03131A7301F044FE204638BDF3
:200E6000044838BDBB440020DC1B0020048000F0028000F0018000F0002310B5164A82B02A
:200E8000126801928DF8043001F026FE134B1C78E4B901221A7001F025FE0422104B0DEBAE
:200EA00002001C731C7783F82C4083F83C4083F84C4083F85C4083F86C4083F87C408DF82F
:200EC000072002F04BF9204602B010BD01F00AFE044802B010BD00BF2C7C0108BB4400207D
:200EE000DC1B0020038000F02DE9F047214B1F6D5A6D17402BD4012500261F4CDFF87C807C
:200F0000DFF87C902F420CD0C8F85050236843B1D4E9012101313046A1609847637B012B51
:200F200008D00136082E4FEA450504F11004E9D1BDE8F08709EB46130028F2D1197B1A7FA5
:200F400060F3410160F3410219731A77E9E74FF000400A49084A0865D868C0F304200301CD
:200F6000D35802EB0012002BE2D0BDE8F04700215268184700000450DC1B00200020045075
:200F80005C1C00208C21054A054B126801FB0233187A003818BF0120704700BF5C1D0020F1
:200FA000641D00208C210A4A0A48136801FB0300037A53B113680133594201F0030103F010
:200FC000030358BF4B42136070471846704700BF5C1D0020641D00208C210A4A0A48136861
:200FE00001FB0300037A53B913680133594201F0030103F0030358BF4B4213607047002043
:20100000704700BF601D0020641D002000230372704700BF01207047014B1878704700BFE4
:20102000BC4400202DE9F041264F8CB00221386801AA16F0BFF970B100230425044601466E
:2010400006AA38688DF825308DF81E50ADF81C3016F0B4F910B10CB0BDE8F081BDF8066021
:20106000039ABDF80830013E0132013BB6B20392ADF80830ADF80660FFF7AEFF0546D0B1E4
:20108000BDF80880067200F1090303994246184615F04CFC049931B1BDF806204044A2EB64
:2010A000080215F043FC9DF92630069AAB809DF827302A60EB802146386816F083F90CB005
:2010C000BDE8F081A01F002008B5FFF7ABFFBDE80840FFF757BF00BF2DE9F0410646FFF77D
:2010E000A1FFFFF75FFF0446002839D090F8088006F078FF054616F070F916F06EF9214676
:20110000034651F809CB3046A3EB0C03DB03164E03F5F42303F5907386FB03C6DB17134F6C
:20112000C3EBA643EB1A42463B6015F0FFFB104BB4F904100F4A19800F4BE0881B781080FE
:201140002BB12046FFF762FF4046BDE8F081042089B203F067FE0320E18803F063FEF0E7EC
:2011600080464046BDE8F08183DE1B43981F00208844002086440020BD44002010B5038830
:20118000044663B140F2CA2293420DD1822901D0012010BDFFF746FFFFF7F4FE40B940F268
:2011A000CA232380012010BD00232380032010BD03F0F6FC03F0C8FD8021FFF78DFF002813
:2011C000EDDD80B203F0BAFD034BDB689847034804F0FCF8E3E700BF007C01086014002024
:2011E00000295FD0013810B50C4618280ED8DFE800F013180D1D330D0D413B0D510D0D0DC7
:201200000D0D0D0D0D0D0D0D0D0D0F00012010BD80230B60002010BD244B00201B680B60D7
:2012200010BD234B00201B880B6010BD0023214A0B6092F8293083F001030B60127912B16C
:2012400043F002030B601C4B1B784BB32368002043F00403236010BD0020184B08601B7840
:20126000F3B101230B6010BD154B0020B3F900300B6010BD134B0121186815F03BFF10F596
:20128000007F11D00028B8BF033040F38F032360002010BD0C4B0020B3F900300B6010BD5C
:2012A000002010BD02207047032010BD5C1400200018002080140020BD4400201218002091
:2012C00088440020A01F00208644002008B5054B0121186815F00EFF10F5AA7FCCBF0020BF
:2012E000012008BDA01F002070B5254A86B003AB064607CA83E807000121224A224C12789C
:201300002170B2B10020214A2149126809880090204800680EF020FFB0B91F4B1B78C3B97A
:201320002378012BFCD0002318462278237006B070BD1648134616490268164809880068B2
:201340000EF0FCFE0028E8D000230120237006B070BD06F047FE114B114A3605334482FBDA
:201360000312DB17C3EBA2431D1804E006F03AFE401B0028D7DA2378012BF7D0D3E700BF51
:20138000447C010812180020BE440020A42000205C140020A01F0020BD44002020A11D01C5
:2013A00083DE1B4370B501230C4605460F4E82B01A4604F1020C0DF1070130688DF807C0AC
:2013C00015F0F2FF002322462946306815F0ECFF074B1B783BB92B78C3F340130020054AA1
:2013E000136002B070BD0023F8E700BFA01F0020BD440020A420002010B50C46FFF7D2FF18
:2014000000B110BD2046BDE81040FFF76DBF00BF12F0A84F70B5144606461D4602D00522F2
:20142000194B1A70A30702D50322174B1A70174B00221C4203D0164B20071A7019D4E10196
:2014400002D50222104B1A70AA0702D504220E4B1A7014F0C00F02D001220D4B1A70AB05C1
:2014600000D470BD00223046BDE87040114615F0E7BE304615F0A4FF064B1B78002BDED1A1
:20148000054803F0A3FFDAE7BE440020080D0100BC440020BD440020601400200D2801D096
:2014A00001207047042A05D121B1034B00201B680B60704702207047981F002001207047E3
:2014C0000C2801D001207047082A0AD108B531B1054B0022186815F090FF002008BD0220F6
:2014E00008BD0220704700BFA01F0020802300B583B00A490DF10602ADF8063015F058FF95
:20150000BDF80630802B05D1022808BF002003B05DF804FB012003B05DF804FBA41F00203C
:2015200030B44FF48035114A114B956641F67135104C1A6FE369C2F30332E56302FB0000E0
:2015400003F48032636823F4401349B10A49884209D808494B600AB10023CB6330BC70470A
:2015600006498842F5D943F48013F2E7009000500080005000000350002D3101005A6202C1
:2015800038B51B4B0546D3F820310C4603F00703062B29D8DFE803F0040A0F14191E2300CB
:2015A000012205B12B6004B1226038BD0AF066FA05220346F5E70AF0ADFA03220346F0E70F
:2015C0000AF0C0FA02220346EBE70AF0BFFA07220346E6E70AF052FA06220346E1E70AF0AD
:2015E00099FA04220346DCE700221346D9E700BF0080005038B5174B0546D3F828310C464C
:2016000003F00703013B052B20D8DFE803F00B0F13171B030AF07EFA042305B1286004B1C1
:20162000236038BD0AF02AFA0523F6E70AF072FA0323F2E70AF086FA0223EEE70AF086FABC
:201640000723EAE70AF01AFA0623E6E700231846E3E700BF00800050002370B5124A82B0DB
:201660000193D2F88041064604F00304022C0D460BD0032C13D0012C0BD01C460EB1019BD1
:20168000336005B12C6002B070BD0AF05BFA0190F4E7194601A8FFF773FF1024EEE70AF068
:2016A00055FA07240190E9E700800050002230B5174B83B00192D3F82032054603F00703EB
:2016C0000C46042B21D8DFE803F00310161B0B0001230DB1019A2A6004B1236003B030BDA8
:2016E0000AF080FA09230190F3E7002101A8FFF781FF1223EDE70AF029FA07230190E8E7EF
:201700000AF068FA0A230190E3E70023E1E700BF0080005038B5154B0546D3F800320C4684
:2017200003F00703042B1ED8DFE803F0030E13180900012205B12B6004B1226038BD0AF0FE
:20174000BFF90F22830AF5E70AF044FA0A220346F0E70AF047FA09220346EBE70AF03EFA00
:201760000C220346E6E700221346E3E70080005038B5154B0546D3F808320C4603F0070324
:20178000042B1ED8DFE803F0030E13180900012205B12B6004B1226038BD0AF091F90F22E0
:2017A000830AF5E70AF016FA0A220346F0E70AF019FA09220346EBE70AF010FA0C2203469C
:2017C000E6E700221346E3E70080005070B54FF480360AF09BF941F671340D4D0D4AAE66DA
:2017E000126F0D4BC2F3033202FB0000DA69DC630A495B68884223F44013074988BF43F48F
:20180000801332404B600AB10023CB6370BD00BF009000500080005000000350005A62025F
:20182000002230B51F4B83B00192D3F86032054603F00703013B0C46032B31D8DFE803F04D
:2018400012180D020AF082F9072301900DB1019A2A6004B1236003B030BD0AF073F90223D9
:201860000190F3E7002101A8FFF78AFE1023EDE70C4BD3F8403103F00303022B0DD0032BEA
:2018800005D0012B06D0002011230190DEE70AF0A5F9F9E70AF09EF9F6E70AF0A3F9F3E771
:2018A0000023D3E700800050002230B51F4B83B00192D3F89432054603F00703013B0C46DD
:2018C000032B31D8DFE803F012180D020AF03EF9072301900DB1019A2A6004B1236003B024
:2018E00030BD0AF02FF902230190F3E7002101A8FFF746FE1023EDE70C4BD3F8403103F0B8
:201900000303022B0DD0032B05D0012B06D0002011230190DEE70AF061F9F9E70AF05AF987
:20192000F6E70AF05FF9F3E70023D3E700800050430904D0012B13D0022B13D0002300F09F
:201940001F0031B1012203F5805302FA00F018607047012203F5005302FA00F018607047F4
:20196000014BECE7014BEAE76480005068800050002300B5B0F5807F83B0019300F21681F3
:20198000B0F5807F00F20E81DFE810F087010C010C010C010C010C010C010C010C010C015E
:2019A0000C010C010C010C010C010C010C010C010C010C010C010C010C010C010C010C0157
:2019C0000C010C010C010C010C010C0187018A0187018A01490149014901490149018A0196
:2019E00032017901A301CF0179018A018A018A010C010C010C010C010C010C010C010C0143
:201A00008A018A018A01C70163018A010C010C010C010C010C010C010C010C010C010C01EC
:201A20000C010C010C014901870187018701400179017901AB0104019D01D5010C010C0129
:201A40000C010C010C0121010C010C010C010C010C010C010C010C010C010C010C010C01A1
:201A60000C010C010C010C010C010C010C010C010C010C010C010C010C010C010C010C0196
:201A80000C010C010C010C010C010C01C4010C010C010C010C010C010C010C010C010C01BE
:201AA0000C010C010C010C010C010C010C010C010C010C010C010C010C010C010C010C0156
:201AC0000C010C010C010C010C010C010C010C010C010C010C010C010C010C010C010C0136
:201AE0000C010C010C010C010C010C010C010C010C010C010C010C010C010C010C010C0116
:201B00000C010C010C010C010C010C010C010C010C010C010C010C010C010C010C010C01F5
:201B20000C010C010C010C010C010C010C010C010C010C010C010C010C010C010C010C01D5
:201B40000C010C010C010C010C010C010C010C010C010C010C010C010C010C010C010C01B5
:201B60000C010C010C010C010C010C010C010C010C010C010C010C010C010C010C010C0195
:201B80000C010C010C010C010C010C01B101B0F5286F07D17B4AD2F8703203F00303012BDB
:201BA00000F08880002003B05DF804FBB0F5C06F00F08F8011D9B0F5206F00F092801DD91D
:201BC000B0F5406F00F0B780B0F5486FDFD101A80021FFF769FE0198E5E7B0F5607F00F07E
:201BE000B08022D9B0F5A06F6DD0B0F5B06F13D101A80021FFF730FD0198D4E7B0F5F06FDC
:201C000000F08B801FD9B0F5106FCBD101A80021FFF7AEFD0198C6E7B0F5806FC2D101A890
:201C20000021FFF7ADFC0198BDE7B0F5007F1FD109F02AFF534BD3F89030C3F304630133F7
:201C4000B0FBF3F0AFE7B0F5D06F6ED0B0F5E06FA8D14C4BD3F8403203F00303022B2FD0D8
:201C6000032B00F08380012B9CD109F0B3FF9AE710D9B0F5207F13D0B0F5407F92D109F0AE
:201C80001FFF404B1B6FC3F380230133B0FBF3F0400888E7B0F5C07F84D109F011FF82E794
:201CA00009F00EFF374B1B6FC3F380230133B0FBF3F078E7D2F8403103F00303022BCFD197
:201CC00009F090FF6FE701A80021FFF7EFFC019869E72C4BD3F8403103F00303022BBFD129
:201CE000EEE701A80021FFF79BFD01985BE74FF0E023186910F00400CFD1224BD3F84031CC
:201D000003F00303022BDBD0032B2FD0012B7FF44AAFAAE709F0B8FE45E71A4BD3F8603100
:201D200003F00303022B9BD1CAE701A80021FFF7F1FC019837E701A80021FFF75BFC01984C
:201D400031E7104AD2F8802002F00302022A16D0032A11D0012A0CD018460A4BD3F880305B
:201D6000C3F301130133B0FBF3F01CE709F036FF19E709F089FEF0E709F080FEEDE709F00B
:201D8000E5FEEAE700800050002300B5B0F5807F83B0019300F09F816BD9B0F5F06F00F034
:201DA000858147D9B0F5206F00F061811ED9B0F5406F00F06281B0F5486F07D1002001A9DB
:201DC000FFF772FD019803B05DF804FBB0F5286F23D1CF4AD2F8703203F00303012B00F034
:201DE0008381022B14BF00201520ECE7B0F5086F17D1C74BD3F8003103F00303022B00F08F
:201E00000781032B00F07C81012B00F07D81012003B05DF804FB80F01381002003B05DF8B1
:201E200004FBB0F5106FF8D1002001A9FFF7A0FC0198C8E7B0F5B06F00F0418140F2EC80FE
:201E4000B0F5D06F00F04181B0F5E06F40F0D480AF4BD3F8403203F00303022B00F0D880CF
:201E6000032B00F00081012BD1D109F0B3FE0A20A9E724385C28D0D85C28CED801A353F8F0
:201E800020F000BF5B2000085B2000085B2000085B2000085B2000081B1E0008BF200008BC
:201EA0001B1E000801200008CB2000081B1E00081B1E00081B1E00081B1E00081B1E000880
:201EC0001B1E00081B1E00081B1E00081B1E00081B1E00081B1E00081B1E00081B1E0008FA
:201EE0001B1E00081B1E0008AD200008511E00081B1E00081B1E00081B1E00081B1E000810
:201F00001B1E00081B1E00081B1E00081B1E00081B1E00081B1E00081B1E00081B1E0008B9
:201F20001B1E00081B1E00085B2000081B1E00081B1E00081B1E0008291E00081B1E000849
:201F40001B1E00086F200008D31D00084F2000087B2000081B1E00081B1E00081B1E0008D4
:201F60001B1E00081B1E0008BD1D00081B1E00081B1E00081B1E00081B1E00081B1E0008B8
:201F80001B1E00081B1E00081B1E00081B1E00081B1E00081B1E00081B1E00081B1E000839
:201FA0001B1E00081B1E00081B1E00081B1E00081B1E00081B1E00081B1E00081B1E000819
:201FC0001B1E00081B1E00081B1E00081B1E00081B1E00081B1E00081B1E00081B1E0008F9
:201FE0001B1E00081B1E00081B1E00081B1E00081B1E000887200008B0F5C06F7FF40DAFEA
:20200000434BD3F8403103F00303022B7FF428AF09F0E8FD0920D6E6B0F5607F7FF4FBAE23
:202020003B4BD3F8803003F00303022B78D0032B70D0012B7FF4F1AE09F026FD0E20C2E693
:20204000B0F5806F09D0B0F5A06F7FF4E6AE002001A9FFF72BFB0198B5E6002001A9FFF77E
:202060008FFA0198AFE609F0B9FD0C20ABE6002001A9FFF7D5FB0198A5E6002001A9FFF7C9
:20208000B9FA01989FE6224B186F00F00700431E032B3FF6C2AE01A252F823F029210008FE
:2020A0001D210008C71D000805210008184BD3F8603103F00303022B7FF4D2AEA8E7002039
:2020C00001A9FFF7C9FA01987DE6002001A9FFF721FB019877E64FF0E0231B695B078FD543
:2020E00009F0EEFC0D206EE6D2F8403103F00303022B23D0032B1DD0012B17D0112062E681
:2021000009F01EFD08205EE609F004FD03205AE60080005009F0B2FC062054E6052052E6AE
:2021200009F014FD07204EE602204CE609F052FD112048E609F052FD112044E609F052FD54
:20214000112040E608B50121022000F075FD09F0DDFC0021FFF7E4F94FF48030044B1A6F34
:2021600003F5805142F480621A67086708BD00BF0080005010B509F0A3FC184BD3F88440EB
:2021800014F01004FAD1D3F88430C3F38113C3F10203002BCCBF01212146FFF7C1F90121C9
:2021A000002000F0A1FD4FF4C070FFF7E1FB84460B4A0C4B944588BF4FF48064196F802047
:2021C00021F4806121431967FFF7D2FB064B984203D84FF48032054B1A6710BD0040005039
:2021E00080F0FA0200800050005A620200A000504FF480104FF480320249034B48669A62EA
:20220000704700BF009000500050005A70B504468020FFF7B9FD03286BD04FF4801545F68A
:202220000E034FF0A0604FF48031544A5566544AC2F88030534B986203F580539962936D9B
:20224000D903FCD44E4A936D13F08043FBD1D4E90001090541EA0061E07B0143207B41EAEB
:202260000041607B41EA0031A07B41EA80111161616990692569090600F0004041EA8561FC
:202280000143A07E3E4D0143207E41EA0041607E41EA00219161E169126A00290CBF00200D
:2022A000082022F00F020A43E17E42EA810202432A62E269F2B1022A53D094F8223094F800
:2022C00020202F491B06886A43EA42132E4A024094F82400134394F8232043EAC00343EA05
:2022E00002438B6294F825301BB1254B274AC3F8802070BD94F8243094F82020DB00A96AFC
:2023000043EA4213204A0A4094F82110134343EA011343F480331E4AAB62AB6D32EA03039A
:20232000FBD14FF080714FF00040164A91622B69A66823F4700343EA06532B61906194F814
:2023400022300BB9134B996294F82330002BC9D14FF480310F4B0A4A9962936D5B00FCD4A2
:20236000C0E72B61AB6100F0AFFB6B6B23F47F4343F408536B6300F0ABFB9EE7009000507A
:202380000040005A0050005AC7FFFEFEF1A7FFFF030001000060005A014B93F90000704754
:2023A000131800204378F0B54F2B4FF4000E4FF4D1574FF0020628BF4F231849DFF868C03C
:2023C000174A0125CCF864E057624E601946154C65601369DB03FCD4037841EA03235361D8
:2023E00083684468417B1B0143EA04230B43017B43EA41039360C37B90F80EC0417C1B017F
:2024000043EA4C130B43017C43EA41035360837C13B16FF4D1535362F0BD00BF0010025074
:20242000000002500020025000900050014B1880704700BF04180020014B1880704700BF08
:2024400002180020002920DD70B44FF48036034641F671350E480F498666086F0E4AC0F3BD
:20246000033000FB0333D169D56352680B4C22F44012A342084B88BF42F4801231405A609B
:2024800009B10022DA6370BC70470021FFF748B8009000500080005000000350002D3101C7
:2024A000B0F5807F70B50C4600F01A8268D9B0F5F06F00F0AB8144D9B0F5206F00F0EE8164
:2024C0002AD9B0F5406F00F0FA81B0F5486F10D1023C0F2C8CBF0021D54BD64A98BF53F836
:2024E0002410D2F8943223F007030B43C2F8943270BDB0F5286FFBD1112C00F02D82152CDB
:2025000014BF00210221CB4AD2F8703223F003030B43C2F8703270BDB0F5086F40F0F28075
:20252000CC1E062C8CBF0021C34BC24A98BF53F82410D2F8003123F003030B43C2F80031D6
:2025400070BDB0F5B06F00F0878140F20581B0F5D06F00F09281B0F5E06F40F0E880093C22
:20256000032C8CBF0021B54BB24A98BF53F82410D2F8403223F003030B43C2F8403270BDF2
:2025800024385C28B4D85C28B2D801A353F820F0D1270008D1270008D1270008D1270008C2
:2025A000D1270008F124000859280008F1240008372700087B280008F1240008F12400080D
:2025C000F1240008F1240008F1240008F1240008F1240008F1240008F1240008F124000813
:2025E000F1240008F1240008F1240008F1240008F12400080D2800085F250008F124000864
:20260000F1240008F1240008F1240008F1240008F1240008F1240008F1240008F1240008D2
:20262000F1240008F1240008F1240008F1240008F1240008D1270008F1240008F1240008CF
:20264000F12400080D270008F1240008F12400089D280008F9240008AF270008BF28000828
:20266000F1240008F1240008F1240008F1240008F1240008D1240008F1240008F124000892
:20268000F1240008F1240008F1240008F1240008F1240008F1240008F1240008F124000852
:2026A000F1240008F1240008F1240008F1240008F1240008F1240008F1240008F124000832
:2026C000F1240008F1240008F1240008F1240008F1240008F1240008F1240008F124000812
:2026E000F1240008F1240008F1240008F1240008F1240008F1240008F1240008F1240008F2
:20270000F3270008B0F5106F7FF4F2AE093C062C8CBF00214A4B474A98BF53F82410D2F8B7
:20272000083223F007030B43C2F8083270BDB0F5C06F7FF4DDAE093C032C8CBF0021414B95
:202740003C4A98BF53F82410D2F8403123F003030B43C2F8403170BDB0F5607F1ED13A4B2B
:20276000D3F8FC20D20140F1EB80D3F8FC208C1F22F08072082CC3F8FC2040F27B812D4ABD
:20278000D2F8803023F00303C2F880302E4AD2F8FC3043F08073C2F8FC3070BDFFF4A8AE4C
:2027A000B0F5806F14D0B0F5A06F7FF4A1AE073C0B2C8CBF0021254B1E4A98BF53F8241097
:2027C000D2F8203223F007030B43C2F8203270BD023C052C8CBF00211D4B164A98BF53F8F4
:2027E0002410D2F8203123F007030B43C2F8203170BD8B1E062B00F2B180DFE813F002011D
:202800000501AF001601AF00AF001301093C032C8CBF00210F4B074A98BF53F82410D2F84F
:20282000603123F003030B43C2F8603170BD00BF407D010800800050D07C0108A47C010855
:20284000B47C0108A47C010800ED00E0107D01088C7C0108A47C0108023C0E2C8CBF002195
:202860008A4B8B4A98BF53F82410D2F8803123F003030B43C2F8803170BD093C062C8CBF9C
:202880000021844B824A98BF53F82410D2F8003223F007030B43C2F8003270BD023C0F2CAD
:2028A0008CBF00217C4B7A4A98BF53F82410D2F8603223F007030B43C2F8603270BD023CCD
:2028C000052C8CBF0021754B714A98BF53F82410D2F8283123F007030B43C2F8283170BD3C
:2028E000A1F10904082C3FF603AE01A353F824F01529000815290008F1240008152900082D
:20290000312A0008F1240008F1240008F1240008152900084FF48031614B5D48614A406E19
:202920005966536AC40343F0010353624FF0E0225CBF5D4B5966136923F00403136170BD6E
:202940008C1F082C40F28A80514AD2F8803023F00303C2F8803070BD0121D4E5002635461B
:202960000121022000F068F9FEF730FF4FF48031474A136F43F480631367494B1967136F6D
:2029800023F007032B43136709F09AF8474AD2F8845015F01005FAD1D2F88410C1F38111EF
:2029A000C1F10201FFF74EFD0121284600F09CF94FF4C070FEF7DCFF84463D49344A8C452A
:2029C00088BF4FF48065136F802023F480632B431367FEF7CDFF374B984203D84FF4803297
:2029E000314B1A67002E7FF483AD032C7FF480AD4FF48031304B314A9962936D5D00FCD428
:202A000070BD00260125ABE74FF480164FF4803223482A4946668E6A294B25469A62C6F3C7
:202A200000669DE7002604259AE70026022597E74FF480311A4B16481A4A406E5966536ACC
:202A4000C00323F0010353624FF0E0225CBF164B5966136943F00403136170BD0C4A19495C
:202A6000D2F8803051F8241023F003030B43C2F8803070BD064A1349D2F8803051F82410BE
:202A800023F003030B43C2F880307FE6807D010800800050B47C0108407D01088C7C01081A
:202AA0000090005000C0075000A000500040005080F0FA02005A62020060005A0040005A21
:202AC0000050005AEC7C0108EFF3108072B6704700B962B6704700BFEFF31180302383F307
:202AE0001188704780F31188704700BF0246EFF31083DB0730D42049430951F8233000F020
:202B00001F00C340DB4313F001005FFA82FC00D07047002A22DB0A4492F800231209EFF3F4
:202B2000118313B1B2EB131F16D214494B68C3F30803002BECD0103B58B20028DBB214DBD5
:202B400000F1604000F5614090F800030009824234BF00200120704701207047084B0CF0E4
:202B60000F0C63441A7E1209D9E703F00F03043B0B44187E0009EAE700E100E000ED00E08F
:202B8000FCEC00E0054B420953F8223000F01F0023FA00F0C04300F00100704700E100E0AD
:202BA000044A4178536F23F4407343EA01235367704700BF00400050704700BF704700BF85
:202BC00010B50A4A0446136943F00403136107F03FFBFFF7F1FF30BFFFF7F0FF07F072FB19
:202BE00004B110BDBDE8104008F06ABF00ED00E010B5084A0446136943F00403136107F0EE
:202C000027FB30BF07F05EFB04B110BDBDE8104008F056BF00ED00E0704700BF704700BF16
:202C2000034A0179D36E23F030030B43D366704700400050704700BFF8B50546284CD4F8CA
:202C40008430DE06FBD4D4F88430C3F381139D4226D008F019FF012D074628D0FFF734FFC2
:202C60004FF000721F4B06465A662846FFF7E2FF4FF480636A1E93402367636E98010AD495
:202C8000174B04E0D3F884205A6E910103D4D3F884209206F6D53046FFF71AFF022D00D0F8
:202CA000F8BD3846BDE8F8400021FFF7CBBB2946FFF7C8FBFFF708FF4FF00072094B0646F1
:202CC0005A662846FFF7B6FF4FF480632367636E9C01D5D53046BDE8F840FFF7F9BE00BF94
:202CE000004000500060005010B50C4680B10A4B21461B7813B1094B984204D9BDE8104039
:202D00000220FFF799BF0120BDE81040FFF794BF08F0BAFEEBE700BFA8200020005A6202FD
:202D200010B50A4C0378237008F0AEFE2378012113B1074B984204D9BDE810400220FFF72F
:202D40007BBF0846BDE81040FFF776BFA8200020005A620230B54FF000444AF6CD3329490B
:202D6000294A4C66546C83B0136404F0010400282ED0136B18070BD50023244801E08342F3
:202D80003ED0116B01330907F9D4204A934237D0202501221E4B1F481B4985625A608B6A20
:202DA0002B400AD1194801E0834229D08A6A01339206F9D5154A934222D0002014B1124BD7
:202DC000154A1A64019014F009FA019803B030BD536BD907FCD45368DB07EED501210D4BFD
:202DE0005960136B0B40E8D10749084801E0834206D00A6B0133D507F9D5044A9342DCD159
:202E00000720DBE7009000500040095040420F0000500950006009503254FFFF38B54FF0AD
:202E200000454AF6CD331649164C4D66656C23644378154A5B0043F0010305F00105D36364
:202E4000636B13F00B0FFBD16368827823F4F87343EA02136360C278437943EA0223A36024
:202E60000279837943EA022323610078FFF772FF0DB1064B236414F0B1F9012038BD00BF0D
:202E80000090005000400950004000503254FFFF38B54FF000454AF6CD330F2828BF0F20A7
:202EA0000E4A0F49546E02F50C224D66516C136401F00101536B1B06FCD4136A23F00F0350
:202EC0001843106209B1074B1364002C03DB4FF00042054B5A6614F081F938BD00800050C4
:202EE000009000503254FFFF00A0005038B54FF000454AF6CD330F4A0F49546E02F50C2235
:202F00004D66516C136401F00101536B1B06FCD4136A23F4F85343EA0020106209B1074B7E
:202F20001364002C03DB4FF00042054B5A6614F055F938BD00800050009000503254FFFF04
:202F400000A00050F1B110B4012400F5805301F00F025C60436DC3F30B03002BFAD1826321
:202F6000436D13F0780FFBD101F001024B0748BF42F00202836C03F003039342FAD15DF8EB
:202F8000044B70474368D90716D58368DA0702D50369DB0708D50A238363436D13F0500FC2
:202FA000FBD1836C9907FCD1012200F500535A6043689A07FCD47047704700BF836C5B062B
:202FC000FCD54164704700BF2DE9F84304460D4616461F464AB10122002B4CD1274B04EB8F
:202FE000440109010B44AA401A60072D4FF0300824D8042318FB0438FFF766FD0F232049BE
:203000004FEA850E58F801C006FA0EF282EA0C0203FA0EF3134083EA0C0348F80130FFF725
:2030200057FD4EB9012127BB144B04EB44042401234401FA05F51D60BDE8F8830C2318FB3B
:203040000438A5F108034FEA8309FFF73DFD0F230B4906FA09F258F801C003FA09F382EAA7
:203060000C02134083EA0C0348F80130FFF730FDD7E7044BD9E7034BB1E700BF40E00350FA
:2030800030C0035040D00350F8B505460E4603F003078368144623F440738360FFF714FD48
:2030A000AB6883EA072202F440725A40AA60FFF70FFD2EB9B5F1B64F17D0114B9D4219D07C
:2030C000104BAA68DA5D04FB02F26AB16FEAC4041444A319B3FBF2F3A968013B8A0702D5C1
:2030E000012B38BF0123AB61F8BD2E20FEF740FC0646E5E72F20FEF73BFC0646E0E700BFE4
:2031000000800650BC7D010870B50026124A00F500530664DA634A7804460D4600F10803A6
:2031200092B903F5805302221A60AA6822B120462B7B6968FFF7A8FF2B7804343BB1012391
:2031400004F58054236070BD03F50053EBE7012304F50054236070BDFFFF1F00F8B50121C8
:2031600004462020FEF7E4FB01212120FEF7E0FB01220020FF274FF000464FF0FF354FF41A
:2031800000110E4B5A60227812069A6094F801C0A27842EA0C429A61094A9F6298631864B8
:2031A0005E6503F500531D65C2F88011E3781B01DBB282F815331160F8BD00BF0000045035
:2031C00000E100E070B501250C46204BC1B28D401D658300216803F1A04303F58823596025
:2031E0001B4E637B00EB400006EB00100366E37AA17A1B0543EA0143217B22F0030243EA0A
:203200004153C3650267FFF767FC736D2B437365237A13B1336C2B433364637A1BB10C4A06
:20322000936B2B4393632279A379094943EA0243064A93616679E379064C43EA0643A36166
:2032400055638D64BDE87040FFF74CBC00200450000004500010045010B50124C0B2844026
:20326000FFF73AFC094BDA6A224209D15B6B34EA03030CBF01240024FFF734FC204610BDF5
:203280000024FFF72FFC204610BD00BF00000450C2F3062302F0070241B9134942EA032223
:2032A00042F44022063041F820207047122B09D0142B07D0013B312B0AD90B4B163043F892
:2032C00020207047022A0CD0032A00D10122013B06491630CB5C42EA0322034B43F82020BC
:2032E00070470022F3E700BF00800350C07D01083AB122F0030202F1A04202F5603209B921
:20330000106070470002FBE74FF48031064A074B51669B69C3F3851103F03F021B0B8170BA
:2033200042700370704700BF0090005000C00750014B986CD96C70470080E00F70B50546D0
:2033400016461C4611B3402C27D019D8E4B1202C08BF082313D103FB06F24FEA520C0CEB5C
:203360004113B3FBF2F3A9680D4A21F06001A960A968203B0C4302EAC303AC60EB6170BD91
:20338000602CFCD10423E6E71023E4E74FF42070FEF7EEFA402C0146D7D10623DBE700BF2D
:2033A000F8FF7F000122CB43934000F5805C03F00A03CCF804204361416111B900F5005085
:2033C000426070472DE9F041002341F205074FF0010840F6AA6E374A00F58056DFF8E0C092
:2033E000C6F804809042C0F814E08360C365C76000F500570361C361C364C7F848C0836531
:2034000004BF0365436501237B6073608B7C04460D461BB1836843F080438360EB7C33B188
:20342000244B9C423BD0E36D43F08003E3652A8A6B7B20461343EA891343E3602B7BD5E920
:203440000112FFF77BFF6B7D1BB1A36843F48033A360AB7D1BB1A36843F40043A360EB7D59
:203460002A7E1B07120502F4E00203F0E04313430222A3656B7E023B012B94BF0E4B0F4BA3
:20348000C3F820276B7E03F0FD03012B4FF004030CBFF365FB652B786361BDE8F0812A7D35
:2034A000A3F51033C3F8C821E36D43F08003E365BDE700BF00C0055000D0035000E0035071
:2034C000FFFF010083695B06FCD5C163704700BF4369002B0FDB51B9436ADA07FCD40122E9
:2034E00000F500535A6043689B07FCD47047012300F58050436070474368DA0700D470479C
:2035000010B50446FFF7E8FA636ADB075CBF0123E360BDE81040FFF7E5BA00BF43682DE989
:20352000F043002B5FD14C78CA780B79002C14BF4FF020084FF00008002A4A798C7914BF01
:2035400002270027002B14BF04230023002ACA7991F808C014BF08260026002C14BF1025BA
:203560000025002A4A7B14BF4FF400740024BCF1000F14BF4FF4806E4FF0000E002A14BF7F
:203580004FF4807C4FF0000C0A7B91F80B90120742EA096291F8029042EA090291F80A90D3
:2035A00042EA094242EA08023A43134333432B43234343EA0E0343EA0C0383604369002B0D
:2035C0000BDB0B78D3B9436ADA07FCD4012200F500535A6043689B07FCD44B7A0BB10023B2
:2035E0000362BDE8F083436A002BFCD1012200F500535A6043689C07FCD494E7012200F5D3
:2036000080535A60E9E700BF10B5FCF765FF0B4B1A68D2E9003192680B44191A52B1D2E974
:20362000003423441B1A9268994228BF1946002AF5D14318024A136010BD00BFB020002019
:20364000AC2000202DE9F8430388054653B3592B2BD187292ED082291FD14FF000092B4FC6
:20366000DFF8B0803C68C4B1002603E0A36826469BB11C46204608F061FF0028F6D02246E8
:203680008821E06801F070FE00282BD0404601F09DFEA3682646002BEBD159232B800120FF
:2036A000BDE8F883194A1360F7E700232B800320BDE8F883154F0020396819B9EDE7896869
:2036C0000120D9B1CB689342F9D000B139608B68002BE2D0D86890420BBF9B6819468B602B
:2036E0009B68F5E7A368E0606EB1B3603B68C4F808902BB1FFF788FF3C68B4E73960CCE793
:20370000034A1360C9E73B60F1E700BFB0200020AC200020AC14002010B50446104801F0F3
:2037200055FE1049E3680A684BB142B194420FD0134601E09C420BD09B68002BFAD10A4B3B
:20374000A2601B680C60E360BDE81040FFF75CBF054B1B68E360BDE81040FFF755BF00BF5B
:20376000AC140020B0200020D4250020014801F02DBE00BFAC14002010B5044608F0C2FED5
:203780002046BDE81040FFF7C7BF00BF10B5044608F0C0FE2046BDE81040FFF7BDBF00BF42
:2037A00010B5044608F0C4FE2046BDE81040FFF7B3BF00BF024B1868003818BF012070470A
:2037C000B020002010B5124B04461968814214D00B462BB19A68A24206D01346002BF9D12E
:2037E0000023C4E9023310BDA2689A6049B1FFF70BFF0023C4E9023310BD82681A60002A99
:20380000F5D10022034B1A600023C4E9023310BDB0200020AC200020014B1888704700BFE8
:203820000618002000283ED0037A30B4022B10D00378022B15D00379B3B10024C37913F0D6
:20384000030318BF012301B10C6002B1136030BC7047C579447A037965B90CB9012BF2D037
:20386000DBB100231C46EEE7447A14F0030418BF0124E3E7C4B1032D37D1032C2ED0022CCB
:2038800024D143BB022D2DD00123032D24D1A4F10204B4FA84F46409D5E7023C012C8CBF20
:2038A00000240124CFE770474BB9022D08BF0123EAD1A4F10304B4FA84F46409C3E7032D70
:2038C00001D0022D02D123461C46BCE7002BC8D1022DDAD1EDE701230024B4E7002BC0D196
:2038E0000123D4E701231C46ADE7022DC7D1002BF1D1022C4FF00103DBD11C46A3E700BF53
:20390000002330B50B608B80437D0D46DB075CBF01230B70037E0446012B83B023D96946A5
:2039200001AA04F11000FFF77DFF009B0BB10223EB70019B0BB102236B70E37D03F00303DD
:20394000022B03D0032B14BF00230823AB70637E03F00303022B03D0032B14BF00230823D4
:203960002B7103B030BDC37D13F0030309D0437E13F0030305D0C38B828B9B1AB3FA83F317
:203980005B092375CBE700BF02280CBF012307230B441A781846FF2A03F1FF3303D1814252
:2039A000F7D1012070470020704700BF00B583B06946FFF7A5FF9DF800309DF801209DF890
:2039C000020002339DF80310134403449DF804209DF805000B441344184403B05DF804FB0E
:2039E0004378827890F800C0DB00120102F0100203F0080313430CF0070290F803C01343DE
:203A000002794FEA4C1C0CF0200C920143EA0C0302F0400213430B704379827990F809C086
:203A200003F00103520043EA8C1302F0020290F807C01343027A4FEA8C0000F00C00120186
:203A4000034302F0300213434B70704770B50D46044682B06946FFF753FF04F110002946D5
:203A6000FFF7BEFF9DF80030012B02BFA37E0320AB709DF8013018BF0220022B06D1A28B92
:203A8000431C2A54A28B0230120AEA549DF802605EB1731E2344291893F800C0A34201F828
:203AA00001CB03F1FF33F7D130449DF80330022B06D1E28B431C2A54E28B0230120AEA54C9
:203AC0009DF8046056B1F31D23442918073413F80129A34201F8012BF9D1304402B070BD97
:203AE00002784378C2F3C00002F0070C4870C2F3401081F800C0C870C2F3001C03F0010024
:203B0000C2F3801281F802C00A71C3F3400CC3F301124871C3F381009B0981F806C0C871D1
:203B20000A724B72704700BF012943DD2DE9F04186B00F4603A914460546FFF7D1FF0B4652
:203B40009DF8112003CB1B882061616123836AB3AE1C03A802AA01A9FFF764FE9DF81380DD
:203B6000B8F1000F43D0029B002B31D1B8F1020FA38367D0B8F1030F4DD09DF81580B8F1EE
:203B8000000F2CD0019BBBB9A38BE383B8F1020F4DD0B8F1030F31D0701B3B1A8742C4E98D
:203BA0000E6300DA002006B0BDE8F081AB78EE1CA376CEE700207047727816F8023B03EBD9
:203BC0000223029A9BB2E383002ADFD1A383DDE7727816F8023B03EB02239BB2C6E71E4904
:203BE00004F1080000F0ECFAA4F81E80D4E72046194900F0E5FAA4F81C80BEE706F108008A
:203C0000034604F1080213F8011DB34202F8011BF9D10646C0E706F108000346621E13F898
:203C2000011DB34202F8011FF9D10646A5E70A4904F1080000F0C4FA7378237216F8023BEC
:203C40006372A9E72046044900F0BAFA7378237016F8023B637090E70C7E010830B591B0DC
:203C600001F072F8044601F083F86A4601462046FFF75AFF00283ED0044601F049F8D0B352
:203C80000B209DF8101001F0CDF807209DF8131001F0C8F89DF817308BB1BDF81C50FFF7CF
:203CA000BBFD854205D04FF6FF73BDF81C209A4221D169469DF81700FFF766FEB0B10C20F8
:203CC00002A901F0BBF89DF815303BB14FF6FF71062001F0A7F8204611B030BD06209DF895
:203CE0001A1001F09FF8204611B030BD69460D2001F0A4F8E3E74FF0FF34ECE7F8B505468E
:203D00000B2014460E46A84700232074A374002E35D0E37463750820A84700270246012301
:203D2000A275237606206774A847A076FFF774FD03460920E383A84701280CBF3B46032304
:203D40006376FFF769FD03460A20A383A84701281AD066B90323E375637E022B0CD0E37DAC
:203D6000A3F10203B3FA83F35B092375F8BD0223E375637E022BF2D101232375F8BD0720F0
:203D8000A8476675E074C6E7E775E5E730B591B04FF6FF740546FFF73FFDA0423AD0402287
:203DA0000021684612F0B4FE01F058F86A4601461A48FFF7A3FF01F051F818B3ADF8004064
:203DC0000C2001F043F8014602A800F0F9F900F0BBFF0E9000F0CCFF034668460F93FFF726
:203DE000E5FD044615B9204611B030BD00F05EFF80B100F0B9FF01466846FFF727FE204619
:203E000011B030BD0D2001F021F80146684600F0D7F9D5E74FF0FF34E5E700BF314E0008C8
:203E20000120FFF7B3BF00BF0020FFF7AFBF00BF08B501213A20FDF77BFDBDE8084000F075
:203E400033B800BF0022024B1A60FFF7F1BF00BFB420002028B370B504460126114D94FA19
:203E6000A4F0B8B1B0FA80F205EB02135B6806FA02F1104624EA01042BB105EB0212117B99
:203E800021B191689847002CE9D170BD9847002CE5D1FAE7D5F80432002BE0D0202210464D
:203EA000EBE77047B820002008B51920FEF76AFE58B91A20FEF766FE00B908BD4FF08062EB
:203EC000054BC3F880211A6008BD4FF00072024BC3F880211A60ECE700E100E0074BD3F872
:203EE0002404D3F8202403F50053104000F0553020F05020C3F82004FFF7ACBF00C00350A8
:203F0000074BD3F82404D3F8202403F50053104000F0AA3020F0A020C3F82004FFF79ABFEA
:203F200000C003508C4610B586460E4C0FCCCCF80C30CCF80000CCF80410CCF808209EF8B8
:203F4000003001208CF80C309EF801308CF80D309EF802308CF80E309EF803308CF80F30B2
:203F600010BD00BFBC14002010B50948FCF7F0FE084800F015FC48B1064C037A01465B080B
:203F80000372204600F0D8FB0028F6D110BD00BF00230020CC1400200146014800F02EBC5B
:203FA000CC14002080B110B50446FCF795FA2368C01AB0F5963F05D2207A032894BF002051
:203FC000012010BD002010BD0020704770B50546144689B1022907D006290CD1BDE87040C8
:203FE00001462A4800F00ABC0146284800F006FC0646002832D170BD0146244800F0FEFB69
:204000000646002835D0FCF767FA337A30602344102BA8BF10233372FCF75EFA3368E401EA
:20402000C01AB0F5963FA4B208D2337AB188042B34BF19230A2329B9B48070BDB1881923D3
:204040000029F9D003FB04F4C3F1640201FB02420F4CA4FB02325209B28070BDFCF73CFA0D
:20406000337A30602344102BA8BF10230C343372D2E7334608222946044800F0DBFB0646B9
:204080000028B8D047F6FF73C380BCE7CC1400201F85EB5138B50546042000F0C9FE04469E
:2040A0002946224824B200F0A9FB40B347F6FF73B0F906209A422DD05A2504EB840463001A
:2040C00012FB05321A4C818884FB0234D217C2EB641424B2C48001B138BD04F15A0212B294
:2040E00022EAE2721E2AA8BF1E22124BD201A3FB0232120902F5807292B2828038BD0346E7
:2041000008222946094800F095FB0028E4D047F6FF73C3808388C480002BDDD147F6FF7390
:204120009C42DAD14FF48072E7E700BFCC1400201F85EB518988888838B5094800F030FBDA
:2041400060B10446064D2146284600F0FBFB2146284600F0F1FA04460028F4D138BD00BF5B
:20416000CC14002000B5002183B0084800F0C0FA074A002312684FF4E13100920548064ACA
:20418000FCF7C0FD03B05DF804FB00BFCC140020D425002000230020693F000800B583B0B5
:2041A000FFF7C6F86B4600BA09BACDE90010034A03CB1060516003B05DF804FB20230020B1
:2041C0000A684B6802604360704700BF082208B512F07CFBB0FA80F0400908BD0368DBB1C0
:2041E00010B4002400E0134699420FD01A681C46002AF8D100230B600368CBB11A461B68B5
:20420000002BFBD111605DF8044B70470A686CB1226000221A60EDE700230B6003684BB165
:204220001A461B68002BFBD1116070470260F0E70160E8E70160704730B405684DB12B463B
:20424000002400E01346994207D01A681C46002AF8D10D60016030BC70470A683CB1226026
:2042600000221A6005680D60016030BC70470260F6E700BF03689BB110B4002400E01346EE
:2042800099421A6805D01C46002AF8D15DF8044B704734B1226000221A605DF8044B7047DE
:2042A00070470260F7E700BF03682BB100201B680130002BFBD170471846704700B58BB07A
:2042C0000246282168460BF08BF86946024800F0E1FE0BB05DF804FB147E010808B3F8B547
:2042E000002504460126104F65B1EB070FD53846217800F0CFFE082E12D00135013601344F
:20430000002DF2D13846217800F0C4FEF5E72E2001F06AF83846217800F0BCFE082EECD1B3
:20432000F8BD024800F0B6BE287E0108187E010808B501F0D5F8014B187008BDBF44002095
:20434000034B062019784A1C1A7000F06BBD00BFBF440020F8B5FCF7BFF8104E002534461A
:2043600007460C2000F072FD2146FFF72FFF103420B90135102DF4D10020F8BD062000F09A
:2043800057FD06EB05152B7B8342F5D1A868381AB0F5206F8CBF00200120F8BD282300204B
:2043A00070B5184E002435460C2000F04FFD2946FFF70CFF103510BB0134102CF4D10F2482
:2043C00006EB041C64465CF8100DDCF80410DCF80820DCF80C3066450FC4F3D1062000F065
:2043E00027FD3073FCF778F803460C20B36000F02DFDBDE8704001460248FFF7E1BE002C4A
:20440000DED1EBE72823002010B5044642880021406812F07DFB23886288A0680021BDE831
:20442000104003FB02F212F073BB00BF30B44588ADB10022436802E00132AA420CD0194633
:204440000C780133002CF7D101230B700588806802FB050030BC7047002030BC70472846C6
:20446000F8E700BF10B4448882685CB18A420ED00023B0F800C001E0914209D00133A3423C
:204480006244F9D14FF0FF305DF8044B704700234268D15C0029F5D00021D15408465DF812
:2044A000044B704783688B4208D84288008800FB023081422CBF0020012070470020704762
:2044C0004188034649B100205B68194413F8012B02B901308B42F9D170470846704700BF5B
:2044E00008B501213A20FDF723FABDE8084001212E20FDF71DBA00BF032110B50846002331
:204500000422FEF761FD0023042202210320FEF75BFD0023042207210220FEF755FD022149
:20452000002308460422FEF74FFD01230B2205210220FEF749FDBDE8104001230B22062162
:204540000220FEF741BD00BF30B585B0EC460325134B144C0FCB8CE80F001348D4F8F024BD
:204560006146024042F4A02242F00202C4F8F024D4F8EC34034043F4C02343F00203C4F817
:20458000EC344FF0B640C4F8E854FEF7BDFD00204FF0B6431022054908709A6005B030BD33
:2045A000307E010800C00350FCFFF0FFC044002038B50D4B0D4D1C68002818BF05463CB1C9
:2045C0002846211DFFF702FE28B92468002CF7D14FF0FF3038BD064A064B9068201A801012
:2045E00003FB00F038BD00BF502400200C7E0108E0140020ABAAAAAAF8B50F4B1C68C4B135
:2046000000200E4F0E4E0F4D03E002F099FE246874B1B368E31A9B1005FB03F3FB5C002B0D
:20462000F5D1211D0028F0D124680846002CF0D1F8BD2046F8BD00BF502400204824002017
:20464000E0140020ABAAAAAA2DE9F04705460F46214CDFF898A0DFF88490DFF8848004F179
:20466000200654F8041FB9B18A68AAB1A5B1D9F80830EB1A4FEAA30C0C3308FB0CFC0BD07D
:204680004868CB6800FB0C3030B109681AF80C300B41DB0700D59047B442E2D1C5B10F4B0D
:2046A0000F4A9B68EB1A9B1002FB03F300220D490D48CA5429460AF80320FFF7DBFD0FB9E6
:2046C000BDE8F0872946BDE8F0470448FFF7CABE4FF0FF33EAE700BF24240020E01400202C
:2046E000ABAAAAAA4824002050240020A8240020034638B10268072A04D80D4850F822207D
:20470000934211D00B480268072A0BD810B499600749541C1A60046041F8223001205DF8B6
:20472000044B70470020704701209960704700BF28240020A4240020844638B339B3F0B572
:20474000C46845680B1B93FBF5F3591C1CD0114A03EB4303966816EB830315D00E4FDFF856
:204760003CE01B68991B8A1073B10C3107FB02F20AD002FB054030B1DCF800101EF80220DC
:204780000A41D207EDD5F0BD0020F0BD70470846704700BFE0140020ABAAAAAAA824002095
:2047A000124B1968F9B1124B9B68C91AD0B111F10C0F17D00F4B891001FB03F34268C168F1
:2047C00002FB031179B110B40B4C0268E35C1341DB0703D508465DF8044B70475DF8044B7F
:2047E000FFF7AABF0021FFF7A7BF00BF50240020E0140020ABAAAAAAA824002010B50446D2
:204800000846FFF7D5FE84B1431C02460DD06068E36800FB023038B1054B21689B5C0B4183
:2048200013F0010F08BF002010BD002010BD00BFA82400202DE9F041002837D00C463C4BCA
:204840000546002908BF1C462146FFF7D7FFF0B100262046FFF7ACFE471C2BD06A68EC6837
:20486000002102FB0044204612F052F9EB686A68E31A93FBF2F35A1C06D001222D492D6814
:20488000C85CAA400243CA542046BDE8F0812046FFF78EFE0130DBD12748FFF711FE0028CA
:2048A000D6D1FFF7A9FE06460028D2D100242046BDE8F081DFF880804046FFF7B7FD0746A9
:2048C000B0B139461D48FFF789FCD8F808302146381DFC1AFFF774FC14F10C0F1BD10021AB
:2048E0000C4608466A6812F013F92046BDE8F081002EDBD03046FFF75BFE411CD6D0D8F84B
:20490000083000EB400013EB8007CFD000213846FFF79AFED5E70A4BA41004FB03F36A6857
:20492000EC68002102FB0344204612F0F1F89DE70C7E0108A8240020E014002050240020C2
:20494000ABAAAAAA20B321B3C3684268CB1A93FBF2F35A1C1DD0012230B5104C056814F89A
:2049600003C002FA05FE2CEA0E0C04F803C0C4684368091B91FBF3F14B1C0CD0084C00681C
:20498000635C02FA00F023EA00036354104630BD704700207047104630BD00BFA8240020E6
:2049A00048240020A0B1A1B1C2684368891A91FBF3F35A1C0DD0012110B4074C0268E05CAC
:2049C00001FA02F20243E25408465DF8044B704770470020704700BF48240020A8B1A9B138
:2049E000C2684368891A91FBF3F35A1C0ED0012110B4074C0068E25C01FA00F022EA0002A1
:204A0000E25408465DF8044B70477047002070474824002088B179B1C2684368881A90FB38
:204A2000F3F0431C08D0054B00EB4000996811EB800002D00430704700207047E0140020BC
:204A400070B50B4B1C685CB105460E46012D09D01DB963680BB1984718B92468002CF5D119
:204A6000002070BDA368002BF7D030469847F3E7B024002047F6FF739A4276D001294BD8AB
:204A8000F0B53B4BCC0003EBC10513F8311095F802E0012953D0686800283CD0B0F90010A6
:204AA00091423EDA8288FF2A43D000252826C822521A92FBF6F223445C782A4412B2944244
:204AC0002CDC621E12B22B4D4FEAC20C02E0B6889E4215D38444DCF80860BCF80630013202
:204AE00011FB036323EAE3735C33A5FB037312B2944200EBC2064FEAC20C4FEA9313E6DC47
:204B000000EBC20232F8040C834228BF0346734538BF7346D8B2F0BD00207047002AD2DA6B
:204B2000CFE7B0F902109142B8BF11468288FF2ABBD10125B0F90620B0F90860B8E795F872
:204B400003C00020ACEB0E0107E06C6834F913409442D4BF184603F1FF310B1A8842A1EB2B
:204B60005303F2D37144C8B2F0BDFF20704700BFB4240020D34D621010B5074C204612F09F
:204B80002FFBA446054CBCE80F000FC49CE8030084E8030010BD00BF407E0108B4240020E9
:204BA00038B500230C4A0D4C0D48C2E90033C2E90233C2E904330B4D0B4A03800B49204657
:204BC0002B801370FFF7FCFA04F108000749BDE83840FFF7F5BA00BF5C250020CC2400203C
:204BE0008E4400208C440020C14400200C7E0108F8B500230C46124A124F134DDFF858C0ED
:204C0000124EC2E90033C2E90233C2E904332B700F4905463846ACF800303380FFF7D0FA91
:204C200007F108000A49FFF7CBFA802C28BF802429462246074811F079FE20463480F8BDC2
:204C40005C250020CC240020C14400208C4400200C7E0108DC2400208E4400202DE9F041A2
:204C60000E4A0F4B14781F88E519802D03DD00252846BDE8F0810646DFF82C80224641465D
:204C800011F054FE074B3A4619883019214458FA81F111F04BFE2846BDE8F081C1440020E9
:204CA0008C4400208E440020DC24002010B5144B144C154A94F800E01B881288734452FA63
:204CC00083F39BB21A18802A17DC013B1BB2002B0EDB0E4A591C03EB000C11446244013B27
:204CE00011F801CD1BB2B3F1FF3F02F801C9F6D1864484F800E0012010BD002010BD00BFE3
:204D00008E440020C14400208C440020DC24002008490A8882420BDB10B4074C80B22388EB
:204D2000121A03440A80012023805DF8044B7047002070478C4400208E440020014B1880BA
:204D4000704700BF8C440020044A054B12881B780448134450FA83F0704700BF8E4400205A
:204D6000C1440020DC24002000487047DC240020014B1888704700BF8C4400200549064ADF
:204D8000064B128808781B88104453FA80F080B2704700BFC14400208E4400208C44002045
:204DA000844630B58E460D4C0D4D0FCCCCF80000CCF80410CCF80820CCF80C3003CCCCF8C7
:204DC0001000CCF814100FCDCEF80000CEF80410CEF80820CEF80C3030BD00BF5C25002022
:204DE000CC240020844630B58E460068DCF80410DCF80820DCF80C30084C094D0FC4DCF873
:204E00001000DCF8141003C4DEF80000DEF80410DEF80820DEF80C300FC530BD5C25002091
:204E2000CC240020014B23F8101070475C250020014B33F8100070475C250020024B0C3813
:204E400003EBC000FFF7BCB9CC240020024B0C3803EBC000704700BFCC24002001490248D0
:204E6000FFF7B4B90C7E0108D42400201F4A93689B07FCD453689907F9D4D369002BF6D1F8
:204E80005368012B03D00278184BDA6070475368012B0DD0154A93689907FCD453689B079F
:204EA000F9D4D369002BF6D10278104BDA60704710B40E4B01E0DA6912B15A68D207FAD4C4
:204EC0000122022409490A4B0C615A60074A93689B07FCD453689C07F9D4D369002BF6D1A4
:204EE0000278024BDA605DF8044B704700800A5000A00A50074A93689907FCD453689B0769
:204F0000F9D4D369002BF6D1012303494B601361704700BF00800A5000900A50C8B94A689A
:204F20000B7812B1127843EAC2034A780AB143F002038A6812B1127843EA82138A780AB13C
:204F400043F00403CA6812B1127843EA4223014A9364704700800A5008B9014B59647047B2
:204F600000900A5008B9014B5964704700A00A5008B9014B1964704700A00A5010B9024B7B
:204F8000186C70470020704700800A5028B939B1012904D1044B186D704700207047704742
:204FA000014BD86C704700BF00800A5020B929B1012902D1034B1A6570477047014BDA649C
:204FC000704700BF00800A5010B9024B586D70470020704700800A5000B583B001A8FEF7B8
:204FE00093F99DF80530012B1AD004F0AFFC04F017FC04F041FC04F08BFC04F0B9FB04F057
:2050000027FC05F023FF04F0F5FDFFF769FAFFF773FAFFF799FA03B05DF804EBFEF712BF6E
:205020009DF80430002BE0D14FF48011074B0848084A406E5966536B23F0E05343F04063BC
:205040005363C3025CBF044B5966CEE700900050008000500040005A00A0005008B505F00B
:205060004FFB45F2786000F041FA03F011F8BDE80840FFF793B800BF704700BF04F0BEBEDD
:205080000AB90020704708B508461146FBF7B4FE002008BD0FB400B583B004AA52F8041BC9
:2050A0000448019206F030F803B05DF804EB04B0704700BFEC1400202DE9F8432E4D04469C
:2050C0002A68824255D0002A40D0134601E0002B3CD01B689C42FAD1002B37D0274EA37BB9
:2050E000376853B1A36843B18C4206D000228321346004F10C0098472A68944228D02AB1F5
:205100001368A3422FD01A46002AF9D1A37BE3B100232D68A373C5B14FF002084FF0010954
:20512000AB7BDB070ED5AB6805F10C0053B122468721356085F80E809847023801280DD993
:2051400085F80E902D68002DEAD13760BDE8F88323682B60A37B002BDAD1F6E7294628463C
:20516000FFF7AAFFEEE723681360A37B002BCFD1EBE71346B0E700BFD8250020D42500201D
:2051800038B583687BB104460220A07309480D46046004F10C0098470238012804D9832DB4
:2051A00002D00123A37338BD21462046BDE83840FFF782BFD42500200022F8B51249134B2C
:2051C0000C681A70D4B101250227114E01E02468A4B1E37B002BFAD0A36804F10C00E58117
:2051E000002BF4D0002282213460A77398470238012804D9A5732468002CEAD1F8BD214687
:205200002046FFF759FFE2E7D8250020C5440020D4250020024B1878421C1A70704700BF77
:20522000C3440020F8B5164A1568854207D0044635B12B4600E01BB11B689C42FBD1F8BDF0
:20524000002CFCD025600126146000220D4DA3682F68A673A2815BB10A4602212C60A173BD
:2052600004F10C00812198470238B04202D9A6732F60F8BD21462046FFF71EFFF8E700BFCA
:20528000D8250020D42500208A22014B1A707047C34400202DE9F8432D4D2B78F3B92D4EE3
:2052A0003378BBB12C4C2D492278013B02EB4200013202F00702227001EB80025468DBB26D
:2052C00051F82080177A33705CB1812F1DD0A27BD2071CD428781844BDE8F883FFF76CFFA4
:2052E000DDE71F4A146854B9F4E7A37BD90704D5424639462046FFF743FF246814B32B78AB
:20530000002BF2D0FFF758FFEFE70122A273D4F80890B9F1000FDDD00223A373114B42465C
:2053200039461C6004F10C00C8470238012805D9832F03D001223378A273CBE7214620463A
:20534000FFF7BAFE337828781844BDE8F88300BFC5440020C4440020C244002074250020E9
:20536000D8250020D425002030B40F4C94F800C0BCF1080F15D005460C4B00201B786344C7
:205380000CF1010C84F800C003F00703084C03EB430344F8232004EB830319725D6030BC1A
:2053A0007047012030BC7047C4440020C24400207425002038B5837B034CDB07256801D5EC
:2053C000FFF7DEFE256038BDD425002018B1837B013B012B00D970470123024AC373137080
:2053E000704700BFC5440020FBF70CBD10B5044611F00AFD01462046FBF7FEFCBDE81040AE
:205400000A20FBF7FFBC00BF08B50448FEF7FCFFBDE808400248FEF7F7BF00BF0015002027
:20542000F41400200148FFF74BB800BFF414002038B50F48FEF7FAFF044680B10D48FEF724
:20544000F5FF0546206060B1FFF708FC034605F19A0105F18200A5F88030FFF7A1FC2046EA
:2054600038BD21460248FEF7FDFF2C46F7E700BFF414002000150020006800F19A01823083
:20548000FFF78EBC10B5044607482146FFF70AF800B910BD21680548FEF7E4FF2146BDE8CF
:2054A00010400148FEF7DEBFF41400200015002010B5044609482146FEF7F4FF00B910BD2F
:2054C0002468B4F880102046FFF792FB04F19A0104F18200BDE81040FFF784BCF4140020C1
:2054E00008B511F06FFB80B208BD00BF08B5FDF71FFFBDE8084011F05DBB00BF2DE9F04FE5
:205500000588044685B085B140F254439D4224D188294AD0BA4B1B788B4224D040F25443BF
:205520000120238005B0BDE8F08F4FF480722946B44811F0EDFAFFF76DFE0646B24B2A462C
:20554000294628461E7006F0B9FDB04A034610600028E3D102202380E4E70023032023802C
:2055600005B0BDE8F08FAA4BA84F1A683B689A42D4D1DFF8B0A29AF800309A071AD41B0724
:20558000CCD54FF0000AA34DDFF89C829E4E15F81E3C023B012B40F2C6800AF1010ABAF157
:2055A000040F05F14005F2D1B8E7984B186806F053FFB3E7984B1E68B37806F10C0513F057
:2055C000FE0F40F03381F378002B40F02F81B08809F086FC8146F0885FFA89F909F080FC22
:2055E000B9F1000F1FD05FFA80F82B7802E0D518D35C2BB113F0C00F05F10102F7D01546C8
:2056000009F1FF3313F0FF0905F10505EDD1DFF8F49100234A461178032907D00133042B97
:2056200002F14002F7D19AF80030A8E7508831888842F3D10122990109F8012009EB831B8C
:20564000F378039103F00F038BF81C30FAF74AFF9BF81C301E300122CBF80800002B40F0C7
:205660005781B8F1000F47D0DFF8B0B1AC462B7803E002EB030CD35C2BB113F0C00F0CF1FD
:205680000102F6D09446DCF80100DCF80510DCF80D30DCF80920614E0FC6DCF81100DCF85E
:2056A000151003C6BCF81930BBF80200338009F017FCC0F30E000128BBF8080008D1B0F568
:2056C000805F05D1BBF80030B3F5E05F00F0F1802B7802E0D518D35C2BB113F0C00F05F1A5
:2056E0000102F7D0154609F0FBFB08F1FF380B3018F0FF080544B9D1039B09EB0305687FC8
:205700000130C0B2687707F01FFF002800F0CD800022032303992A7109F8013040488821AB
:20572000FFF722FE7FE720214046FEF725F815F81E3C032B40F0FD8015F81D2C531EDBB27E
:2057400022B105F81D3C002B7FF427AF15F81A3C0133DBB2042B05F81A3C40F0E08015F869
:20576000010C0130C0B205F8010C07F0EDFE8146002800F089800023DFF888904FEA8A18B8
:2057800009EB8A12137109EB080253700023224ED6F800B0CBF80030CBF80430CBF808303E
:2057A000FFF79EFE01224FF4807309EB0801ABF8000048808BF802204FEA8A18ABF804303F
:2057C000336808F11D054D4403F10C0C6B78691C2E2B18BF00200CF1010207D151E002F8BB
:2057E000013B11F8013FE8B22E2B02D0451C002BF5D10D468CF800000B783BB39446E5E71F
:20580000E5440020782B0020C7440020782C0020203F0020962B0020643D00205C2B0020C5
:205820000C150020EA4400207C2C0020B08809F057FB8146F08809F053FB5FFA89F95FFAD4
:2058400080F8B9F1000F7FF4D0AEE0E613705370D3701C239370012335681371C144053214
:20586000521B99F81D003F68039207F06DFE29464FF454550346039A3846009508F016F914
:205880004CE60D460020B5E7012305F8010C05F81E3CFAF727FE03461E3348462A463178EB
:2058A00045F8163CFFF760FD77E69AF80030687765E60423039DBBF8040009F8053009F010
:2058C0000FFB8046BBF80600039509F009FB4D4440EA0840A860FAF705FE0246039BDBF8F2
:2058E0000A0003F11E0CAB6856F80A1C1344AB6056F8062C56F8023C0C350FC509EB0C0274
:20590000124B00201978FFF72FFD9AF8003036E6039B09F8032003F11E024A44F0E713FB30
:2059200003F303EB4303DFF82890DBB24FEA8A1829E740F203130022DFF814904FEA8A1876
:2059400029F8083009EB8A131A711FE7C7440020782B00202DE9F0472C4C0646217800290B
:2059600049D000242746A146294DDFF8B0803146284611F045F95FFA84FAA201002840D043
:2059800015F81E3CA3B3042B2CD098F8003015F8192C9B1ABB4201DDD146DFB20134042C70
:2059A00005F14005E3D11B4B03EB8919022440220021484611F0ACF83146202209F11E0055
:2059C00011F08CFA98F8003089F800405A1C89F8053088F800208821BDE8F04700220E48F6
:2059E000FFF7C2BCFAF77EFD55F8163C9842CCD9D146FF27D2E70848FFF714FC01232370A6
:205A0000AFE7044B03EB0209D0E700BFC6440020962B0020782B00200C150020C8440020F7
:205A20002DE9F0410024064688461A4D2946304611F0E6F8A7014035013428B1042CF5D195
:205A400001242046BDE8F081134DEC5DEE19032C12D8012C1CD819D1FAF744FDB3689842AA
:205A600098BF0324B8F1000FEBD00C372F44C8F800702046BDE8F081042C07D1FAF732FDAB
:205A8000B468A0428CBF02240024EBE70124E9E70424E7E7962B0020782B0020817942795D
:205AA00090F804C0521A12EA0C0F034606D000684A1C02EA0C02405C9A7170474FF0FF3064
:205AC000704700BF70B5134E337803B170BD04460D4607F0D9F8034684B10F4B20686168B0
:205AE00003C395B10D4BA868E96803C301220021094807F0DFF90123337070BD59689A6800
:205B0000054C0068DB680FC4EBE70549024807F079FBEBE7C94400208C2C0020942C00202A
:205B2000143F0020002110B5084682B00C46FFF7C9FF174B03F1540193F820201AB193F8B0
:205B40002120012A15D01C338B42F5D1204607F031F904B9C8B102F0A9F9402302462146AF
:205B60000020009300F0A2FB00F01CFA002002B010BD1A7CFE2A02D003F11004E3E75A7C08
:205B8000802AE0D003F11004DDE74FF0FF30EEE71C390020054B187B30B1B3F84E00DB8A05
:205BA000C01AB0FA80F04009704700BF9C2C00202DE9F04716461B4CDFF86C9080460D464E
:205BC0004FF4B072002120461F469DF824A010F09FFFB9F82030B34205D1524638460899FA
:205BE00002F0BEF918B900263046BDE8F08701264FF0FF33F0224FF2F00184F80D80A4F8F2
:205C00005810E2732673E364A4F85030C4F8089028686968AA68EB681C340FC43046BDE873
:205C2000F08700BF9C2C00204C15002010B5044690F8510094F8503082B0228A0190207EC4
:205C40002146009304F13C03FFF7B2FFF8B100220120104B617DB4F81AC09973616DA3F84F
:205C600010C01960216A5961217F9974617F1976E18B83F85C205983A17D83F85410217DA0
:205C800083F85310E17D83F8552083F8521002B010BD00BF9C2C00202DE9F0414F4D2B7B4C
:205CA000B5F84E40002B74D195F85C30032B5DD0FFF770FF064620B1AB68BDE8F041DB6916
:205CC0001847D5F8448001F06FFC01F007FC686C01F0D2FB0346424FA5F84E303868FEF768
:205CE0005FFD0446002838D1B8F1000F5AD0B5F84E30B5F84C209A4201D9A5F84C304FF693
:205D0000FF72B5F8503093420AD0B5F84E10914206D0CB1A002BB8BF5B42B3F5007F44DC17
:205D200095F85B30002BC7D06B6C002B43D0B8F1000F4AD001F022FE002385F85B30AB6853
:205D4000BDE8F041DB69184723683BB321463868FEF7F2FC04460028C6D0204601F08CFB81
:205D6000B5F84E308342EFD82660EFE7002001F0B5FB4FF6FF739C42A5F84E309CD01948D2
:205D800001F0C8FD01F070FFAB68BDE8F041DB69184705F16400FAF7FDFF85E7FAF79CFB26
:205DA0002060D3E7B5F84E30A7E70F48A5F8501001F0B0FDB4E70B4885F85C3001F0AAFD6F
:205DC00001F03AFD01F050FFB6E70123074885F85C3001F09FFD01F033FFABE79C2C002018
:205DE00070150020CC7E0108DC7E0108F47E0108094A137B73B110B4044640B102F11C0CAE
:205E0000BCE80F00206001206160A260E3605DF8044B7047184670479C2C002010B5FFF715
:205E2000B9FE134C78B994F9582094F85830002A03F10103B4BFDBB203F07F03002084F8CF
:205E4000583001F0C7F8FEF777F901F071FB07F00FFE01F05FFF94F841305B0602D400239E
:205E6000237310BD034802F057F80023237310BD9C2C0020C82C00200322024B83F85C2048
:205E800001F06ABF9C2C002008B50F4B1A7B8AB19A6C511C0ED082420DD9101AB0F5967F3A
:205EA000986407D2586C28B101F0F2FABDE8084000F036BF08BD00210322996483F85C20C2
:205EC000BDE8084001F048BF9C2C002010B5084C237B5BB194F840200146D20804F11C0014
:205EE00010F0F4FCB0FA80F0400910BD184610BD9C2C002010B5FFF74DFE88B1F021114CC2
:205F000094F9522094F85230002A03F10103227BB4BFDBB203F07F0384F85230E17302B933
:205F200010BDFFF737FE08B984F85C00A3681B68984701F0FDFA044801F0ECFCBDE8104061
:205F400001F00ABF9C2C0020007F010810B50A4C237B03B910BDFFF71DFE08B984F85C002B
:205F6000A3681B68984701F0E3FA044801F0D2FCBDE8104001F0F0BE9C2C0020007F0108D7
:205F8000074B9A7B187B1AB9003818BF0120704728B193F85C00012894BF00200120704719
:205FA0009C2C0020024B1B7B03B97047FFF774BE9C2C00202DE9F041754D06462B7B0C4646
:205FC0002BB16A7B237E9A4209D0BDE8F081FFF7E1FD98B12B7B002BF3D1BDE8F08110229A
:205FE00021466C4810F072FC0028EED1628AEB8A9A4216D2BDE8F041FFF74EBE637D012B28
:20600000E3D82046FFF712FE0028DED0AB681B689847614801F07EFC01F0CCFD01F024FE2D
:20602000D8E7E17D95F8520001F022FF002841D14FF6FF73628A9A4204D095F8573001337D
:2060400085F8573095F85210E07D01F011FF48B1B5F84E20EB8A9A4258D0FFF79BFD074687
:20606000002869D022460121304600F03DFEE8B1304601F08BFA0746002844D090F8068078
:20608000304601F083FA002847D0638A8380637E8371AB6CB3B96B8BC3EB03135B01AB6470
:2060A000AB7B1BB117B16B6C9F4218D02B7B002B8BD09FE7628AEB8A9A42F7D1374801F05F
:2060C00029FCF3E7002FF1D06B6C9F42EED16B8BAA7BC3EB03135B01AB64002AE6D04146A9
:2060E000607E01F0C5FE0028E0D095F90F20EB7B002A03F10103B4BFDBB203F07F03EB731E
:2061000001F03CFCD2E74FF0F008B9E7E37D244885F85230FFF7EEFEA4E7304606F0A6FC80
:206120000028C3D01F4B0146012218682346FEF781FB0028A9D1B9E701F0ECFD384601F0EB
:20614000CDF9637D012B12D92B7B002B8AD0FFF721FD08B985F85C00AB681B68984701F043
:20616000E7F9114801F0D6FB01F0F6FD7AE72046FFF75CFD0028E7D0AB681B689847064888
:2061800001F0C8FB01F016FD01F06EFDDCE700BF9C2C0020B82C0020107F0108187F010845
:2061A000347F010870150020007F010811B1084801F0B0BB10B50A460321044600F094FD84
:2061C00020B12046BDE8104000F0C6BD10BD00BF507F010838B5054691F823000C46C0B115
:2061E000FF2816BF0D4B4FF0FF335B8B0A4618BF43432946002007F09FFB18B194F925307C
:20620000002B00DB38BD2846218CBDE8384001F0D7BB0A46294607F06BFBEFE79C2C0020EE
:2062200070B5154D0E4695F85910044601F020FE08B185F8594095F85830A34200D070BD6E
:2062400095F85C3076B2012B07D001F0DDFB002EF5DA032385F85C3070BD002E02DA01F0DD
:20626000D3FBF6E70223054885F85C3001F052FBBDE8704001F0C8BB9C2C0020607F010821
:2062800070B505460E461C463AB924B11DB1064BAE801B7B23B9012070BD01F055FBF4E7E7
:2062A000FFF7FAFC012070BD9C2C00202DE9F047284C82B094F80CC005460E461746984697
:2062C0009DF828A0BCF1000F0AD0102204F11C0010F0FCFA80B34FF0F009FFF79FFD01E0B4
:2062E0004FF0F0093B46314628460122CDE9008AFFF75EFC40F6084200231E2101202282A6
:20630000154A80252176A3743C21626184F853300222A4F854304FF0FF33A0730F4884F811
:206320005290A4F84E50618384F85C20A36402B0BDE8F04701F0EEBA94F9523094F85290BA
:20634000002B09F10109B4BF5FFA89F909F07F09C3E700BF9C2C0020000480006C7F010876
:206360004FF4B0720021014810F0D2BB9C2C0020104A907918B992F82A10632901D0012063
:20638000704792F82910A1B992F82B30042B0FD1094B187B68B1587B92F82DC0844507D14A
:2063A000B3F84E3001205BBAD38582F82DC0704708467047D83C00209C2C002070B51B495E
:2063C00005462B2209881A4808F082FE04461948FFF77CFD10B90024204670BD16490020A1
:2063E00007F03AFA13490646002007F035FA14B1A278032A06D00028EDD0002EEBD0436928
:20640000B342E8D14FF0000C48F2FE0E0124094E0FCEA5F802C0AA60EB60A5F800E0A5F816
:2064200004C0A5F806C0204670BD00BF9A440020D83C0020F03C0020B82C00202DE9F04318
:206440002B4B2B2219882B4885B008F041FE044610B18378032B03D0002005B0BDE8F08305
:20646000C278002A3FD06378017901336679DB00DBB201F00F05A3EB161309092B44C1F1EA
:206480001000183B93FBF0F30133DBB29A42E3D8012A18BF0D469B1ADBB203FB00F0154FE7
:2064A0000830E31B103303445B1B8C2BD4D8E846261805F1180CC5F1100907F118030FCB01
:2064C00088E80F0031464A4607EB0C0010F02EFA4A46304608EB050110F028FAE378012073
:2064E000013BE370B9E7012005B0BDE8F08300BF9A440020D83C00204378002B37D140F26E
:2065000063432DE9F041425A44189A422CD1194D2B7B4BB36A7BE3789A4225D1A3789A06E6
:2065200022D4154A0C20DE09D2F80080A788FEF78DFC01464046FEF761F97FBAB5F84E109C
:20654000BFB2B94294BF00210121A5788E42C5F380131CBF45F04005A57086EA01023946A5
:20656000BDE8F041FFF78CBE0020BDE8F0810020704700BF9C2C0020701500202DE9F04165
:206580002A4F2B4E82B00123304639880DF1070208F030FD002841D09DF80730062B3DD00D
:2065A000044606F1060814E013B9A378632B16D03988A31BC91A204600230DF1070289B210
:2065C00008F018FD044648B39DF807308046062B24D0112B22D03A2B20D02B2BE4D1237889
:2065E00088F8003065780135ED00684208F0CEFCC0B139883046283989B208F0F1FC3A8894
:20660000A31B9A420EDDD21A2046611910F004FA98F80030062B8DF80730DAD1012002B000
:20662000BDE8F081002002B0BDE8F0819A440020D83C00202DE9F04FDFF8908289B098F823
:206640000C3053B348F2FE039A4C228B9A4224D0237EFF2B21D0FFF79DFA054678B904F1A0
:20666000080006F0A7FB28B1934BE27993F806319A4217D009B0BDE8F04FFFF779BE04F124
:206680001807FFF77BFF3846FFF720FC28B13946002007F0E1F8064658BB0125284609B0E7
:2066A000BDE8F08F854E3288B2F59F6FF6D804F12801283A04F1300010F0AEF940F2634283
:2066C000A37998F80D1084F82830B8F84E30C4F829505BBA84F82D10A571E385628508205F
:2066E00008F054FC31882046283989B208F078FCC0E7002008F11C0107F0AEF801900028F8
:2067000047D03946002007F0CDF8002841D0D6F814A0BAF1000F00F0BC80019B534500F042
:20672000C0804FF000090F25654B0DF110089B69039602935146029B40469847DFF890E1C4
:206740002946C34670464246002312F8016B10F801CFB44502D10133102BF6D19D420CDA4B
:20676000DAF814A009F10103DBB2BAF1000F14D0019A524511D09946DCE700211BF8013B45
:206780001EF8012F9A4206D101311029F6D10D46E6E7002582E7CDB2E2E7C1F1100AC5F156
:2067A00018081AFB09885FFA88F918F007081FBFC8F108085FFA88F8C1445FFA89F99B46E1
:2067C0004B46039E3D4A02931288D118B1F5A06FDFDC3C49283A0888283021184844204480
:2067E000039110F019F903994A460846002110F08FF92B22029BA179A271B3F1080248BF04
:2068000003F1FF320323D21084F829202C4A84F82BB0D2F818B005EB051284F82C204FEA1F
:20682000081284F82A3084F82810274B84F82D20A9EB08040DF110084544CDF80890C146D6
:20684000DDF804801C447269A4EB0A0490450AD031464846D84752462946204610F066F869
:206860007669002EEFD1C846DDF8089031464046D84798E80F0087E80F00484608F086FBA0
:206880000E4B0C4819880125283989B208F0A8FB04E7D34608230F254FF0010AD8469946A3
:2068A00090E708234FF0000B0F254FF0010A9946D84687E7D83C00201C3900209A4400205C
:2068C000907F010898440020003D00209C2C0020EF3C002008B50C4A137B43B10B4B0C49D4
:2068E0001B88507B2C335A5C0B44904203D0BDE8084008F031BBD9789878FFF791FCBDE8C7
:20690000084008F029BB00BF9C2C002098440020D83C00202DE9F0418EB02622002104A8E2
