:020000040800F2
:200000000010002091AE00088DAE00088DAE00088DAE00088DAE00088DAE00088DAE0008D7
:200020008DAE00088DAE00088DAE00088DAE00088DAE00088DAE00088DAE00088DAE0008A8
:200040008DAE00088DAE00088DAE00088DAE00088DAE00088DAE00088DAE00088DAE000888
:200060008DAE00088DAE00088DAE00088DAE00088DAE00088DAE00088DAE00088DAE000868
:200080008DAE00088DAE00088DAE00088DAE00088DAE0008E90E00088DAE00088DAE00088C
:2000A0008DAE0008B14100088D4100088DAE00088DAE0008E5370108014201089156010846
:2000C0008D560108CD3901089D56010895560108D94101089956010841420108A54201089E
:2000E0008DAE00088DAE00088DAE00088DAE0008ED9900088DAE00088DAE00088DAE00089D
:200100008DAE00088DAE00088DAE00088DAE00088DAE00088DAE00088DAE00088DAE0008C7
:200120008DAE00088DAE00088DAE00088DAE00088DAE00088DAE00088DAE00088DAE0008A7
:200140008DAE00088DAE00088DAE000839AC0008812701088DAE0008B1530108B7530108D5
:200160008DAE00088DAE00088DAE00088DAE000830B501380B4685B004286FD8DFE800F0A5
:200180000A521B24030031F0010056D1364A117005B030BDA1F10B020F2A4ED83349344CDB
:2001A0000022086899B223600DF08AFF002818BF032005B030BD2D490022086899B214F03E
:2001C00007FF002005B030BD31F0070235D101F00201DA43002914BF01200020254C264DF5
:2001E000C3F38003237002F0010385F82930287126D01E4C2149206814F0B5FE95F82910FF
:20020000206814F0F1FE20684FF0FF3214A5D5E900454FF0FF33CDE9004514F0BFFD002063
:2002200005B030BD1148164B89B200220068198014F0C8FE002005B030BD022005B030BDB4
:20024000104B0A4C9B8903A92068ADF80C3014F08DFD206803A914F09FFDCBE7012097E701
:20026000CA0D015502020000E2170020701F00205C140020D93E0020801400208414002052
:20028000D01700202458010870B50024404B84B083F8204383F8214383F8224383F825434A
:2002A00083F8244383F81F4383F81E4383F8234383F8274383F847430AF05CF804F0ECFDAD
:2002C0000AF072F80AF084F8214632480DF0AEFE314D286010B10EF03DFB10B1002004B028
:2002E00070BD2E49286814F04EFE0028F6D12C4928680EF091F90028F0D107222868114605
:2003000014F082FE0028E9D10146286814F0E1FD0028E3D19FED1C7B4FF0FF324FF0FF33DE
:200320008DED007B286814F039FD04460028D5D103F060F94AF6CD330E461A4A19461380B0
:20034000029022462868039614F03CFEC6F30741360E224646EA0121286814F039FE22460A
:2003600002A9286814F03AFE802322460E49286814F00DFE8028B1D121460C4805F0E6F84D
:20038000ACE700BFAFF30080CA0D01550202000000E100E070140020701F0020641F002001
:2003A00080140020D0170020F41F00206014002010B5054C237833B9044B13B1044800E0DF
:2003C00000BF0123237010BD201A002000000000E0D8010808B5034B1BB10349034800E071
:2003E00000BF08BD00000000241A0020E0D80108A3F5803A704700BF174B002B08BF134BE0
:200400009D46FFF7F5FF00218B460F461348144A121A14F0E3FA0E4B002B00D098470D4B77
:20042000002B00D098470020002104000D000D48002802D00C4814F0E5FB14F089F9200063
:20044000290000F055F814F073F900BF00000800000000000000000000100020FC1700209C
:20046000203F0020054C0108114C010810B50446006830B1002105F069F854F8040F0028E7
:20048000F8D110BD08B5064A13680133136003F0E9FA00B908BDBDE8084003F0C9BA00BF21
:2004A0005C1A002030B583B00AF088F80AF0CEF9012500230146054CCDE90035044AC90967
:2004C000044823600AF0E6F803B030BD5C1A0020850400083C1A0020014B1868704700BFF6
:2004E0005C1A0020014B1868C00970475C1A00202DE9F04104F000FFFFF7D4FF05F058F83C
:200500000021694805F022F800F0EEFB0DF056FD0AF03CFC04F038FF05F00AF9634B644F1B
:200520001B68DFF8E4819847624D7B689847D8F804309847AA79EB795F4E604C03EB0223D6
:2005400033802368022B00F3A5805D495D4804F035FF0A2005F0DCF82368022B37DC5A4B42
:2005600029686A6819605A600021584804F0EEFF4FF0FF300CF01EF923680546022B11DCD2
:2005800004F00EFF5248FFF771FF0DF03DFD05F015F80446E4B20DF03DFD002CF7D104F022
:2005A00001FFF4E74B4A4C494C4804F007FF4C4804F004FF2368022BE2DD284603F0A2FFA4
:2005C0002368022BDCDD0A2005F0A2F8D8E7414A4149424804F0F2FE424B4348196804F022
:2005E000EDFE2368022BBADD3A4A3B493B4804F0E5FED8F800103D4804F0E0FE2368022B70
:20060000ADDD344A3449354804F0D8FE3968384804F0D4FE2368022BA1DD2E4A2E492F488B
:2006200004F0CCFE4AF6CD31324804F0C7FE2368022B94DD274A2849284804F0BFFE1A2124
:200640002D4804F0BBFE2368022B88DD214A2249224804F0B3FE3188284804F0AFFE236821
:20066000022B7FF77CAF1B4A1B491C4804F0A6FE234804F0A3FE2368022B7FF770AF0D4845
:2006800003F050FF2368022B7FF769AF0A2005F03FF864E70F4A1049104804F08FFE194845
:2006A00005F038F851E700BFAC14002034580108E057010808230020A63E0020CC1400201A
:2006C000145701081C570108503C00201C170020285E0108E0560108E8560108F0560108C7
:2006E000B4570108B85B0108285701083857010844570108505701086C5701088C5701089E
:200700009C57010800570108305C01082DE9F0430D4614468B6883B00646D3E90078506B91
:2007200092F82C9003F0CAFE686805F03FF8A9681D4803F0E1FF29461C4803F0DDFF636B03
:200740001B681BB30023A38505F05EF80146184B184D1B6804F10C0000932346A5FB01542E
:200760000D1B04EB5504A408C4EBC404124A091B00F0C8FA3FB14A46314640463B4603B003
:20078000BDE8F043184703B0BDE8F08304F10C0000F000FB2146094803F090FE214608487B
:2007A00003F0AAFFE6E700BF2814002040140020BC25002025499224C5070008C81A002046
:2007C0003414002010B32DE9F047436B04461D6886B0C5B1686804F0FFFF0C207E4904F0CF
:2007E000BDFC0121072004F0ADFC00F0B9F900280DDAAB683BB105202246294606B0BDE853
:20080000F047FFF783BF06B0BDE8F087704704F03BFC724F90F802807B68039304F034FC4D
:20082000064604F03BFC039B01463046984704F0A5FCBB6906460393984700282DD1002E39
:2008400066D1D7F81C90C84738BBBB681E4604F025FCB047002872D002281ED0AB68002B91
:20086000D1D00420C8E707F081FA6FF014031E1A03E007F07BFAC64202D5C8470028F8D0B7
:20088000C847002877D003213B6905A89847032803D19DF81630434540D0AA68002AB2D056
:2008A00094F82D104B1CDBB2052B84F82D301FD8127A94F82C00904226D2012B88BF1F26B5
:2008C00040F2828004F0A0FF0146454B04F10C001B68444A00932346B1FBF6F404FB1611B0
:2008E00000F010FA686806B0BDE8F04704F058BF002194F82C3084F82D100133DBB284F892
:200900002C30127A9A4218D822462946012075E7BE6804F0C3FBB04700289DD1AB68002B2C
:200920003FF471AF002094F82C3022460133294684F82C3084F82D0060E70726C2E707F0BC
:2009400015FA6FF00C0AAAEB000A04E007F00EFA1AEB000F02D5C8470028F7D0039B98472B
:20096000002880D1C84700287FF47DAF7B69984700283FF478AFA96800293FF444AF002261
:2009800094F82C3084F82D200133DBB284F82C300A7A9A4203D82246294602202EE704F0D0
:2009A00033FF01460E4B104E1B6804F10C0000932346A6FB01640E1B04EB5604A408C4EBB4
:2009C000C404084A091B8BE701260B1DDBB206FA03F35E1E76E700BF08230020345801081D
:2009E000BC250020C5070008254992242DE9F041064682B00D200F4604F0B8FB054603F0D2
:200A0000C3FD01210B2004F09DFB464B1C6814B916E02468A4B12946201D03F0FBFC0028C6
:200A2000F7D0606B03F064FD07281EDD002E59D0012206213846334602B0BDE8F041184727
:200A4000394803F03DFE04460028EFD02946201D03F0DAFC002304F1300221463148626352
:200A6000A385236303F0DEFCDBE7304803F028FE0546002841D02E4803F022FEA86000286B
:200A800037D004F069FE686078B30520D5F8088004F05EFB10F0FF0008BF0823C8E9006731
:200AA0000CBF88F8083088F808002946606B03F0B9FC636B1B689D4214D194F82D30012B1F
:200AC00029D91F2504F0A0FE0146234604F10C00B1FBF5F4174A04FB151112680092164A06
:200AE00000F010F902B0BDE8F081A968104803F003FE29460D4803F0FFFD606B03F0F8FC73
:200B0000002893D12146074803F0D8FC2146064803F0F2FD8AE701250333DBB29D40013DC0
:200B2000D0E700BFC81A0020341400204014002028140020BC250020C507000808B5054826
:200B400003F0ACFD044803F0A9FDBDE80840034803F0A4BD40140020281400203414002050
:200B600010B501210B2004F0EDFABDE81040014B5B681847E0590108014B9B68184700BF76
:200B8000E0590108014B1B6A184700BF34580108014B5B6A184700BF3458010810B50D4BAE
:200BA00082B01B6898470C4B04469B6A192001A9984701280BD0002CB8BF1524019B802B12
:200BC000D4BFC4EB0300C4F1800002B010BD002002B010BDE059010834580108FFF706BFEB
:200BE00000B583B004F054FA032802D103B05DF804FBFFF7C1FF0028F8DB0D2004F0B6FA44
:200C00000E4903F007FCA0B10C2004F0AFFA0B4903F000FC0028E9D103F0C0FC0028E5D1BB
:200C200003F0E2FC064B9B68019303B05DF804EB184704F0A3FA0028E6D1D7E7082300202C
:200C4000305C010810B5074C82B01920A36A01A9984728B903F090FCFFF770FF236A9847B5
:200C600002B010BD34580108F8B5038805462BB14A2B14D1882916D00120F8BD174B1C6854
:200C800034B1A168201D02F0D9FE2468002CF8D10122134B1A704A232B800120F8BD0023C3
:200CA0002B800320F8BD0D4B1C68002CF3D0231D9A4205D02468231D002CECD09A42F9D19B
:200CC000084E2146054803F0F9FBD4E90523376832600BB1E06998473760DCE7A81B0020EC
:200CE000D63E0020BC2500200021034A034B04481170196004F02ABCD63E0020A81B0020CC
:200D00004C14002070B50E4C049E2578C0E905620446C36135B981602146BDE8704009483B
:200D200003F080BB084D094B2E6804302B6002F085FE2E602146BDE87040024803F072BB5E
:200D4000D63E0020A81B0020BC2500204C14002070B50C4B04461B782BB92146BDE8704002
:200D6000094803F05FBB094D094B2E6804302B6002F06EFE21462E600348BDE8704003F030
:200D800051BB00BFD63E0020A81B0020BC2500204C14002010B50A4B04461B783BB9C0E95C
:200DA00003332146BDE81040064803F087BB043002F060FE2146BDE81040024803F07EBBC8
:200DC000D63E0020A81B0020094B1A7842B9094B01E0984209D01B68002BFAD101207047E2
:200DE0000069B0FA80F0400970470020704700BFD63E0020A81B002010B50C460AF0B4FFFF
:200E0000204610BD00B583B00190012101A80AF0ABFF019803B05DF804FB00BF38B5114B0F
:200E20001B7883B10546D8B101F056FE0E4900230A46147B103244B10133082BF9D101F020
:200E400051FE0A4838BD0A4838BD1A012B608C50012201EB03131A7301F044FE204638BDF3
:200E6000044838BDD73E0020AC1B0020048000F0028000F0018000F0002310B5164A82B044
:200E8000126801928DF8043001F026FE134B1C78E4B901221A7001F025FE0422104B0DEBAE
:200EA00002001C731C7783F82C4083F83C4083F84C4083F85C4083F86C4083F87C408DF82F
:200EC000072002F0ADFA204602B010BD01F00AFE044802B010BD00BF0C580108D73E002048
:200EE000AC1B0020038000F02DE9F047214B1F6D5A6D17402BD4012500261F4CDFF87C80AC
:200F0000DFF87C902F420CD0C8F85050236843B1D4E9012101313046A1609847637B012B51
:200F200008D00136082E4FEA450504F11004E9D1BDE8F08709EB46130028F2D1197B1A7FA5
:200F400060F3410160F3410219731A77E9E74FF000400A49084A0865D868C0F304200301CD
:200F6000D35802EB0012002BE2D0BDE8F04700215268184700000450AC1B002000200450A5
:200F80002C1C00208C21054A054B126801FB0233187A003818BF0120704700BF2C1D002051
:200FA000341D00208C210A4A0A48136801FB0300037A53B113680133594201F0030103F040
:200FC000030358BF4B42136070471846704700BF2C1D0020341D00208C210A4A0A481368C1
:200FE00001FB0300037A53B913680133594201F0030103F0030358BF4B4213607047002043
:20100000704700BF301D0020341D002000230372704700BF01207047014B1878704700BF44
:20102000D83E00202DE9F041264F8CB00221386801AA13F0B0FF70B1002304250446014664
:2010400006AA38688DF825308DF81E50ADF81C3013F0A5FF10B10CB0BDE8F081BDF806602D
:20106000039ABDF80830013E0132013BB6B20392ADF80830ADF80660FFF7AEFF0546D0B1E4
:20108000BDF80880067200F1090303994246184613F0B2FB049931B1BDF806204044A2EB01
:2010A000080213F0A9FB9DF92630069AAB809DF827302A60EB802146386813F074FF0CB0AE
:2010C000BDE8F081701F002008B5FFF7ABFFBDE80840FFF757BF00BF2DE9F0410646FFF7AD
:2010E000A1FFFFF75FFF0446002839D090F8088006F03CFE054613F061FF13F05FFF2146CB
:20110000034651F809CB3046A3EB0C03DB03164E03F5F42303F5907386FB03C6DB17134F6C
:20112000C3EBA643EB1A42463B6013F065FB104BB4F904100F4A19800F4BE0881B7810809A
:201140002BB12046FFF762FF4046BDE8F081042089B203F0F7FF0320E18803F0F3FFF0E7CA
:2011600080464046BDE8F08183DE1B43681F0020A43E0020A23E0020D93E002010B503881E
:20118000044663B140F2CA2293420DD1822901D0012010BDFFF746FFFFF7F4FE40B940F268
:2011A000CA232380012010BD00232380032010BD03F086FE03F058FF8021FFF78DFF0028EF
:2011C000EDDD80B203F04AFF034BDB689847034804F090FAE3E700BFE05701086014002041
:2011E00000295FD0013810B50C4618280ED8DFE800F013180D1D330D0D413B0D510D0D0DC7
:201200000D0D0D0D0D0D0D0D0D0D0F00012010BD80230B60002010BD244B00201B680B60D7
:2012200010BD234B00201B880B6010BD0023214A0B6092F8293083F001030B60127912B16C
:2012400043F002030B601C4B1B784BB32368002043F00403236010BD0020184B08601B7840
:20126000F3B101230B6010BD154B0020B3F900300B6010BD134B0121186813F02FFD10F5A6
:20128000007F11D00028B8BF033040F38F032360002010BD0C4B0020B3F900300B6010BD5C
:2012A000002010BD02207047032010BD5C140020D017002080140020D93E0020E2170020DD
:2012C000A43E0020701F0020A23E002008B5054B0121186813F002FD10F5AA7FCCBF0020D3
:2012E000012008BD701F002070B5254A86B003AB064607CA83E807000121224A224C1278CC
:201300002170B2B10020214A2149126809880090204800680CF0C6FEB0B91F4B1B78C3B9D7
:201320002378012BFCD0002318462278237006B070BD1648134616490268164809880068B2
:201340000CF0A2FE0028E8D000230120237006B070BD06F00BFD114B114A3605334482FB73
:201360000312DB17C3EBA2431D1804E006F0FEFC401B0028D7DA2378012BF7D0D3E700BF8F
:2013800024580108E2170020DA3E0020742000205C140020701F0020D93E002020A11D016E
:2013A00083DE1B4370B501230C4605460F4E82B01A4604F1020C0DF1070130688DF807C0AC
:2013C00013F0E3FD002322462946306813F0DDFD074B1B783BB92B78C3F340130020054AC7
:2013E000136002B070BD0023F8E700BF701F0020D93E00207420002010B50C46FFF7D2FF62
:2014000000B110BD2046BDE81040FFF76DBF00BF12F0A84F70B5144606461D4602D00522F2
:20142000194B1A70A30702D50322174B1A70174B00221C4203D0164B20071A7019D4E10196
:2014400002D50222104B1A70AA0702D504220E4B1A7014F0C00F02D001220D4B1A70AB05C1
:2014600000D470BD00223046BDE87040114613F0D8BC304613F095FD064B1B78002BDED1C7
:20148000054804F037F9DAE7DA3E0020080D0100D83E0020D93E0020601400200D2801D0C5
:2014A00001207047042A05D121B1034B00201B680B60704702207047681F00200120704713
:2014C0000C2801D001207047082A0AD108B531B1054B0022186813F081FD002008BD022009
:2014E00008BD0220704700BF701F0020802300B583B00A490DF10602ADF8063013F049FDD8
:20150000BDF80630802B05D1022808BF002003B05DF804FB012003B05DF804FB741F00206C
:2015200030B44FF48035114A114B956641F67135104C1A6FE369C2F30332E56302FB0000E0
:2015400003F48032636823F4401349B10A49884209D808494B600AB10023CB6330BC70470A
:2015600006498842F5D943F48013F2E7009000500080005000000350002D3101005A6202C1
:2015800038B51B4B0546D3F820310C4603F00703062B29D8DFE803F0040A0F14191E2300CB
:2015A000012205B12B6004B1226038BD0AF09EF905220346F5E70AF0E5F903220346F0E7A1
:2015C0000AF0F8F902220346EBE70AF0F7F907220346E6E70AF08AF906220346E1E70AF008
:2015E000D1F904220346DCE700221346D9E700BF0080005038B5174B0546D3F828310C4615
:2016000003F00703013B052B20D8DFE803F00B0F13171B030AF0B6F9042305B1286004B18A
:20162000236038BD0AF062F90523F6E70AF0AAF90323F2E70AF0BEF90223EEE70AF0BEF9E0
:201640000723EAE70AF052F90623E6E700231846E3E700BF00800050002370B5124A82B0A4
:201660000193D2F88041064604F00304022C0D460BD0032C13D0012C0BD01C460EB1019BD1
:20168000336005B12C6002B070BD0AF093F90190F4E7194601A8FFF773FF1024EEE70AF031
:2016A0008DF907240190E9E700800050002230B5174B83B00192D3F82032054603F00703B4
:2016C0000C46042B21D8DFE803F00310161B0B0001230DB1019A2A6004B1236003B030BDA8
:2016E0000AF0B8F909230190F3E7002101A8FFF781FF1223EDE70AF061F907230190E8E781
:201700000AF0A0F90A230190E3E70023E1E700BF0080005038B5154B0546D3F800320C464D
:2017200003F00703042B1ED8DFE803F0030E13180900012205B12B6004B1226038BD0AF0FE
:20174000F7F80F22830AF5E70AF07CF90A220346F0E70AF07FF909220346EBE70AF076F924
:201760000C220346E6E700221346E3E70080005038B5154B0546D3F808320C4603F0070324
:20178000042B1ED8DFE803F0030E13180900012205B12B6004B1226038BD0AF0C9F80F22A9
:2017A000830AF5E70AF04EF90A220346F0E70AF051F909220346EBE70AF048F90C220346F7
:2017C000E6E700221346E3E70080005070B54FF480360AF0D3F841F671340D4D0D4AAE66A3
:2017E000126F0D4BC2F3033202FB0000DA69DC630A495B68884223F44013074988BF43F48F
:20180000801332404B600AB10023CB6370BD00BF009000500080005000000350005A62025F
:20182000002230B51F4B83B00192D3F86032054603F00703013B0C46032B31D8DFE803F04D
:2018400012180D020AF0BAF8072301900DB1019A2A6004B1236003B030BD0AF0ABF802236B
:201860000190F3E7002101A8FFF78AFE1023EDE70C4BD3F8403103F00303022B0DD0032BEA
:2018800005D0012B06D0002011230190DEE70AF0DDF8F9E70AF0D6F8F6E70AF0DBF8F3E7CC
:2018A0000023D3E700800050002230B51F4B83B00192D3F89432054603F00703013B0C46DD
:2018C000032B31D8DFE803F012180D020AF076F8072301900DB1019A2A6004B1236003B0ED
:2018E00030BD0AF067F802230190F3E7002101A8FFF746FE1023EDE70C4BD3F8403103F081
:201900000303022B0DD0032B05D0012B06D0002011230190DEE70AF099F8F9E70AF092F819
:20192000F6E70AF097F8F3E70023D3E700800050430904D0012B13D0022B13D0002300F068
:201940001F0031B1012203F5805302FA00F018607047012203F5005302FA00F018607047F4
:20196000014BECE7014BEAE76480005068800050002300B5B0F5807F83B0019300F21681F3
:20198000B0F5807F00F20E81DFE810F087010C010C010C010C010C010C010C010C010C015E
:2019A0000C010C010C010C010C010C010C010C010C010C010C010C010C010C010C010C0157
:2019C0000C010C010C010C010C010C0187018A0187018A01490149014901490149018A0196
:2019E00032017901A301CF0179018A018A018A010C010C010C010C010C010C010C010C0143
:201A00008A018A018A01C70163018A010C010C010C010C010C010C010C010C010C010C01EC
:201A20000C010C010C014901870187018701400179017901AB0104019D01D5010C010C0129
:201A40000C010C010C0121010C010C010C010C010C010C010C010C010C010C010C010C01A1
:201A60000C010C010C010C010C010C010C010C010C010C010C010C010C010C010C010C0196
:201A80000C010C010C010C010C010C01C4010C010C010C010C010C010C010C010C010C01BE
:201AA0000C010C010C010C010C010C010C010C010C010C010C010C010C010C010C010C0156
:201AC0000C010C010C010C010C010C010C010C010C010C010C010C010C010C010C010C0136
:201AE0000C010C010C010C010C010C010C010C010C010C010C010C010C010C010C010C0116
:201B00000C010C010C010C010C010C010C010C010C010C010C010C010C010C010C010C01F5
:201B20000C010C010C010C010C010C010C010C010C010C010C010C010C010C010C010C01D5
:201B40000C010C010C010C010C010C010C010C010C010C010C010C010C010C010C010C01B5
:201B60000C010C010C010C010C010C010C010C010C010C010C010C010C010C010C010C0195
:201B80000C010C010C010C010C010C01B101B0F5286F07D17B4AD2F8703203F00303012BDB
:201BA00000F08880002003B05DF804FBB0F5C06F00F08F8011D9B0F5206F00F092801DD91D
:201BC000B0F5406F00F0B780B0F5486FDFD101A80021FFF769FE0198E5E7B0F5607F00F07E
:201BE000B08022D9B0F5A06F6DD0B0F5B06F13D101A80021FFF730FD0198D4E7B0F5F06FDC
:201C000000F08B801FD9B0F5106FCBD101A80021FFF7AEFD0198C6E7B0F5806FC2D101A890
:201C20000021FFF7ADFC0198BDE7B0F5007F1FD109F062FE534BD3F89030C3F304630133C0
:201C4000B0FBF3F0AFE7B0F5D06F6ED0B0F5E06FA8D14C4BD3F8403203F00303022B2FD0D8
:201C6000032B00F08380012B9CD109F0EBFE9AE710D9B0F5207F13D0B0F5407F92D109F077
:201C800057FE404B1B6FC3F380230133B0FBF3F0400888E7B0F5C07F84D109F049FE82E726
:201CA00009F046FE374B1B6FC3F380230133B0FBF3F078E7D2F8403103F00303022BCFD160
:201CC00009F0C8FE6FE701A80021FFF7EFFC019869E72C4BD3F8403103F00303022BBFD1F2
:201CE000EEE701A80021FFF79BFD01985BE74FF0E023186910F00400CFD1224BD3F84031CC
:201D000003F00303022BDBD0032B2FD0012B7FF44AAFAAE709F0F0FD45E71A4BD3F86031C9
:201D200003F00303022B9BD1CAE701A80021FFF7F1FC019837E701A80021FFF75BFC01984C
:201D400031E7104AD2F8802002F00302022A16D0032A11D0012A0CD018460A4BD3F880305B
:201D6000C3F301130133B0FBF3F01CE709F06EFE19E709F0C1FDF0E709F0B8FDEDE709F066
:201D80001DFEEAE700800050002300B5B0F5807F83B0019300F09F816BD9B0F5F06F00F0FC
:201DA000858147D9B0F5206F00F061811ED9B0F5406F00F06281B0F5486F07D1002001A9DB
:201DC000FFF772FD019803B05DF804FBB0F5286F23D1CF4AD2F8703203F00303012B00F034
:201DE0008381022B14BF00201520ECE7B0F5086F17D1C74BD3F8003103F00303022B00F08F
:201E00000781032B00F07C81012B00F07D81012003B05DF804FB80F01381002003B05DF8B1
:201E200004FBB0F5106FF8D1002001A9FFF7A0FC0198C8E7B0F5B06F00F0418140F2EC80FE
:201E4000B0F5D06F00F04181B0F5E06F40F0D480AF4BD3F8403203F00303022B00F0D880CF
:201E6000032B00F00081012BD1D109F0EBFD0A20A9E724385C28D0D85C28CED801A353F8B9
:201E800020F000BF5B2000085B2000085B2000085B2000085B2000081B1E0008BF200008BC
:201EA0001B1E000801200008CB2000081B1E00081B1E00081B1E00081B1E00081B1E000880
:201EC0001B1E00081B1E00081B1E00081B1E00081B1E00081B1E00081B1E00081B1E0008FA
:201EE0001B1E00081B1E0008AD200008511E00081B1E00081B1E00081B1E00081B1E000810
:201F00001B1E00081B1E00081B1E00081B1E00081B1E00081B1E00081B1E00081B1E0008B9
:201F20001B1E00081B1E00085B2000081B1E00081B1E00081B1E0008291E00081B1E000849
:201F40001B1E00086F200008D31D00084F2000087B2000081B1E00081B1E00081B1E0008D4
:201F60001B1E00081B1E0008BD1D00081B1E00081B1E00081B1E00081B1E00081B1E0008B8
:201F80001B1E00081B1E00081B1E00081B1E00081B1E00081B1E00081B1E00081B1E000839
:201FA0001B1E00081B1E00081B1E00081B1E00081B1E00081B1E00081B1E00081B1E000819
:201FC0001B1E00081B1E00081B1E00081B1E00081B1E00081B1E00081B1E00081B1E0008F9
:201FE0001B1E00081B1E00081B1E00081B1E00081B1E000887200008B0F5C06F7FF40DAFEA
:20200000434BD3F8403103F00303022B7FF428AF09F020FD0920D6E6B0F5607F7FF4FBAEEB
:202020003B4BD3F8803003F00303022B78D0032B70D0012B7FF4F1AE09F05EFC0E20C2E65C
:20204000B0F5806F09D0B0F5A06F7FF4E6AE002001A9FFF72BFB0198B5E6002001A9FFF77E
:202060008FFA0198AFE609F0F1FC0C20ABE6002001A9FFF7D5FB0198A5E6002001A9FFF792
:20208000B9FA01989FE6224B186F00F00700431E032B3FF6C2AE01A252F823F029210008FE
:2020A0001D210008C71D000805210008184BD3F8603103F00303022B7FF4D2AEA8E7002039
:2020C00001A9FFF7C9FA01987DE6002001A9FFF721FB019877E64FF0E0231B695B078FD543
:2020E00009F026FC0D206EE6D2F8403103F00303022B23D0032B1DD0012B17D0112062E649
:2021000009F056FC08205EE609F03CFC03205AE60080005009F0EAFB062054E6052052E609
:2021200009F04CFC07204EE602204CE609F08AFC112048E609F08AFC112044E609F08AFC78
:20214000112040E608B50121022000F075FD09F015FC0021FFF7E4F94FF48030044B1A6FFC
:2021600003F5805142F480621A67086708BD00BF0080005010B509F0DBFB184BD3F88440B4
:2021800014F01004FAD1D3F88430C3F38113C3F10203002BCCBF01212146FFF7C1F90121C9
:2021A000002000F0A1FD4FF4C070FFF7E1FB84460B4A0C4B944588BF4FF48064196F802047
:2021C00021F4806121431967FFF7D2FB064B984203D84FF48032054B1A6710BD0040005039
:2021E00080F0FA0200800050005A620200A000504FF480104FF480320249034B48669A62EA
:20220000704700BF009000500050005A70B504468020FFF7B9FD03286BD04FF4801545F68A
:202220000E034FF0A0604FF48031544A5566544AC2F88030534B986203F580539962936D9B
:20224000D903FCD44E4A936D13F08043FBD1D4E90001090541EA0061E07B0143207B41EAEB
:202260000041607B41EA0031A07B41EA80111161616990692569090600F0004041EA8561FC
:202280000143A07E3E4D0143207E41EA0041607E41EA00219161E169126A00290CBF00200D
:2022A000082022F00F020A43E17E42EA810202432A62E269F2B1022A53D094F8223094F800
:2022C00020202F491B06886A43EA42132E4A024094F82400134394F8232043EAC00343EA05
:2022E00002438B6294F825301BB1254B274AC3F8802070BD94F8243094F82020DB00A96AFC
:2023000043EA4213204A0A4094F82110134343EA011343F480331E4AAB62AB6D32EA03039A
:20232000FBD14FF080714FF00040164A91622B69A66823F4700343EA06532B61906194F814
:2023400022300BB9134B996294F82330002BC9D14FF480310F4B0A4A9962936D5B00FCD4A2
:20236000C0E72B61AB6100F0AFFB6B6B23F47F4343F408536B6300F0ABFB9EE7009000507A
:202380000040005A0050005AC7FFFEFEF1A7FFFF030001000060005A014B93F90000704754
:2023A000E31700204378F0B54F2B4FF4000E4FF4D1574FF0020628BF4F231849DFF868C06D
:2023C000174A0125CCF864E057624E601946154C65601369DB03FCD4037841EA03235361D8
:2023E00083684468417B1B0143EA04230B43017B43EA41039360C37B90F80EC0417C1B017F
:2024000043EA4C130B43017C43EA41035360837C13B16FF4D1535362F0BD00BF0010025074
:20242000000002500020025000900050014B1880704700BFD4170020014B1880704700BF39
:20244000D2170020002920DD70B44FF48036034641F671350E480F498666086F0E4AC0F3EE
:20246000033000FB0333D169D56352680B4C22F44012A342084B88BF42F4801231405A609B
:2024800009B10022DA6370BC70470021FFF748B8009000500080005000000350002D3101C7
:2024A000B0F5807F70B50C4600F01A8268D9B0F5F06F00F0AB8144D9B0F5206F00F0EE8164
:2024C0002AD9B0F5406F00F0FA81B0F5486F10D1023C0F2C8CBF0021D54BD64A98BF53F836
:2024E0002410D2F8943223F007030B43C2F8943270BDB0F5286FFBD1112C00F02D82152CDB
:2025000014BF00210221CB4AD2F8703223F003030B43C2F8703270BDB0F5086F40F0F28075
:20252000CC1E062C8CBF0021C34BC24A98BF53F82410D2F8003123F003030B43C2F80031D6
:2025400070BDB0F5B06F00F0878140F20581B0F5D06F00F09281B0F5E06F40F0E880093C22
:20256000032C8CBF0021B54BB24A98BF53F82410D2F8403223F003030B43C2F8403270BDF2
:2025800024385C28B4D85C28B2D801A353F820F0D1270008D1270008D1270008D1270008C2
:2025A000D1270008F124000859280008F1240008372700087B280008F1240008F12400080D
:2025C000F1240008F1240008F1240008F1240008F1240008F1240008F1240008F124000813
:2025E000F1240008F1240008F1240008F1240008F12400080D2800085F250008F124000864
:20260000F1240008F1240008F1240008F1240008F1240008F1240008F1240008F1240008D2
:20262000F1240008F1240008F1240008F1240008F1240008D1270008F1240008F1240008CF
:20264000F12400080D270008F1240008F12400089D280008F9240008AF270008BF28000828
:20266000F1240008F1240008F1240008F1240008F1240008D1240008F1240008F124000892
:20268000F1240008F1240008F1240008F1240008F1240008F1240008F1240008F124000852
:2026A000F1240008F1240008F1240008F1240008F1240008F1240008F1240008F124000832
:2026C000F1240008F1240008F1240008F1240008F1240008F1240008F1240008F124000812
:2026E000F1240008F1240008F1240008F1240008F1240008F1240008F1240008F1240008F2
:20270000F3270008B0F5106F7FF4F2AE093C062C8CBF00214A4B474A98BF53F82410D2F8B7
:20272000083223F007030B43C2F8083270BDB0F5C06F7FF4DDAE093C032C8CBF0021414B95
:202740003C4A98BF53F82410D2F8403123F003030B43C2F8403170BDB0F5607F1ED13A4B2B
:20276000D3F8FC20D20140F1EB80D3F8FC208C1F22F08072082CC3F8FC2040F27B812D4ABD
:20278000D2F8803023F00303C2F880302E4AD2F8FC3043F08073C2F8FC3070BDFFF4A8AE4C
:2027A000B0F5806F14D0B0F5A06F7FF4A1AE073C0B2C8CBF0021254B1E4A98BF53F8241097
:2027C000D2F8203223F007030B43C2F8203270BD023C052C8CBF00211D4B164A98BF53F8F4
:2027E0002410D2F8203123F007030B43C2F8203170BD8B1E062B00F2B180DFE813F002011D
:202800000501AF001601AF00AF001301093C032C8CBF00210F4B074A98BF53F82410D2F84F
:20282000603123F003030B43C2F8603170BD00BF2059010800800050B05801088458010821
:20284000945801088458010800ED00E0F05801086C58010884580108023C0E2C8CBF0021EA
:202860008A4B8B4A98BF53F82410D2F8803123F003030B43C2F8803170BD093C062C8CBF9C
:202880000021844B824A98BF53F82410D2F8003223F007030B43C2F8003270BD023C0F2CAD
:2028A0008CBF00217C4B7A4A98BF53F82410D2F8603223F007030B43C2F8603270BD023CCD
:2028C000052C8CBF0021754B714A98BF53F82410D2F8283123F007030B43C2F8283170BD3C
:2028E000A1F10904082C3FF603AE01A353F824F01529000815290008F1240008152900082D
:20290000312A0008F1240008F1240008F1240008152900084FF48031614B5D48614A406E19
:202920005966536AC40343F0010353624FF0E0225CBF5D4B5966136923F00403136170BD6E
:202940008C1F082C40F28A80514AD2F8803023F00303C2F8803070BD0121D4E5002635461B
:202960000121022000F068F9FEF730FF4FF48031474A136F43F480631367494B1967136F6D
:2029800023F007032B43136708F0D2FF474AD2F8845015F01005FAD1D2F88410C1F38111B1
:2029A000C1F10201FFF74EFD0121284600F09CF94FF4C070FEF7DCFF84463D49344A8C452A
:2029C00088BF4FF48065136F802023F480632B431367FEF7CDFF374B984203D84FF4803297
:2029E000314B1A67002E7FF483AD032C7FF480AD4FF48031304B314A9962936D5D00FCD428
:202A000070BD00260125ABE74FF480164FF4803223482A4946668E6A294B25469A62C6F3C7
:202A200000669DE7002604259AE70026022597E74FF480311A4B16481A4A406E5966536ACC
:202A4000C00323F0010353624FF0E0225CBF164B5966136943F00403136170BD0C4A19495C
:202A6000D2F8803051F8241023F003030B43C2F8803070BD064A1349D2F8803051F82410BE
:202A800023F003030B43C2F880307FE6605901080080005094580108205901086C5801082A
:202AA0000090005000C0075000A000500040005080F0FA02005A62020060005A0040005A21
:202AC0000050005ACC580108EFF3108072B6704700B962B6704700BFEFF31180302383F34B
:202AE0001188704780F31188704700BF0246EFF31083DB0730D42049430951F8233000F020
:202B00001F00C340DB4313F001005FFA82FC00D07047002A22DB0A4492F800231209EFF3F4
:202B2000118313B1B2EB131F16D214494B68C3F30803002BECD0103B58B20028DBB214DBD5
:202B400000F1604000F5614090F800030009824234BF00200120704701207047084B0CF0E4
:202B60000F0C63441A7E1209D9E703F00F03043B0B44187E0009EAE700E100E000ED00E08F
:202B8000FCEC00E0054B420953F8223000F01F0023FA00F0C04300F00100704700E100E0AD
:202BA000044A4178536F23F4407343EA01235367704700BF00400050704700BF704700BF85
:202BC00010B50A4A0446136943F00403136107F0ABFAFFF7F1FF30BFFFF7F0FF07F0DEFA43
:202BE00004B110BDBDE8104008F0A2BE00ED00E010B5084A0446136943F00403136107F0B7
:202C000093FA30BF07F0CAFA04B110BDBDE8104008F08EBE00ED00E0704700BF704700BF09
:202C2000034A0179D36E23F030030B43D366704700400050704700BFF8B50546284CD4F8CA
:202C40008430DE06FBD4D4F88430C3F381139D4226D008F051FE012D074628D0FFF734FF8B
:202C60004FF000721F4B06465A662846FFF7E2FF4FF480636A1E93402367636E98010AD495
:202C8000174B04E0D3F884205A6E910103D4D3F884209206F6D53046FFF71AFF022D00D0F8
:202CA000F8BD3846BDE8F8400021FFF7CBBB2946FFF7C8FBFFF708FF4FF00072094B0646F1
:202CC0005A662846FFF7B6FF4FF480632367636E9C01D5D53046BDE8F840FFF7F9BE00BF94
:202CE000004000500060005010B50C4680B10A4B21461B7813B1094B984204D9BDE8104039
:202D00000220FFF799BF0120BDE81040FFF794BF08F0F2FDEBE700BF78200020005A6202F6
:202D200010B50A4C0378237008F0E6FD2378012113B1074B984204D9BDE810400220FFF7F8
:202D40007BBF0846BDE81040FFF776BF78200020005A620230B54FF000444AF6CD3329493B
:202D6000294A4C66546C83B0136404F0010400282ED0136B18070BD50023244801E08342F3
:202D80003ED0116B01330907F9D4204A934237D0202501221E4B1F481B4985625A608B6A20
:202DA0002B400AD1194801E0834229D08A6A01339206F9D5154A934222D0002014B1124BD7
:202DC000154A1A64019011F0FAFF019803B030BD536BD907FCD45368DB07EED501210D4B0A
:202DE0005960136B0B40E8D10749084801E0834206D00A6B0133D507F9D5044A9342DCD159
:202E00000720DBE7009000500040095040420F0000500950006009503254FFFF38B54FF0AD
:202E200000454AF6CD331649164C4D66656C23644378154A5B0043F0010305F00105D36364
:202E4000636B13F00B0FFBD16368827823F4F87343EA02136360C278437943EA0223A36024
:202E60000279837943EA022323610078FFF772FF0DB1064B236411F0A2FF012038BD00BF19
:202E80000090005000400950004000503254FFFF38B54FF000454AF6CD330F2828BF0F20A7
:202EA0000E4A0F49546E02F50C224D66516C136401F00101536B1B06FCD4136A23F00F0350
:202EC0001843106209B1074B1364002C03DB4FF00042054B5A6611F072FF38BD00800050D0
:202EE000009000503254FFFF00A0005038B54FF000454AF6CD330F4A0F49546E02F50C2235
:202F00004D66516C136401F00101536B1B06FCD4136A23F4F85343EA0020106209B1074B7E
:202F20001364002C03DB4FF00042054B5A6611F046FF38BD00800050009000503254FFFF10
:202F400000A00050F1B110B4012400F5805301F00F025C60436DC3F30B03002BFAD1826321
:202F6000436D13F0780FFBD101F001024B0748BF42F00202836C03F003039342FAD15DF8EB
:202F8000044B70474368D90716D58368DA0702D50369DB0708D50A238363436D13F0500FC2
:202FA000FBD1836C9907FCD1012200F500535A6043689A07FCD47047704700BF836C5B062B
:202FC000FCD54164704700BF2DE9F84304460D4616461F464AB10122002B4CD1274B04EB8F
:202FE000440109010B44AA401A60072D4FF0300824D8042318FB0438FFF766FD0F232049BE
:203000004FEA850E58F801C006FA0EF282EA0C0203FA0EF3134083EA0C0348F80130FFF725
:2030200057FD4EB9012127BB144B04EB44042401234401FA05F51D60BDE8F8830C2318FB3B
:203040000438A5F108034FEA8309FFF73DFD0F230B4906FA09F258F801C003FA09F382EAA7
:203060000C02134083EA0C0348F80130FFF730FDD7E7044BD9E7034BB1E700BF40E00350FA
:2030800030C0035040D00350F8B505460E4603F003078368144623F440738360FFF714FD48
:2030A000AB6883EA072202F440725A40AA60FFF70FFD2EB9B5F1B64F17D0114B9D4219D07C
:2030C000104BAA68DA5D04FB02F26AB16FEAC4041444A319B3FBF2F3A968013B8A0702D5C1
:2030E000012B38BF0123AB61F8BD2E20FEF740FC0646E5E72F20FEF73BFC0646E0E700BFE4
:20310000008006509C59010870B50026124A00F500530664DA634A7804460D4600F10803EA
:2031200092B903F5805302221A60AA6822B120462B7B6968FFF7A8FF2B7804343BB1012391
:2031400004F58054236070BD03F50053EBE7012304F50054236070BDFFFF1F00B0F1B64FF1
:203160001BD0884B984240F0E980874B2DE9F043C26B9C6812F4C06E47D1402505260327CC
:2031800000F5005C1978082900F2F880DFE801F01A882E45626E9CA907007C4BE6E7D2055E
:2031A00021D54FF48074092200F50051CC631A700022026493F90100012801D110465A7088
:2031C000BDE8F08361882288CD0640F1B080120A02F0060242F0F002012119704263C16065
:2031E0001A78092AE4D00120BDE8F083110600F1AD805106F7D5CCF83C506288920769D5B4
:203200001F70C26B12F4C06FBCD0970540F19980FD225A7009221A70CAE761882288CE0695
:2032200043BF120A02F0060242F0F00202F0FE024D0709D5197942F0010204EBC104218909
:20324000012904BF0821C160042401211C70C1604263C5E7110679D45106C4D5CCF83C504B
:203260006288520736D507221A70BCE71A79598804EBC208B8F80890894571D80132D2B267
:20328000A3F802E01A71618811F0040FB8D1C90701D4012AB5D9082102221970C2609FE7C4
:2032A000110653D452069ED5CCF83C506288D1065FD492070ED507211A79197004EBC2044C
:2032C0002289012A8FD12FE011063FD452068AD5CCF83C501E70C26B12F4C06F3FF452AF54
:2032E00093E791067FF57FAF20251A7900F5005104EBC2021289466ACD6359888A42CAD97F
:203300001D7904EBC50464684D1C5D80665459889142C0D20421012AC1607FF661AF598876
:20332000013A91427FF45CAF0822C26058E702F0FE028C0748BF42F001024DE76FF003001F
:203340007047560544BFFE225A7063E780254FF60871022200F50054E5631980C2603FE72B
:203360004A1CD8F804405A800622615C41631A7039E702221A702278426331E74FF6093241
:203380001A8015E700800650882000207C200020B0F1B64F37D01E4B984236D11D4B10B41A
:2033A0000269D20744BF2022C2604A88940701D50C891CB354071ED4C0224FF480744FF016
:2033C000000C99601C6083F804C0C2604369DA0503D5436A4369DB05FBD420210E4A00F512
:2033E0000053D963DA63036C43F4FC6303645DF8044BFFF7B3BE0A8A002ADDD16FF00300BC
:203400005DF8044B7047054BC9E76FF0030070470080065088200020FFFF1F007C200020C1
:20342000F8B5012104462020FEF782FA01212120FEF77EFA01220020FF274FF000464FF0C5
:20344000FF354FF400110E4B5A60227812069A6094F801C0A27842EA0C429A61094A9F62F5
:20346000986318645E6503F500531D65C2F88011E3781B01DBB282F815331160F8BD00BF4F
:203480000000045000E100E070B501250C46204BC1B28D401D658300216803F1A04303F572
:2034A000882359601B4E637B00EB400006EB00100366E37AA17A1B0543EA0143217B22F015
:2034C000030243EA4153C3650267FFF705FB736D2B437365237A13B1336C2B433364637A97
:2034E0001BB10C4A936B2B4393632279A379094943EA0243064A93616679E379064C43EACF
:203500000643A36155638D64BDE87040FFF7EABA00200450000004500010045010B50124B0
:20352000C0B28440FFF7D8FA094BDA6A224209D15B6B34EA03030CBF01240024FFF7D2FAF7
:20354000204610BD0024FFF7CDFA204610BD00BF00000450C2F3062302F0070241B91349E2
:2035600042EA032242F44022063041F820207047122B09D0142B07D0013B312B0AD90B4BFF
:20358000163043F820207047022A0CD0032A00D10122013B06491630CB5C42EA0322034BF3
:2035A00043F8202070470022F3E700BF00800350A05901083AB122F0030202F1A04202F57B
:2035C000603209B9106070470002FBE74FF48031064A074B51669B69C3F3851103F03F02BB
:2035E0001B0B817042700370704700BF0090005000C00750014B986CD96C70470080E00F67
:2036000070B5054616461C4611B3402C27D019D8E4B1202C08BF082313D103FB06F24FEA7E
:20362000520C0CEB4113B3FBF2F3A9680D4A21F06001A960A968203B0C4302EAC303AC60F2
:20364000EB6170BD602CFCD10423E6E71023E4E74FF42070FEF78CF9402C0146D7D10623D5
:20366000DBE700BFF8FF7F000122CB43934000F5805C03F00A03CCF804204361416111B986
:2036800000F50050426070472DE9F041002341F205074FF0010840F6AA6E374A00F5805601
:2036A000DFF8E0C0C6F804809042C0F814E08360C365C76000F500570361C361C364C7F8E7
:2036C00048C0836504BF0365436501237B6073608B7C04460D461BB1836843F08043836021
:2036E000EB7C33B1244B9C423BD0E36D43F08003E3652A8A6B7B20461343EA891343E36077
:203700002B7BD5E90112FFF77BFF6B7D1BB1A36843F48033A360AB7D1BB1A36843F400439D
:20372000A360EB7D2A7E1B07120502F4E00203F0E04313430222A3656B7E023B012B94BF28
:203740000E4B0F4BC3F820276B7E03F0FD03012B4FF004030CBFF365FB652B786361BDE8D7
:20376000F0812A7DA3F51033C3F8C821E36D43F08003E365BDE700BF00C0055000D00350C9
:2037800000E00350FFFF010083695B06FCD5C163704700BF4369002B0FDB51B9436ADA07E6
:2037A000FCD4012200F500535A6043689B07FCD47047012300F58050436070474368DA0771
:2037C00000D4704710B50446FFF786F9636ADB075CBF0123E360BDE81040FFF783B900BFC3
:2037E00043682DE9F043002B5FD14C78CA780B79002C14BF4FF020084FF00008002A4A7956
:203800008C7914BF02270027002B14BF04230023002ACA7991F808C014BF08260026002C27
:2038200014BF10250025002A4A7B14BF4FF400740024BCF1000F14BF4FF4806E4FF0000EB1
:20384000002A14BF4FF4807C4FF0000C0A7B91F80B90120742EA096291F8029042EA090236
:2038600091F80A9042EA094242EA08023A43134333432B43234343EA0E0343EA0C038360FE
:203880004369002B0BDB0B78D3B9436ADA07FCD4012200F500535A6043689B07FCD44B7AF7
:2038A0000BB100230362BDE8F083436A002BFCD1012200F500535A6043689C07FCD494E749
:2038C000012200F580535A60E9E700BF10B5FCF703FE0B4B1A68D2E9003192680B44191ABB
:2038E00052B1D2E9003423441B1A9268994228BF1946002AF5D14318024A136010BD00BF89
:2039000098200020942000202DE9F8430388054653B3592B2BD187292ED082291FD14FF0C6
:2039200000092B4FDFF8B0803C68C4B1002603E0A36826469BB11C46204608F007FA00282F
:20394000F6D022468821E06801F0A2FE00282BD0404601F0CFFEA3682646002BEBD1592376
:203960002B800120BDE8F883194A1360F7E700232B800320BDE8F883154F0020396819B99F
:20398000EDE789680120D9B1CB689342F9D000B139608B68002BE2D0D86890420BBF9B68ED
:2039A00019468B609B68F5E7A368E0606EB1B3603B68C4F808902BB1FFF788FF3C68B4E7D2
:2039C0003960CCE7034A1360C9E73B60F1E700BF9820002094200020AC14002010B504465E
:2039E000104801F087FE1049E3680A684BB142B194420FD0134601E09C420BD09B68002B1E
:203A0000FAD10A4BA2601B680C60E360BDE81040FFF75CBF054B1B68E360BDE81040FFF74B
:203A200055BF00BFAC14002098200020BC250020014801F05FBE00BFAC14002010B50446F5
:203A400008F06EF92046BDE81040FFF7C7BF00BF10B5044608F06CF92046BDE81040FFF7B4
:203A6000BDBF00BF024B1868003818BF012070479820002010B5124B04461968814214D0EB
:203A80000B462BB19A68A24206D01346002BF9D10023C4E9023310BDA2689A6049B1FFF729
:203AA00015FF0023C4E9023310BD82681A60002AF5D10022034B1A600023C4E9023310BD10
:203AC0009820002094200020014B1888704700BFD617002000283ED0037A30B4022B10D027
:203AE0000378022B15D00379B3B10024C37913F0030318BF012301B10C6002B1136030BCC5
:203B00007047C579447A037965B90CB9012BF2D0DBB100231C46EEE7447A14F0030418BF1F
:203B20000124E3E7C4B1032D37D1032C2ED0022C24D143BB022D2DD00123032D24D1A4F191
:203B40000204B4FA84F46409D5E7023C012C8CBF00240124CFE770474BB9022D08BF012386
:203B6000EAD1A4F10304B4FA84F46409C3E7032D01D0022D02D123461C46BCE7002BC8D17C
:203B8000022DDAD1EDE701230024B4E7002BC0D10123D4E701231C46ADE7022DC7D1002BED
:203BA000F1D1022C4FF00103DBD11C46A3E700BF002330B50B608B80437D0D46DB075CBFED
:203BC00001230B70037E0446012B83B023D9694601AA04F11000FFF77DFF009B0BB10223D3
:203BE000EB70019B0BB102236B70E37D03F00303022B03D0032B14BF00230823AB70637E6E
:203C000003F00303022B03D0032B14BF002308232B7103B030BDC37D13F0030309D0437E3D
:203C200013F0030305D0C38B828B9B1AB3FA83F35B092375CBE700BF02280CBF01230723C3
:203C40000B441A781846FF2A03F1FF3303D18142F7D1012070470020704700BF00B583B021
:203C60006946FFF7A5FF9DF800309DF801209DF8020002339DF80310134403449DF80420B5
:203C80009DF805000B441344184403B05DF804FB4378827890F800C0DB00120102F0100292
:203CA00003F0080313430CF0070290F803C0134302794FEA4C1C0CF0200C920143EA0C03F7
:203CC00002F0400213430B704379827990F809C003F00103520043EA8C1302F0020290F844
:203CE00007C01343027A4FEA8C0000F00C001201034302F0300213434B70704770B50D46AD
:203D0000044682B06946FFF753FF04F110002946FFF7BEFF9DF80030012B02BFA37E032013
:203D2000AB709DF8013018BF0220022B06D1A28B431C2A54A28B0230120AEA549DF80260EB
:203D40005EB1731E2344291893F800C0A34201F801CB03F1FF33F7D130449DF80330022BCF
:203D600006D1E28B431C2A54E28B0230120AEA549DF8046056B1F31D23442918073413F82B
:203D80000129A34201F8012BF9D1304402B070BD02784378C2F3C00002F0070C4870C2F3B6
:203DA000401081F800C0C870C2F3001C03F00100C2F3801281F802C00A71C3F3400CC3F3C8
:203DC00001124871C3F381009B0981F806C0C8710A724B72704700BF012943DD2DE9F04184
:203DE00086B00F4603A914460546FFF7D1FF0B469DF8112003CB1B882061616123836AB393
:203E0000AE1C03A802AA01A9FFF764FE9DF81380B8F1000F43D0029B002B31D1B8F1020F08
:203E2000A38367D0B8F1030F4DD09DF81580B8F1000F2CD0019BBBB9A38BE383B8F1020F11
:203E40004DD0B8F1030F31D0701B3B1A8742C4E90E6300DA002006B0BDE8F081AB78EE1CCF
:203E6000A376CEE700207047727816F8023B03EB0223029A9BB2E383002ADFD1A383DDE742
:203E8000727816F8023B03EB02239BB2C6E71E4904F1080000F0B8FAA4F81E80D4E720467F
:203EA000194900F0B1FAA4F81C80BEE706F10800034604F1080213F8011DB34202F8011BAD
:203EC000F9D10646C0E706F108000346621E13F8011DB34202F8011FF9D10646A5E70A4930
:203EE00004F1080000F090FA7378237216F8023B6372A9E72046044900F086FA737823707A
:203F000016F8023B637090E7EC59010830B591B001F0AAF8044601F0BBF86A4601462046BA
:203F2000FFF75AFF00283ED0044601F081F8D0B30B209DF8101001F005F907209DF8131017
:203F400001F000F99DF817308BB1BDF81C50FFF7BBFD854205D04FF6FF73BDF81C209A4270
:203F600021D169469DF81700FFF766FEB0B10C2002A901F0F3F89DF815303BB14FF6FF710B
:203F8000062001F0DFF8204611B030BD06209DF81A1001F0D7F8204611B030BD69460D208A
:203FA00001F0DCF8E3E74FF0FF34ECE7F8B505460B2014460E46A84700232074A374002E71
:203FC00035D0E37463750820A847002702460123A275237606206774A847A076FFF774FDE6
:203FE00003460920E383A84701280CBF3B4603236376FFF769FD03460A20A383A847012879
:204000001AD066B90323E375637E022B0CD0E37DA3F10203B3FA83F35B092375F8BD02233D
:20402000E375637E022BF2D101232375F8BD0720A8476675E074C6E7E775E5E730B591B0A6
:204040004FF6FF740546FFF73FFDA0423AD040220021684610F0C2FC01F090F86A460146E0
:204060001A48FFF7A3FF01F089F818B3ADF800400C2001F07BF8014602A800F0C5F900F005
:20408000F3FF0E9001F004F8034668460F93FFF7E5FD044615B9204611B030BD00F096FF81
:2040A00080B100F0F1FF01466846FFF727FE204611B030BD0D2001F059F80146684600F077
:2040C000A3F9D5E74FF0FF34E5E700BF515100080120FFF7B3BF00BF0020FFF7AFBF00BF56
:2040E00008B501213A20FDF723FCBDE8084000F033B800BF0022024B1A60FFF7F1BF00BF9F
:204100009C20002028B370B504460126114D94FAA4F0B8B1B0FA80F205EB02135B6806FA85
:2041200002F1104624EA01042BB105EB0212117B21B191689847002CE9D170BD9847002CEF
:20414000E5D1FAE7D5F80432002BE0D020221046EBE77047A020002008B51920FEF712FDEF
:2041600058B91A20FEF70EFD00B908BD4FF08062054BC3F880211A6008BD4FF00072024B6C
:20418000C3F880211A60ECE700E100E0074BD3F82404D3F8202403F50053104000F0553051
:2041A00020F05020C3F82004FFF7ACBF00C00350074BD3F82404D3F8202403F5005310403D
:2041C00000F0AA3020F0A020C3F82004FFF79ABF00C0035010B50948FCF7BAFD084800F004
:2041E0006FFC48B1064C037A01465B080372204600F032FC0028F6D110BD00BFE822002044
:20420000BC1400200146014800F088BCBC14002080B110B50446FCF75FF92368C01AB0F565
:20422000963F05D2207A032894BF0020012010BD002010BD0020704770B50546144689B1E4
:20424000022907D006290CD1BDE8704001462A4800F064BC0146284800F060FC06460028BB
:2042600032D170BD0146244800F058FC0646002835D0FCF731F9337A30602344102BA8BF3B
:2042800010233372FCF728F93368E401C01AB0F5963FA4B208D2337AB188042B34BF1923EA
:2042A0000A2329B9B48070BDB18819230029F9D003FB04F4C3F1640201FB02420F4CA4FBDD
:2042C00002325209B28070BDFCF706F9337A30602344102BA8BF10230C343372D2E733466E
:2042E00008222946044800F035FC06460028B8D047F6FF73C380BCE7BC1400201F85EB5157
:2043000038B50546042000F023FF04462946224824B200F003FC40B347F6FF73B0F90620D6
:204320009A422DD05A2504EB8404630012FB05321A4C818884FB0234D217C2EB641424B2FF
:20434000C48001B138BD04F15A0212B222EAE2721E2AA8BF1E22124BD201A3FB02321209F1
:2043600002F5807292B2828038BD034608222946094800F0EFFB0028E4D047F6FF73C3803E
:204380008388C480002BDDD147F6FF739C42DAD14FF48072E7E700BFBC1400201F85EB512B
:2043A0008988888838B5094800F08AFB60B10446064D2146284600F055FC2146284600F0A0
:2043C0004BFB04460028F4D138BD00BFBC14002000B5002183B0084800F01AFB074A0023EA
:2043E00012684FF4E13100920548064AFCF78AFC03B05DF804FB00BFBC140020BC2500208F
:20440000E8220020D54100080A684B6802604360704700BF082208B510F0BEF9B0FA80F0FC
:20442000400908BD0368DBB110B4002400E0134699420FD01A681C46002AF8D100230B6037
:204440000368CBB11A461B68002BFBD111605DF8044B70470A686CB1226000221A60EDE74E
:2044600000230B6003684BB11A461B68002BFBD1116070470260F0E70160E8E701607047C4
:2044800030B405684DB12B46002400E01346994207D01A681C46002AF8D10D60016030BCBC
:2044A00070470A683CB1226000221A6005680D60016030BC70470260F6E700BF03689BB135
:2044C00010B4002400E0134699421A6805D01C46002AF8D15DF8044B704734B12260002250
:2044E0001A605DF8044B704770470260F7E700BF03682BB100201B680130002BFBD1704768
:204500001846704700B58BB002462821684609F045FD6946024800F051FF0BB05DF804FBD4
:20452000F459010808B3F8B5002504460126104F65B1EB070FD53846217800F03FFF082E61
:2045400012D0013501360134002DF2D13846217800F034FFF5E72E2001F0DAF838462178A9
:2045600000F02CFF082EECD1F8BD024800F026BF085A0108F859010808B501F045F9014B5C
:20458000187008BDDB3E0020034B062019784A1C1A7000F0D7BD00BFDB3E0020F8B5FBF785
:2045A0009BFF104E0025344607460C2000F0DEFD2146FFF72FFF103420B90135102DF4D140
:2045C0000020F8BD062000F0C3FD06EB05152B7B8342F5D1A868381AB0F5206F8CBF0020F3
:2045E0000120F8BD1023002070B5184E002435460C2000F0BBFD2946FFF70CFF103510BB14
:204600000134102CF4D10F2406EB041C64465CF8100DDCF80410DCF80820DCF80C30664566
:204620000FC4F3D1062000F093FD3073FBF754FF03460C20B36000F099FDBDE870400146AB
:204640000248FFF7E1BE002CDED1EBE7102300204FF0020C70B50E461546044682B00DF1E0
:20466000070201230621AE208DF807C000F0EEF80DF1070201230921AE208DF8076044EAB9
:20468000850400F0E3F8012307210DF10702AE208DF8074000F0DAF802B070BD10B5044629
:2046A00042880021406810F099F923886288A0680021BDE8104003FB02F210F08FB900BF29
:2046C00030B44588ADB10022436802E00132AA420CD019460C780133002CF7D101230B7077
:2046E0000588806802FB050030BC7047002030BC70472846F8E700BF10B4448882685CB14A
:204700008A420ED00023B0F800C001E0914209D00133A3426244F9D14FF0FF305DF8044B3C
:20472000704700234268D15C0029F5D00021D15408465DF8044B704783688B4208D8428889
:20474000008800FB023081422CBF002001207047002070474188034649B100205B681944DB
:2047600013F8012B02B901308B42F9D170470846704700BF08B501213A20FDF7D9F80121E4
:204780002920FDF7D5F8BDE8084001212E20FDF7CFB800BF032110B5084600230422FEF703
:2047A00013FC0023042202210320FEF70DFC0023042207210220FEF707FC0221002308463E
:2047C0000422FEF701FC01230B2205210220FEF7FBFBBDE8104001230B2206210220FEF7B9
:2047E000F3BB00BF30B585B0EC460325134B144C0FCB8CE80F001348D4F8F0246146024099
:2048000042F4A02242F00202C4F8F024D4F8EC34034043F4C02343F00203C4F8EC344FF0FE
:20482000B640C4F8E854FEF76FFC00204FF0B6431022054908709A6005B030BD4C5A01088F
:2048400000C00350FCFFF0FFDC3E0020F0B51C46083387B003F4FC7300AFADEB030D0546A0
:204860006E468DF800102CB111460DF1010022460FF0C2FF012200231444391D4FF0B6406B
:20488000BC813B61FA80BB82BD80BE60FEF780FD04460D48214600F091FD012C06D14FF0F4
:2048A000B640FEF75BFC01280446F8D01CB901201C37BD46F0BD2146044800F07FFD002043
:2048C0001C37BD46F0BD00BF105A0108305A010838B50D4B0D4D1C68002818BF05463CB1B6
:2048E0002846211DFFF796FD28B92468002CF7D14FF0FF3038BD064A064B9068201A80105C
:2049000003FB00F038BD00BF38240020EC590108D0140020ABAAAAAAF8B50F4B1C68C4B17E
:2049200000200E4F0E4E0F4D03E002F0CDFB246874B1B368E31A9B1005FB03F3FB5C002BB9
:20494000F5D1211D0028F0D124680846002CF0D1F8BD2046F8BD00BF382400203024002024
:20496000D0140020ABAAAAAA2DE9F04705460F46214CDFF898A0DFF88490DFF8848004F166
:20498000200654F8041FB9B18A68AAB1A5B1D9F80830EB1A4FEAA30C0C3308FB0CFC0BD05A
:2049A0004868CB6800FB0C3030B109681AF80C300B41DB0700D59047B442E2D1C5B10F4BEA
:2049C0000F4A9B68EB1A9B1002FB03F300220D490D48CA5429460AF80320FFF76FFD0FB92F
:2049E000BDE8F0872946BDE8F0470448FFF784BE4FF0FF33EAE700BF0C240020D014002077
:204A0000ABAAAAAA302400203824002090240020034638B10268072A04D80D4850F82220A1
:204A2000934211D00B480268072A0BD810B499600749541C1A60046041F8223001205DF893
:204A4000044B70470020704701209960704700BF102400208C240020844638B339B3F0B57F
:204A6000C46845680B1B93FBF5F3591C1CD0114A03EB4303966816EB830315D00E4FDFF833
:204A80003CE01B68991B8A1073B10C3107FB02F20AD002FB054030B1DCF800101EF80220B9
:204AA0000A41D207EDD5F0BD0020F0BD70470846704700BFD0140020ABAAAAAA902400209A
:204AC000124B1968F9B1124B9B68C91AD0B111F10C0F17D00F4B891001FB03F34268C168CE
:204AE00002FB031179B110B40B4C0268E35C1341DB0703D508465DF8044B70475DF8044B5C
:204B0000FFF7AABF0021FFF7A7BF00BF38240020D0140020ABAAAAAA9024002010B50446EE
:204B20000846FFF7D5FE84B1431C02460DD06068E36800FB023038B1054B21689B5C0B4160
:204B400013F0010F08BF002010BD002010BD00BF902400202DE9F041002837D00C463C4BBF
:204B60000546002908BF1C462146FFF7D7FFF0B100262046FFF7ACFE471C2BD06A68EC6814
:204B8000002102FB004420460FF028FFEB686A68E31A93FBF2F35A1C06D001222D492D6818
:204BA000C85CAA400243CA542046BDE8F0812046FFF78EFE0130DBD12748FFF7CBFD0028EE
:204BC000D6D1FFF7A9FE06460028D2D100242046BDE8F081DFF880804046FFF771FD0746CC
:204BE000B0B139461D48FFF71DFCD8F808302146381DFC1AFFF708FC14F10C0F1BD1002160
:204C00000C4608466A680FF0E9FE2046BDE8F081002EDBD03046FFF75BFE411CD6D0D8F84F
:204C2000083000EB400013EB8007CFD000213846FFF79AFED5E70A4BA41004FB03F36A6834
:204C4000EC68002102FB034420460FF0C7FE9DE7EC59010890240020D0140020382400204B
:204C6000ABAAAAAA20B321B3C3684268CB1A93FBF2F35A1C1DD0012230B5104C056814F877
:204C800003C002FA05FE2CEA0E0C04F803C0C4684368091B91FBF3F14B1C0CD0084C0068F9
:204CA000635C02FA00F023EA00036354104630BD704700207047104630BD00BF90240020DB
:204CC00030240020A0B1A1B1C2684368891A91FBF3F35A1C0DD0012110B4074C0268E05CA1
:204CE00001FA02F20243E25408465DF8044B704770470020704700BF30240020A8B1A9B12D
:204D0000C2684368891A91FBF3F35A1C0ED0012110B4074C0068E25C01FA00F022EA00027D
:204D2000E25408465DF8044B70477047002070473024002088B179B1C2684368881A90FB2D
:204D4000F3F0431C08D0054B00EB4000996811EB800002D00430704700207047D0140020A9
:204D600070B50B4B1C685CB105460E46012D09D01DB963680BB1984718B92468002CF5D1F6
:204D8000002070BDA368002BF7D030469847F3E79824002047F6FF739A4276D001294BD8A0
:204DA000F0B53B4BCC0003EBC10513F8311095F802E0012953D0686800283CD0B0F9001083
:204DC00091423EDA8288FF2A43D000252826C822521A92FBF6F223445C782A4412B2944221
:204DE0002CDC621E12B22B4D4FEAC20C02E0B6889E4215D38444DCF80860BCF806300132DF
:204E000011FB036323EAE3735C33A5FB037312B2944200EBC2064FEAC20C4FEA9313E6DC23
:204E200000EBC20232F8040C834228BF0346734538BF7346D8B2F0BD00207047002AD2DA48
:204E4000CFE7B0F902109142B8BF11468288FF2ABBD10125B0F90620B0F90860B8E795F84F
:204E600003C00020ACEB0E0107E06C6834F913409442D4BF184603F1FF310B1A8842A1EB08
:204E80005303F2D37144C8B2F0BDFF20704700BF9C240020D34D621010B5074C20460FF097
:204EA00090FFA446054CBCE80F000FC49CE8030084E8030010BD00BF785A01089C24002065
:204EC00038B500230C4A0D4C0D48C2E90033C2E90233C2E904330B4D0B4A03800B49204634
:204EE0002B801370FFF790FA04F108000749BDE83840FFF789BA00BF44250020B424002021
:204F0000AA3E0020A83E0020DD3E0020EC590108F8B500230C46124A124F134DDFF858C0CC
:204F2000124EC2E90033C2E90233C2E904332B700F4905463846ACF800303380FFF764FADA
:204F400007F108000A49FFF75FFA802C28BF80242946224607480FF04FFC20463480F8BD39
:204F600044250020B4240020DD3E0020A83E0020EC590108C4240020AA3E00202DE9F041CA
:204F80000E4A0F4B14781F88E519802D03DD00252846BDE8F0810646DFF82C80224641463A
:204FA0000FF02AFC074B3A4619883019214458FA81F10FF021FC2846BDE8F081DD3E00200C
:204FC000A83E0020AA3E0020C424002010B5144B144C154A94F800E01B881288734452FA2C
:204FE00083F39BB21A18802A17DC013B1BB2002B0EDB0E4A591C03EB000C11446244013B04
:2050000011F801CD1BB2B3F1FF3F02F801C9F6D1864484F800E0012010BD002010BD00BFBF
:20502000AA3E0020DD3E0020A83E0020C424002008490A8882420BDB10B4074C80B223889E
:20504000121A03440A80012023805DF8044B704700207047A83E0020AA3E0020014B18806B
:20506000704700BFA83E0020044A054B12881B780448134450FA83F0704700BFAA3E00200B
:20508000DD3E0020C424002000487047C4240020014B1888704700BFA83E00200549064AC0
:2050A000064B128808781B88104453FA80F080B2704700BFDD3E0020AA3E0020A83E0020E0
:2050C000844630B58E460D4C0D4D0FCCCCF80000CCF80410CCF80820CCF80C3003CCCCF8A4
:2050E0001000CCF814100FCDCEF80000CEF80410CEF80820CEF80C3030BD00BF4425002017
:20510000B4240020844630B58E460068DCF80410DCF80820DCF80C30084C094D0FC4DCF867
:205120001000DCF8141003C4DEF80000DEF80410DEF80820DEF80C300FC530BD4425002086
:20514000B4240020014B23F81010704744250020014B33F81000704744250020024B0C3838
:2051600003EBC000FFF750B9B4240020024B0C3803EBC000704700BFB42400200149024849
:20518000FFF748B9EC590108BC2400201F4A93689B07FCD453689907F9D4D369002BF6D19E
:2051A0005368012B03D00278184BDA6070475368012B0DD0154A93689907FCD453689B077C
:2051C000F9D4D369002BF6D10278104BDA60704710B40E4B01E0DA6912B15A68D207FAD4A1
:2051E0000122022409490A4B0C615A60074A93689B07FCD453689C07F9D4D369002BF6D181
:205200000278024BDA605DF8044B704700800A5000A00A50074A93689907FCD453689B0745
:20522000F9D4D369002BF6D1012303494B601361704700BF00800A5000900A50C8B94A6877
:205240000B7812B1127843EAC2034A780AB143F002038A6812B1127843EA82138A780AB119
:2052600043F00403CA6812B1127843EA4223014A9364704700800A5008B9014B596470478F
:2052800000900A5008B9014B5964704700A00A5008B9014B1964704700A00A5010B9024B58
:2052A000186C70470020704700800A5028B939B1012904D1044B186D70470020704770471F
:2052C000014BD86C704700BF00800A5020B929B1012902D1034B1A6570477047014BDA6479
:2052E000704700BF00800A5010B9024B586D70470020704700800A5000B583B001A8FEF795
:2053000065F99DF80530012B1FD004F08BFA04F0F3F904F01DFA04F067FA04F095F904F01B
:2053200003FA05F0F1FC04F0D1FBFFF723FAFFF731FAFFF757FA012202210020FFF788F976
:2053400003B05DF804EBFEF7D5BE9DF80430002BDBD14FF48011084B0848094A406E5966F7
:20536000536B23F0E05343F040635363C3025CBF044B5966C9E700BF009000500080005090
:205380000040005A00A0005008B505F017F945F2786000F03FFABDE8084002F03DBD00BFF1
:2053A000704700BF04F096BC0AB90020704708B508461146FBF720FD002008BD0FB400B5C9
:2053C00083B004AA52F8041B0448019205F0D4FD03B05DF804EB04B0704700BFDC140020AD
:2053E0002DE9F8432E4D04462A68824255D0002A40D0134601E0002B3CD01B689C42FAD145
:20540000002B37D0274EA37B376853B1A36843B18C4206D000228321346004F10C00984747
:205420002A68944228D02AB11368A3422FD01A46002AF9D1A37BE3B100232D68A373C5B188
:205440004FF002084FF00109AB7BDB070ED5AB6805F10C0053B122468721356085F80E8006
:205460009847023801280DD985F80E902D68002DEAD13760BDE8F88323682B60A37B002B56
:20548000DAD1F6E729462846FFF7AAFFEEE723681360A37B002BCFD1EBE71346B0E700BFCB
:2054A000C0250020BC25002038B583687BB104460220A07309480D46046004F10C0098477B
:2054C0000238012804D9832D02D00123A37338BD21462046BDE83840FFF782BFBC250020B9
:2054E0000022F8B51249134B0C681A70D4B101250227114E01E02468A4B1E37B002BFAD0DE
:20550000A36804F10C00E581002BF4D0002282213460A77398470238012804D9A5732468F4
:20552000002CEAD1F8BD21462046FFF759FFE2E7C0250020E13E0020BC250020024B1878C9
:20554000421C1A70704700BFDF3E0020F8B5164A1568854207D0044635B12B4600E01BB13B
:205560001B689C42FBD1F8BD002CFCD025600126146000220D4DA3682F68A673A2815BB1CB
:205580000A4602212C60A17304F10C00812198470238B04202D9A6732F60F8BD2146204645
:2055A000FFF71EFFF8E700BFC0250020BC2500208A22014B1A707047DF3E00202DE9F8436D
:2055C0002D4D2B78F3B92D4E3378BBB12C4C2D492278013B02EB4200013202F007022270BD
:2055E00001EB80025468DBB251F82080177A33705CB1812F1DD0A27BD2071CD4287818444B
:20560000BDE8F883FFF76CFFDDE71F4A146854B9F4E7A37BD90704D5424639462046FFF73E
:2056200043FF246814B32B78002BF2D0FFF758FFEFE70122A273D4F80890B9F1000FDDD020
:205640000223A373114B424639461C6004F10C00C8470238012805D9832F03D0012233788C
:20566000A273CBE721462046FFF7BAFE337828781844BDE8F88300BFE13E0020E03E0020E5
:20568000DE3E00205C250020C0250020BC25002030B40F4C94F800C0BCF1080F15D00546A8
:2056A0000C4B00201B7863440CF1010C84F800C003F00703084C03EB430344F8232004EB00
:2056C000830319725D6030BC7047012030BC7047E03E0020DE3E00205C25002038B5837B8F
:2056E000034CDB07256801D5FFF7DEFE256038BDBC25002018B1837B013B012B00D970470A
:205700000123024AC3731370704700BFE13E0020FBF778BB10B504460FF0D8F901462046FA
:20572000FBF76AFBBDE810400A20FBF76BBB00BF08B50448FEF7B2FFBDE808400248FEF741
:20574000ADBF00BFF0140020E41400200148FFF701B800BFE414002038B50F48FEF7B0FF2B
:20576000044680B10D48FEF7ABFF0546206060B1FFF704FC034605F19A0105F18200A5F8F9
:205780008030FFF79DFC204638BD21460248FEF7B3FF2C46F7E700BFE4140020F0140020CC
:2057A000006800F19A018230FFF78ABC10B5044607482146FEF7C0FF00B910BD2168054832
:2057C000FEF79AFF2146BDE810400148FEF794BFE4140020F014002010B50446094821464B
:2057E000FEF7AAFF00B910BD2468B4F880102046FFF78EFB04F19A0104F18200BDE81040DC
:20580000FFF780BCE414002008B50FF041F980B208BD00BF08B5FDF7EDFEBDE808400FF00A
:205820002FB900BF8179427990F804C0521A12EA0C0F034606D000684A1C02EA0C02405CBA
:205840009A7170474FF0FF30704700BF70B5134E337803B170BD04460D4606F0F1FE0346C5
:2058600084B10F4B2068616803C395B10D4BA868E96803C301220021094806F0F7FF012318
:20588000337070BD59689A68054C0068DB680FC4EBE70549024807F091F9EBE7E23E0020A9
:2058A000442B00204C2B0020503C0020002110B5084682B00C46FFF7C9FF174B03F15401F5
:2058C00093F820201AB193F82120012A15D01C338B42F5D1204606F049FF04B9C8B102F0A8
:2058E000A9F94023024621460020009300F0A2FB00F01CFA002002B010BD1A7CFE2A02D07F
:2059000003F11004E3E75A7C802AE0D003F11004DDE74FF0FF30EEE718380020054B187B23
:2059200030B1B3F84E00DB8AC01AB0FA80F04009704700BF542B00202DE9F04716461B4CC6
:20594000DFF86C9080460D464FF4B072002120461F469DF824A00FF041F8B9F82030B34283
:2059600005D152463846089902F0BEF918B900263046BDE8F08701264FF0FF33F0224FF27D
:20598000F00184F80D80A4F85810E2732673E364A4F85030C4F8089028686968AA68EB689E
:2059A0001C340FC43046BDE8F08700BF542B00202C15002010B5044690F8510094F850307F
:2059C00082B0228A0190207E2146009304F13C03FFF7B2FFF8B100220120104B617DB4F814
:2059E0001AC09973616DA3F810C01960216A5961217F9974617F1976E18B83F85C2059836F
:205A0000A17D83F85410217D83F85310E17D83F8552083F8521002B010BD00BF542B002005
:205A20002DE9F0414F4D2B7BB5F84E40002B74D195F85C30032B5DD0FFF770FF064620B13C
:205A4000AB68BDE8F041DB691847D5F8448001F06FFC01F007FC686C01F0D2FB0346424F6D
:205A6000A5F84E303868FFF72BF80446002838D1B8F1000F5AD0B5F84E30B5F84C209A42D5
:205A800001D9A5F84C304FF6FF72B5F8503093420AD0B5F84E10914206D0CB1A002BB8BF46
:205AA0005B42B3F5007F44DC95F85B30002BC7D06B6C002B43D0B8F1000F4AD001F022FE30
:205AC000002385F85B30AB68BDE8F041DB69184723683BB321463868FEF7BEFF044600286B
:205AE000C6D0204601F08CFBB5F84E308342EFD82660EFE7002001F0B5FB4FF6FF739C42C9
:205B0000A5F84E309CD0194801F0C8FD01F070FFAB68BDE8F041DB69184705F16400FBF7AF
:205B200039F985E7FAF7D8FC2060D3E7B5F84E30A7E70F48A5F8501001F0B0FDB4E70B482F
:205B400085F85C3001F0AAFD01F03AFD01F050FFB6E70123074885F85C3001F09FFD01F0A5
:205B600033FFABE7542B002050150020F45A0108045B01081C5B0108094A137B73B110B435
:205B8000044640B102F11C0CBCE80F00206001206160A260E3605DF8044B704718467047E5
:205BA000542B002010B5FFF7B9FE134C78B994F9582094F85830002A03F10103B4BFDBB209
:205BC00003F07F03002084F8583001F0C7F8FEF7E9FB01F071FB07F01FFC01F05FFF94F859
:205BE00041305B0602D40023237310BD034802F057F80023237310BD542B0020802B0020FB
:205C00000322024B83F85C2001F06ABF542B002008B50F4B1A7B8AB19A6C511C0ED0824266
:205C20000DD9101AB0F5967F986407D2586C28B101F0F2FABDE8084000F036BF08BD002193
:205C40000322996483F85C20BDE8084001F048BF542B002010B5084C237B5BB194F84020F8
:205C60000146D20804F11C000EF096FDB0FA80F0400910BD184610BD542B002010B5FFF7AC
:205C80004DFE88B1F021114C94F9522094F85230002A03F10103227BB4BFDBB203F07F03D1
:205CA00084F85230E17302B910BDFFF737FE08B984F85C00A3681B68984701F0FDFA0448A5
:205CC00001F0ECFCBDE8104001F00ABF542B0020285B010810B50A4C237B03B910BDFFF7D9
:205CE0001DFE08B984F85C00A3681B68984701F0E3FA044801F0D2FCBDE8104001F0F0BE16
:205D0000542B0020285B0108074B9A7B187B1AB9003818BF0120704728B193F85C000128BB
:205D200094BF002001207047542B0020024B1B7B03B97047FFF774BE542B00202DE9F04115
:205D4000754D06462B7B0C462BB16A7B237E9A4209D0BDE8F081FFF7E1FD98B12B7B002B22
:205D6000F3D1BDE8F081102221466C480EF014FD0028EED1628AEB8A9A4216D2BDE8F0410B
:205D8000FFF74EBE637D012BE3D82046FFF712FE0028DED0AB681B689847614801F07EFC6F
:205DA00001F0CCFD01F024FED8E7E17D95F8520001F022FF002841D14FF6FF73628A9A424F
:205DC00004D095F85730013385F8573095F85210E07D01F011FF48B1B5F84E20EB8A9A42F1
:205DE00058D0FFF79BFD0746002869D022460121304600F03DFEE8B1304601F08BFA074642
:205E0000002844D090F80680304601F083FA002847D0638A8380637E8371AB6CB3B96B8BD7
:205E2000C3EB03135B01AB64AB7B1BB117B16B6C9F4218D02B7B002B8BD09FE7628AEB8AC6
:205E40009A42F7D1374801F029FCF3E7002FF1D06B6C9F42EED16B8BAA7BC3EB03135B018D
:205E6000AB64002AE6D04146607E01F0C5FE0028E0D095F90F20EB7B002A03F10103B4BF8A
:205E8000DBB203F07F03EB7301F03CFCD2E74FF0F008B9E7E37D244885F85230FFF7EEFE3C
:205EA000A4E7304606F0BEFA0028C3D01F4B0146012218682346FEF74DFE0028A9D1B9E739
:205EC00001F0ECFD384601F0CDF9637D012B12D92B7B002B8AD0FFF721FD08B985F85C00E3
:205EE000AB681B68984701F0E7F9114801F0D6FB01F0F6FD7AE72046FFF75CFD0028E7D068
:205F0000AB681B689847064801F0C8FB01F016FD01F06EFDDCE700BF542B0020702B0020CE
:205F2000385B0108405B01085C5B010850150020285B010811B1084801F0B0BB10B50A46CD
:205F40000321044600F094FD20B12046BDE8104000F0C6BD10BD00BF785B010838B5054613
:205F600091F823000C46C0B1FF2816BF0D4B4FF0FF335B8B0A4618BF43432946002007F0D4
:205F8000AFF918B194F92530002B00DB38BD2846218CBDE8384001F0D7BB0A46294607F042
:205FA0007BF9EFE7542B002070B5154D0E4695F85910044601F020FE08B185F8594095F872
:205FC0005830A34200D070BD95F85C3076B2012B07D001F0DDFB002EF5DA032385F85C301E
:205FE00070BD002E02DA01F0D3FBF6E70223054885F85C3001F052FBBDE8704001F0C8BB4C
:20600000542B0020885B010870B505460E461C463AB924B11DB1064BAE801B7B23B9012027
:2060200070BD01F055FBF4E7FFF7FAFC012070BD542B00202DE9F047284C82B094F80CC0F3
:2060400005460E46174698469DF828A0BCF1000F0AD0102204F11C000EF09EFB80B34FF027
:20606000F009FFF79FFD01E04FF0F0093B46314628460122CDE9008AFFF75EFC40F60842E3
:2060800000231E2101202282154A80252176A3743C21626184F853300222A4F854304FF085
:2060A000FF33A0730F4884F85290A4F84E50618384F85C20A36402B0BDE8F04701F0EEBAA2
:2060C00094F9523094F85290002B09F10109B4BF5FFA89F909F07F09C3E700BF542B00203D
:2060E00000048000945B01084FF4B072002101480EF074BC542B0020104A907918B992F8CA
:206100002A10632901D00120704792F82910A1B992F82B30042B0FD1094B187B68B1587B2C
:2061200092F82DC0844507D1B3F84E3001205BBAD38582F82DC0704708467047BC3B002056
:20614000542B002070B51B4905462B2209881A4807F042FE04461948FFF77CFD10B900244E
:20616000204670BD1649002007F04AF813490646002007F045F814B1A278032A06D00028CE
:20618000EDD0002EEBD04369B342E8D14FF0000C48F2FE0E0124094E0FCEA5F802C0AA60AC
:2061A000EB60A5F800E0A5F804C0A5F806C0204670BD00BFB63E0020BC3B0020D43B0020A7
:2061C000702B00202DE9F0432B4B2B2219882B4885B007F001FE044610B18378032B03D0B2
:2061E000002005B0BDE8F083C278002A3FD06378017901336679DB00DBB201F00F05A3EBDC
:20620000161309092B44C1F11000183B93FBF0F30133DBB29A42E3D8012A18BF0D469B1AEC
:20622000DBB203FB00F0154F0830E31B103303445B1B8C2BD4D8E846261805F1180CC5F1AA
:20624000100907F118030FCB88E80F0031464A4607EB0C000EF0D0FA4A46304608EB0501ED
:206260000EF0CAFAE3780120013BE370B9E7012005B0BDE8F08300BFB63E0020BC3B0020D9
:206280004378002B37D140F263432DE9F041425A44189A422CD1194D2B7B4BB36A7BE378D6
:2062A0009A4225D1A3789A0622D4154A0C20DE09D2F80080A788FEF759FF01464046FEF761
:2062C0002DFC7FBAB5F84E10BFB2B94294BF00210121A5788E42C5F380131CBF45F04005C2
:2062E000A57086EA01023946BDE8F041FFF78CBE0020BDE8F0810020704700BF542B002016
:20630000501500202DE9F0412A4F2B4E82B00123304639880DF1070207F0F0FC002841D00F
:206320009DF80730062B3DD0044606F1060814E013B9A378632B16D03988A31BC91A2046ED
:2063400000230DF1070289B207F0D8FC044648B39DF807308046062B24D0112B22D03A2B7E
:2063600020D02B2BE4D1237888F8003065780135ED00684207F08EFCC0B1398830462839A3
:2063800089B207F0B1FC3A88A31B9A420EDDD21A204661190EF0A6FA98F80030062B8DF8F7
:2063A0000730DAD1012002B0BDE8F081002002B0BDE8F081B63E0020BC3B00202DE9F04FAA
:2063C000DFF8908289B098F80C3053B348F2FE039A4C228B9A4224D0237EFF2B21D0FFF779
:2063E0009DFA054678B904F1080006F0BFF928B1934BE27993F806319A4217D009B0BDE8EA
:20640000F04FFFF779BE04F11807FFF77BFF3846FFF720FC28B13946002006F0F1FE064653
:2064200058BB0125284609B0BDE8F08F854E3288B2F59F6FF6D804F12801283A04F1300023
:206440000EF050FA40F26342A37998F80D1084F82830B8F84E30C4F829505BBA84F82D104F
:20646000A571E3856285082007F014FC31882046283989B207F038FCC0E7002008F11C01C5
:2064800006F0BEFE0190002847D03946002006F0DDFE002841D0D6F814A0BAF1000F00F0A5
:2064A000BC80019B534500F0C0804FF000090F25654B0DF110089B69039602935146029B94
:2064C00040469847DFF890E12946C34670464246002312F8016B10F801CFB44502D10133E8
:2064E000102BF6D19D420CDADAF814A009F10103DBB2BAF1000F14D0019A524511D0994634
:20650000DCE700211BF8013B1EF8012F9A4206D101311029F6D10D46E6E7002582E7CDB2F0
:20652000E2E7C1F1100AC5F118081AFB09885FFA88F918F007081FBFC8F108085FFA88F8D9
:20654000C1445FFA89F99B464B46039E3D4A02931288D118B1F5A06FDFDC3C49283A0888C2
:20656000283021184844204403910EF0BBF903994A46084600210EF031FA2B22029BA1798C
:20658000A271B3F1080248BF03F1FF320323D21084F829202C4A84F82BB0D2F818B005EBF2
:2065A000051284F82C204FEA081284F82A3084F82810274B84F82D20A9EB08040DF110082E
:2065C0004544CDF80890C146DDF804801C447269A4EB0A0490450AD031464846D847524632
:2065E000294620460EF008F97669002EEFD1C846DDF8089031464046D84798E80F0087E865
:206600000F00484607F046FB0E4B0C4819880125283989B207F068FB04E7D34608230F25D8
:206620004FF0010AD846994690E708234FF0000B0F254FF0010A9946D84687E7BC3B002027
:2066400018380020B63E0020B85B0108B43E0020E43B0020542B0020D33B002008B50C4A69
:20666000137B43B10B4B0C491B88507B2C335A5C0B44904203D0BDE8084007F0F1BAD97896
:206680009878FFF791FCBDE8084007F0E9BA00BF542B0020B43E0020BC3B00202DE9F04112
:2066A0008EB02622002104A80EF098F9444A454B1188454C01F12C02D618207BD25C8DF854
:2066C000322010B1607B904204D007F0C9FA0EB0BDE8F08100226F463C4808330588CDE9BF
:2066E00004222C3D6D1AADB2032DCDE906220FCB87E80F00E9D9237EF2788DF8333073781F
:20670000ADF830208DF835305B0647D40424AC4250DA4FF0000820E0621CAA42D5DA321933
:20672000507802300444AC42CFDC052B21D10328CBDD7318DA788DF834200732D210131D88
:206740008342C2D10431314408A8CDE90888CDE90A880EF051F8AC422CDA335D2146002B9C
:20676000DAD10134A542F6DA07F07AFA0EB0BDE8F081062BEFD10528A7DD73185B79132807
:206780008DF83330E7DD0631731870589A685968DB680DF1100CACE80F00DCE7132D94D990
:2067A000102204F11C00311D0DF0F6FF00288CD11424ACE7384604A9FFF7D0FB85E700BFEF
:2067C000B43E0020BC3B0020542B0020B63E002008B5084B1B7B4BB10748017E0830A1F1A3
:2067E000FF01B1FA81F14909FFF7A4FBBDE8084007F036BA542B0020BC3B0020F0B59DB019
:206800005C22002105A80EF0E9F81E223C2340F608400121924C934D24882D882C3CDFF8B0
:206820004CC2641BA4B28DF831208F4AADF8323001AE0CF10803172CADF82E00ADF8241019
:206840000D920FCB86E80F0003D807F009FA1DB0F0BD05F12C0303EB0C0513F80C3095F8FB
:2068600004C08DF82C306B882CF07F0E5BBAADF826306B78E9688DF82B306B79A8688DF83A
:206880002D302A696B698DF828E005AFCCF3C20E182C0CF0070C8DF829E08DF82AC00FC73E
:2068A00018BF182100F0D6806A5C002ACDD04B1CA342CADA6B18587802300F18A742C4DCD0
:2068C000023A062AC1D80FF2080C5CF822F000BFE56900088D6900083D6900084B680008BC
:2068E0004B6800084B680008ED6800082028ACD19A78802A8DF86420A7D85A7A187A120440
:2069000042EA0062D87A103105EB010E02436858997ADB7842EA012218928DF86530DEF803
