:020000040800F2
:2000000000100020A5C40008A1C40008A1C40008A1C40008A1C40008A1C40008A1C40008B1
:20002000A1C40008A1C40008A1C40008A1C40008A1C40008A1C40008A1C40008A1C4000858
:20004000A1C40008A1C40008A1C40008A1C40008A1C40008A1C40008A1C40008A1C4000838
:20006000A1C40008A1C40008A1C40008A1C40008A1C40008A1C40008A1C40008A1C4000818
:20008000A1C40008A1C40008A1C40008A1C40008A1C40008690B0008A1C40008A1C40008E9
:2000A000A1C40008F13F0008CD3F0008A1C40008A1C4000849850108658F010865A90108C2
:2000C00061A901083187010871A9010869A901083D8F01086DA90108A58F0108099001083B
:2000E000A1C40008A1C40008A1C40008A1C40008F9AF0008A1C40008A1C40008A1C4000855
:20010000A1C40008A1C40008A1C40008A1C40008A1C40008A1C40008A1C40008A1C4000877
:20012000A1C40008A1C40008A1C40008A1C40008A1C40008A1C40008A1C40008A1C4000857
:20014000A1C40008A1C40008A1C400084DC20008E5740108A1C400087DA6010883A6010814
:20016000A1C40008A1C40008A1C40008A1C4000830B501380B4685B004286FD8DFE800F0FD
:200180000A521B24030031F0010056D1364A117005B030BDA1F10B020F2A4ED83349344CDB
:2001A0000022086899B2236012F0E6FB002818BF032005B030BD2D490022086899B21AF0DB
:2001C00044F8002005B030BD31F0070235D101F00201DA43002914BF01200020254C264DBF
:2001E000C3F38003237002F0010385F82930287126D01E4C2149206819F0E4FF95F82910CA
:2002000020681AF02EF820684FF0FF3214A5D5E900454FF0FF33CDE9004519F0A5FE00203A
:2002200005B030BD1148164B89B20022006819801AF005F8002005B030BD022005B030BD77
:20024000104B0A4C9B8903A92068ADF80C3019F073FE206803A919F085FECBE7012097E729
:20026000CA0D015502020000E8180020301F002038140020438900205C1400206014002042
:20028000D8180020D8AA010870B50024464B84B083F8204383F8214383F8224383F8254335
:2002A00083F8244383F81F4383F81E4383F8234383F8274383F847430BF062FB04F02CFD63
:2002C0000BF078FB0BF08EFB2146384812F00AFB374D286010B113F01DF810B1002004B0C4
:2002E00070BD3449286819F07DFF0028F6D1324B324A1968286812F0E9FD3149286812F052
:2003000065FE0028EAD1286812F096FE002843D107222868114619F0B4FF0028DED101464B
:20032000286819F005FF0028D8D19FED1D7B4FF0FF324FF0FF338DED007B286819F014FEAA
:2003400004460028CAD102F07FFD4AF6CD330E461C4A19461380029022462868039619F00A
:200360006EFFC6F30741360E224646EA0121286819F06BFF224602A9286819F06CFF802354
:2003800022461149286819F031FF8028A6D121460E4805F06FF8A1E7286819F043FF9DE7B3
:2003A000CA0D01550202000000E100E04C140020301F0020241F0020A4C00108414D0008F6
:2003C0005C140020D8180020B41F00203C14002010B5054C237833B9044B13B1044800E03E
:2003E00000BF0123237010BD281B0020000000008841020808B5034B1BB10349034800E036
:2004000000BF08BD000000002C1B002088410208A3F5803A704700BF174B002B08BF134BA4
:200420009D46FFF7F5FF00218B460F461348144A121A19F0D5F90E4B002B00D098470D4B61
:20044000002B00D098470020002104000D000D48002802D00C4819F0B3FC19F07BF8200079
:20046000290000F055F819F065F800BF00000800000000000000000000100020041900207C
:200480009C890020C19D0108D99D010810B50446006830B1002104F0EDFF54F8040F002851
:2004A000F8D110BD08B5064A13680133136002F00DFF00B908BDBDE8084002F0E3BE00BFBC
:2004C000641B002030B583B00BF082FB0BF0C8FC012500230146054CCDE90035044AC90942
:2004E000044823600BF0E0FB03B030BD641B0020A5040008441B0020014B1868704700BFA6
:20050000641B0020014B1868C0097047641B00202DE9F04104F07CFEFFF7D4FF07F076FD69
:2005200004F0DAFF0021664804F0A4FF00F036F912F0A6F90BF034FF04F0B4FE05F094F873
:20054000604B614F1B68DFF8D08198475F4D7B689847D8F804309847AA79EB795C4E5D4C8B
:2005600003EB022333802368022B39DC5A4B29686A6819605A600021584804F07BFF4FF03F
:20058000FF3010F09DFC23680546022B13DC04F09BFE07F041FE5248FFF778FF12F088F954
:2005A00004F0A0FF0446E4B212F088F9002CF7D104F08CFEF4E74B4A4B494C4804F092FEB7
:2005C0004B4804F08FFE2368022BE0DD284603F0B7FE2368022BDADD0A2005F035F8D6E704
:2005E000404A4149414804F07DFE424805F02EF82368022BBADD3B4A3B493C4804F072FE0A
:200600003D4B3E48196804F06DFE2368022BADDD344A3549354804F065FED8F8001038487A
:2006200004F060FE2368022BA0DD2E4A2E492F4804F058FE3968334804F054FE2368022B69
:2006400094DD284A2849294804F04CFE4AF6CD312D4804F047FE2368022B87DD214A2249B9
:20066000224804F03FFE0421284804F03BFE2368022B7FF77BAF1B4A1B491C4804F032FE74
:200680003188234804F02EFE2368022B7FF76EAF144A1549154804F025FE1E4804F022FE21
:2006A0002368022B7FF762AF284603F059FE2368022B7FF75BAF0A2004F0C6FF56E700BF2C
:2006C00088140020E8AA010884BF0108282300200A89002044150020B0860020B41700209F
:2006E00020C00108B4A90108BCA90108C4A901088CAA0108D4A90108FCAE0108E8A90108B5
:20070000F8A9010804AA010810AA01082CAA010864AA010874AA0108F0BD0108F8B50388AA
:2007200005462BB14A2B14D1882916D00120F8BD174B1C6834B1A168201D02F0A9FD246896
:20074000002CF8D10122134B1A704A232B800120F8BD00232B800320F8BD0D4B1C68002CFD
:20076000F3D0231D9A4205D02468231D002CECD09A42F9D1084E2146054803F0C7FDD4E9ED
:200780000523376832600BB1E06998473760DCE7681B002040890020982600200021034AEA
:2007A000034B04481170196004F064BE40890020681B00202814002070B50E4C049E2578E9
:2007C000C0E905620446C36135B981602146BDE87040094803F04EBD084D094B2E6804304E
:2007E0002B6002F055FD2E602146BDE87040024803F040BD40890020681B0020982600203C
:200800002814002070B50C4B04461B782BB92146BDE87040094803F02DBD094D094B2E6815
:2008200004302B6002F03EFD21462E600348BDE8704003F01FBD00BF40890020681B00201D
:20084000982600202814002010B50A4B04461B783BB9C0E903332146BDE81040064803F0F7
:2008600055BD043002F03AFD2146BDE81040024803F04CBD40890020681B0020094B1A78F5
:2008800042B9094B01E0984209D01B68002BFAD1012070470069B0FA80F040097047002081
:2008A000704700BF40890020681B002010B50C460FF038FC204610BD00B583B0019001211E
:2008C00001A80FF02FFC019803B05DF804FB00BF2DE9F04F5C4C85B0257894469DF84480E4
:2008E0009DF84C20002D72D0BCF1070F6BD80C460E99002967D00F99002964D01299B1F5D3
:20090000006F60DC012886465AD0504F4FEA0C1507EB0C11097B002900F08C804FF0000914
:200920004B49CDE901994FEA4C1001EB4C16CDF80C90002C4FD041F80090C6E90199C6F874
:200940000C904FF44479A6F80290B8F1000F05D196F8038048F0300886F8038000930E9B7F
:2009600001EB0008C8F808300F9BDFF8F490C8F804300B5802F0030203EA0909129B9206F4
:20098000013BC3F30A0342EA031242EA0902BEF1010F0A5031D0149B002B4DD00024149BFC
:2009A00060467B51159B3D443246694685F80DE06B60AC6002F092F9204605B0BDE8F08F70
:2009C00010990029A1D1234805B0BDE8F08F224805B0BDE8F08F43F210090C50C6E90144AE
:2009E000F460A6F80290B8F1000FB7D196F8038048F0030886F80380B0E713236FF0030BA4
:200A0000C8F80C3008F1100998E80F0089E80F00109B012CC8F81430D8F81C306BF39F03C1
:200A2000C8F81C30BAD10F9BC8F81830109BC8F80430B3E70948C7E798F80230149A62F370
:200A4000041388F80230A9E7418900206C1B0020EC1B0020018000F0028000F0078000F02B
:200A60000F80FFF338B5114B1B7883B10546D8B101F028FE0E4900230A46147B103244B16A
:200A80000133082BF9D101F023FE0A4838BD0A4838BD1A012B608C50012201EB03131A7351
:200AA00001F016FE204638BD044838BD418900206C1B0020048000F0028000F0018000F0AD
:200AC000002310B5164A82B0126801928DF8043001F0F8FD134B1C78E4B901221A7001F0C3
:200AE000F7FD0422104B0DEB02001C731C7783F82C4083F83C4083F84C4083F85C4083F8EE
:200B00006C4083F87C408DF8072002F0B3F8204602B010BD01F0DCFD044802B010BD00BF70
:200B2000C0AA0108418900206C1B0020038000F070B51D460024164688B09DF830300246C1
:200B4000CDE90154039320460D9B0F9C049306949DF83830109C059300960B460794012125
:200B6000FFF7B6FE08B070BD2DE9F047214B1F6D5A6D17402BD4012500261F4CDFF87C80FA
:200B8000DFF87C902F420CD0C8F85050236843B1D4E9012101313046A1609847637B012BD5
:200BA00008D00136082E4FEA450504F11004E9D1BDE8F08709EB46130028F2D1197B1A7F29
:200BC00060F3410160F3410219731A77E9E74FF000400A49084A0865D868C0F30420030151
:200BE000D35802EB0012002BE2D0BDE8F047002152681847000004506C1B00200020045069
:200C0000EC1B00208C21054A054B126801FB0233187A003818BF0120704700BFEC1C002056
:200C2000F41C00208C210A4A0A48136801FB0300037A53B113680133594201F0030103F004
:200C4000030358BF4B42136070471846704700BFEC1C0020F41C00208C210A4A0A481368C6
:200C600001FB0300037A53B913680133594201F0030103F0030358BF4B42136070470020C6
:200C8000704700BFF01C0020F41C002000230372704700BF01207047014B1878704700BF4A
:200CA000428900202DE9F041264F8CB00221386801AA19F09FFA70B1002304250446014643
:200CC00006AA38688DF825308DF81E50ADF81C3019F094FA10B10CB0BDE8F081BDF80660C1
:200CE000039ABDF80830013E0132013BB6B20392ADF80830ADF80660FFF7AEFF0546D0B168
:200D0000BDF80880067200F1090303994246184618F074FC049931B1BDF806204044A2EBBC
:200D2000080218F06BFC9DF92630069AAB809DF827302A60EB802146386819F063FA0CB079
:200D4000BDE8F081301F002008B5FFF7ABFFBDE80840FFF757BF00BF2DE9F0410646FFF770
:200D6000A1FFFFF75FFF0446002839D090F8088007F066F9054619F050FA19F04EFA214648
:200D8000034651F809CB3046A3EB0C03DB03164E03F5F42303F5907386FB03C6DB17134FF0
:200DA000C3EBA643EB1A42463B6018F027FC104BB4F904100F4A19800F4BE0881B78108056
:200DC0002BB12046FFF762FF4046BDE8F081042089B204F043F90320E18804F03FF9F0E7C0
:200DE00080464046BDE8F08183DE1B43281F002008890020068900204389002010B50388CF
:200E0000044663B140F2CA2293420DD1822901D0012010BDFFF746FFFFF7F4FE40B940F2EB
:200E2000CA232380012010BD00232380032010BD03F0B2FF04F084F88021FFF78DFF00281F
:200E4000EDDD80B204F076F8034BDB689847034804F0ECFBE3E700BF84BF01083C14002059
:200E600000295FD0013810B50C4618280ED8DFE800F013180D1D330D0D413B0D510D0D0D4A
:200E80000D0D0D0D0D0D0D0D0D0D0F00012010BD80230B60002010BD244B00201B680B605B
:200EA00010BD234B00201B880B6010BD0023214A0B6092F8293083F001030B60127912B1F0
:200EC00043F002030B601C4B1B784BB32368002043F00403236010BD0020184B08601B78C4
:200EE000F3B101230B6010BD154B0020B3F900300B6010BD134B0121186818F0D3FF10F57F
:200F0000007F11D00028B8BF033040F38F032360002010BD0C4B0020B3F900300B6010BDDF
:200F2000002010BD02207047032010BD38140020D81800205C14002043890020E8180020E3
:200F400008890020301F00200689002008B5054B0121186818F0A6FF10F5AA7FCCBF00208D
:200F6000012008BD301F002070B5254A86B003AB064607CA83E807000121224A224C12788F
:200F80002170B2B10020214A21491268098800902048006811F0E2FCB0B91F4B1B78C3B93C
:200FA0002378012BFCD0002318462278237006B070BD164813461649026816480988006836
:200FC00011F0BEFC0028E8D000230120237006B070BD07F035F8114B114A3605334482FBB2
:200FE0000312DB17C3EBA2431D1804E007F028F8401B0028D7DA2378012BF7D0D3E700BFEC
:20100000D8AA0108E8180020448900203420002038140020301F00204389002020A11D011E
:2010200083DE1B4370B501230C4605460F4E82B01A4604F1020C0DF1070130688DF807C02F
:2010400019F0D2F8002322462946306819F0CCF8074B1B783BB92B78C3F340130020054A6A
:20106000136002B070BD0023F8E700BF301F0020438900203420002010B50C46FFF7D2FFB0
:2010800000B110BD2046BDE81040FFF76DBF00BF12F0A84F70B5144606461D4602D0052276
:2010A000194B1A70A30702D50322174B1A70174B00221C4203D0164B20071A7019D4E1011A
:2010C00002D50222104B1A70AA0702D504220E4B1A7014F0C00F02D001220D4B1A70AB0545
:2010E00000D470BD00223046BDE87040114618F0C7BF304619F084F8064B1B78002BDED164
:20110000054804F093FADAE744890020080D010042890020438900203C1400200D2801D0F0
:2011200001207047042A05D121B1034B00201B680B60704702207047281F002001207047D6
:201140000C2801D001207047082A0AD108B531B1054B0022186819F07EF8002008BD02208E
:2011600008BD0220704700BF301F0020802300B583B00A490DF10602ADF8063019F038F8AB
:20118000BDF80630802B05D1022808BF002003B05DF804FB012003B05DF804FB341F002030
:2011A00030B44FF48035114A114B956641F67135104C1A6FE369C2F30332E56302FB000064
:2011C00003F48032636823F4401349B10A49884209D808494B600AB10023CB6330BC70478E
:2011E00006498842F5D943F48013F2E7009000500080005000000350002D3101005A620245
:2012000038B51B4B0546D3F820310C4603F00703062B29D8DFE803F0040A0F14191E23004E
:20122000012205B12B6004B1226038BD0BF068FE05220346F5E70BF0AFFE03220346F0E784
:201240000BF0C2FE02220346EBE70BF0C1FE07220346E6E70BF054FE06220346E1E70BF01A
:201260009BFE04220346DCE700221346D9E700BF0080005038B5174B0546D3F828310C46C9
:2012800003F00703013B052B20D8DFE803F00B0F13171B030BF080FE042305B1286004B13E
:2012A000236038BD0BF02CFE0523F6E70BF074FE0323F2E70BF088FE0223EEE70BF088FE24
:2012C0000723EAE70BF01CFE0623E6E700231846E3E700BF00800050002370B5124A82B058
:2012E0000193D2F88041064604F00304022C0D460BD0032C13D0012C0BD01C460EB1019B55
:20130000336005B12C6002B070BD0BF05DFE0190F4E7194601A8FFF773FF1024EEE70BF0E3
:2013200057FE07240190E9E700800050002230B5174B83B00192D3F82032054603F0070368
:201340000C46042B21D8DFE803F00310161B0B0001230DB1019A2A6004B1236003B030BD2B
:201360000BF082FE09230190F3E7002101A8FFF781FF1223EDE70BF02BFE07230190E8E764
:201380000BF06AFE0A230190E3E70023E1E700BF0080005038B5154B0546D3F800320C4601
:2013A00003F00703042B1ED8DFE803F0030E13180900012205B12B6004B1226038BD0BF081
:2013C000C1FD0F22830AF5E70BF046FE0A220346F0E70BF049FE09220346EBE70BF040FE69
:2013E0000C220346E6E700221346E3E70080005038B5154B0546D3F808320C4603F00703A8
:20140000042B1ED8DFE803F0030E13180900012205B12B6004B1226038BD0BF093FD0F225C
:20142000830AF5E70BF018FE0A220346F0E70BF01BFE09220346EBE70BF012FE0C2203460A
:20144000E6E700221346E3E70080005070B54FF480360BF09DFD41F671340D4D0D4AAE6656
:20146000126F0D4BC2F3033202FB0000DA69DC630A495B68884223F44013074988BF43F412
:20148000801332404B600AB10023CB6370BD00BF009000500080005000000350005A6202E3
:2014A000002230B51F4B83B00192D3F86032054603F00703013B0C46032B31D8DFE803F0D1
:2014C00012180D020BF084FD072301900DB1019A2A6004B1236003B030BD0BF075FD02234F
:2014E0000190F3E7002101A8FFF78AFE1023EDE70C4BD3F8403103F00303022B0DD0032B6E
:2015000005D0012B06D0002011230190DEE70BF0A7FDF9E70BF0A0FDF6E70BF0A5FDF3E7DF
:201520000023D3E700800050002230B51F4B83B00192D3F89432054603F00703013B0C4660
:20154000032B31D8DFE803F012180D020BF040FD072301900DB1019A2A6004B1236003B0A0
:2015600030BD0BF031FD02230190F3E7002101A8FFF746FE1023EDE70C4BD3F8403103F034
:201580000303022B0DD0032B05D0012B06D0002011230190DEE70BF063FDF9E70BF05CFDFD
:2015A000F6E70BF061FDF3E70023D3E700800050430904D0012B13D0022B13D0002300F01C
:2015C0001F0031B1012203F5805302FA00F018607047012203F5005302FA00F01860704778
:2015E000014BECE7014BEAE76480005068800050002300B5B0F5807F83B0019300F2168177
:20160000B0F5807F00F20E81DFE810F087010C010C010C010C010C010C010C010C010C01E1
:201620000C010C010C010C010C010C010C010C010C010C010C010C010C010C010C010C01DA
:201640000C010C010C010C010C010C0187018A0187018A01490149014901490149018A0119
:2016600032017901A301CF0179018A018A018A010C010C010C010C010C010C010C010C01C6
:201680008A018A018A01C70163018A010C010C010C010C010C010C010C010C010C010C0170
:2016A0000C010C010C014901870187018701400179017901AB0104019D01D5010C010C01AD
:2016C0000C010C010C0121010C010C010C010C010C010C010C010C010C010C010C010C0125
:2016E0000C010C010C010C010C010C010C010C010C010C010C010C010C010C010C010C011A
:201700000C010C010C010C010C010C01C4010C010C010C010C010C010C010C010C010C0141
:201720000C010C010C010C010C010C010C010C010C010C010C010C010C010C010C010C01D9
:201740000C010C010C010C010C010C010C010C010C010C010C010C010C010C010C010C01B9
:201760000C010C010C010C010C010C010C010C010C010C010C010C010C010C010C010C0199
:201780000C010C010C010C010C010C010C010C010C010C010C010C010C010C010C010C0179
:2017A0000C010C010C010C010C010C010C010C010C010C010C010C010C010C010C010C0159
:2017C0000C010C010C010C010C010C010C010C010C010C010C010C010C010C010C010C0139
:2017E0000C010C010C010C010C010C010C010C010C010C010C010C010C010C010C010C0119
:201800000C010C010C010C010C010C01B101B0F5286F07D17B4AD2F8703203F00303012B5E
:2018200000F08880002003B05DF804FBB0F5C06F00F08F8011D9B0F5206F00F092801DD9A0
:20184000B0F5406F00F0B780B0F5486FDFD101A80021FFF769FE0198E5E7B0F5607F00F001
:20186000B08022D9B0F5A06F6DD0B0F5B06F13D101A80021FFF730FD0198D4E7B0F5F06F5F
:2018800000F08B801FD9B0F5106FCBD101A80021FFF7AEFD0198C6E7B0F5806FC2D101A814
:2018A0000021FFF7ADFC0198BDE7B0F5007F1FD10BF02CFB534BD3F89030C3F3046301337B
:2018C000B0FBF3F0AFE7B0F5D06F6ED0B0F5E06FA8D14C4BD3F8403203F00303022B2FD05C
:2018E000032B00F08380012B9CD10BF0B5FB9AE710D9B0F5207F13D0B0F5407F92D10BF030
:2019000021FB404B1B6FC3F380230133B0FBF3F0400888E7B0F5C07F84D10BF013FB82E719
:201920000BF010FB374B1B6FC3F380230133B0FBF3F078E7D2F8403103F00303022BCFD11A
:201940000BF092FB6FE701A80021FFF7EFFC019869E72C4BD3F8403103F00303022BBFD1AC
:20196000EEE701A80021FFF79BFD01985BE74FF0E023186910F00400CFD1224BD3F840314F
:2019800003F00303022BDBD0032B2FD0012B7FF44AAFAAE70BF0BAFA45E71A4BD3F8603184
:2019A00003F00303022B9BD1CAE701A80021FFF7F1FC019837E701A80021FFF75BFC0198D0
:2019C00031E7104AD2F8802002F00302022A16D0032A11D0012A0CD018460A4BD3F88030DF
:2019E000C3F301130133B0FBF3F01CE70BF038FB19E70BF08BFAF0E70BF082FAEDE70BF08D
:201A0000E7FAEAE700800050002300B5B0F5807F83B0019300F09F816BD9B0F5F06F00F0B9
:201A2000858147D9B0F5206F00F061811ED9B0F5406F00F06281B0F5486F07D1002001A95E
:201A4000FFF772FD019803B05DF804FBB0F5286F23D1CF4AD2F8703203F00303012B00F0B7
:201A60008381022B14BF00201520ECE7B0F5086F17D1C74BD3F8003103F00303022B00F012
:201A80000781032B00F07C81012B00F07D81012003B05DF804FB80F01381002003B05DF835
:201AA00004FBB0F5106FF8D1002001A9FFF7A0FC0198C8E7B0F5B06F00F0418140F2EC8082
:201AC000B0F5D06F00F04181B0F5E06F40F0D480AF4BD3F8403203F00303022B00F0D88053
:201AE000032B00F00081012BD1D10BF0B5FA0A20A9E724385C28D0D85C28CED801A353F874
:201B000020F000BFDB1C0008DB1C0008DB1C0008DB1C0008DB1C00089B1A00083F1D0008DA
:201B20009B1A0008811C00084B1D00089B1A00089B1A00089B1A00089B1A00089B1A000822
:201B40009B1A00089B1A00089B1A00089B1A00089B1A00089B1A00089B1A00089B1A00089D
:201B60009B1A00089B1A00082D1D0008D11A00089B1A00089B1A00089B1A00089B1A0008B2
:201B80009B1A00089B1A00089B1A00089B1A00089B1A00089B1A00089B1A00089B1A00085D
:201BA0009B1A00089B1A0008DB1C00089B1A00089B1A00089B1A0008A91A00089B1A0008ED
:201BC0009B1A0008EF1C0008531A0008CF1C0008FB1C00089B1A00089B1A00089B1A000877
:201BE0009B1A00089B1A00083D1A00089B1A00089B1A00089B1A00089B1A00089B1A00085B
:201C00009B1A00089B1A00089B1A00089B1A00089B1A00089B1A00089B1A00089B1A0008DC
:201C20009B1A00089B1A00089B1A00089B1A00089B1A00089B1A00089B1A00089B1A0008BC
:201C40009B1A00089B1A00089B1A00089B1A00089B1A00089B1A00089B1A00089B1A00089C
:201C60009B1A00089B1A00089B1A00089B1A00089B1A0008071D0008B0F5C06F7FF40DAF84
:201C8000434BD3F8403103F00303022B7FF428AF0BF0EAF90920D6E6B0F5607F7FF4FBAEA7
:201CA0003B4BD3F8803003F00303022B78D0032B70D0012B7FF4F1AE0BF028F90E20C2E617
:201CC000B0F5806F09D0B0F5A06F7FF4E6AE002001A9FFF72BFB0198B5E6002001A9FFF702
:201CE0008FFA0198AFE60BF0BBF90C20ABE6002001A9FFF7D5FB0198A5E6002001A9FFF74D
:201D0000B9FA01989FE6224B186F00F00700431E032B3FF6C2AE01A252F823F0A91D000805
:201D20009D1D0008471A0008851D0008184BD3F8603103F00303022B7FF4D2AEA8E7002047
:201D400001A9FFF7C9FA01987DE6002001A9FFF721FB019877E64FF0E0231B695B078FD5C6
:201D60000BF0F0F80D206EE6D2F8403103F00303022B23D0032B1DD0012B17D0112062E604
:201D80000BF020F908205EE60BF006F903205AE6008000500BF0B4F8062054E6052052E632
:201DA0000BF016F907204EE602204CE60BF054F9112048E60BF054F9112044E60BF054F9D8
:201DC000112040E608B50121022000F02BFD0BF0DFF80021FFF7E4F94FF48030044B1A6F02
:201DE00003F5805142F480621A67086708BD00BF0080005010B50BF0A5F8184BD3F884406F
:201E000014F01004FAD1D3F88430C3F38113C3F10203002BCCBF01212146FFF7C1F901214C
:201E2000002000F057FD4FF4C070FFF7E1FB84460B4A0C4B944588BF4FF48064196F802014
:201E400021F4806121431967FFF7D2FB064B984203D84FF48032054B1A6710BD00400050BC
:201E600080F0FA0200800050005A620200A000504FF480104FF480320249034B48669A626D
:201E8000704700BF009000500050005A70B504468020FFF7B9FD03286BD04FF4801545F60E
:201EA0000E034FF0A0604FF48031544A5566544AC2F88030534B986203F580539962936D1F
:201EC000D903FCD44E4A936D13F08043FBD1D4E90001090541EA0061E07B0143207B41EA6F
:201EE0000041607B41EA0031A07B41EA80111161616990692569090600F0004041EA856180
:201F00000143A07E3E4D0143207E41EA0041607E41EA00219161E169126A00290CBF002090
:201F2000082022F00F020A43E17E42EA810202432A62E269F2B1022A53D094F8223094F883
:201F400020202F491B06886A43EA42132E4A024094F82400134394F8232043EAC00343EA88
:201F600002438B6294F825301BB1254B274AC3F8802070BD94F8243094F82020DB00A96A7F
:201F800043EA4213204A0A4094F82110134343EA011343F480331E4AAB62AB6D32EA03031E
:201FA000FBD14FF080714FF00040164A91622B69A66823F4700343EA06532B61906194F898
:201FC00022300BB9134B996294F82330002BC9D14FF480310F4B0A4A9962936D5B00FCD426
:201FE000C0E72B61AB6100F065FB6B6B23F47F4343F408536B6300F061FB9EE70090005092
:202000000040005A0050005AC7FFFEFEF1A7FFFF030001000060005A014B93F900007047D7
:20202000E9180020014B1880704700BFDA180020002920DD70B44FF48036034641F67135AA
:202040000E480F498666086F0E4AC0F3033000FB0333D169D56352680B4C22F44012A34230
:20206000084B88BF42F4801231405A6009B10022DA6370BC70470021FFF792B80090005096
:202080000080005000000350002D3101B0F5807F70B50C4600F01A8268D9B0F5F06F00F0E2
:2020A000AB8144D9B0F5206F00F0EE812AD9B0F5406F00F0FA81B0F5486F10D1023C0F2CCC
:2020C0008CBF0021D54BD64A98BF53F82410D2F8943223F007030B43C2F8943270BDB0F531
:2020E000286FFBD1112C00F02D82152C14BF00210221CB4AD2F8703223F003030B43C2F8A7
:20210000703270BDB0F5086F40F0F280CC1E062C8CBF0021C34BC24A98BF53F82410D2F8F0
:20212000003123F003030B43C2F8003170BDB0F5B06F00F0878140F20581B0F5D06F00F0A7
:202140009281B0F5E06F40F0E880093C032C8CBF0021B54BB24A98BF53F82410D2F84032F2
:2021600023F003030B43C2F8403270BD24385C28B4D85C28B2D801A353F820F0BD2300083E
:20218000BD230008BD230008BD230008BD230008DD20000845240008DD20000823230008D6
:2021A00067240008DD200008DD200008DD200008DD200008DD200008DD200008DD20000869
:2021C000DD200008DD200008DD200008DD200008DD200008DD200008DD200008DD200008D7
:2021E000F92300084B210008DD200008DD200008DD200008DD200008DD200008DD20000829
:20220000DD200008DD200008DD200008DD200008DD200008DD200008DD200008DD20000896
:20222000BD230008DD200008DD200008DD200008F9220008DD200008DD20000889240008C5
:20224000E52000089B230008AB240008DD200008DD200008DD200008DD200008DD200008BB
:20226000BD200008DD200008DD200008DD200008DD200008DD200008DD200008DD20000856
:20228000DD200008DD200008DD200008DD200008DD200008DD200008DD200008DD20000816
:2022A000DD200008DD200008DD200008DD200008DD200008DD200008DD200008DD200008F6
:2022C000DD200008DD200008DD200008DD200008DD200008DD200008DD200008DD200008D6
:2022E000DD200008DD200008DD200008DF230008B0F5106F7FF4F2AE093C062C8CBF0021AB
:202300004A4B474A98BF53F82410D2F8083223F007030B43C2F8083270BDB0F5C06F7FF4EA
:20232000DDAE093C032C8CBF0021414B3C4A98BF53F82410D2F8403123F003030B43C2F8EE
:20234000403170BDB0F5607F1ED13A4BD3F8FC20D20140F1EB80D3F8FC208C1F22F08072FB
:20236000082CC3F8FC2040F27B812D4AD2F8803023F00303C2F880302E4AD2F8FC3043F00F
:202380008073C2F8FC3070BDFFF4A8AEB0F5806F14D0B0F5A06F7FF4A1AE073C0B2C8CBF3B
:2023A0000021254B1E4A98BF53F82410D2F8203223F007030B43C2F8203270BD023C052C1F
:2023C0008CBF00211D4B164A98BF53F82410D2F8203123F007030B43C2F8203170BD8B1E8C
:2023E000062B00F2B180DFE813F002010501AF001601AF00AF001301093C032C8CBF00219E
:202400000F4B074A98BF53F82410D2F8603123F003030B43C2F8603170BD00BFD4AB0108BA
:202420000080005064AB010838AB010848AB010838AB010800ED00E0A4AB010820AB0108E7
:2024400038AB0108023C0E2C8CBF00218A4B8B4A98BF53F82410D2F8803123F003030B434A
:20246000C2F8803170BD093C062C8CBF0021844B824A98BF53F82410D2F8003223F0070357
:202480000B43C2F8003270BD023C0F2C8CBF00217C4B7A4A98BF53F82410D2F8603223F020
:2024A00007030B43C2F8603270BD023C052C8CBF0021754B714A98BF53F82410D2F82831FC
:2024C00023F007030B43C2F8283170BDA1F10904082C3FF603AE01A353F824F00125000867
:2024E00001250008DD200008012500081D260008DD200008DD200008DD20000801250008F3
:202500004FF48031614B5D48614A406E5966536AC40343F0010353624FF0E0225CBF5D4BEA
:202520005966136923F00403136170BD8C1F082C40F28A80514AD2F8803023F00303C2F8A2
:20254000803070BD0121D4E5002635460121022000F068F9FEF77AFF4FF48031474A136F18
:2025600043F480631367494B1967136F23F007032B4313670AF0E6FC474AD2F8845015F01C
:202580001005FAD1D2F88410C1F38111C1F10201FFF74EFD0121284600F09CF94FF4C07039
:2025A000FFF726F884463D49344A8C4588BF4FF48065136F802023F480632B431367FFF7FF
:2025C00017F8374B984203D84FF48032314B1A67002E7FF483AD032C7FF480AD4FF480312F
:2025E000304B314A9962936D5D00FCD470BD00260125ABE74FF480164FF4803223482A4906
:2026000046668E6A294B25469A62C6F300669DE7002604259AE70026022597E74FF4803109
:202620001A4B16481A4A406E5966536AC00323F0010353624FF0E0225CBF164B59661369C2
:2026400043F00403136170BD0C4A1949D2F8803051F8241023F003030B43C2F8803070BDF2
:20266000064A1349D2F8803051F8241023F003030B43C2F880307FE614AC010800800050E8
:2026800048AB0108D4AB010820AB01080090005000C0075000A000500040005080F0FA02FF
:2026A000005A62020060005A0040005A0050005A80AB0108EFF3108072B6704700B962B608
:2026C000704700BFEFF31180302383F31188704780F31188704700BF0246EFF31083DB07D7
:2026E00030D42049430951F8233000F01F00C340DB4313F001005FFA82FC00D07047002AC9
:2027000022DB0A4492F800231209EFF3118313B1B2EB131F16D214494B68C3F30803002BB9
:20272000ECD0103B58B20028DBB214DB00F1604000F5614090F800030009824234BF002052
:202740000120704701207047084B0CF00F0C63441A7E1209D9E703F00F03043B0B44187E1C
:202760000009EAE700E100E000ED00E0FCEC00E0054B420953F8223000F01F0023FA00F0D5
:20278000C04300F00100704700E100E0044A4178536F23F4407343EA01235367704700BFB9
:2027A00000400050704700BF704700BF10B50A4A0446136943F00403136108F0BBFFFFF768
:2027C000F1FF30BFFFF7F0FF08F0EEFF04B110BDBDE810400AF0B6BB00ED00E010B5084A8A
:2027E0000446136943F00403136108F0A3FF30BF08F0DAFF04B110BDBDE810400AF0A2BB3D
:2028000000ED00E0704700BF704700BF034A0179D36E23F030030B43D366704700400050E3
:20282000704700BFF8B50546284CD4F88430DE06FBD4D4F88430C3F381139D4226D00AF0EA
:2028400065FB012D074628D0FFF734FF4FF000721F4B06465A662846FFF7E2FF4FF48063EA
:202860006A1E93402367636E98010AD4174B04E0D3F884205A6E910103D4D3F8842092063E
:20288000F6D53046FFF71AFF022D00D0F8BD3846BDE8F8400021FFF7CBBB2946FFF7C8FB14
:2028A000FFF708FF4FF00072094B06465A662846FFF7B6FF4FF480632367636E9C01D5D529
:2028C0003046BDE8F840FFF7F9BE00BF004000500060005010B50C4680B10A4B21461B7862
:2028E00013B1094B984204D9BDE810400220FFF799BF0120BDE81040FFF794BF0AF006FB4A
:20290000EBE700BF38200020005A620210B50A4C037823700AF0FAFA2378012113B1074B06
:20292000984204D9BDE810400220FFF77BBF0846BDE81040FFF776BF38200020005A6202F5
:2029400030B54FF000444AF6CD332949294A4C66546C83B0136404F0010400282ED0136B31
:2029600018070BD50023244801E083423ED0116B01330907F9D4204A934237D020250122DA
:202980001E4B1F481B4985625A608B6A2B400AD1194801E0834229D08A6A01339206F9D599
:2029A000154A934222D0002014B1124B154A1A64019017F0EAFA019803B030BD536BD9077F
:2029C000FCD45368DB07EED501210D4B5960136B0B40E8D10749084801E0834206D00A6B81
:2029E0000133D507F9D5044A9342DCD10720DBE7009000500040095040420F00005009508D
:202A0000006009503254FFFF38B54FF000454AF6CD331649164C4D66656C23644378154AE2
:202A20005B0043F0010305F00105D363636B13F00B0FFBD16368827823F4F87343EA021393
:202A40006360C278437943EA0223A3600279837943EA022323610078FFF772FF0DB1064B2D
:202A6000236417F092FA012038BD00BF0090005000400950004000503254FFFF38B54FF0AE
:202A800000454AF6CD330F2828BF0F200E4A0F49546E02F50C224D66516C136401F00101F3
:202AA000536B1B06FCD4136A23F00F031843106209B1074B1364002C03DB4FF00042054B9A
:202AC0005A6617F062FA38BD00800050009000503254FFFF00A0005038B54FF000454AF609
:202AE000CD330F4A0F49546E02F50C224D66516C136401F00101536B1B06FCD4136A23F421
:202B0000F85343EA0020106209B1074B1364002C03DB4FF00042054B5A6617F036FA38BD61
:202B200000800050009000503254FFFF00A00050F1B110B4012400F5805301F00F025C6060
:202B4000436DC3F30B03002BFAD18263436D13F0780FFBD101F001024B0748BF42F002029D
:202B6000836C03F003039342FAD15DF8044B70474368D90716D58368DA0702D50369DB070B
:202B800008D50A238363436D13F0500FFBD1836C9907FCD1012200F500535A6043689A079A
:202BA000FCD47047704700BF836C5B06FCD54164704700BF2DE9F84304460D4616461F462D
:202BC0004AB10122002B4CD1274B04EB440109010B44AA401A60072D4FF0300824D804235E
:202BE00018FB0438FFF766FD0F2320494FEA850E58F801C006FA0EF282EA0C0203FA0EF33D
:202C0000134083EA0C0348F80130FFF757FD4EB9012127BB144B04EB44042401234401FA02
:202C200005F51D60BDE8F8830C2318FB0438A5F108034FEA8309FFF73DFD0F230B4906FA63
:202C400009F258F801C003FA09F382EA0C02134083EA0C0348F80130FFF730FDD7E7044B85
:202C6000D9E7034BB1E700BF40E0035030C0035040D00350F8B5012104462020FEF798FCF4
:202C800001212120FEF794FC01220020FF274FF000464FF0FF354FF400110E4B5A602278EA
:202CA00012069A6094F801C0A27842EA0C429A61094A9F62986318645E6503F500531D65CB
:202CC000C2F88011E3781B01DBB282F815331160F8BD00BF0000045000E100E070B501259E
:202CE0000C46204BC1B28D401D658300216803F1A04303F5882359601B4E637B00EB4000A4
:202D000006EB00100366E37AA17A1B0543EA0143217B22F0030243EA4153C3650267FFF745
:202D2000D1FC736D2B437365237A13B1336C2B433364637A1BB10C4A936B2B43936322799F
:202D4000A379094943EA0243064A93616679E379064C43EA0643A36155638D64BDE870404A
:202D6000FFF7B6BC00200450000004500010045010B50124C0B28440FFF7A4FC094BDA6A71
:202D8000224209D15B6B34EA03030CBF01240024FFF79EFC204610BD0024FFF799FC20461F
:202DA00010BD00BF00000450C2F3062302F0070241B9134942EA032242F44022063041F8AC
:202DC00020207047122B09D0142B07D0013B312B0AD90B4B163043F820207047022A0CD07F
:202DE000032A00D10122013B06491630CB5C42EA0322034B43F8202070470022F3E700BF2E
:202E00000080035050AC01083AB122F0030202F1A04202F5603209B9106070470002FBE7AD
:202E20004FF48031064A074B51669B69C3F3851103F03F021B0B817042700370704700BF0F
:202E40000090005000C00750014B986CD96C70470080E00F70B5054616461C4611B3402C62
:202E600027D019D8E4B1202C08BF082313D103FB06F24FEA520C0CEB4113B3FBF2F3A96837
:202E80000D4A21F06001A960A968203B0C4302EAC303AC60EB6170BD602CFCD10423E6E721
:202EA0001023E4E74FF42070FEF7A2FB402C0146D7D10623DBE700BFF8FF7F000122CB4303
:202EC000934000F5805C03F00A03CCF804204361416111B900F50050426070472DE9F04171
:202EE000002341F205074FF0010840F6AA6E374A00F58056DFF8E0C0C6F804809042C0F84B
:202F000014E08360C365C76000F500570361C361C364C7F848C0836504BF036543650123EA
:202F20007B6073608B7C04460D461BB1836843F080438360EB7C33B1244B9C423BD0E36DBC
:202F400043F08003E3652A8A6B7B20461343EA891343E3602B7BD5E90112FFF77BFF6B7D42
:202F60001BB1A36843F48033A360AB7D1BB1A36843F40043A360EB7D2A7E1B07120502F4D2
:202F8000E00203F0E04313430222A3656B7E023B012B94BF0E4B0F4BC3F820276B7E03F081
:202FA000FD03012B4FF004030CBFF365FB652B786361BDE8F0812A7DA3F51033C3F8C82179
:202FC000E36D43F08003E365BDE700BF00C0055000D0035000E00350FFFF010083695B0689
:202FE000FCD5C163704700BF4369002B0FDB51B9436ADA07FCD4012200F500535A6043686D
:203000009B07FCD47047012300F58050436070474368DA0700D4704710B50446FFF752FBDB
:20302000636ADB075CBF0123E360BDE81040FFF74FBB00BF43682DE9F043002B5FD14C7898
:20304000CA780B79002C14BF4FF020084FF00008002A4A798C7914BF02270027002B14BFEA
:2030600004230023002ACA7991F808C014BF08260026002C14BF10250025002A4A7B14BF06
:203080004FF400740024BCF1000F14BF4FF4806E4FF0000E002A14BF4FF4807C4FF0000CC1
:2030A0000A7B91F80B90120742EA096291F8029042EA090291F80A9042EA094242EA080295
:2030C0003A43134333432B43234343EA0E0343EA0C0383604369002B0BDB0B78D3B9436AFD
:2030E000DA07FCD4012200F500535A6043689B07FCD44B7A0BB100230362BDE8F083436A0F
:20310000002BFCD1012200F500535A6043689C07FCD494E7012200F580535A60E9E700BFC5
:2031200010B5FDF7E9F90B4B1A68D2E9003192680B44191A52B1D2E9003423441B1A92682C
:20314000994228BF1946002AF5D14318024A136010BD00BF402000203C2000202DE9F8436B
:203160000388054653B3592B2BD187292ED082291FD14FF000092B4FDFF8B0803C68C4B1C8
:20318000002603E0A36826469BB11C4620460AF0EDF80028F6D022468821E06802F00CFA7D
:2031A00000282BD0404602F041FAA3682646002BEBD159232B800120BDE8F883194A13609D
:2031C000F7E700232B800320BDE8F883154F0020396819B9EDE789680120D9B1CB68934291
:2031E000F9D000B139608B68002BE2D0D86890420BBF9B6819468B609B68F5E7A368E06099
:203200006EB1B3603B68C4F808902BB1FFF788FF3C68B4E73960CCE7034A1360C9E73B6096
:20322000F1E700BF402000203C2000208814002010B50446104802F0F9F91049E3680A68DE
:203240004BB142B194420FD0134601E09C420BD09B68002BFAD10A4BA2601B680C60E36055
:20326000BDE81040FFF75CBF054B1B68E360BDE81040FFF755BF00BF881400204020002038
:2032800098260020014802F0D1B900BF8814002010B504460AF04EF82046BDE81040FFF770
:2032A000C7BF00BF10B504460AF04CF82046BDE81040FFF7BDBF00BF10B504460AF050F89F
:2032C0002046BDE81040FFF7B3BF00BF024B1868003818BF012070474020002010B5124B16
:2032E00004461968814214D00B462BB19A68A24206D01346002BF9D10023C4E9023310BD53
:20330000A2689A6049B1FFF70BFF0023C4E9023310BD82681A60002AF5D10022034B1A609F
:203320000023C4E9023310BD402000203C200020014B1888704700BFDC180020014B188065
:20334000704700BFDC18002000283ED0037A30B4022B10D00378022B15D00379B3B10024AE
:20336000C37913F0030318BF012301B10C6002B1136030BC7047C579447A037965B90CB9CB
:20338000012BF2D0DBB100231C46EEE7447A14F0030418BF0124E3E7C4B1032D37D1032CEE
:2033A0002ED0022C24D143BB022D2DD00123032D24D1A4F10204B4FA84F46409D5E7023C51
:2033C000012C8CBF00240124CFE770474BB9022D08BF0123EAD1A4F10304B4FA84F46409B7
:2033E000C3E7032D01D0022D02D123461C46BCE7002BC8D1022DDAD1EDE701230024B4E75D
:20340000002BC0D10123D4E701231C46ADE7022DC7D1002BF1D1022C4FF00103DBD11C46C4
:20342000A3E700BF002330B50B608B80437D0D46DB075CBF01230B70037E0446012B83B0EC
:2034400023D9694601AA04F11000FFF77DFF009B0BB10223EB70019B0BB102236B70E37D10
:2034600003F00303022B03D0032B14BF00230823AB70637E03F00303022B03D0032B14BF0E
:20348000002308232B7103B030BDC37D13F0030309D0437E13F0030305D0C38B828B9B1AD1
:2034A000B3FA83F35B092375CBE700BF002110B582B0019178B1044601AA1030FFF744FF3B
:2034C000019B43B1074AA38B12889A4206D04FF6FF72934202D0002002B010BD012002B0C2
:2034E00010BD00BFDC18002002280CBF012307230B441A781846FF2A03F1FF3303D18142C4
:20350000F7D1012070470020704700BF38B50446002837D0637E0846154683B1022B0BBF5A
:203520000123072302220822093304F10801234413F801CDBCF1FF0F22D18B42F8D110B170
:20354000174900F089FEE37D73B1022B15BF0723012308220222234419789C46FF2903F17D
:20356000FF3308D16445F7D145B128460C4900F073FE012038BD082A04D155B9012038BD74
:20358000082A01D0002038BD0028DCD000F064FED9E72846214600F05FFE012038BD00BF36
:2035A0009CAC010800B583B06946FFF73BFF9DF800309DF801209DF8020002339DF8031004
:2035C000134403449DF804209DF805000B441344184403B05DF804FB4378827890F800C0F4
:2035E000DB00120102F0100203F0080313430CF0070290F803C0134302794FEA4C1C0CF0C7
:20360000200C920143EA0C0302F0400213430B704379827990F809C003F00103520043EA2C
:203620008C1302F0020290F807C01343027A4FEA8C0000F00C001201034302F03002134340
:203640004B70704770B50D46044682B06946FFF7E9FE04F110002946FFF7BEFF9DF800308C
:20366000012B02BFA37E0320AB709DF8013018BF0220022B06D1A28B431C2A54A28B0230D2
:20368000120AEA549DF802605EB1731E2344291893F800C0A34201F801CB03F1FF33F7D1AE
:2036A00030449DF80330022B06D1E28B431C2A54E28B0230120AEA549DF8046056B1F31D77
:2036C00023442918073413F80129A34201F8012BF9D1304402B070BD02784378C2F3C00001
:2036E00002F0070C4870C2F3401081F800C0C870C2F3001C03F00100C2F3801281F802C050
:203700000A71C3F3400CC3F301124871C3F381009B0981F806C0C8710A724B72704700BFA8
:20372000012943DD2DE9F04186B00F4603A914460546FFF7D1FF0B469DF8112003CB1B88CE
:203740002061616123836AB3AE1C03A802AA01A9FFF7FAFD9DF81380B8F1000F43D0029B1B
:20376000002B31D1B8F1020FA38367D0B8F1030F4DD09DF81580B8F1000F2CD0019BBBB93F
:20378000A38BE383B8F1020F4DD0B8F1030F31D0701B3B1A8742C4E90E6300DA002006B08B
:2037A000BDE8F081AB78EE1CA376CEE700207047727816F8023B03EB0223029A9BB2E3838A
:2037C000002ADFD1A383DDE7727816F8023B03EB02239BB2C6E71E4904F1080000F03CFD56
:2037E000A4F81E80D4E72046194900F035FDA4F81C80BEE706F10800034604F1080213F8BB
:20380000011DB34202F8011BF9D10646C0E706F108000346621E13F8011DB34202F8011FC2
:20382000F9D10646A5E70A4904F1080000F014FD7378237216F8023B6372A9E720460449B2
:2038400000F00AFD7378237016F8023B637090E79CAC0108032917DDB2B100B503461188F3
:203860009078C1F30B0208B142F400424FF0020C0F214FEA122E9A7083F803E083F800C0B5
:20388000597004205DF804FB4FF0FF30704700BF0129034606DD2AB100213F2202201970A5
:2038A0005A7070474FF0FF30704700BF012984460CDD5AB193880220C3F30A0343F4084339
:2038C0001A0A8CF800308CF8012070474FF0FF30704700BF07291ADDCAB100B503464FF0F1
:2038E000060E4FF01A0C916881709168090AC17051890171D17A4171117B8171127C83F858
:2039000000E0DA7183F801C008205DF804FB4FF0FF307047002A49D070B54FF0040C0524BF
:20392000864692F82E0092F82A3014FB00CC03FB0CFC012B0CF1010535DC042833DC0CF1C6
:2039400002068E422FDA012B8EF8023007D01B238EF800508EF801300CF1030070BD92F849
:203960002B308EF80330938D8EF80430938D8EF806001B0A8EF805300028E8D0734614FB25
:2039800000E0118E05339970118E0632090AD970918D1971918D090A597192F82E109971BF
:2039A0008342EED1D3E74FF0FF3070BD4FF0FF30704700BF42B300B5537C864663B90229BE
:2039C0001FDD012203208EF802301C238EF800208EF801305DF804FB1A2912DD0146837091
:2039E00002F1280C02F1100333F8022F02314A701A889C454FEA12228A70F5D119221B202B
:203A0000E3E74FF0FF30E5E74FF0FF30704700BFDAB3F8B5B2F84A301546042B32D892F842
:203A20004820044642BB0223012799422ADD0026A270E67026716671A671E67126726672CE
:203A4000B5F84A3005F14C01A372B5F84A3004F10C001B0AE372B5F84A2015F0CFFDC82273
:203A6000B5F84A30B81C23441E73B5F84A3023445E7327706270F8BD03F10C070D33BFB21E
:203A80009BB2D2E74FF0FF30F8BD4FF0FF307047002A00F04C812DE9F84F00231646D370D2
:203AA000002900F0398101294FD00546034602880439DFF880C2D70BC9B2881CC4B203F10B
:203AC000020E002F41D1C2F3C7177E2F02F07F0246D07F2F3DD0944237D31E2F35D1022AB2
:203AE00033D15A880433D00B1405B07010B246BF42EA0C0212B2C0F30B023280002900F045
:203B00000281012921D0BEF802200439C9B2D70BD3E700293ED0012917D0F2464FF0060B0B
:203B20003AF8022B0239CCB2D10B002936D15FFA82F94C45C2F3062207D31B2A00F0AB80E5
:203B40001C2A00F08E801A2A5DD04FF0FF30BDE8F88F002AF9D1AEEB0500F070BDE8F88FF8
:203B6000002AF2D1AEEB0500F070002CEFD0012CEBD03EF8022B06F14C08D00B0028E4D022
:203B8000C2F3C3200128C2F30A07C2D00F28DCD1002FDAD1AEEB0500BDE8F88FC2F30A09BC
:203BA0004C45C2F3C322D0D3092ACED1B9F1000FCBD09EF80220B9F1010F86F848203FD0AA
:203BC000BEF80A20042AA6F84A2005D802F10C0189B2894500F0A38009F10203FF1A002F8F
:203BE000B3DBA4EB09042DD114F0FF040AEB090000F09B80012CA8D086463EF8022B023C7B
:203C0000E1B2D00BBAE7B9F1060F9ED19EF80220B2609EF8031042EA0122B2609EF80410E9
:203C200042EA0142B2609EF8051042EA0162B2609EF8062032739EF8073033740823CDE703
:203C40000323CBE714F0FF040AEB090EA2D0012C3FF47BAFF2463AF8022B023CE4B2D10B36
:203C600063E7B9F1010F52D0B9F1190F7FF46DAF9EF802300AF10102737406F1280006F1FA
:203C8000100332F8021B23F8021F9842F9D11B234FF01909A2E7B9F1000F3FF456AF9EF83B
:203CA0000200002898D001287FF44FAF9EF80620042A3FF74AAF511C01EB810189457FF4A3
:203CC00044AF86F82A009EF8031086F82B10BEF80410B1859EF8063086F82E30002A3FF4E2
:203CE0007BAF33461BFB02610AF1050210880633588550880532988512F8010C83F82E000C
:203D00008B42F3D168E7581BC1B2F1701FE79EF802307374032361E70846F17017E7404626
:203D20000EF10C0115F06AFC56E7401B0FE74FF0FF30704700F0FFFF30B591B001F000F95B
:203D4000044601F011F96A4601462046FFF7E8FC00283ED0044601F0D7F8D0B30B209DF864
:203D6000101001F07BF907209DF8131001F076F99DF817308BB1BDF81C50FFF7D9FA8542B6
:203D800005D04FF6FF73BDF81C209A4221D169469DF81700FFF7A8FBB0B10C2002A901F0BB
:203DA00069F99DF815303BB14FF6FF71062001F055F9204611B030BD06209DF81A1001F0D7
:203DC0004DF9204611B030BD69460D2001F052F9E3E74FF0FF34ECE72DE9F04105460B20A5
:203DE00014460E46A84700232074A374002E38D00122E37462750820A847002703464FF00B
:203E00000208A375062084F818806774A847A076FFF78EFAE0830920A84701280CBF3B46F8
:203E200003236376FFF784FAA0830A20A84701281CD06EB90323E375637E022B0DD0E37DCE
:203E4000A3F10203B3FA83F35B092375BDE8F081637E84F81780022BF1D101232375BDE850
:203E6000F0810720A8476675E074C4E7E775E3E730B591B04FF6FF740546FFF759FAA04267
:203E80003AD040220021684615F0AAFC01F002F96A4601461A48FFF79FFF01F0FBF818B3B4
:203EA000ADF800400C2001F0EDF8014602A800F0D3F901F045F80E9001F056F8034668466C
:203EC0000F93FFF76FFB044615B9204611B030BD00F0E8FF80B101F043F801466846FFF795
:203EE000B1FB204611B030BD0D2001F0CBF80146684600F0B1F9D5E74FF0FF34E5E700BFD9
:203F0000695000080120FFF7B3BF00BF0020FFF7AFBF00BF10B10AB1FFF75EBF704700BF50
:203F200008B501213A20FDF743FBBDE8084000F033B800BF0022024B1A60FFF7F1BF00BF41
:203F40004420002028B370B504460126114D94FAA4F0B8B1B0FA80F205EB02135B6806FA9F
:203F600002F1104624EA01042BB105EB0212117B21B191689847002CE9D170BD9847002CB1
:203F8000E5D1FAE7D5F80432002BE0D020221046EBE770474820002008B51920FEF7E8FB35
:203FA00058B91A20FEF7E4FB00B908BD4FF08062054BC3F880211A6008BD4FF00072024B5A
:203FC000C3F880211A60ECE700E100E0074BD3F82404D3F8202403F50053104000F0553013
:203FE00020F05020C3F82004FFF7ACBF00C00350074BD3F82404D3F8202403F500531040FF
:2040000000F0AA3020F0A020C3F82004FFF79ABF00C00350EFF3108072B6704780F3108869
:20402000704700BF10B50948FCF7ECFB084800F015FC48B1064C037A01465B08037220467C
:2040400000F0D8FB0028F6D110BD00BF08230020981400200146014800F02EBC98140020D5
:2040600080B110B50446FCF747FA2368C01AB0F5963F05D2207A032894BF0020012010BDF0
:20408000002010BD0020704770B50546144689B1022907D006290CD1BDE8704001462A483C
:2040A00000F00ABC0146284800F006FC0646002832D170BD0146244800F0FEFB06460028ED
:2040C00035D0FCF719FA337A30602344102BA8BF10233372FCF710FA3368E401C01AB0F5BB
:2040E000963FA4B208D2337AB188042B34BF19230A2329B9B48070BDB18819230029F9D0A0
:2041000003FB04F4C3F1640201FB02420F4CA4FB02325209B28070BDFCF7EEF9337A306050
:204120002344102BA8BF10230C343372D2E7334608222946044800F0DBFB06460028B8D085
:2041400047F6FF73C380BCE7981400201F85EB5138B50546042000F087FF04462946224829
:2041600024B200F0A9FB40B347F6FF73B0F906209A422DD05A2504EB8404630012FB0532EE
:204180001A4C818884FB0234D217C2EB641424B2C48001B138BD04F15A0212B222EAE272B7
:2041A0001E2AA8BF1E22124BD201A3FB0232120902F5807292B2828038BD034608222946ED
:2041C000094800F095FB0028E4D047F6FF73C3808388C480002BDDD147F6FF739C42DAD1E0
:2041E0004FF48072E7E700BF981400201F85EB518988888838B5094800F030FB60B104467C
:20420000064D2146284600F0FBFB2146284600F0F1FA04460028F4D138BD00BF9814002029
:2042200000B5002183B0084800F0C0FA074A002312684FF4E13100920548064AFCF7BCFA60
:2042400003B05DF804FB00BF981400209826002008230020254000080A684B68026043600C
:20426000704700BF082208B515F098F9B0FA80F0400908BD0368DBB110B4002400E013460B
:2042800099420FD01A681C46002AF8D100230B600368CBB11A461B68002BFBD111605DF878
:2042A000044B70470A686CB1226000221A60EDE700230B6003684BB11A461B68002BFBD1A8
:2042C000116070470260F0E70160E8E70160704730B405684DB12B46002400E0134699423D
:2042E00007D01A681C46002AF8D10D60016030BC70470A683CB1226000221A6005680D6048
:20430000016030BC70470260F6E700BF03689BB110B4002400E0134699421A6805D01C462F
:20432000002AF8D15DF8044B704734B1226000221A605DF8044B704770470260F7E700BF1B
:2043400000B58BB00246282168460EF089FA6946024800F0C7FF0BB05DF804FBA4AC010896
:2043600008B3F8B5002504460126104F65B1EB070FD53846217800F0B5FF082E12D00135EB
:2043800001360134002DF2D13846217800F0AAFFF5E72E2001F058F93846217800F0A2FFFD
:2043A000082EECD1F8BD024800F09CBFB8AC0108A8AC010804291AD8F8B50D460746014643
:2043C0000B4815F0EBFA0B4C0646216871B11EB1384615F0E3FA28B9D4E90123AB42A8BF0D
:2043E0002B46136054F80C1F0029F0D1F8BD7047C0AC0108A8140020D0B1F8B50E4F39688F
:2044000099B106463D46002403E055F80C1F013459B1304615F0C2FA0028F6D104EB440468
:2044200007EB840463681868F8BD4FF0FF30F8BD4FF0FF30704700BFA814002004289ABF9A
:20444000024B53F820000248704700BF4CAD0108C4AC010808B501F07DF9014B187008BDAC
:2044600045890020034B062019784A1C1A7000F0F5BD00BF45890020F8B5FCF73DF8104ED7
:204480000025344607460C2000F0FCFD2146FFF7E9FE103420B90135102DF4D10020F8BDAD
:2044A000062000F0E1FD06EB05152B7B8342F5D1A868381AB0F5206F8CBF00200120F8BDF5
:2044C0005C23002070B5184E002435460C2000F0D9FD2946FFF7C6FE103510BB0134102C77
:2044E000F4D10F2406EB041C64465CF8100DDCF80410DCF80820DCF80C3066450FC4F3D162
:20450000062000F0B1FD3073FBF7F6FF03460C20B36000F0B7FDBDE8704001460248FFF745
:204520009BBE002CDED1EBE75C23002010B5044642880021406815F053F923886288A06846
:204540000021BDE8104003FB02F215F049B900BF30B44588ADB10022436802E00132AA42B0
:204560000CD019460C780133002CF7D101230B700588806802FB050030BC7047002030BC8F
:2045800070472846F8E700BF10B4448882685CB18A420ED00023B0F800C001E0914209D00F
:2045A0000133A3426244F9D14FF0FF305DF8044B704700234268D15C0029F5D00021D1547B
:2045C00008465DF8044B704783688B4208D84288008800FB023081422CBF00200120704775
:2045E000002070474188034649B100205B68194413F8012B02B901308B42F9D170470846D9
:20460000704700BF10B50023042206210220FEF7D1FA0023012205210220FEF7CBFA0321A1
:20462000002308460422FEF7C5FA0023042202210320FEF7BFFA0023042207210220FEF76A
:20464000B9FA0221002308460422FEF7B3FA01230B2203210020FEF7ADFABDE81040012301
:204660000B2204210020FEF7A5BA00BF38B50D4B0D4D1C68002818BF05463CB12846211DAF
:20468000FFF7F0FD28B92468002CF7D14FF0FF3038BD064A064B9068201A801003FB00F022
:2046A00038BD00BF8C2400209CAC010848150020ABAAAAAAF8B50F4B1C68C4B100200E4F82
:2046C0000E4E0F4D03E002F017FD246874B1B368E31A9B1005FB03F3FB5C002BF5D1211D49
:2046E0000028F0D124680846002CF0D1F8BD2046F8BD00BF8C2400207C240020481500206E
:20470000ABAAAAAA2DE9F04705460F46214CDFF898A0DFF88490DFF8848004F1200654F85A
:20472000041FB9B18A68AAB1A5B1D9F80830EB1A4FEAA30C0C3308FB0CFC0BD04868CB684B
:2047400000FB0C3030B109681AF80C300B41DB0700D59047B442E2D1C5B10F4B0F4A9B68D3
:20476000EB1A9B1002FB03F300220D490D48CA5429460AF80320FFF7C9FD0FB9BDE8F08777
:204780002946BDE8F0470448FFF7FEBE4FF0FF33EAE700BF5824002048150020ABAAAAAA0D
:2047A0007C2400208C24002064250020034638B10268072A04D80D4850F82220934211D082
:2047C0000B480268072A0BD810B499600749541C1A60046041F8223001205DF8044B7047A6
:2047E0000020704701209960704700BF5C24002060250020844638B339B3F0B5C4684568EE
:204800000B1B93FBF5F3591C1CD0114A03EB4303966816EB830315D00E4FDFF83CE01B68CF
:20482000991B8A1073B10C3107FB02F20AD002FB054030B1DCF800101EF802200A41D20796
:20484000EDD5F0BD0020F0BD70470846704700BF48150020ABAAAAAA64250020124B1968F4
:20486000F9B1124B9B68C91AD0B111F10C0F17D00F4B891001FB03F34268C16802FB0311FD
:2048800079B110B40B4C0268E35C1341DB0703D508465DF8044B70475DF8044BFFF7AABF70
:2048A0000021FFF7A7BF00BF8C24002048150020ABAAAAAA6425002010B504460846FFF7CA
:2048C000D5FE84B1431C02460DD06068E36800FB023038B1054B21689B5C0B4113F0010FF4
:2048E00008BF002010BD002010BD00BF642500202DE9F041002837D00C463C4B05460029EC
:2049000008BF1C462146FFF7D7FFF0B100262046FFF7ACFE471C2BD06A68EC68002102FBCC
:204920000044204614F05CFFEB686A68E31A93FBF2F35A1C06D001222D492D68C85CAA4051
:204940000243CA542046BDE8F0812046FFF78EFE0130DBD12748FFF745FE0028D6D1FFF746
:20496000A9FE06460028D2D100242046BDE8F081DFF880804046FFF7EBFD0746B0B1394671
:204980001D48FFF777FCD8F808302146381DFC1AFFF762FC14F10C0F1BD100210C4608464E
:2049A0006A6814F01DFF2046BDE8F081002EDBD03046FFF75BFE411CD6D0D8F8083000EBF5
:2049C000400013EB8007CFD000213846FFF79AFED5E70A4BA41004FB03F36A68EC68002145
:2049E00002FB0344204614F0FBFE9DE79CAC010864250020481500208C240020ABAAAAAA9C
:204A000020B321B3C3684268CB1A93FBF2F35A1C1DD0012230B5104C056814F803C002FAC3
:204A200005FE2CEA0E0C04F803C0C4684368091B91FBF3F14B1C0CD0084C0068635C02FA5F
:204A400000F023EA00036354104630BD704700207047104630BD00BF642500207C24002063
:204A6000A0B1A1B1C2684368891A91FBF3F35A1C0DD0012110B4074C0268E05C01FA02F288
:204A80000243E25408465DF8044B704770470020704700BF7C240020A8B1A9B1C26843685D
:204AA000891A91FBF3F35A1C0ED0012110B4074C0068E25C01FA00F022EA0002E254084631
:204AC0005DF8044B70477047002070477C24002088B179B1C2684368881A90FBF3F0431C86
:204AE00008D0054B00EB4000996811EB800002D004307047002070474815002070B50B4B5A
:204B00001C685CB105460E46012D09D01DB963680BB1984718B92468002CF5D1002070BD86
:204B2000A368002BF7D030469847F3E77425002047F6FF739A4276D001294BD8F0B53B4B47
:204B4000CC0003EBC10513F8311095F802E0012953D0686800283CD0B0F9001091423EDA25
:204B60008288FF2A43D000252826C822521A92FBF6F223445C782A4412B294422CDC621EE6
:204B800012B22B4D4FEAC20C02E0B6889E4215D38444DCF80860BCF80630013211FB036357
:204BA00023EAE3735C33A5FB037312B2944200EBC2064FEAC20C4FEA9313E6DC00EBC20249
:204BC00032F8040C834228BF0346734538BF7346D8B2F0BD00207047002AD2DACFE7B0F9FB
:204BE00002109142B8BF11468288FF2ABBD10125B0F90620B0F90860B8E795F803C000202E
:204C0000ACEB0E0107E06C6834F913409442D4BF184603F1FF310B1A8842A1EB5303F2D332
:204C20007144C8B2F0BDFF20704700BF78250020D34D6210012967D8F0B5354B13F83100EA
:204C4000012844D003EBC1014C68002C5ED08B78934239D2CB7893424FD9A38891F801E0A1
:204C6000A3F1FF03B3FA83F30EF1FF3E5B095FFA8EFE734504F104070DD296B204F10C0511
:204C800002E0E6450B463DD935F83300591CB0425FFA81FCF5D24FF47A7606FB02F207EB22
:204CA000C303B3F902105B6801EBD175D31A03EB650393FBF1F3B4F90000984203DBB4F9B4
:204CC000020098421CDDF0BDB4F90200F0BD03EBC100C4788578C900944294BFC5EB040068
:204CE000C5EB0200641BC2B2A242C8BF002219444B68D8BF5200985EF0BDB4F90000F0BD8C
:204D000018B2F0BD6346C6E7024870470148F0BD782500200080FFFF10B5074C204615F011
:204D200058F9A446054CBCE80F000FC49CE8030084E8030010BD00BF60AD0108782500200C
:204D400030B583B0044615F067F908B103B030BD2046694615F03FF988B90E4A9DF8003083
:204D600012789A42F2D0032B0AD020460EF0BEF805462046074915F01BF918B1FEE7FEE73C
:204D80006425F6E72946204615F027F90028DDD0FEE700BF5415002038B500230C4A0D4CF2
:204DA0000D48C2E90033C2E90233C2E904330B4D0B4A03800B4920462B801370FFF74CFAAA
:204DC00004F108000749BDE83840FFF745BA00BF20260020902500200E8900200C8900200E
:204DE000468900209CAC0108F8B500230C46124A124F134DDFF858C0124EC2E90033C2E95C
:204E00000233C2E904332B700F4905463846ACF800303380FFF720FA07F108000A49FFF7DF
:204E20001BFA802C28BF802429462246074814F0E5FB20463480F8BD202600209025002012
:204E4000468900200C8900209CAC0108A02500200E8900202DE9F0410E4A0F4B14781F8895
:204E6000E519802D03DD00252846BDE8F0810646DFF82C802246414614F0C0FB074B3A46AF
:204E800019883019214458FA81F114F0B7FB2846BDE8F081468900200C8900200E8900206A
:204EA000A025002010B5144B144C154A94F800E01B881288734452FA83F39BB21A18802ADF
:204EC00017DC013B1BB2002B0EDB0E4A591C03EB000C11446244013B11F801CD1BB2B3F17C
:204EE000FF3F02F801C9F6D1864484F800E0012010BD002010BD00BF0E8900204689002083
:204F00000C890020A025002008490A8882420BDB10B4074C80B22388121A03440A80012058
:204F200023805DF8044B7047002070470C8900200E890020014B1880704700BF0C89002021
:204F4000044A054B12881B780448134450FA83F0704700BF0E89002046890020A025002025
:204F600000487047A0250020014B1888704700BF0C890020034A044B10781B881844C0B2A1
:204F8000704700BF468900200E8900200549064A064B128808781B88104453FA80F080B206
:204FA000704700BF468900200E8900200C890020064A074B074912881B7808881344DBB28D
:204FC000C0F18000C01A80B2704700BF0E890020468900200C890020844630B58E460D4CE7
:204FE0000D4D0FCCCCF80000CCF80410CCF80820CCF80C3003CCCCF81000CCF814100FCD8D
:20500000CEF80000CEF80410CEF80820CEF80C3030BD00BF2026002090250020844630B56A
:205020008E460068DCF80410DCF80820DCF80C30084C094D0FC4DCF81000DCF8141003C420
:20504000DEF80000DEF80410DEF80820DEF80C300FC530BD2026002090250020014B23F81D
:205060001010704720260020014B33F81000704720260020024B0C3803EBC000FFF7ECB876
:2050800090250020024B0C3803EBC000704700BF9025002001490248FFF7E4B89CAC01083A
:2050A000982500201F4A93689B07FCD453689907F9D4D369002BF6D15368012B03D00278B3
:2050C000184BDA6070475368012B0DD0154A93689907FCD453689B07F9D4D369002BF6D196
:2050E0000278104BDA60704710B40E4B01E0DA6912B15A68D207FAD40122022409490A4B8D
:205100000C615A60074A93689B07FCD453689C07F9D4D369002BF6D10278024BDA605DF8FB
:20512000044B704700800A5000A00A50074A93689907FCD453689B07F9D4D369002BF6D181
:20514000012303494B601361704700BF00800A5000900A50C8B94A680B7812B1127843EA56
:20516000C2034A780AB143F002038A6812B1127843EA82138A780AB143F00403CA6812B1C8
:20518000127843EA4223014A9364704700800A5008B9014B5964704700900A5008B9014BA8
:2051A0005964704700A00A5008B9014B1964704700A00A5010B9024B186C7047002070471E
:2051C00000800A5028B939B1012904D1044B186D7047002070477047014BD86C704700BF0C
:2051E00000800A5020B929B1012902D1034B1A6570477047014BDA64704700BF00800A5010
:2052000010B9024B586D70470020704700800A5000B583B001A8FDF703FE9DF80530012BCF
:205220001FD005F005FE05F08BFD05F0B5FD05F02FFD05F09DFD07F071F801213A20FCF7E4
:20524000B7F9FFF7DFF908218022114BC3F8D010C3F8A02005F040FF03B05DF804EBFEF773
:2052600069BE9DF80430002BDBD14FF48011094B09480A4A406E5966536B23F0E05343F0F6
:2052800040635363C3025CBF054B5966C9E700BF00D0035000900050008000500040005AEA
:2052A00000A0005008B506F093FC45F2786000F057FA0AF055FF02F067FFBDE80840014890
:2052C0000AF03ABF31810008704700BF06F008B80AB90020704708B508461146FBF7E6FA27
:2052E000002008BD0FB400B583B004AA52F8041B0448019207F04AF903B05DF804EB04B043
:20530000704700BF5C1500202DE9F8432E4D04462A68824255D0002A40D0134601E0002B56
:205320003CD01B689C42FAD1002B37D0274EA37B376853B1A36843B18C4206D00022832164
:20534000346004F10C0098472A68944228D02AB11368A3422FD01A46002AF9D1A37BE3B139
:2053600000232D68A373C5B14FF002084FF00109AB7BDB070ED5AB6805F10C0053B12246EB
:205380008721356085F80E809847023801280DD985F80E902D68002DEAD13760BDE8F8834E
:2053A00023682B60A37B002BDAD1F6E729462846FFF7AAFFEEE723681360A37B002BCFD1CE
:2053C000EBE71346B0E700BF9C2600209826002038B583687BB104460220A07309480D4665
:2053E000046004F10C0098470238012804D9832D02D00123A37338BD21462046BDE838408E
:20540000FFF782BF982600200022F8B51249134B0C681A70D4B101250227114E01E0246851
:20542000A4B1E37B002BFAD0A36804F10C00E581002BF4D0002282213460A77398470238D7
:20544000012804D9A5732468002CEAD1F8BD21462046FFF759FFE2E79C2600204A8900204D
:2054600098260020024B1878421C1A70704700BF48890020F8B5164A1568854207D00446B0
:2054800035B12B4600E01BB11B689C42FBD1F8BD002CFCD025600126146000220D4DA36888
:2054A0002F68A673A2815BB10A4602212C60A17304F10C00812198470238B04202D9A67358
:2054C0002F60F8BD21462046FFF71EFFF8E700BF9C260020982600208A22014B1A70704711
:2054E000488900202DE9F8432D4D2B78F3B92D4E3378BBB12C4C2D492278013B02EB42001C
:20550000013202F00702227001EB80025468DBB251F82080177A33705CB1812F1DD0A27B30
:20552000D2071CD428781844BDE8F883FFF76CFFDDE71F4A146854B9F4E7A37BD90704D5BD
:20554000424639462046FFF743FF246814B32B78002BF2D0FFF758FFEFE70122A273D4F89C
:205560000890B9F1000FDDD00223A373114B424639461C6004F10C00C8470238012805D9C2
:20558000832F03D001223378A273CBE721462046FFF7BAFE337828781844BDE8F88300BFF0
:2055A0004A8900204989002047890020382600209C2600209826002030B4124C2378082BC8
:2055C0001CD0114D95F800C0104D9C440133DBB20CF0070C23700E4C0CEB4C0C44F82C2063
:2055E0002A7804EB8C0C9A42CCF804008CF808104FF0000000D22B7030BC7047012030BCE6
:20560000704700BF49890020478900204B8900203826002038B5837B034CDB07256801D541
:20562000FFF7D6FE256038BD9826002018B1837B013B012B00D970470123024AC373137060
:20564000704700BF4A890020FBF736B910B5044614F082FA01462046FBF728F9BDE81040BC
:205660000A20FBF729B900BF08B50448FEF75EFFBDE808400248FEF759BF00BF701500206A
:20568000641500200148FEF7ADBF00BF6415002038B50F48FEF75CFF044680B10D48FEF716
:2056A00057FF0546206060B1FFF7D4FB034605F19A0105F18200A5F88030FFF78DFC20466F
:2056C00038BD21460248FEF75FFF2C46F7E700BF641500207015002010B5044607482146BF
:2056E000FEF772FF00B910BD21680548FEF74CFF2146BDE810400148FEF746BF6415002070
:205700007015002010B5044609482146FEF75CFF00B910BD2468B4F880102046FFF764FBC4
:2057200004F19A0104F18200BDE81040FFF776BC6415002010B5044603482146FEF744FFB3
:2057400000B1206810BD00BF641500200368B3F88000704708B514F09DF880B208BD00BF92
:20576000042200B583B04FF0FF300DEB020114F00EFC019820B114F085F803B05DF804FBB2
:20578000FDF762FB019014F07DF803B05DF804FB90F805C0827903460079ACEB020230EAE8
:2057A000020209D001201A6802F80C105A79197902440A405A717047002070478179427950
:2057C00090F804C0521A12EA0C0F034606D000684A1C02EA0C02405C9A7170474FF0FF3047
:2057E000704700BF0023013901704370837070474278817803460078511A30EA010104D039
:20580000013202405A70012070470020704700BF427883780178D31A31EA030314BF104676
:205820004FF0FF30704700BF837842780178D21A0A420FBF4FF0FF335A1C0A4082701846CF
:20584000704700BF8278437801789B1A0B4214BF10464FF0FF30704770B5134E337803B16F
:2058600070BD04460D460BF071FA034684B10F4B2068616803C395B10D4BA868E96803C344
:205880000122002109480BF077FB0123337070BD59689A68054C0068DB680FC4EBE7054960
:2058A00002480BF011FDEBE74C890020A0520020A8520020B0860020002110B5084682B0E6
:2058C0000C46FFF7C9FF174B03F1540193F820201AB193F82120012A15D01C338B42F5D1B9
:2058E00020460BF0C9FA04B9C8B102F0F1FA4023024621460020009300F0B4FB00F02EFAF5
:20590000002002B010BD1A7CFE2A02D003F11004E3E75A7C802AE0D003F11004DDE74FF04B
:20592000FF30EEE780810020054B187B30B1B3F84E00DB8AC01AB0FA80F04009704700BF6D
:20594000B05200202DE9F04716461B4CDFF86C9080460D464FF4B072002120461F469DF843
:2059600024A013F03DFFB9F82030B34205D152463846089902F006FB18B900263046BDE89C
:20598000F08701264FF0FF33F0224FF2F00184F80D80A4F85810E2732673E364A4F8503056
:2059A000C4F8089028686968AA68EB681C340FC43046BDE8F08700BFB0520020AC15002056
:2059C00010B5044690F8510094F8503082B0228A0190207E2146009304F13C03FFF7B2FFF1
:2059E000F8B100220120104B617DB4F81AC09973616DA3F810C01960216A5961217F99744C
:205A0000617F1976E18B83F85C205983A17D83F85410217D83F85310E17D83F8552083F896
:205A2000521002B010BD00BFB05200202DE9F0414F4D2B7BB5F84E40002B74D195F85C3057
:205A4000032B5DD0FFF770FF064620B1AB68BDE8F041DB691847D5F8448001F0ADFD01F0C0
:205A60003FFD686C01F00AFD0346424FA5F84E303868FEF7F3FE0446002838D1B8F1000F70
:205A80005AD0B5F84E30B5F84C209A4201D9A5F84C304FF6FF72B5F8503093420AD0B5F88A
:205AA0004E10914206D0CB1A002BB8BF5B42B3F5007F44DC95F85B30002BC7D06B6C002B98
:205AC00043D0B8F1000F4AD001F06AFF002385F85B30AB68BDE8F041DB69184723683BB357
:205AE00021463868FEF786FE04460028C6D0204601F0C4FCB5F84E308342EFD82660EFE7F4
:205B0000002001F0EDFC4FF6FF739C42A5F84E309CD0194801F010FF02F0B8F8AB68BDE8B4
:205B2000F041DB69184705F16400FAF78DFE85E7FAF7E2FC2060D3E7B5F84E30A7E70F4836
:205B4000A5F8501001F0F8FEB4E70B4885F85C3001F0F2FE01F082FE02F098F8B6E70123D5
:205B6000074885F85C3001F0E7FE02F07BF8ABE7B0520020D0150020DCAD0108ECAD0108A5
:205B800004AE0108094A137B73B110B4044640B102F11C0CBCE80F00206001206160A26014
:205BA000E3605DF8044B704718467047B052002010B5FFF7B9FE134C78B994F9582094F87D
:205BC0005830002A03F10103B4BFDBB203F07F03002084F8583001F0D9F8FEF70BFB01F0D4
:205BE000AFFC0BF0BBFF02F0A7F894F841305B0602D40023237310BD034802F09FF9002302
:205C0000237310BDB0520020DC5200200322024B83F85C2002F0B2B8B052002008B50F4BB3
:205C20001A7B8AB19A6C511C0ED082420DD9101AB0F5967F986407D2586C28B101F02AFC2C
:205C4000BDE8084000F048BF08BD00210322996483F85C20BDE8084002F090B8B052002018
:205C600010B5084C237B5BB194F840200146D20804F11C0013F092FCB0FA80F0400910BD82
:205C8000184610BDB052002008B5FFF74DFE50B1054A92F90F10D37B002903F10103A8BFE9
:205CA00003F07F03D37308BDB052002010B5FFF73BFE88B1F021114C94F9522094F852309A
:205CC000002A03F10103227BB4BFDBB203F07F0384F85230E17302B910BDFFF725FE08B9DC
:205CE00084F85C00A3681B68984701F029FC044801F022FEBDE8104002F040B8B0520020EB
:205D000010AE010810B50A4C237B03B910BDFFF70BFE08B984F85C00A3681B68984701F084
:205D20000FFC044801F008FEBDE8104002F026B8B052002010AE0108074B9A7B187B1AB99A
:205D4000003818BF0120704728B193F85C00012894BF002001207047B0520020024B1B7B23
:205D600003B97047FFF762BEB05200202DE9F041754D06462B7B0C462BB16A7B237E9A42ED
:205D800009D0BDE8F081FFF7CFFD98B12B7B002BF3D1BDE8F081102221466C4813F0FEFB15
:205DA0000028EED1628AEB8A9A4216D2BDE8F041FFF73CBE637D012BE3D82046FFF700FEF0
:205DC0000028DED0AB681B689847614801F0B4FD01F002FF01F05AFFD8E7E17D95F85200F5
:205DE00002F058F8002841D14FF6FF73628A9A4204D095F85730013385F8573095F8521099
:205E0000E07D02F047F848B1B5F84E20EB8A9A4258D0FFF789FD0746002869D022460121B3
:205E2000304600F03DFEE8B1304601F0B7FB0746002844D090F80680304601F0AFFB00283F
:205E400047D0638A8380637E8371AB6CB3B96B8BC3EB03135B01AB64AB7B1BB117B16B6C2D
:205E60009F4218D02B7B002B8BD09FE7628AEB8A9A42F7D1374801F05FFDF3E7002FF1D00C
:205E80006B6C9F42EED16B8BAA7BC3EB03135B01AB64002AE6D04146607E01F0FBFF0028E9
:205EA000E0D095F90F20EB7B002A03F10103B4BFDBB203F07F03EB7301F072FDD2E74FF0C2
:205EC000F008B9E7E37D244885F85230FFF7EEFEA4E730460AF02CFE0028C3D01F4B0146EC
:205EE000012218682346FEF703FD0028A9D1B9E701F022FF384601F0F3FA637D012B12D9FA
:205F00002B7B002B8AD0FFF70FFD08B985F85C00AB681B68984701F013FB114801F00CFDF3
:205F200001F02CFF7AE72046FFF74AFD0028E7D0AB681B689847064801F0FEFC01F04CFE79
:205F400001F0A4FEDCE700BFB0520020CC52002020AE010828AE010844AE0108D015002016
:205F600010AE010811B1084801F0E6BC10B50A460321044600F094FD20B12046BDE8104085
:205F800000F0C6BD10BD00BF60AE010838B5054691F823000C46C0B1FF2816BF0D4B4FF0B1
:205FA000FF335B8B0A4618BF4343294600200BF02FFD18B194F92530002B00DB38BD284652
:205FC000218CBDE8384001F00DBD0A4629460BF0FBFCEFE7B052002070B5154D0E4695F82B
:205FE0005910044601F056FF08B185F8594095F85830A34200D070BD95F85C3076B2012B75
:2060000007D001F013FD002EF5DA032385F85C3070BD002E02DA01F009FDF6E702230548FF
:2060200085F85C3001F088FCBDE8704001F0FEBCB052002070AE010870B505460E461C4673
:206040003AB924B11DB1064BAE801B7B23B9012070BD01F08BFCF4E7FFF7E8FC012070BDF0
:20606000B05200202DE9F047284C82B094F80CC005460E46174698469DF828A0BCF1000FC0
:206080000AD0102204F11C0013F088FA80B34FF0F009FFF78DFD01E04FF0F0093B46314662
:2060A00028460122CDE9008AFFF74CFC40F6084200231E2101202282154A80252176A37478
:2060C0003C21626184F853300222A4F854304FF0FF33A0730F4884F85290A4F84E50618306
:2060E00084F85C20A36402B0BDE8F04701F024BC94F9523094F85290002B09F10109B4BF23
:206100005FFA89F909F07F09C3E700BFB0520020000480007CAE01084FF4B0720021014812
:2061200013F05EBBB0520020104A907918B992F82A10632901D00120704792F82910A1B9D7
:2061400092F82B30042B0FD1094B187B68B1587B92F82DC0844507D1B3F84E3001205BBA01
:20616000D38582F82DC07047084670471C860020B052002070B51B4905462B2209881A48AC
:206180000CF018FA04461948FFF76AFD10B90024204670BD164900200BF0CAFB1349064682
:2061A00000200BF0C5FB14B1A278032A06D00028EDD0002EEBD04369B342E8D14FF0000CAF
:2061C00048F2FE0E0124094E0FCEA5F802C0AA60EB60A5F800E0A5F804C0A5F806C02046C5
:2061E00070BD00BF208900201C86002034860020CC5200202DE9F0432B4B2B2219882B48F0
:2062000085B00CF0D7F9044610B18378032B03D0002005B0BDE8F083C278002A3FD063783B
:20622000017901336679DB00DBB201F00F05A3EB161309092B44C1F11000183B93FBF0F3A6
:206240000133DBB29A42E3D8012A18BF0D469B1ADBB203FB00F0154F0830E31B103303443D
:206260005B1B8C2BD4D8E846261805F1180CC5F1100907F118030FCB88E80F0031464A467D
:2062800007EB0C0013F0BAF94A46304608EB050113F0B4F9E3780120013BE370B9E70120CF
:2062A00005B0BDE8F08300BF208900201C8600204378002B37D140F263432DE9F041425A1E
:2062C00044189A422CD1194D2B7B4BB36A7BE3789A4225D1A3789A0622D4154A0C20DE094A
:2062E000D2F80080A788FEF7CDFE01464046FEF7E3FA7FBAB5F84E10BFB2B94294BF0021A2
:206300000121A5788E42C5F380131CBF45F04005A57086EA01023946BDE8F041FFF78CBEB1
:206320000020BDE8F0810020704700BFB0520020D01500202DE9F0412A4F2B4E82B00123DB
:20634000304639880DF107020CF0C6F8002841D09DF80730062B3DD0044606F1060814E0BF
:2063600013B9A378632B16D03988A31BC91A204600230DF1070289B20CF0AEF8044648B3AE
:206380009DF807308046062B24D0112B22D03A2B20D02B2BE4D1237888F80030657801355A
:2063A000ED0068420CF064F8C0B139883046283989B20CF087F83A88A31B9A420EDDD21AFC
:2063C0002046611913F090F998F80030062B8DF80730DAD1012002B0BDE8F081002002B03E
:2063E000BDE8F081208900201C8600202DE9F04FDFF8908289B098F80C3053B348F2FE0378
:206400009A4C228B9A4224D0237EFF2B21D0FFF78BFA054678B904F108000AF02DFD28B16C
:20642000934BE27993F806319A4217D009B0BDE8F04FFFF779BE04F11807FFF77BFF3846D2
:20644000FFF70EFC28B1394600200BF071FA064658BB0125284609B0BDE8F08F854E328801
:20646000B2F59F6FF6D804F12801283A04F1300013F03AF940F26342A37998F80D1084F8A2
:206480002830B8F84E30C4F829505BBA84F82D10A571E385628508200BF0EAFF31882046E3
:2064A000283989B20CF00EF8C0E7002008F11C010BF03EFA0190002847D0394600200BF0C4
:2064C0005DFA002841D0D6F814A0BAF1000F00F0BC80019B534500F0C0804FF000090F25E4
:2064E000654B0DF110089B69039602935146029B40469847DFF890E12946C346704642460D
:20650000002312F8016B10F801CFB44502D10133102BF6D19D420CDADAF814A009F10103BF
:20652000DBB2BAF1000F14D0019A524511D09946DCE700211BF8013B1EF8012F9A4206D112
:2065400001311029F6D10D46E6E7002582E7CDB2E2E7C1F1100AC5F118081AFB09885FFA72
:2065600088F918F007081FBFC8F108085FFA88F8C1445FFA89F99B464B46039E3D4A0293F4
:206580001288D118B1F5A06FDFDC3C49283A08882830211848442044039113F0A5F8039940
:2065A0004A460846002113F01BF92B22029BA179A271B3F1080248BF03F1FF320323D210CC
:2065C00084F829202C4A84F82BB0D2F818B005EB051284F82C204FEA081284F82A3084F823
:2065E0002810274B84F82D20A9EB08040DF110084544CDF80890C146DDF804801C447269F1
:20660000A4EB0A0490450AD031464846D84752462946204612F0F2FF7669002EEFD1C846CF
:20662000DDF8089031464046D84798E80F0087E80F0048460BF01CFF0E4B0C4819880125AC
:20664000283989B20BF03EFF04E7D34608230F254FF0010AD846994690E708234FF0000BD0
:206660000F254FF0010A9946D84687E71C8600208081002020890020FCAE01081E8900200B
:2066800044860020B05200203386002008B50C4A137B43B10B4B0C491B88507B2C335A5C52
:2066A0000B44904203D0BDE808400BF0C7BED9789878FFF791FCBDE808400BF0BFBE00BF71
:2066C000B05200201E8900201C8600202DE9F0418EB02622002104A813F082F8444A454BDA
:2066E0001188454C01F12C02D618207BD25C8DF8322010B1607B904204D00BF09FFE0EB02A
:20670000BDE8F08100226F463C4808330588CDE904222C3D6D1AADB2032DCDE906220FCB2D
:2067200087E80F00E9D9237EF2788DF833307378ADF830208DF835305B0647D40424AC42CA
:2067400050DA4FF0000820E0621CAA42D5DA3219507802300444AC42CFDC052B21D103283C
:20676000CBDD7318DA788DF834200732D210131D8342C2D10431314408A8CDE90888CDE9C2
:206780000A8812F03BFFAC422CDA335D2146002BDAD10134A542F6DA0BF050FE0EB0BDE8D2
:2067A000F081062BEFD10528A7DD73185B7913288DF83330E7DD0631731870589A68596833
:2067C000DB680DF1100CACE80F00DCE7132D94D9102204F11C00311D12F0E0FE00288CD153
:2067E0001424ACE7384604A9FFF7D0FB85E700BF1E8900201C860020B05200202089002043
:2068000008B5084B1B7B4BB10748017E0830A1F1FF01B1FA81F14909FFF7A4FBBDE808404D
:206820000BF00CBEB05200201C860020F0B59DB05C22002105A812F0D3FF1E223C2340F6C8
:2068400008400121924C934D24882D882C3CDFF84CC2641BA4B28DF831208F4AADF83230D7
:2068600001AE0CF10803172CADF82E00ADF824100D920FCB86E80F0003D80BF0DFFD1DB0FD
:20688000F0BD05F12C0303EB0C0513F80C3095F804C08DF82C306B882CF07F0E5BBAADF858
:2068A00026306B78E9688DF82B306B79A8688DF82D302A696B698DF828E005AFCCF3C20E61
:2068C000182C0CF0070C8DF829E08DF82AC00FC718BF182100F0D6806A5C002ACDD04B1C48
:2068E000A342CADA6B18587802300F18A742C4DC023A062AC1D80FF2080C5CF822F000BF9B
:20690000156A0008BD6900086D6900087B6800087B6800087B6800081D6900082028ACD1D0
